:10000000F5C0000023C1000021C100001FC1000095
:100010001DC100001BC1000019C1000017C1000074
:1000200015C1000013C1000011C100000FC1000084
:100030000DC100000BC1000009C1000007C1000094
:1000400005C1000003C1000001C10000FFC00000A5
:1000500078C60000FBC00000F9C0000028C6000000
:10006000F5C00000EEC50000C3C50000EFC00000F1
:10007000EDC00000EBC00000E9C00000E7C00000D8
:10008000E5C00000E3C00000E1C00000DFC00000E8
:10009000DDC00000DBC00000D9C00000D7C00000F8
:1000A000D5C00000D3C00000D1C00000CFC0000008
:1000B000CDC00000CBC00000C9C00000C7C0000018
:1000C000C5C00000C3C00000C1C000005BC5000087
:1000D00030C50000BBC00000B9C00000B7C00000C0
:1000E000B5C0000000000A0B02090C0D0E08070342
:1000F00004010000000000000000000000000000FB
:1001000000000000000000000000000000000000EF
:1001100012111000000000000000000000000000AC
:100120000000000000000000000000002200250088
:1001300028002B002E0031003400020100000501D0
:1001400008010B0100002100240027002A002D00D7
:100150003000330001010000040107010A01050518
:100160000505070508080808020202020A0A08082D
:10017000040404040101010101010101030303035B
:1001800003030303040707070C0C0C0C0C0C0C0CEA
:100190000202020206060606060606060B0B0B0BFB
:1001A0000B0B0B0B01021020200808102040102020
:1001B000408002010201080402010102040810202B
:1001C0004080804020100804020180040201804029
:1001D0002010080402010804020101020408102092
:1001E00040800102040810204080E40611241FBE54
:1001F000CFEFD1E2DEBFCDBF00E00CBF12E0A0E048
:10020000B2E0E2EAF0E200E00BBF02C007900D921C
:10021000A037B107D9F724E0A0E7B2E001C01D92F2
:10022000A130B207E1F710E0C6EFD0E000E006C071
:1002300021970109802FFE010E944710C53FD10779
:1002400080E00807A9F72FD60C944F10D9CE90E084
:10025000FC01EC55FE4F2491825A9E4FFC01849183
:10026000882399F090E0880F991FFC01EC5BFE4F0A
:10027000A591B491FC01E65DFE4F859194918FB7F5
:10028000F894EC91E22BEC938FBF089580917B0062
:10029000877F80937B0080E480937C0080917A004C
:1002A000806480937A0080917A0086FDFCCF8091F3
:1002B0007800909179000895AF92BF92CF92DF922B
:1002C000EF92FF920F931F93CF93DF936C017B010B
:1002D0008B01040F151FEB015E01AE18BF08C0179C
:1002E000D10759F06991D601ED91FC910190F0810F
:1002F000E02DC6011995892B79F7C501DF91CF91C2
:100300001F910F91FF90EF90DF90CF90BF90AF9033
:100310000895FC01538D448D252F30E0842F90E00B
:10032000821B930B541710F0CF96089501970895F0
:10033000FC01918D828D981761F0A28DAE0FBF2FB9
:10034000B11D5D968C91928D9F5F9F73928F90E00F
:1003500008958FEF9FEF0895FC01918D828D98177E
:1003600031F0828DE80FF11D858D90E008958FEFBB
:100370009FEF0895FC01918D228D892F90E0805C84
:100380009F4F821B91098F73992708958FEA92E0FE
:10039000F1DF21E0892B09F420E0822F08958CE41D
:1003A00093E0E8DF21E0892B09F420E0822F089513
:1003B000FC01A48DA80FB92FB11DA35ABF4F2C91DA
:1003C000848D90E001968F739927848FA689B789D1
:1003D0002C93A089B1898C91837080648C93938DC8
:1003E000848D981306C00288F389E02D80818F7D6B
:1003F00080830895EF92FF920F931F93CF93DF9323
:10040000EC0181E0888F9B8D8C8D98131AC0E88950
:10041000F989808185FF15C09FB7F894EE89FF891F
:100420006083E889F98980818370806480839FBFBD
:1004300081E090E0DF91CF911F910F91FF90EF90BD
:100440000895F62E0B8D10E00F5F1F4F0F731127CD
:10045000E02E8C8D8E110BC00FB607FCFACFE88909
:10046000F989808185FFF5CFCE01A2DFF2CFEB8D38
:10047000EC0FFD2FF11DE35AFF4FF0829FB7F89468
:100480000B8FEA89FB8980818062D0CFCF93DF9385
:10049000EC01888D8823B1F0AA89BB89E889F989A4
:1004A0008C9185FD03C0808186FD0CC00FB607FCD2
:1004B000F7CF8C9185FFF2CF808185FFEDCFCE0104
:1004C00077DFEACFDF91CF91089580E090E0892B2C
:1004D00021F065DF81110E94000080E090E0892B0F
:1004E00049F080E090E0892B29F00E940000811102
:1004F0000E94000080E090E0892B21F047DF81110D
:100500000E94000080E090E0892B49F080E090E0BC
:10051000892B29F00E94000081110C94000008959D
:10052000282F30E0F901EC51FF4F9491F901EC557F
:10053000FE4F4491225A3E4FF9012491222309F49F
:1005400035C0992311F191509231F8F4E92FF0E080
:100550008827E255FD4F8F4F0C944710DF02E302CE
:10056000C002D702DB02C502E602EC02F002F6028C
:10057000FA02FE0204030803C5020C031203160369
:10058000809180008F7780938000E22FF0E0EE0F63
:10059000FF1FE65DFE4FA591B4918FB7F894EC91E3
:1005A000611148C040954E234C938FBF08958091B0
:1005B00080008F7DE8CF80918000877FE4CF84B575
:1005C0008F7784BDE2CF84B58F7DFBCF8091B00063
:1005D0008F778093B000D9CF8091B0008F7DF9CF15
:1005E000809190008F7780939000CFCF8091900082
:1005F0008F7DF9CF80919000877FF5CF8091A0000B
:100600008F778093A000C1CF8091A0008F7DF9CF1C
:100610008091A000877FF5CF809120018F77809314
:100620002001B3CF809120018F7DF9CF80912001EF
:10063000877FF5CF4E2BB8CF089590E080E00895E6
:10064000FB0101900020E9F73197AF01461B570BE2
:10065000DC01ED91FC910280F381E02D19948F92E1
:100660009F92AF92BF92EF92FF920F931F93CF93FF
:10067000DF93CDB7DEB7A1970FB6F894DEBF0FBEFC
:10068000CDBF7C01FA01CB0119A2223008F42AE087
:100690008E010F5D1F4F822E912CB12CA12CBF011A
:1006A000A50194010E942510F901CA016A3004F5E0
:1006B000605DD8016E938D01232B242B252B79F7B8
:1006C00090E080E0109719F0BD01C701B9DFA19655
:1006D0000FB6F894DEBF0FBECDBFDF91CF911F9153
:1006E0000F91FF90EF90BF90AF909F908F900895E3
:1006F000695CDFCFA5CF2F923F924F925F926F92AE
:100700007F928F929F92AF92BF92CF92DF92EF92A1
:10071000FF921F93CF93DF93EC016A017B01722E4E
:10072000AB019601CB01B6010E94211064E372E097
:10073000811126C046015701E894B7F82FEF3FEF2B
:100740004FE75FE7C501B4010E94211081110CC081
:100750002FEF3FEF4FE75FE7C501B4010E94700E36
:1007600068E372E0181664F02FEF3FEF4FE75FE4A5
:10077000C701B6010E94BA0F1816ACF46CE372E020
:10078000CE01DF91CF911F91FF90EF90DF90CF903E
:10079000BF90AF909F908F907F906F905F904F90A1
:1007A0003F902F904DCF2FEF3FEF4FE75FECC7010A
:1007B000B6010E94700E87FDE1CF20E030E0A90174
:1007C000C701B6010E94700E312C212C87FF0DC08D
:1007D000E881F9810190F081E02D6DE2CE0119955B
:1007E0001C01F7FAF094F7F8F09410E060E070E084
:1007F00080E09FE3711641F020E030E040E251E4F8
:100800000E94740E1F5FF6CFA70196010E940C0E86
:100810002B013C010E94DC0E4B015C012AE0BC0173
:10082000A401CE011CDF7C01E20CF31C1123D9F1E1
:10083000C501B4010E94080F9B01AC01C301B201C4
:100840000E940B0E4B015C01E881F9810190F0815F
:10085000E02D6EE2CE011995E80EF91E115018F147
:1008600020E030E040E251E4C501B4010E94BE0F37
:100870002B013C010E94DC0E4B01B12CA12C2AE083
:10088000B501A401CE01EBDEE80EF91EC501B401ED
:100890000E94080F9B01AC01C301B2010E940B0E24
:1008A0004B015C01DBCFC701DF91CF911F91FF901E
:1008B000EF90DF90CF90BF90AF909F908F907F9000
:1008C0006F905F904F903F902F900895CF93DF935C
:1008D000EC0160E08E8124DE61E08E8121DE60E04B
:1008E0008E811EDE8BE891E00197F1F7DF91CF91C9
:1008F0000895CF92DF92EF92FF920F931F93CF93C1
:10090000DF936C017C0187E0E80EF11CD0E0C0E0D1
:10091000062F10E0B8010C2E02C0759567950A9459
:10092000E2F76170F70181917F01FADD2196C43011
:10093000D10581F7C601DF91CF911F910F91FF90F3
:10094000EF90DF90CF90C2CFCF92DF92EF92FF92E5
:100950000F931F93CF93DF93EC01F62E642F8C81BE
:10096000DFDD8D818F3F11F060E0DADD0F2D10E0CB
:100970008F8584FF23C06E0187E0C80ED11CF12C47
:10098000E12CB8010E2C02C0759567950A94E2F728
:100990006170F60181916F01C3DDFFEFEF1AFF0A6D
:1009A00088E0E816F10469F7CE01DF91CF911F913D
:1009B0000F91FF90EF90DF90CF9088CFB80184E047
:1009C000759567958A95E1F7CE0193DF6F2DCE017E
:1009D000DF91CF911F910F91FF90EF90DF90CF901B
:1009E00088CF40E0682F89EE93E0AECFCF93DF93BE
:1009F000823029F49091F80398609093F8038093E3
:100A0000FC031092FD0380E48093FE0380E1809359
:100A1000FF0380E5809300048091ED0318DC809152
:100A2000EE038F3F09F013DC8091EF0310DCC9EE79
:100A3000D3E09E01295E33408091F80384FD09C014
:100A400084E090E021962817390734F48E81FFDB8B
:100A5000F0CF88E090E0F6CF8BE39DE00197F1F7CF
:100A600060E08091ED035CDD60E08091EF0358DD94
:100A70008091EE038F3F11F060E052DD8091F8032A
:100A800084FD31C063E089EE93E033DFCBE4D6E44C
:100A9000CE010197F1F763E089EE93E02ADF219719
:100AA000F1F763E089EE93E024DF83E592E00197BC
:100AB000F1F762E089EE93E01CDF8091F803806239
:100AC00090DF84E08093F9038CE08BDF81E089DFA5
:100AD0008BE39FE10197F1F782E08093FA0386E0D0
:100AE000DF91CF917ECF80627CDF8BE496E401972B
:100AF000F1F78091F803806274DF83E592E001975B
:100B0000F1F78091F80380626CDFD7CF9091FC03FE
:100B1000691710F06FEF690FE62FF0E0E751FC4F17
:100B20009489890F80685DCF41E00EDF81E090E01D
:100B300008951F920F920FB60F9211240BB60F92C9
:100B40002F933F934F935F936F937F938F939F93D5
:100B5000AF93BF93EF93FF938FEA92E029DCFF916D
:100B6000EF91BF91AF919F918F917F916F915F9125
:100B70004F913F912F910F900BBE0F900FBE0F9092
:100B80001F9018951F920F920FB60F9211240BB65B
:100B90000F922F938F939F93EF93FF93E091BF0258
:100BA000F091C0028081E091C502F091C60282FD01
:100BB0001DC090818091C8028F5F8F732091C90200
:100BC000821741F0E091C802F0E0E155FD4F958FAA
:100BD0008093C802FF91EF919F918F912F910F9079
:100BE0000BBE0F900FBE0F901F9018958081F2CF13
:100BF0001F920F920FB60F9211240BB60F922F93E4
:100C00003F934F935F936F937F938F939F93AF9394
:100C1000BF93EF93FF938CE493E0CADBFF91EF91D6
:100C2000BF91AF919F918F917F916F915F914F9104
:100C30003F912F910F900BBE0F900FBE0F901F9002
:100C400018951F920F920FB60F9211240BB60F92A8
:100C50002F938F939F93EF93FF93E0915C03F09119
:100C60005D038081E0916203F091630382FD1DC00A
:100C70009081809165038F5F8F7320916603821747
:100C800041F0E0916503F0E0E45BFC4F958F8093C9
:100C90006503FF91EF919F918F912F910F900BBE64
:100CA0000F900FBE0F901F9018958081F2CF1F926A
:100CB0000F920FB60F9211242F933F938F939F9310
:100CC000AF93BF9380918D0290918E02A0918F027D
:100CD000B091900230917A0223E0230F2D3758F51E
:100CE0000196A11DB11D20937A0280938D029093ED
:100CF0008E02A0938F02B093900280917602909121
:100D00007702A0917802B09179020196A11DB11DE0
:100D10008093760290937702A0937802B093790241
:100D2000BF91AF919F918F913F912F910F900FBEE7
:100D30000F901F90189526E8230F0296A11DB11D54
:100D4000D2CF1F920F920FB60F9211248F939F93C1
:100D500081E080938C0280917402909175020097DB
:100D600029F001979093750280937402809172022A
:100D700090917302009729F00197909373028093EA
:100D800072028091970290919802009729F0019742
:100D900090939802809397028091700290917102D3
:100DA000009729F00197909371028093700286EE6C
:100DB00099EF90938500809384009F918F910F907D
:100DC0000FBE0F901F901895EFEAF2E01382128287
:100DD00048EE53E060E070E0448355836683778398
:100DE0008AE192E09183808325ED30E03587248786
:100DF00024ED30E03787268720ED30E0318B208BE3
:100E000021ED30E0338B228B22ED30E0358B248BCB
:100E100026ED30E0378B268B118E128E138E148EBA
:100E2000ECE4F3E013821282448355836683778374
:100E30009183808385EC90E09587848784EC90E0B3
:100E40009787868780EC90E0918B808B81EC90E097
:100E5000938B828B82EC90E0958B848B86EC90E078
:100E6000978B868B118E128E138E148EE9EEF3E023
:100E7000138212828CE292E09183808388E08483E3
:100E80008FEF858389E0868384E0878385E0808790
:100E900086E0818787E0828713861486158616860A
:100EA000178681E0A3CDCF93DF9300D000D01F92AF
:100EB0001F92CDB7DEB7789484B5826084BD84B5C7
:100EC000816084BD85B5826085BD85B5816085BD45
:100ED00080916E00816080936E00109281008091FD
:100EE0008100826080938100809181008160809385
:100EF0008100809180008160809380008091B100AA
:100F000084608093B1008091B00081608093B000D4
:100F10008091910082608093910080919100816026
:100F200080939100809190008160809390008091E7
:100F3000A10082608093A1008091A10081608093D4
:100F4000A1008091A00081608093A0008091210188
:100F50008260809321018091210181608093210131
:100F60008091200181608093200180917A008460CB
:100F700080937A0080917A00826080937A008091D9
:100F80007A00816080937A0080917A0080688093F3
:100F90007A001092C10083E05AD98FE258D981E3D8
:100FA00056D985E254D987E252D989E250D960E016
:100FB00083E0B6DA60E08FE2B3DA60E081E3B0DAD2
:100FC00060E085E2ADDA60E087E2AADA60E089E21B
:100FD000A7DAE0915C03F0915D0322E02083E091C9
:100FE0005C03F0915D031082E0915803F091590386
:100FF0001082E0915A03F0915B0390E1908310928C
:101000006403E0916003F091610386E28083E091E4
:101010005E03F0915F03808180618083E0915E03D5
:10102000F0915F03808188608083E0915E03F0919E
:101030005F03808180688083E0915E03F0915F03AD
:1010400080818F7D8083E091BF02F091C002208378
:10105000E091BB02F091BC021082E091BD02F091E0
:10106000BE0290831092C702E091C302F091C402C5
:1010700086E08083E091C102F091C20280818061AC
:101080008083E091C102F091C202808188608083F8
:10109000E091C102F091C202808180688083E0917A
:1010A000C102F091C20280818F7D808382E09EDC4C
:1010B00060E080E02BDD1092800010928100809132
:1010C000810085608093810086EE99EF9093850082
:1010D0008093840080916F00816080936F00809185
:1010E000120290911302A0911402B09115028D8307
:1010F0009E83AF83B8873AE0232E312C01E010E0C5
:1011000080918C02882309F444C010928C02809153
:101110008A0290918B029C012F5F3F4F30938B028C
:1011200020938A020A9734F4809188029091890270
:101130000597E4F410928B0210928A021092AE028C
:101140001092AD028D819E81AF81B88589839A838B
:10115000AB83BC83BE016F5F7F4F8CE493E070DA9A
:101160001092870210928902109288028091870261
:1011700081110FC063E68CE493E03CD961E38CE419
:1011800093E038D991E090938702109289021092EF
:1011900088028CE493E0EED8181619062CF510920C
:1011A0008B0210928A02E0908802F0908902A5E0FA
:1011B000EA16F104CCF48CE493E0BAD8F701EE0F10
:1011C000FF1FE358FD4F91838083B2E0EB16F104DB
:1011D00009F4CBC00CF045C0E114F10409F49FC040
:1011E000EA94EF2809F4ACC08091AD029091AE0270
:1011F000892B91F1C090A502D090A602E090A702A1
:10120000F090A80280910E0290910F02892B09F4B0
:1012100053C120E030E040EA50E4C701B60160D598
:1012200087FD09C020E030E048E452E4C701B60180
:10123000A1D6181624F4109296021092950280916D
:101240009502909196028130910509F4EBC008F463
:10125000BEC0029709F430C160E08FE261D960E05E
:1012600059C123E0E216F10409F48AC084E0E816CB
:10127000F10409F0B9CF80918502909186028F34F4
:10128000910509F09FC060917B0280917C02762FCE
:10129000682F072E000C880B990BBCD520E030E09E
:1012A00040E251E421D56B017C012DEC3CEC4CEC8F
:1012B0005DE360D687FF6FC01092AE021092AD0260
:1012C00030928B0220928A0240910A0250910B02C6
:1012D00060910C0270910D0222E08FEA92E00BDA2D
:1012E0006BE572E08FEA92E005DA4091A502509139
:1012F000A6026091A7027091A80222E08FEA92E014
:10130000FAD960E472E08FEA92E09AD9ADE7B2E0F0
:10131000E5E01D92EA95E9F71092870207C08091F7
:101320007D0290917E028336910529F01092890208
:101330001092880259CF109389020093880254CFEB
:1013400080917F0290918002C19741F010928902B2
:10135000109288028CE493E099D846CFA2E0B0E0E6
:10136000B0938902A09388023FCF8091810280933D
:101370007C02E3E0F0E0F0938902E093880234CF4E
:101380008091830280937B0284E090E090938902B5
:101390008093880229CF20E030E048E453E4C7017D
:1013A000B6019ED418160CF487CF1093AE020093AA
:1013B000AD02C092A502D092A602E092A702F092DE
:1013C000A80282CF30928B0220928A029FCF20E027
:1013D00030E040EE50E4C701B601CCD518160CF051
:1013E0003BCF20E030E048E452E4C701B60178D4B6
:1013F00087FF32CF10939602009395022FB7F8948F
:1014000080918D0290918E02A0918F02B0919002F6
:101410002FBF8093910290939202A0939302B09376
:1014200094021ACF2FB7F89460918D0270918E02BA
:1014300080918F02909190022FBFEAD46B017C01C2
:101440006091910270919202809193029091940226
:10145000E1D44B015C0120E030E04AE754E46091C4
:10146000060270910702809108029091090286D5C8
:101470009B01AC01C501B401CFD39B01AC01C701F5
:10148000B60178D518160CF0E7CE82E090E0909384
:101490009602809395028091A5029091A602A09158
:1014A000A702B091A80280930A0290930B02A09326
:1014B0000C02B0930D02D0CE80900A0290900B02E5
:1014C000A0900C02B0900D024090020250900302D6
:1014D0006090040270900502A3019201C501B4015D
:1014E0009BD39B01AC01C701B60144D561E018163E
:1014F0000CF4B3CEA3019201C501B4018CD39B01BE
:10150000AC01C701B601ECD360E087FFA6CE8FE245
:1015100007D861E081E304D88091AD029091AE02DA
:101520009093110280931002009709F45FC061E06C
:10153000019709F475C00E944601803591050CF0B1
:1015400077C08091A1029091A2029C012F5F3F4F32
:101550003093A2022093A102209100023091010257
:10156000821793070CF461C01092A2021092A1029C
:1015700081E090E01092A00210929F0210929E02D1
:1015800010929D0210929C0210929B0210929A025D
:10159000109299022091A9023091AA0240910E0264
:1015A00050910F028330910509F442C20CF0A4C19E
:1015B0008130910509F4A6C1029709F007C12230D4
:1015C000310509F4CDC12330310509F40FC22130B2
:1015D000310509F0FBC081E090E0452B11F090E06F
:1015E00080E090930F0280930E02F0C080919702EA
:1015F00090919802009729F43092980220929702D5
:101600009ACF60E0069764F089E20E94900261E060
:1016100087E20E94900260E085E20E9490028BCFF8
:1016200089E20E94900260E0F3CF90E080E0A2CFD8
:101630000E944601883C910564F520919F023091FB
:10164000A002C90101969093A00280939F0280910D
:1016500000029091010228173907C4F01092A002ED
:1016600010929F021816190664F4019790930102D4
:101670008093000282E090E01092A2021092A102F8
:101680007DCF1092010210920002F4CF90E080E032
:10169000F3CF0E9446018039914084F520919D024C
:1016A00030919E02C901019690939E0280939D0203
:1016B000809100029091010228173907E4F01092FE
:1016C0009E0210929D021816190684F401979093B9
:1016D00001028093000283E090E01092A202109237
:1016E000A1021092A00210929F024CCF1092010210
:1016F00010920002F0CF90E080E0EFCF0E94460110
:101700008835924044F580919B0290919C029C0107
:101710002F5F3F4F30939C0220939B022091000249
:1017200030910102821793079CF010929C02109254
:101730009B0284E090E01092A2021092A10210920B
:10174000A00210929F0210929E0210929D021ECF44
:1017500090E080E0F0CF0E9446018032934064F533
:101760008091990290919A029C012F5F3F4F309394
:101770009A0220939902209100023091010282176F
:101780009307BCF010929A021092990285E090E0C3
:101790001092A2021092A1021092A00210929F0237
:1017A00010929E0210929D0210929C0210929B0237
:1017B000F1CE90E080E0ECCF1093AC020093AB024E
:1017C0008FE090E090930102809300028091A30249
:1017D0009091A402AC014F5F5F4F883291050CF0ED
:1017E0007EC15093A4024093A302F12C60E080E0FC
:1017F0008DD98091A9029091AA0220910E02309178
:101800000F02232B09F096C1019721F469E572E0DC
:10181000F11002C063E472E089EE93E00E947A0363
:1018200067E472E089EE93E00E947A034091A5029A
:101830005091A6026091A7027091A80221E089EE62
:1018400093E00E947B036FE472E089EE93E00E94D4
:101850007A0361E080E05AD962E572E089EE93E0B4
:101860000E947A038091A9029091AA02029709F03E
:1018700051C1FF2009F44EC167E572E089EE93E0A3
:101880000E947A0320E030E040E251E460910A02D5
:1018900070910B0280910C0290910D026BD361E06C
:1018A00087FD46C188E032D96DE572E089EE93E0AC
:1018B0000E947A0361E08AE029D96DE672E089EE40
:1018C00093E00E947A038091A9029091AA02039763
:1018D00009F093C1FF2009F490C169E572E089EE37
:1018E00093E00E947A0360E572E089EE93E00E9443
:1018F0007A030E94650204CC84309105E9F00597D3
:1019000009F064CF8091AB029091AC02019709F08D
:101910005DCF233031053CF42F5F3F4F3093AA0257
:101920002093A90204C01092AA021092A902109258
:10193000AC021092AB024ACF8091AB029091AC0204
:10194000019709F043CF121613061CF421503109F8
:10195000E5CFA3E0B0E0B093AA02A093A902E7CF3D
:10196000452B11F5C0900A02D0900B02E0900C02BA
:10197000F0900D022DEC3CEC47EC52E4C701B601AF
:10198000AFD118160CF422CF2DEC3CEC4CEC5DE3FF
:10199000C701B60141D160930A0270930B02809394
:1019A0000C0290930D0212CFC0900602D090070255
:1019B000E0900802F09009022DEC3CEC47EC52E478
:1019C000C701B6018DD118160CF400CF2DEC3CECFC
:1019D0004CEC5DE3C701B6011FD160930602709322
:1019E00007028093080290930902F0CEC090020291
:1019F000D0900302E0900402F090050226E636E65D
:101A00004EE151E4C701B6016BD118160CF4DECEDD
:101A10002DEC3CEC4CEC5DE3C701B601FDD06093CE
:101A20000202709303028093040290930502CECECB
:101A300022303105F1F02330310509F0C8CDC090D6
:101A40000202D0900302E0900402F09005022DEC17
:101A50003CEC4CEC5DE3C701B6018CD218160CF0DF
:101A6000B5CE2DEC3CEC4CEC5DE3C701B601D3D018
:101A7000D6CF452BD1F4C0900A02D0900B02E09053
:101A80000C02F0900D022DEC3CEC4CEC5DE3C70138
:101A9000B60170D218160CF099CE2DEC3CEC4CEC43
:101AA0005DE3C701B601B7D076CFC0900602D090F3
:101AB0000702E0900802F09009022DEC3CEC4CEC9F
:101AC0005DE3C701B60156D218160CF07FCE2DEC9F
:101AD0003CEC4CEC5DE3C701B6019DD07ECF9C0190
:101AE0002E5F3F4F403551053CF43093A4022093C4
:101AF000A302FF24F3947ACE2235310534F4039601
:101B00009093A4028093A302F4CF1092A4021092A7
:101B1000A302EFCF40910A0250910B0260910C0298
:101B200070910D0221E089EE93E00E947B03AACE22
:101B300087E0B9CE019721F469E572E0F11002C0A7
:101B400060E672E089EE93E00E947A0367E472E057
:101B500089EE93E00E947A034091A5025091A6027B
:101B60006091A7027091A80221E089EE93E00E94A3
:101B70007B036FE472E089EE93E00E947A0361E0F8
:101B800080E00E94860564E672E089EE93E00E94A0
:101B90007A038091A9029091AA020297F1F4FF20A2
:101BA000E1F068E572E089EE93E00E947A0320E0BC
:101BB00030E040E251E460910602709107028091AA
:101BC000080290910902D6D161E087FD14C089E036
:101BD0000E9486056AE672E069CE40910602509145
:101BE0000702609108027091090221E089EE93E0FA
:101BF0000E947B03DCCF88E0EBCF40910202509142
:101C00000302609104027091050221E089EE93E0E5
:101C10000E947B0368CE5058BB27AA270ED070C104
:101C200061D130F066D120F031F49F3F11F41EF401
:101C300056C10EF4E095E7FB4CC1E92F72D180F359
:101C4000BA17620773078407950718F071F49EF5B9
:101C50008AC10EF4E0950B2EBA2FA02D0B01B9010D
:101C600090010C01CA01A0011124FF27591B99F012
:101C7000593F50F4503E68F11A16F040A22F232F1E
:101C8000342F4427585FF3CF469537952795A7956E
:101C9000F0405395C9F77EF41F16BA0B620B730B15
:101CA000840BBAF09150A1F0FF0FBB1F661F771F86
:101CB000881FC2F70EC0BA0F621F731F841F48F43B
:101CC000879577956795B795F7959E3F08F0B3CFC1
:101CD0009395880F08F09927EE0F979587950895AB
:101CE000D4D008F481E008950CD00AC102D140F0AC
:101CF000F9D030F021F45F3F19F0EBC0511134C13D
:101D0000EEC00FD198F39923C9F35523B1F3951B76
:101D1000550BBB27AA2762177307840738F09F5F0C
:101D20005F4F220F331F441FAA1FA9F333D00E2E7B
:101D30003AF0E0E830D091505040E695001CCAF7E8
:101D400029D0FE2F27D0660F771F881FBB1F2617AD
:101D500037074807AB07B0E809F0BB0B802DBF0180
:101D6000FF2793585F4F2AF09E3F510568F0B1C09E
:101D7000FBC05F3FECF3983EDCF386957795679563
:101D8000B795F7959F5FC9F7880F911D9695879531
:101D900097F90895E1E0660F771F881FBB1F621750
:101DA00073078407BA0720F0621B730B840BBA0B0E
:101DB000EE1F88F7E0950895BCD088F09F5790F00B
:101DC000B92F9927B751A0F0D1F0660F771F881F60
:101DD000991F1AF0BA95C9F712C0B13081F0C3D07B
:101DE000B1E00895C0C0672F782F8827B85F39F019
:101DF000B93FCCF3869577956795B395D9F73EF4BF
:101E000090958095709561957F4F8F4F9F4F089566
:101E1000E89409C097FB3EF4909580957095619584
:101E20007F4F8F4F9F4F9923A9F0F92F96E9BB273A
:101E30009395F695879577956795B795F111F8CFB6
:101E4000FAF4BB0F11F460FF1BC06F5F7F4F8F4F21
:101E50009F4F16C0882311F096E911C0772321F017
:101E60009EE8872F762F05C0662371F096E8862FAF
:101E700070E060E02AF09A95660F771F881FDAF706
:101E8000880F9695879597F90895990F0008550F33
:101E9000AA0BE0E8FEEF16161706E807F907C0F0F0
:101EA00012161306E407F50798F0621B730B840BF8
:101EB000950B39F40A2661F0232B242B252B21F4D2
:101EC00008950A2609F4A140A6958FEF811D811D72
:101ED000089597F99F6780E870E060E008959FEFAC
:101EE00080EC089500240A941616170618060906B1
:101EF000089500240A941216130614060506089580
:101F0000092E0394000C11F4882352F0BB0F40F407
:101F1000BF2B11F460FF04C06F5F7F4F8F4F9F4F47
:101F2000089557FD9058440F551F59F05F3F71F0C9
:101F30004795880F97FB991F61F09F3F79F0879530
:101F40000895121613061406551FF2CF4695F1DFB9
:101F500008C0161617061806991FF1CF8695710549
:101F6000610508940895E894BB2766277727CB017D
:101F700097F908958ADF08F48FEF08950BD0C0CF4A
:101F8000B1DF28F0B6DF18F0952309F0A2CFA7CF74
:101F90001124EACFC6DFA0F3959FD1F3950F50E04F
:101FA000551F629FF001729FBB27F00DB11D639F0B
:101FB000AA27F00DB11DAA1F649F6627B00DA11DB1
:101FC000661F829F2227B00DA11D621F739FB00D57
:101FD000A11D621F839FA00D611D221F749F3327C7
:101FE000A00D611D231F849F600D211D822F762F60
:101FF0006A2F11249F5750408AF0E1F088234AF05D
:10200000EE0FFF1FBB1F661F771F881F91505040A8
:10201000A9F79E3F510570F05CCFA6CF5F3FECF370
:10202000983EDCF3869577956795B795F795E79594
:102030009F5FC1F7FE2B880F911D9695879597F9A5
:10204000089523DF880B990B0895A1E21A2EAA1B8D
:10205000BB1BFD010DC0AA1FBB1FEE1FFF1FA21758
:10206000B307E407F50720F0A21BB30BE40BF50B55
:10207000661F771F881F991F1A9469F760957095DE
:10208000809590959B01AC01BD01CF010895EE0FA5
:10209000FF1F881F8BBF0790F691E02D1994F894CD
:0220A000FFCF70
:1020A2000F000000003F00006040000040410100BE
:1020B200FFFFFFFFFFFF00000000FA015C01890142
:1020C2004602BA019801AC010000000094055C01CF
:1020D2001D031C036E616E00696E66006F766600FA
:1020E2000D0A0028412900204152434F3A20002086
:1020F20056005265663A002020202020005620001B
:1021020028422900744573743A007320002B2D0075
:00000001FF
