:1000000003C1000032C1000030C100002EC1000059
:100010002CC100002AC1000028C1000026C1000038
:1000200024C1000022C1000020C100001EC1000048
:100030001CC100000C94C70918C1000016C10000C3
:1000400014C1000012C1000010C100000EC1000068
:100050000C94300B0AC1000008C100000C94E60AA1
:1000600004C100000C94B00A0C94860AFEC0000083
:10007000FCC00000FAC00000F8C00000F6C000009C
:10008000F4C00000F2C00000F0C00000EEC00000AC
:10009000ECC00000EAC00000E8C00000E6C00000BC
:1000A000E4C00000E2C00000E0C00000DEC00000CC
:1000B000DCC00000DAC00000D8C00000D6C00000DC
:1000C000D4C00000D2C00000D0C000000C94500A80
:1000D0000C94260ACAC00000C8C00000C6C00000B8
:1000E000C4C0000000002100240027002A002D00C9
:1000F0003000330001010000040107010A01000083
:1001000020002300260029002C002F0032000001CF
:10011000000003010601090100000A0B02090C0D91
:100120000E080703040100000000000000000000AA
:1001300000000000000000000000000000000000BF
:10014000000000001211100000000000000000007C
:10015000000000000000000000000000000001029C
:1001600010202008081020401020408002010201C9
:100170000804020101020408102040808040201081
:1001800008040201800402018040201008040201DA
:100190000804020101020408102040800102040842
:1001A0001020408000002200250028002B002E0097
:1001B0003100340002010000050108010B010505B2
:1001C0000505070508080808020202020A0A0808CD
:1001D00004040404010101010101010103030303FB
:1001E00003030303040707070C0C0C0C0C0C0C0C8A
:1001F0000202020206060606060606060B0B0B0B9B
:100200000B0B0B0B0200730B11241FBECFEFD1E2BF
:10021000DEBFCDBF00E00CBF12E0A0E0B2E0EEE236
:10022000FDE200E00BBF02C007900D92AE3AB107AD
:10023000D9F724E0AEEAB2E001C01D92AA36B207B7
:10024000E1F711E0C4E0D1E000E006C02197010928
:10025000802FFE010E948016C330D10780E008077E
:10026000A9F70E94E20B0C949516CACE80917B00F0
:10027000877F80937B0080E480937C0080917A006C
:10028000806480937A0080917A0086FDFCCF809113
:100290007800909179000895AF92BF92CF92DF924B
:1002A000EF92FF920F931F93CF93DF936C017B012B
:1002B0008B01040F151FEB015E01AE18BF08C017BC
:1002C000D10759F06991D601ED91FC910190F0812F
:1002D000E02DC6011995892B79F7C501DF91CF91E2
:1002E0001F910F91FF90EF90DF90CF90BF90AF9054
:1002F0000895FC01538D448D252F30E0842F90E02C
:10030000821B930B541710F0CF9608950197089510
:10031000FC01918D828D981761F0A28DAE0FBF2FD9
:10032000B11D5D968C91928D9F5F9F73928F90E02F
:1003300008958FEF9FEF0895FC01918D828D98179E
:1003400031F0828DE80FF11D858D90E008958FEFDB
:100350009FEF0895FC01918D228D892F90E0805CA4
:100360009F4F821B91098F739927089588E193E02D
:10037000F1DF21E0892B09F420E0822F089585EB3D
:1003800093E0E8DF21E0892B09F420E0822F089533
:10039000FC01A48DA80FB92FB11DA35ABF4F2C91FA
:1003A000848D90E001968F739927848FA689B789F1
:1003B0002C93A089B1898C91837080648C93938DE8
:1003C000848D981306C00288F389E02D80818F7D8B
:1003D00080830895EF92FF920F931F93CF93DF9343
:1003E000EC0181E0888F9B8D8C8D98131AC0E88971
:1003F000F989808185FF15C09FB7F894EE89FF8940
:100400006083E889F98980818370806480839FBFDD
:1004100081E090E0DF91CF911F910F91FF90EF90DD
:100420000895F62E0B8D10E00F5F1F4F0F731127ED
:10043000E02E8C8D8E110BC00FB607FCFACFE88929
:10044000F989808185FFF5CFCE01A2DFF2CFEB8D58
:10045000EC0FFD2FF11DE35AFF4FF0829FB7F89488
:100460000B8FEA89FB8980818062D0CFCF93DF93A5
:10047000EC01888D8823B1F0AA89BB89E889F989C4
:100480008C9185FD03C0808186FD0CC00FB607FCF2
:10049000F7CF8C9185FFF2CF808185FFEDCFCE0124
:1004A00077DFEACFDF91CF91089580E090E0892B4C
:1004B00021F065DF81110E94000080E090E0892B2F
:1004C00049F080E090E0892B29F00E940000811122
:1004D0000E94000080E090E0892B21F047DF81112D
:1004E0000E94000080E090E0892B49F080E090E0DD
:1004F000892B29F00E94000081110C9400000895BE
:100500008150823108F05AC0E82FF0E08827E45784
:10051000FD4F8F4F0C948016AC02B0029E02A402D5
:10052000A802DE02B302B902BD02C302C702CB02B7
:10053000D102D502DE02D902DF02E30280918000FF
:100540008F77809380000895809180008F7DF9CF10
:1005500080918000877FF5CF84B58F7784BD089523
:1005600084B58F7DFBCF8091B0008F778093B000F2
:1005700008958091B0008F7DF9CF809190008F77A2
:10058000809390000895809190008F7DF9CF8091A5
:100590009000877FF5CF8091A0008F778093A00097
:1005A00008958091A0008F7DF9CF8091A000877F72
:1005B000F5CF809120018F7780932001089580915D
:1005C00020018F7DF9CF80912001877FF5CF1F9388
:1005D000CF93DF93282F30E0F901E85EFE4F84913E
:1005E000F901E25AFE4FD491F901E254FE4FC49151
:1005F000CC23A1F0162F811183DFEC2FF0E0EE0F5A
:10060000FF1FEC55FE4FA591B4918FB7F894EC9174
:10061000111108C0D095DE23DC938FBFDF91CF91FD
:100620001F910895DE2BF8CF9091200289130DC001
:10063000E4E0F2E0E4919FEF90932002E230D9F001
:1006400030F4EE2379F0E13081F060E0C0CFE430A7
:1006500049F110F1E530C9F7909173009D7F9093B7
:100660007300F3CF10926E00F0CF90916F009D7FDA
:1006700090936F00EACF909170009D7F90937000EF
:1006800091E09093B0009091B100987F9460909326
:10069000B1001092B300D9CF909171009D7F9093DB
:1006A0007100D3CF909172009D7F90937200CDCF57
:1006B000CF93DF9390E0FC01E25AFE4F24918254E5
:1006C0009E4FFC0184918823D1F090E0880F991F00
:1006D000FC01EC51FF4FA591B491FC01EC55FE4F8C
:1006E000C591D491623071F49FB7F8943C91822FF8
:1006F000809583238C93E8812E2B28839FBFDF91E5
:10070000CF9108958FB7F894EC912E2B2C938FBF37
:10071000F6CF8F929F92AF92BF92CF92DF92EF92DD
:10072000FF92CF936C0180912002833069F08F3F5C
:1007300009F4A1C0CF91FF90EF90DF90CF90BF90D0
:10074000AF909F908F900895E4E0F2E0C491C7FDD0
:10075000F1CF61E083E0ACDFF12CE12CCC23E1F0C0
:10076000B12CA12CC23009F059C1750160E970EDBE
:1007700083E090E0A50196010E946416BA01A901E8
:10078000415051096109710983E04F3F51056105ED
:10079000710509F00CF45DC060E072E18AE790E059
:1007A000A70196010E94641649015A0168E478EE97
:1007B00081E090E0A70196010E946416BA01A901A8
:1007C0004150510961097109CC2309F4EBC1C230D0
:1007D00009F0E6C184E04F3F510561057105C9F19B
:1007E000C4F164E274EF80E090E0A70196010E94FA
:1007F0006416BA01A901415051096109710985E0E6
:100800004F3F51056105710521F118F162E17AE769
:1008100080E090E0A70196010E946416BA01A90148
:10082000415051096109710986E04F3F5105610549
:10083000710579F074F0B501A4019AE0759567959A
:10084000579547959A95D1F741505109610971091A
:1008500087E09091B100987F892B8093B100C230DE
:1008600009F47CC10CF073C1CC2309F4BBC1C130C5
:1008700009F060CFFFC083E080932002E4E0F2E063
:10088000C4918C2FCF3F09F455CFC23009F467C013
:1008900058F4CC2371F1C13009F443C087FD4ACF2D
:1008A00061E083E005DF5CCFC43009F499C008F44F
:1008B00078C0C53099F710922001109221018091E3
:1008C00021018860809321018091210181608093C2
:1008D0002101E1ECF1E0E491F0E0EE0FFF1FEC55B7
:1008E000FE4F85919491E1E6F1E0E491E093F80206
:1008F00030CF14BC15BC84B5826084BD85B58160E1
:1009000085BDE1ECF1E0E491F0E0EE0FFF1FEC5566
:10091000FE4F85919491E1E6F1E0E491E093FF02CE
:1009200018CF109280001092810080918100886021
:100930008093810080918100816080938100E1EC4F
:10094000F1E0E491F0E0EE0FFF1FEC55FE4F8591D2
:100950009491E1E6F1E0E491E093FE02FACE109288
:10096000B0001092B1008091B00082608093B0001E
:100970008091B10081608093B100E1ECF1E0E491FD
:10098000F0E0EE0FFF1FEC55FE4F85919491909390
:10099000FD028093FC02E1E6F1E0E491E093FB02CA
:1009A000D8CE1092900010929100809191008860B2
:1009B0008093910080919100816080939100E1EC9F
:1009C000F1E0E491F0E0EE0FFF1FEC55FE4F859152
:1009D0009491E1E6F1E0E491E093FA02C3E0B9CE4C
:1009E0001092A0001092A1008091A10088608093D5
:1009F000A1008091A10081608093A100E1ECF1E071
:100A0000E491F0E0EE0FFF1FEC55FE4F85919491BD
:100A1000E1E6F1E0E491E093F9029BCE60E072E15F
:100A20008AE790E0A50196010E946416BA01A90127
:100A3000415051096109710991E04115510581E069
:100A4000680771057CF068E478EE81E090E0A5012C
:100A500096010E946416BA01A90141505109610929
:100A6000710993E0C130D9F480918100887F892B8E
:100A70008093810050938900409388008FEF9FEF0F
:100A8000DC018093100390931103A0931203B093A1
:100A9000130380916F00826080936F004BCEC33050
:100AA000D9F480919100887F892B80939100509395
:100AB0009900409398008FEF9FEFDC01809308032B
:100AC00090930903A0930A03B0930B0380917100E4
:100AD0008260809371002ECEC430D9F48091A10041
:100AE000887F892B8093A1005093A9004093A80090
:100AF0008FEF9FEFDC018093040390930503A09395
:100B00000603B093070380917200826080937200A5
:100B100011CEC53009F0A3CE80912101887F892BA9
:100B20008093210150932901409328018FEF9FEF7B
:100B3000DC018093000390930103A0930203B09320
:100B4000030380917300826080937300F3CDC430FF
:100B500059F20CF4ACCFC53029F3ECCD4093B3007F
:100B60008FEF9FEFDC0180930C0390930D03A09314
:100B70000E03B0930F038091700082608093700029
:100B8000D9CDB501A4018AE075956795579547952C
:100B90008A95D1F7415051096109710995E01EC04C
:100BA00084E02ECE93E04F3F510561057105B1F011
:100BB000ACF062E17AE780E090E0A70196010E9444
:100BC0006416BA01A90141505109610971094F3FE9
:100BD00051056105710509F0A4F694E085B5887F9B
:100BE000892B85BD47BD8FEF9FEFDC0180931403F8
:100BF00090931503A0931603B093170380916E0092
:100C0000826080936E0096CD3FB7F8948091C302C6
:100C10009091C402A091C502B091C60226B5A89BCE
:100C200005C02F3F19F00196A11DB11D3FBFBA2F7E
:100C3000A92F982F8827BC01CD01620F711D811D3E
:100C4000911D42E0660F771F881F991F4A95D1F7C3
:100C500008952FB7F8946091BF027091C0028091FF
:100C6000C1029091C2022FBF0895089590E080E0E4
:100C70000895FCDA8035910564F58091B602909173
:100C8000B7029C012F5F3F4F3093B7022093B6020B
:100C9000209100023091010282179307BCF010925C
:100CA000B7021092B60281E090E01092B502109265
:100CB000B4021092B3021092B2021092B1021092DA
:100CC000B0021092AF021092AE02089590E080E060
:100CD000ECCFCCDA883C910564F52091B4023091D8
:100CE000B502C90101969093B5028093B402809138
:100CF00000029091010228173907C4F01092B50242
:100D00001092B4021816190664F401979093010228
:100D10008093000282E090E01092B7021092B60237
:100D2000C8CF1092010210920002F4CF90E080E050
:100D3000F3CF9CDA8039914084F52091B202309152
:100D4000B302C90101969093B3028093B2028091DD
:100D500000029091010228173907E4F01092B302C3
:100D60001092B2021816190684F4019790930102AA
:100D70008093000283E090E01092B7021092B602D6
:100D80001092B5021092B40298CF10920102109204
:100D90000002F0CF90E080E0EFCF68DA8835924033
:100DA00044F58091B0029091B1029C012F5F3F4FBA
:100DB0003093B1022093B0022091000230910102E1
:100DC000821793079CF01092B1021092B00284E057
:100DD00090E01092B7021092B6021092B5021092F3
:100DE000B4021092B3021092B2026BCF90E080E096
:100DF000F0CF3CDA8032934064F58091AE0290915E
:100E0000AF029C012F5F3F4F3093AF022093AE02A1
:100E1000209100023091010282179307BCF01092DA
:100E2000AF021092AE0285E090E01092B7021092ED
:100E3000B6021092B5021092B4021092B302109250
:100E4000B2021092B1021092B002089590E080E0D8
:100E5000ECCF81E090E09093EE028093ED028FE082
:100E600090E0909301028093000286E090E0089564
:100E700060E08FE2ACDB61E081E3A9CB61E08FE26F
:100E8000A6DB60E081E3A3CB60E08FE2A0DB60E063
:100E900081E39DCBFB0101900020E9F73197AF0181
:100EA000461B570BDC01ED91FC910280F381E02D94
:100EB00019948F929F92AF92BF92EF92FF920F93ED
:100EC0001F93CF93DF93CDB7DEB7A1970FB6F894FA
:100ED000DEBF0FBECDBF7C01FA01CB0119A22230CB
:100EE00008F42AE08E010F5D1F4F822E912CB12C49
:100EF000A12CBF01A50194010E944216F901CA016B
:100F00006A3004F5605DD8016E938D01232B242B8C
:100F1000252B79F790E080E0109719F0BD01C7010B
:100F2000B9DFA1960FB6F894DEBF0FBECDBFDF913B
:100F3000CF911F910F91FF90EF90BF90AF909F9036
:100F40008F900895695CDFCFA5CF2F923F924F928B
:100F50005F926F927F928F929F92AF92BF92CF9249
:100F6000DF92EF92FF921F93CF93DF93EC016A0120
:100F70007B01722EAB019601CB01B6010E943E1699
:100F800064E472E0811126C046015701E894B7F885
:100F90002FEF3FEF4FE75FE7C501B4010E943E1618
:100FA00081110CC02FEF3FEF4FE75FE7C501B401A0
:100FB0000E948D1468E472E0181664F02FEF3FEF82
:100FC0004FE75FE4C701B6010E94D7151816ACF4CD
:100FD0006CE472E0CE01DF91CF911F91FF90EF9012
:100FE000DF90CF90BF90AF909F908F907F906F9049
:100FF0005F904F903F902F904DCF2FEF3FEF4FE7F7
:101000005FECC701B6010E948D1487FDE1CF20E09F
:1010100030E0A901C701B6010E948D14312C212CAA
:1010200087FF0DC0E881F9810190F081E02D6DE22C
:10103000CE0119951C01F7FAF094F7F8F09410E03E
:1010400060E070E080E09FE3711641F020E030E066
:1010500040E251E40E9491141F5FF6CFA701960170
:101060000E9429142B013C010E94F9144B015C01E0
:101070002AE0BC01A401CE011CDF7C01E20CF31CC0
:101080001123D9F1C501B4010E9425159B01AC01C2
:10109000C301B2010E9428144B015C01E881F9816F
:1010A0000190F081E02D6EE2CE011995E80EF91E57
:1010B000115018F120E030E040E251E4C501B401E4
:1010C0000E94DB152B013C010E94F9144B01B12C4D
:1010D000A12C2AE0B501A401CE01EBDEE80EF91E39
:1010E000C501B4010E9425159B01AC01C301B201E9
:1010F0000E9428144B015C01DBCFC701DF91CF9127
:101100001F91FF90EF90DF90CF90BF90AF909F9096
:101110008F907F906F905F904F903F902F900895A9
:10112000CF93DF93EC0160E08E8151DA61E08E8134
:101130004EDA60E08E814BDA8BE891E00197F1F7AF
:10114000DF91CF910895CF92DF92EF92FF920F93AC
:101150001F93CF93DF936C017C0187E0E80EF11CB5
:10116000D0E0C0E0062F10E0B8010C2E02C075954B
:1011700067950A94E2F76170F70181917F0127DAA0
:101180002196C430D10581F7C601DF91CF911F911F
:101190000F91FF90EF90DF90CF90C2CFCF92DF9270
:1011A000EF92FF920F931F93CF93DF93EC01F62EF4
:1011B000642F8C810CDA8D818F3F11F060E007DAAB
:1011C0000F2D10E08F8584FF23C06E0187E0C80ECD
:1011D000D11CF12CE12CB8010E2C02C0759567953D
:1011E0000A94E2F76170F60181916F01F0D9FFEF87
:1011F000EF1AFF0A88E0E816F10469F7CE01DF91E3
:10120000CF911F910F91FF90EF90DF90CF9088CFFB
:10121000B80184E0759567958A95E1F7CE0193DF73
:101220006F2DCE01DF91CF911F910F91FF90EF9025
:10123000DF90CF9088CF40E0682F82E594E0AECF7A
:10124000CF93DF93823029F490916104986090935A
:101250006104809365041092660480E480936704BF
:1012600080E18093680480E58093690461E0809167
:1012700056041EDA809157048F3F11F061E018DAAE
:1012800061E08091580414DAC2E5D4E09E01225551
:1012900034408091610484FD0AC084E090E021968E
:1012A000281739073CF461E08E8102DAEFCF88E03D
:1012B00090E0F5CF8BE39DE00197F1F760E080913E
:1012C000560485D960E08091580481D980915704F3
:1012D0008F3F11F060E07BD98091610484FD31C0C3
:1012E00063E082E594E02FDFCBE4D6E4CE01019702
:1012F000F1F763E082E594E026DF2197F1F763E000
:1013000082E594E020DF83E592E00197F1F762E067
:1013100082E594E018DF8091610480628CDF84E0D4
:10132000809362048CE087DF81E085DF8BE39FE1BF
:101330000197F1F782E08093630486E0DF91CF911B
:101340007ACF806278DF8BE496E40197F1F78091A1
:101350006104806270DF83E592E00197F1F780918C
:101360006104806268DFD7CF90916504691710F03F
:101370006FEF690FE62FF0E0EE5AFB4F9489890F6B
:10138000806859CF41E00ADF81E090E008951F9224
:101390000F920FB60F9211240BB60F922F933F931B
:1013A0004F935F936F937F938F939F93AF93BF936D
:1013B000EF93FF9380910C0390910D03A0910E0386
:1013C000B0910F03892B8A2B8B2BE1F19091FB02BB
:1013D000E091FC02F091FD02808189278083809159
:1013E0000C0390910D03A0910E03B0910F031816FA
:1013F00019061A061B069CF480910C0390910D03AC
:10140000A0910E03B0910F030197A109B109809338
:101410000C0390930D03A0930E03B0930F03FF9161
:10142000EF91BF91AF919F918F917F916F915F915C
:101430004F913F912F910F900BBE0F900FBE0F90C9
:101440001F90189580912002EFD8E9CF1F920F923C
:101450000FB60F9211240BB60F922F933F934F9319
:101460005F936F937F938F939F93AF93BF93EF930C
:10147000FF9388E193E00E94C801FF91EF91BF9133
:10148000AF919F918F917F916F915F914F913F911C
:101490002F910F900BBE0F900FBE0F901F901895BD
:1014A0001F920F920FB60F9211240BB60F922F932B
:1014B0008F939F93EF93FF93E0912803F09129037B
:1014C0008081E0912E03F0912F0382FD1DC0908159
:1014D000809131038F5F8F7320913203821741F027
:1014E000E0913103F0E0E85EFC4F958F809331038B
:1014F000FF91EF919F918F912F910F900BBE0F90C5
:101500000FBE0F901F9018958081F2CF1F920F92FF
:101510000FB60F9211240BB60F922F933F934F9358
:101520005F936F937F938F939F93AF93BF93EF934B
:10153000FF9385EB93E00E94C801FF91EF91BF916B
:10154000AF919F918F917F916F915F914F913F915B
:101550002F910F900BBE0F900FBE0F901F901895FC
:101560001F920F920FB60F9211240BB60F922F936A
:101570008F939F93EF93FF93E091C503F091C60380
:101580008081E091CB03F091CC0382FD1DC090815E
:101590008091CE038F5F8F732091CF03821741F02C
:1015A000E091CE03F0E0EB54FC4F958F8093CE0397
:1015B000FF91EF919F918F912F910F900BBE0F9004
:1015C0000FBE0F901F9018958081F2CF1F920F923F
:1015D0000FB60F9211242F933F938F939F93AF9346
:1015E000BF938091BF029091C002A091C102B091BF
:1015F000C2023091BE0223E0230F2D3758F5019629
:10160000A11DB11D2093BE028093BF029093C00222
:10161000A093C102B093C2028091C3029091C40210
:10162000A091C502B091C6020196A11DB11D809383
:10163000C3029093C402A093C502B093C602BF91A7
:10164000AF919F918F913F912F910F900FBE0F906F
:101650001F90189526E8230F0296A11DB11DD2CF29
:101660001F920F920FB60F9211248F939F9381E0D8
:101670008093D8028091BC029091BD02009729F01E
:1016800001979093BD028093BC028091BA02909121
:10169000BB02009729F001979093BB028093BA0296
:1016A0008091E3029091E402009729F001979093D2
:1016B000E4028093E3028091B8029091B90200970E
:1016C00029F001979093B9028093B80286EE99EFC2
:1016D00090938500809384009F918F910F900FBE0F
:1016E0000F901F901895E8E1F3E01382128248EE04
:1016F00053E060E070E044835583668377838AE239
:1017000092E09183808325ED30E03587248724EDB6
:1017100030E03787268720ED30E0318B208B21EDBC
:1017200030E0338B228B22ED30E0358B248B26ED9D
:1017300030E0378B268B118E128E138E148EE5EBD4
:10174000F3E0138212824483558366837783918307
:10175000808385EC90E09587848784EC90E0978780
:10176000868780EC90E0918B808B81EC90E0938B6E
:10177000828B82EC90E0958B848B86EC90E0978B4B
:10178000868B118E128E138E148EE2E5F4E0138296
:1017900012828CE392E09183808388E084838FEFD0
:1017A000858389E0868384E0878385E0808786E07F
:1017B000818787E0828713861486158616861786AA
:1017C00081E03ECDCF93DF9300D01F921F92CDB723
:1017D000DEB7789484B5826084BD84B5816084BDB1
:1017E00085B5826085BD85B5816085BD80916E00BF
:1017F000816080936E0010928100809181008260F0
:10180000809381008091810081608093810080912C
:1018100080008160809380008091B100846080931B
:10182000B1008091B00081608093B0008091910000
:1018300082608093910080919100816080939100FB
:10184000809190008160809390008091A1008260DF
:101850008093A1008091A10081608093A10080917C
:10186000A00081608093A00080912101826080931C
:1018700021018091210181608093210180912001CB
:1018800081608093200180917A00846080937A0047
:1018900080917A00826080937A0080917A008160E2
:1018A00080937A0080917A00806880937A00109209
:1018B000C10062E082E00E94580361E083E00E9480
:1018C000580361E08FE20E94580361E081E30E94C7
:1018D000580361E085E20E94580361E087E20E94BC
:1018E000580361E089E20E94580360E083E00E94AF
:1018F000E70260E08FE20E94E70260E081E30E947D
:10190000E70260E085E20E94E70260E087E20E9471
:10191000E70260E089E20E94E702E0912803F0918B
:10192000290322E02083E0912803F091290310820B
:10193000E0912403F09125031082E0912603F091B9
:10194000270390E1908310923003E0912C03F091F3
:101950002D0386E28083E0912A03F0912B0380819E
:1019600080618083E0912A03F0912B03808188605D
:101970008083E0912A03F0912B038081806880832B
:10198000E0912A03F0912B0380818F7D8083E09189
:10199000C503F091C6032083E091C103F091C20317
:1019A0001082E091C303F091C40390831092CD03A1
:1019B000E091C903F091CA0386E08083E091C703F8
:1019C000F091C803808180618083E091C703F0912A
:1019D000C803808188608083E091C703F091C803C9
:1019E000808180688083E091C703F091C803808183
:1019F0008F7D808382E024DC60E080E0B5DC1092A3
:101A00008000109281008091810085608093810028
:101A100086EE99EF909385008093840080916F000B
:101A2000816080936F0052E1E52E52E0F52E10E0C8
:101A300000E0C801F7D6F70181937F010F5F1F4FC8
:101A40000E301105B1F7C0901202D0901302E09051
:101A50001402F09015022DEC3CEC4CEC5DE3C70158
:101A6000B6015BD787FD12C026E636E64EE151E4AB
:101A7000C701B6010E94D715181644F0A7019601B8
:101A8000C701B6010E943E16882361F080E090E015
:101A9000A0E0BFE38093120290931302A09314027C
:101AA000B0931502C0901602D0901702E090180271
:101AB000F090190220E030E040E151E4C701B601A6
:101AC0002CD787FD12C02DEC3CEC47EC52E4C7014B
:101AD000B6010E94D715181644F0A7019601C70158
:101AE000B6010E943E16882361F080E090E0A4EBEE
:101AF000B1E48093160290931702A0931802B0935A
:101B00001902C0901A02D0901B02E0901C02F090C3
:101B10001D0220E030E0A901C701B601FED687FD15
:101B200012C02DEC3CEC47EC52E4C701B6010E9418
:101B3000D715181644F0A7019601C701B6010E94F7
:101B40003E16882361F080E090E0A0E6B0E4809348
:101B50001A0290931B02A0931C02B0931D02609185
:101B60001E0270911F026230710548F490E080E01F
:101B70006CD79B01AC010E943E16882321F0109285
:101B80001F0210921E0244E0242E312CEAE1F1E003
:101B90008491E0E6F1E00491E0ECF1E0149111238E
:101BA00009F498C081110E948002E12FF0E0EE0F4D
:101BB000FF1FE250FF4FA591B4918C91082331E0B3
:101BC00020E009F430E0832F922FF1E08F2781701D
:101BD0008093EF028091D802882321F11092D802DD
:101BE0008091D6029091D7028A3091050CF075C091
:101BF00001969093D7028093D6028091D5028111ED
:101C000011C063E688E193E00E94EA0161E388E1A4
:101C100093E00E94EA0181E08093D5021092D40201
:101C20001092D30288E193E00E94AA0118161906C7
:101C300024F51092D7021092D6020091D30210918F
:101C4000D40205301105CCF488E193E00E948801AC
:101C5000F801EE0FFF1FE753FD4F918380830230A1
:101C6000110509F4E9C00CF056C00115110509F47D
:101C7000C3C00130110509F4D2C00091F2021091E5
:101C8000F3020115110521F1C090E702D090E8029E
:101C9000E090E902F090EA0220E030E040E751E411
:101CA000C701B6013AD687FF04C01092DA0210923B
:101CB000D9022091EF028091D9029091DA0281300D
:101CC000910509F4F6C008F4D9C0029709F413C1CC
:101CD000DBD853C190E080E078CF1092D702109209
:101CE000D6021092F3021092F20285E0E1E2F2E0F5
:101CF000DE01119601900D928A95E1F7BE016F5FAA
:101D00007F4F88E193E0C6D81092D5021092D4029A
:101D10001092D30272CF0330110509F494C004303D
:101D2000110509F0AACF8091D1029091D2028F348F
:101D3000910509F09CC06091C7028091C802762F7E
:101D4000682F072E000C880B990B81D620E030E01D
:101D500040E251E4E6D56B017C012DEC3CEC4CEC0F
:101D60005DE325D787FD78C020E030E048E453E408
:101D7000C701B601D2D518160CF46EC0E1E0F0E050
:101D8000F093F302E093F202C092E702D092E802ED
:101D9000E092E902F092EA0260E572E085EB93E0FE
:101DA000D3D8409116025091170260911802709199
:101DB000190222E085EB93E0C8D86AE572E085EB72
:101DC00093E0C2D84091E7025091E8026091E902A5
:101DD0007091EA0222E085EB93E0B7D863E672E007
:101DE00085EB93E057D885E0E9ECF2E011928A9513
:101DF000E9F71092D50207C08091C9029091CA02FA
:101E00008336910529F01092D4021092D30235CF77
:101E100081E090E09093D4028093D3022ECF809102
:101E2000CB029091CC02C19771F7E2E0F0E0F09321
:101E3000D402E093D30221CF8091CD028093C802D7
:101E400083E090E0E7CF8091CF028093C702309289
:101E5000D4022092D30211CF1092F3021092F20218
:101E60008AE090E09093D7028093D60295CFEAE083
:101E7000F0E0F093D702E093D602B5CF20E030E057
:101E800048E851E4C701B60192D618160CF020CFED
:101E900081E090E09093DA028093D9020E942906B3
:101EA0006093DB027093DC028093DD029093DE028C
:101EB0000FCF0E942906C9D56B017C016091DB021E
:101EC0007091DC028091DD029091DE02C0D520E0AD
:101ED00030E04AE754E4BDD49B01AC01C701B60130
:101EE00066D618160CF0F4CEE2E0F0E0F093DA02D9
:101EF000E093D902EDCE222309F4EACE80911E02AE
:101F000090911F02892BD1F020E030E040EA50E4AC
:101F1000C701B60102D587FF04C01092E0021092FB
:101F2000DF028091DF029091E0028130910509F497
:101F3000F8C008F4E5C0029709F0CACE80901602F6
:101F400090901702A0901802B090190240901202CF
:101F5000509013026090140270901502A301920138
:101F6000C501B40176D49B01AC01C701B6011FD6EF
:101F700018160CF00FC10E943E078091020290914A
:101F800003020817190759F090E080E001301105AD
:101F900011F082E090E09093F1028093F0021093B0
:101FA0000302009302028091F0029091F1028330CB
:101FB000910509F424C108F0FCC0009709F417C189
:101FC000029709F463C10115110509F497C161E095
:101FD0000130110509F4AEC11091EF02112309F48B
:101FE000F9C20E9439068330910509F484C20CF0CD
:101FF000A6C18130910509F4A8C1029709F4E5C191
:102000008091E5029091E602AC014F5F5F4F88320C
:1020100091050CF0EFC25093E6024093E50200E018
:1020200060E080E0A1D91111FFC266E672E082E5AE
:1020300094E00E94A40761E080E096D967E772E02F
:1020400082E594E00E94A4074091E7025091E802E3
:102050006091E9027091EA0221E082E594E00E9439
:10206000A50760E872E082E594E00E94A4070E9460
:102070002906AB01BC018091F4029091F502A09178
:10208000F602B091F7028854944FAF4FBF4F4817F4
:1020900059076A077B0788F14EE050E064E072E080
:1020A00082E192E035D6892BA9F082E1E82E82E028
:1020B000F82E10E000E0F701D1907F01C801B2D303
:1020C000D81619F06D2DC801B5D30F5F1F4F0E3014
:1020D000110589F78EE0E2E1F2E0A4E0B2E00190C0
:1020E0000D928A95E1F70E9429066093F40270939D
:1020F000F5028093F6029093F7020E94550246CDB6
:1021000020E030E040EA51E4C701B60150D518168E
:102110000CF0DECD81E090E09093E0028093DF024E
:10212000BDCE0E94290691D44B015C016091DB0277
:102130007091DC028091DD029091DE0288D42B0147
:102140003C0120E030E04AE754E460911A027091CB
:102150001B0280911C0290911D022DD59B01AC01A8
:10216000C301B20176D39B01AC01C501B4011FD5F7
:1021700018160CF0ADCDE2E0F0E0F093E002E09351
:10218000DF02C0921602D0921702E0921802F0927B
:1021900019029ECDA3019201C501B40159D39B013F
:1021A000AC01C701B601B9D387FF92CD0E943807B1
:1021B000E4CE8530910509F44CC0D8F1069709F0BA
:1021C00002CF2091E1023091E202C9010196909381
:1021D000E2028093E10221303105F1F08A3091056D
:1021E00009F44AC08F30910509F04DC03FC083E02B
:1021F0000E9414031092E2021092E102E4CE2091B8
:10220000E1023091E202C90101969093E2028093CB
:10221000E1022130310529F48BE694E00E94890324
:10222000D2CE03970CF4CFCE1092F1021092F002AE
:10223000CACE2091E1023091E202C9010196909349
:10224000E2028093E1022130310559F78EE190E0FE
:10225000E5CF2091E1023091E202C901019690930D
:10226000E2028093E1022130310519F480EA91E025
:10227000D5CF8530910521F483E00E941403A3CECD
:102280008A30910549F245977CF69DCE2091E10276
:102290003091E202C90101969093E2028093E1023B
:1022A0002130310529F48EE190E00E94890306C0B7
:1022B00089309105A1F483E00E9414030E94040672
:1022C0006B017C010E9404066C197D098E099F092F
:1022D000683E73408105910508F075CEF3CF8F30CD
:1022E000910519F48BE694E0E0CF8D32910519F356
:1022F0002CF31092F1021092F002E0CF8091E302F1
:102300009091E402009739F48AE090E09093E4021F
:102310008093E30261CE60E0069764F089E20E9458
:10232000E70261E087E20E94E70260E085E20E9446
:10233000E70252CE89E20E94E70260E0F3CF8430E8
:10234000910531F1059709F05BCEE5E0F0E0F093FF
:10235000F102E093F0028091ED029091EE0201977C
:1023600009F04ECE8091EB029091EC028330910502
:1023700034F401969093EC028093EB0204C0109227
:10238000EC021092EB021092EE021092ED0238CEA7
:1023900086E090E09093F1028093F0028091ED024C
:1023A0009091EE02019709F02BCE8091EB02909173
:1023B000EC021816190614F40197DCCFE3E0F0E004
:1023C000F093EC02E093EB02DECF8091EB02909170
:1023D000EC0282309105E1F08330910509F466C08A
:1023E000019709F00DCE83E090E09093F102809385
:1023F000F00281E090E020911E0230911F02232B19
:1024000011F090E080E090931F0280931E02F8CDBF
:10241000E3E0F0E0F093F102E093F00280911E021D
:1024200090911F02892B09F5C0901602D0901702D7
:10243000E0901802F09019022DEC3CEC47EC52E4CD
:10244000C701B6016AD287FFDBCD2DEC3CEC4CEC2A
:102450005DE3C701B601FDD16093160270931702C8
:102460008093180290931902CBCDC0901A02D0909D
:102470001B02E0901C02F0901D022DEC3CEC47EC9E
:1024800052E4C701B60149D287FFBACD2DEC3CEC2E
:102490004CEC5DE3C701B601DCD160931A02709386
:1024A0001B0280931C0290931D02AACD9093F1020F
:1024B0008093F002C0901202D0901302E0901402B8
:1024C000F090150226E636E64EE151E4C701B6016A
:1024D00024D287FF95CD2DEC3CEC4CEC5DE3C7019D
:1024E000B601B7D160931202709313028093140265
:1024F0009093150285CD8091EB029091EC02823091
:10250000910561F08330910509F446C0019709F007
:1025100077CD3092F1022092F0026BCF3092F1022F
:102520002092F00280911E0290911F02892BD1F41B
:10253000C0901602D0901702E0901802F090190295
:1025400020E030E040E151E4C701B60130D3181675
:102550000CF056CD2DEC3CEC4CEC5DE3C701B60124
:1025600077D17ACFC0901A02D0901B02E0901C0263
:10257000F0901D0220E030E040E151E4C701B601D7
:1025800016D318160CF03CCD2DEC3CEC4CEC5DE376
:10259000C701B6015DD181CF3092F1022092F002E5
:1025A000C0901202D0901302E0901402F090150235
:1025B0002DEC3CEC4CEC5DE3C701B601F8D21816EB
:1025C0000CF01ECD2DEC3CEC4CEC5DE3C701B601EC
:1025D0003FD188CF0E9439068230910529F00397B8
:1025E00031F00E9444070CCD0E94380709CD0E94AB
:1025F0003E0706CD9C012E5F3F4F4035510534F418
:102600003093E6022093E50201E00ACD2235310540
:1026100034F403969093E6028093E502F5CF10928E
:10262000E6021092E502F0CF8091EB029091EC026D
:1026300020911E0230911F022130310509F48FC014
:10264000019721F464E972E0011102C066E872E0CA
:1026500082E594E00E94A40769E772E082E594E0D5
:102660000E94A4074091E7025091E8026091E902BC
:102670007091EA0221E082E594E00E94A5076BE8F0
:1026800072E082E594E00E94A40761E080E00E948D
:10269000B4096EE872E082E594E00E94A40780919C
:1026A000EB029091EC020297E1F50023D1F163E98E
:1026B00072E082E594E00E94A40720E030E040E26E
:1026C00051E4609116027091170280911802909166
:1026D00019026DD261E087FD32C088E00E94B40922
:1026E00069E972E082E594E00E94A40761E08AE073
:1026F0000E94B4096CE972E082E594E00E94A407AC
:102700008091EB029091EC020397D9F40023C9F079
:1027100065E972E082E594E00E94A4076CE872E04B
:10272000A2CC40911602509117026091180270914C
:10273000190221E082E594E00E94A507BECF87E060
:10274000CDCF40911202509113026091140270910A
:10275000150221E082E594E00E94A507DFCF0197F2
:1027600021F464E972E0011102C06FE972E082E5D0
:1027700094E00E94A40769E772E082E594E00E9479
:10278000A4074091E7025091E8026091E90270913C
:10279000EA0221E082E594E00E94A5076BE872E07E
:1027A00082E594E00E94A40761E080E00E94B40901
:1027B00064EA72E082E594E00E94A4078091EB0253
:1027C0009091EC020297F1F40023E1F064E972E0E9
:1027D00082E594E00E94A40720E030E040E251E46A
:1027E00060911A0270911B0280911C0290911D024F
:1027F000DED161E087FD14C089E00E94B4096AEA75
:1028000072E070CF40911A0250911B0260911C023D
:1028100070911D0221E082E594E00E94A507DCCFC3
:1028200088E0EBCFF999FECF92BD81BDF89A992748
:1028300080B50895262FF999FECF1FBA92BD81BDAC
:1028400020BD0FB6F894FA9AF99A0FBE0196089532
:102850005058BB27AA270ED070C161D130F066D185
:1028600020F031F49F3F11F41EF456C10EF4E095B0
:10287000E7FB4CC1E92F72D180F3BA1762077307E7
:102880008407950718F071F49EF58AC10EF4E0955F
:102890000B2EBA2FA02D0B01B90190010C01CA011A
:1028A000A0011124FF27591B99F0593F50F4503EC5
:1028B00068F11A16F040A22F232F342F4427585FB7
:1028C000F3CF469537952795A795F0405395C9F7CF
:1028D0007EF41F16BA0B620B730B840BBAF0915087
:1028E000A1F0FF0FBB1F661F771F881FC2F70EC026
:1028F000BA0F621F731F841F48F4879577956795F9
:10290000B795F7959E3F08F0B3CF9395880F08F0E1
:102910009927EE0F979587950895D4D008F481E014
:1029200008950CD00AC102D140F0F9D030F021F462
:102930005F3F19F0EBC0511134C1EEC00FD198F3D5
:102940009923C9F35523B1F3951B550BBB27AA2730
:1029500062177307840738F09F5F5F4F220F331FA2
:10296000441FAA1FA9F333D00E2E3AF0E0E830D06E
:1029700091505040E695001CCAF729D0FE2F27D071
:10298000660F771F881FBB1F261737074807AB073F
:10299000B0E809F0BB0B802DBF01FF2793585F4FB4
:1029A0002AF09E3F510568F0B1C0FBC05F3FECF3D9
:1029B000983EDCF3869577956795B795F7959F5F79
:1029C000C9F7880F911D9695879597F90895E1E0CD
:1029D000660F771F881FBB1F621773078407BA072C
:1029E00020F0621B730B840BBA0BEE1F88F7E09587
:1029F0000895BCD088F09F5790F0B92F9927B75110
:102A0000A0F0D1F0660F771F881F991F1AF0BA95B2
:102A1000C9F712C0B13081F0C3D0B1E00895C0C091
:102A2000672F782F8827B85F39F0B93FCCF38695A8
:102A300077956795B395D9F73EF490958095709505
:102A400061957F4F8F4F9F4F0895E89409C097FB82
:102A50003EF490958095709561957F4F8F4F9F4F75
:102A60009923A9F0F92F96E9BB279395F6958795B9
:102A700077956795B795F111F8CFFAF4BB0F11F47C
:102A800060FF1BC06F5F7F4F8F4F9F4F16C0882323
:102A900011F096E911C0772321F09EE8872F762F59
:102AA00005C0662371F096E8862F70E060E02AF09A
:102AB0009A95660F771F881FDAF7880F9695879586
:102AC00097F90895990F0008550FAA0BE0E8FEEF5B
:102AD00016161706E807F907C0F012161306E407E2
:102AE000F50798F0621B730B840B950B39F40A26DB
:102AF00061F0232B242B252B21F408950A2609F4B9
:102B0000A140A6958FEF811D811D089597F99F67BC
:102B100080E870E060E008959FEF80EC0895002465
:102B20000A941616170618060906089500240A9432
:102B300012161306140605060895092E0394000CB8
:102B400011F4882352F0BB0F40F4BF2B11F460FF47
:102B500004C06F5F7F4F8F4F9F4F089557FD905870
:102B6000440F551F59F05F3F71F04795880F97FB51
:102B7000991F61F09F3F79F087950895121613060B
:102B80001406551FF2CF4695F1DF08C0161617063A
:102B90001806991FF1CF869571056105089408956F
:102BA000E894BB2766277727CB0197F908958ADF3A
:102BB00008F48FEF08950BD0C0CFB1DF28F0B6DF57
:102BC00018F0952309F0A2CFA7CF1124EACFC6DFD2
:102BD000A0F3959FD1F3950F50E0551F629FF00130
:102BE000729FBB27F00DB11D639FAA27F00DB11D89
:102BF000AA1F649F6627B00DA11D661F829F222712
:102C0000B00DA11D621F739FB00DA11D621F839F98
:102C1000A00D611D221F749F3327A00D611D231F6E
:102C2000849F600D211D822F762F6A2F11249F57BC
:102C300050408AF0E1F088234AF0EE0FFF1FBB1FDF
:102C4000661F771F881F91505040A9F79E3F51057E
:102C500070F05CCFA6CF5F3FECF3983EDCF3869537
:102C600077956795B795F795E7959F5FC1F7FE2B29
:102C7000880F911D9695879597F9089523DF880B06
:102C8000990B0895A1E21A2EAA1BBB1BFD010DC0D2
:102C9000AA1FBB1FEE1FFF1FA217B307E407F5070C
:102CA00020F0A21BB30BE40BF50B661F771F881FE8
:102CB000991F1A9469F760957095809590959B017E
:102CC000AC01BD01CF010895052E97FB16F40094C9
:102CD0000FD057FD05D0D6DF07FC02D046F408C060
:102CE00050954095309521953F4F4F4F5F4F089538
:102CF00090958095709561957F4F8F4F9F4F089568
:102D0000EE0FFF1F881F8BBF0790F691E02D1994DF
:102D1000FB01DC0104C08D910190801921F4415028
:0E2D20005040C8F7881B990B0895F894FFCF18
:102D2E000F00FFFF0000003F000040410000604028
:102D3E0001000000003F0000404100006040010023
:102D4E00FFFFFFFFFF0000000000EA014C017901C8
:102D5E003602AA0188019C0100000000C2094C0144
:102D6E00360635066E616E00696E66006F76660019
:102D7E00536574506F696E743A002054656E7361BA
:102D8E006F3A000D0A002020204445534C4947411C
:102D9E00444F202020200020204152434F3A200053
:102DAE002056202020002841292000205600526560
:102DBE00663A002020202020005620002B2D0028CF
:0E2DCE0042292000744573743A0073200000FF
:00000001FF
