:10000000F5C0000023C1000021C100001FC1000095
:100010001DC100001BC1000019C1000017C1000074
:1000200015C1000013C1000011C100000FC1000084
:100030000DC100000BC1000009C1000007C1000094
:1000400005C1000003C1000001C10000FFC00000A5
:1000500078C60000FBC00000F9C0000028C6000000
:10006000F5C00000EEC50000C3C50000EFC00000F1
:10007000EDC00000EBC00000E9C00000E7C00000D8
:10008000E5C00000E3C00000E1C00000DFC00000E8
:10009000DDC00000DBC00000D9C00000D7C00000F8
:1000A000D5C00000D3C00000D1C00000CFC0000008
:1000B000CDC00000CBC00000C9C00000C7C0000018
:1000C000C5C00000C3C00000C1C000005BC5000087
:1000D00030C50000BBC00000B9C00000B7C00000C0
:1000E000B5C0000000000A0B02090C0D0E08070342
:1000F00004010000000000000000000000000000FB
:1001000000000000000000000000000000000000EF
:1001100012111000000000000000000000000000AC
:100120000000000000000000000000002200250088
:1001300028002B002E0031003400020100000501D0
:1001400008010B0100002100240027002A002D00D7
:100150003000330001010000040107010A01050518
:100160000505070508080808020202020A0A08082D
:10017000040404040101010101010101030303035B
:1001800003030303040707070C0C0C0C0C0C0C0CEA
:100190000202020206060606060606060B0B0B0BFB
:1001A0000B0B0B0B01021020200808102040102020
:1001B000408002010201080402010102040810202B
:1001C0004080804020100804020180040201804029
:1001D0002010080402010804020101020408102092
:1001E00040800102040810204080E40611241FBE54
:1001F000CFEFD1E2DEBFCDBF00E00CBF12E0A0E048
:10020000B2E0E2EAF0E200E00BBF02C007900D921C
:10021000A037B107D9F724E0A0E7B2E001C01D92F2
:10022000A130B207E1F710E0C6EFD0E000E006C071
:1002300021970109802FFE010E944710C53FD10779
:1002400080E00807A9F72FD60C944F10D9CE90E084
:10025000FC01EC55FE4F2491825A9E4FFC01849183
:10026000882399F090E0880F991FFC01EC5BFE4F0A
:10027000A591B491FC01E65DFE4F859194918FB7F5
:10028000F894EC91E22BEC938FBF089580917B0062
:10029000877F80937B0080E480937C0080917A004C
:1002A000806480937A0080917A0086FDFCCF8091F3
:1002B0007800909179000895AF92BF92CF92DF922B
:1002C000EF92FF920F931F93CF93DF936C017B010B
:1002D0008B01040F151FEB015E01AE18BF08C0179C
:1002E000D10759F06991D601ED91FC910190F0810F
:1002F000E02DC6011995892B79F7C501DF91CF91C2
:100300001F910F91FF90EF90DF90CF90BF90AF9033
:100310000895FC01538D448D252F30E0842F90E00B
:10032000821B930B541710F0CF96089501970895F0
:10033000FC01918D828D981761F0A28DAE0FBF2FB9
:10034000B11D5D968C91928D9F5F9F73928F90E00F
:1003500008958FEF9FEF0895FC01918D828D98177E
:1003600031F0828DE80FF11D858D90E008958FEFBB
:100370009FEF0895FC01918D228D892F90E0805C84
:100380009F4F821B91098F73992708958FEA92E0FE
:10039000F1DF21E0892B09F420E0822F08958CE41D
:1003A00093E0E8DF21E0892B09F420E0822F089513
:1003B000FC01A48DA80FB92FB11DA35ABF4F2C91DA
:1003C000848D90E001968F739927848FA689B789D1
:1003D0002C93A089B1898C91837080648C93938DC8
:1003E000848D981306C00288F389E02D80818F7D6B
:1003F00080830895EF92FF920F931F93CF93DF9323
:10040000EC0181E0888F9B8D8C8D98131AC0E88950
:10041000F989808185FF15C09FB7F894EE89FF891F
:100420006083E889F98980818370806480839FBFBD
:1004300081E090E0DF91CF911F910F91FF90EF90BD
:100440000895F62E0B8D10E00F5F1F4F0F731127CD
:10045000E02E8C8D8E110BC00FB607FCFACFE88909
:10046000F989808185FFF5CFCE01A2DFF2CFEB8D38
:10047000EC0FFD2FF11DE35AFF4FF0829FB7F89468
:100480000B8FEA89FB8980818062D0CFCF93DF9385
:10049000EC01888D8823B1F0AA89BB89E889F989A4
:1004A0008C9185FD03C0808186FD0CC00FB607FCD2
:1004B000F7CF8C9185FFF2CF808185FFEDCFCE0104
:1004C00077DFEACFDF91CF91089580E090E0892B2C
:1004D00021F065DF81110E94000080E090E0892B0F
:1004E00049F080E090E0892B29F00E940000811102
:1004F0000E94000080E090E0892B21F047DF81110D
:100500000E94000080E090E0892B49F080E090E0BC
:10051000892B29F00E94000081110C94000008959D
:10052000282F30E0F901EC51FF4F9491F901EC557F
:10053000FE4F4491225A3E4FF9012491222309F49F
:1005400035C0992311F191509231F8F4E92FF0E080
:100550008827E255FD4F8F4F0C944710DF02E302CE
:10056000C002D702DB02C502E602EC02F002F6028C
:10057000FA02FE0204030803C5020C031203160369
:10058000809180008F7780938000E22FF0E0EE0F63
:10059000FF1FE65DFE4FA591B4918FB7F894EC91E3
:1005A000611148C040954E234C938FBF08958091B0
:1005B00080008F7DE8CF80918000877FE4CF84B575
:1005C0008F7784BDE2CF84B58F7DFBCF8091B00063
:1005D0008F778093B000D9CF8091B0008F7DF9CF15
:1005E000809190008F7780939000CFCF8091900082
:1005F0008F7DF9CF80919000877FF5CF8091A0000B
:100600008F778093A000C1CF8091A0008F7DF9CF1C
:100610008091A000877FF5CF809120018F77809314
:100620002001B3CF809120018F7DF9CF80912001EF
:10063000877FF5CF4E2BB8CF089590E080E00895E6
:10064000FB0101900020E9F73197AF01461B570BE2
:10065000DC01ED91FC910280F381E02D19948F92E1
:100660009F92AF92BF92EF92FF920F931F93CF93FF
:10067000DF93CDB7DEB7A1970FB6F894DEBF0FBEFC
:10068000CDBF7C01FA01CB0119A2223008F42AE087
:100690008E010F5D1F4F822E912CB12CA12CBF011A
:1006A000A50194010E942510F901CA016A3004F5E0
:1006B000605DD8016E938D01232B242B252B79F7B8
:1006C00090E080E0109719F0BD01C701B9DFA19655
:1006D0000FB6F894DEBF0FBECDBFDF91CF911F9153
:1006E0000F91FF90EF90BF90AF909F908F900895E3
:1006F000695CDFCFA5CF2F923F924F925F926F92AE
:100700007F928F929F92AF92BF92CF92DF92EF92A1
:10071000FF921F93CF93DF93EC016A017B01722E4E
:10072000AB019601CB01B6010E94211064E372E097
:10073000811126C046015701E894B7F82FEF3FEF2B
:100740004FE75FE7C501B4010E94211081110CC081
:100750002FEF3FEF4FE75FE7C501B4010E94700E36
:1007600068E372E0181664F02FEF3FEF4FE75FE4A5
:10077000C701B6010E94BA0F1816ACF46CE372E020
:10078000CE01DF91CF911F91FF90EF90DF90CF903E
:10079000BF90AF909F908F907F906F905F904F90A1
:1007A0003F902F904DCF2FEF3FEF4FE75FECC7010A
:1007B000B6010E94700E87FDE1CF20E030E0A90174
:1007C000C701B6010E94700E312C212C87FF0DC08D
:1007D000E881F9810190F081E02D6DE2CE0119955B
:1007E0001C01F7FAF094F7F8F09410E060E070E084
:1007F00080E09FE3711641F020E030E040E251E4F8
:100800000E94740E1F5FF6CFA70196010E940C0E86
:100810002B013C010E94DC0E4B015C012AE0BC0173
:10082000A401CE011CDF7C01E20CF31C1123D9F1E1
:10083000C501B4010E94080F9B01AC01C301B201C4
:100840000E940B0E4B015C01E881F9810190F0815F
:10085000E02D6EE2CE011995E80EF91E115018F147
:1008600020E030E040E251E4C501B4010E94BE0F37
:100870002B013C010E94DC0E4B01B12CA12C2AE083
:10088000B501A401CE01EBDEE80EF91EC501B401ED
:100890000E94080F9B01AC01C301B2010E940B0E24
:1008A0004B015C01DBCFC701DF91CF911F91FF901E
:1008B000EF90DF90CF90BF90AF909F908F907F9000
:1008C0006F905F904F903F902F900895CF93DF935C
:1008D000EC0160E08E8124DE61E08E8121DE60E04B
:1008E0008E811EDE8BE891E00197F1F7DF91CF91C9
:1008F0000895CF92DF92EF92FF920F931F93CF93C1
:10090000DF936C017C0187E0E80EF11CD0E0C0E0D1
:10091000062F10E0B8010C2E02C0759567950A9459
:10092000E2F76170F70181917F01FADD2196C43011
:10093000D10581F7C601DF91CF911F910F91FF90F3
:10094000EF90DF90CF90C2CFCF92DF92EF92FF92E5
:100950000F931F93CF93DF93EC01F62E642F8C81BE
:10096000DFDD8D818F3F11F060E0DADD0F2D10E0CB
:100970008F8584FF23C06E0187E0C80ED11CF12C47
:10098000E12CB8010E2C02C0759567950A94E2F728
:100990006170F60181916F01C3DDFFEFEF1AFF0A6D
:1009A00088E0E816F10469F7CE01DF91CF911F913D
:1009B0000F91FF90EF90DF90CF9088CFB80184E047
:1009C000759567958A95E1F7CE0193DF6F2DCE017E
:1009D000DF91CF911F910F91FF90EF90DF90CF901B
:1009E00088CF40E0682F89EE93E0AECFCF93DF93BE
:1009F000823029F49091F80398609093F8038093E3
:100A0000FC031092FD0380E48093FE0380E1809359
:100A1000FF0380E5809300048091ED0318DC809152
:100A2000EE038F3F09F013DC8091EF0310DCC9EE79
:100A3000D3E09E01295E33408091F80384FD09C014
:100A400084E090E021962817390734F48E81FFDB8B
:100A5000F0CF88E090E0F6CF8BE39DE00197F1F7CF
:100A600060E08091ED035CDD60E08091EF0358DD94
:100A70008091EE038F3F11F060E052DD8091F8032A
:100A800084FD31C063E089EE93E033DFCBE4D6E44C
:100A9000CE010197F1F763E089EE93E02ADF219719
:100AA000F1F763E089EE93E024DF83E592E00197BC
:100AB000F1F762E089EE93E01CDF8091F803806239
:100AC00090DF84E08093F9038CE08BDF81E089DFA5
:100AD0008BE39FE10197F1F782E08093FA0386E0D0
:100AE000DF91CF917ECF80627CDF8BE496E401972B
:100AF000F1F78091F803806274DF83E592E001975B
:100B0000F1F78091F80380626CDFD7CF9091FC03FE
:100B1000691710F06FEF690FE62FF0E0E751FC4F17
:100B20009489890F80685DCF41E00EDF81E090E01D
:100B300008951F920F920FB60F9211240BB60F92C9
:100B40002F933F934F935F936F937F938F939F93D5
:100B5000AF93BF93EF93FF938FEA92E029DCFF916D
:100B6000EF91BF91AF919F918F917F916F915F9125
:100B70004F913F912F910F900BBE0F900FBE0F9092
:100B80001F9018951F920F920FB60F9211240BB65B
:100B90000F922F938F939F93EF93FF93E091BF0258
:100BA000F091C0028081E091C502F091C60282FD01
:100BB0001DC090818091C8028F5F8F732091C90200
:100BC000821741F0E091C802F0E0E155FD4F958FAA
:100BD0008093C802FF91EF919F918F912F910F9079
:100BE0000BBE0F900FBE0F901F9018958081F2CF13
:100BF0001F920F920FB60F9211240BB60F922F93E4
:100C00003F934F935F936F937F938F939F93AF9394
:100C1000BF93EF93FF938CE493E0CADBFF91EF91D6
:100C2000BF91AF919F918F917F916F915F914F9104
:100C30003F912F910F900BBE0F900FBE0F901F9002
:100C400018951F920F920FB60F9211240BB60F92A8
:100C50002F938F939F93EF93FF93E0915C03F09119
:100C60005D038081E0916203F091630382FD1DC00A
:100C70009081809165038F5F8F7320916603821747
:100C800041F0E0916503F0E0E45BFC4F958F8093C9
:100C90006503FF91EF919F918F912F910F900BBE64
:100CA0000F900FBE0F901F9018958081F2CF1F926A
:100CB0000F920FB60F9211242F933F938F939F9310
:100CC000AF93BF9380918D0290918E02A0918F027D
:100CD000B091900230917A0223E0230F2D3758F51E
:100CE0000196A11DB11D20937A0280938D029093ED
:100CF0008E02A0938F02B093900280917602909121
:100D00007702A0917802B09179020196A11DB11DE0
:100D10008093760290937702A0937802B093790241
:100D2000BF91AF919F918F913F912F910F900FBEE7
:100D30000F901F90189526E8230F0296A11DB11D54
:100D4000D2CF1F920F920FB60F9211248F939F93C1
:100D500081E080938C0280917402909175020097DB
:100D600029F001979093750280937402809172022A
:100D700090917302009729F00197909373028093EA
:100D800072028091970290919802009729F0019742
:100D900090939802809397028091700290917102D3
:100DA000009729F00197909371028093700286EE6C
:100DB00099EF90938500809384009F918F910F907D
:100DC0000FBE0F901F901895EFEAF2E01382128287
:100DD00048EE53E060E070E0448355836683778398
:100DE0008AE192E09183808325ED30E03587248786
:100DF00024ED30E03787268720ED30E0318B208BE3
:100E000021ED30E0338B228B22ED30E0358B248BCB
:100E100026ED30E0378B268B118E128E138E148EBA
:100E2000ECE4F3E013821282448355836683778374
:100E30009183808385EC90E09587848784EC90E0B3
:100E40009787868780EC90E0918B808B81EC90E097
:100E5000938B828B82EC90E0958B848B86EC90E078
:100E6000978B868B118E128E138E148EE9EEF3E023
:100E7000138212828CE292E09183808388E08483E3
:100E80008FEF858389E0868384E0878385E0808790
:100E900086E0818787E0828713861486158616860A
:100EA000178681E0A3CDCF93DF9300D000D01F92AF
:100EB0001F92CDB7DEB7789484B5826084BD84B5C7
:100EC000816084BD85B5826085BD85B5816085BD45
:100ED00080916E00816080936E00109281008091FD
:100EE0008100826080938100809181008160809385
:100EF0008100809180008160809380008091B100AA
:100F000084608093B1008091B00081608093B000D4
:100F10008091910082608093910080919100816026
:100F200080939100809190008160809390008091E7
:100F3000A10082608093A1008091A10081608093D4
:100F4000A1008091A00081608093A0008091210188
:100F50008260809321018091210181608093210131
:100F60008091200181608093200180917A008460CB
:100F700080937A0080917A00826080937A008091D9
:100F80007A00816080937A0080917A0080688093F3
:100F90007A001092C10083E05AD98FE258D981E3D8
:100FA00056D985E254D987E252D989E250D960E016
:100FB00083E0B6DA60E08FE2B3DA60E081E3B0DAD2
:100FC00060E085E2ADDA60E087E2AADA60E089E21B
:100FD000A7DAE0915C03F0915D0322E02083E091C9
:100FE0005C03F0915D031082E0915803F091590386
:100FF0001082E0915A03F0915B0390E1908310928C
:101000006403E0916003F091610386E28083E091E4
:101010005E03F0915F03808180618083E0915E03D5
:10102000F0915F03808188608083E0915E03F0919E
:101030005F03808180688083E0915E03F0915F03AD
:1010400080818F7D8083E091BF02F091C002208378
:10105000E091BB02F091BC021082E091BD02F091E0
:10106000BE0290831092C702E091C302F091C402C5
:1010700086E08083E091C102F091C20280818061AC
:101080008083E091C102F091C202808188608083F8
:10109000E091C102F091C202808180688083E0917A
:1010A000C102F091C20280818F7D808382E09EDC4C
:1010B00060E080E02BDD1092800010928100809132
:1010C000810085608093810086EE99EF9093850082
:1010D0008093840080916F00816080936F00809185
:1010E000120290911302A0911402B09115028D8307
:1010F0009E83AF83B8873AE0232E312C01E010E0C5
:1011000080918C02882309F444C010928C02809153
:101110008A0290918B029C012F5F3F4F30938B028C
:1011200020938A020A9734F4809188029091890270
:101130000597E4F410928B0210928A021092AE028C
:101140001092AD028D819E81AF81B88589839A838B
:10115000AB83BC83BE016F5F7F4F8CE493E070DA9A
:101160001092870210928902109288028091870261
:1011700081110FC063E68CE493E03CD961E38CE419
:1011800093E038D991E090938702109289021092EF
:1011900088028CE493E0EED8181619062CF510920C
:1011A0008B0210928A02E0908802F0908902A5E0FA
:1011B000EA16F104CCF48CE493E0BAD8F701EE0F10
:1011C000FF1FE358FD4F91838083B2E0EB16F104DB
:1011D00009F4CBC00CF045C0E114F10409F49FC040
:1011E000EA94EF2809F4ACC08091AD029091AE0270
:1011F000892B91F1C090A502D090A602E090A702A1
:10120000F090A80280910E0290910F02892B09F4B0
:1012100053C120E030E040EA50E4C701B60160D598
:1012200087FD09C020E030E048E452E4C701B60180
:10123000A1D6181624F4109296021092950280916D
:101240009502909196028130910509F4EBC008F463
:10125000BEC0029709F430C160E08FE261D960E05E
:1012600059C123E0E216F10409F48AC084E0E816CB
:10127000F10409F0B9CF80918502909186028F34F4
:10128000910509F09FC060917B0280917C02762FCE
:10129000682F072E000C880B990BBCD520E030E09E
:1012A00040E251E421D56B017C012DEC3CEC4CEC8F
:1012B0005DE360D687FF6FC01092AE021092AD0260
:1012C00030928B0220928A0240910A0250910B02C6
:1012D00060910C0270910D0222E08FEA92E00BDA2D
:1012E0006BE572E08FEA92E005DA4091A502509139
:1012F000A6026091A7027091A80222E08FEA92E014
:10130000FAD960E472E08FEA92E09AD9ADE7B2E0F0
:10131000E5E01D92EA95E9F71092870207C08091F7
:101320007D0290917E028336910529F01092890208
:101330001092880259CF109389020093880254CFEB
:1013400080917F0290918002C19741F010928902B2
:10135000109288028CE493E099D846CFA2E0B0E0E6
:10136000B0938902A09388023FCF8091810280933D
:101370007C02E3E0F0E0F0938902E093880234CF4E
:101380008091830280937B0284E090E090938902B5
:101390008093880229CF20E030E048E453E4C7017D
:1013A000B6019ED418160CF487CF1093AE020093AA
:1013B000AD02C092A502D092A602E092A702F092DE
:1013C000A80282CF30928B0220928A029FCF20E027
:1013D00030E040EE50E4C701B601CCD518160CF051
:1013E0003BCF20E030E048E452E4C701B60178D4B6
:1013F00087FF32CF10939602009395022FB7F8948F
:1014000080918D0290918E02A0918F02B0919002F6
:101410002FBF8093910290939202A0939302B09376
:1014200094021ACF2FB7F89460918D0270918E02BA
:1014300080918F02909190022FBFEAD46B017C01C2
:101440006091910270919202809193029091940226
:10145000E1D44B015C0120E030E04AE754E46091C4
:10146000060270910702809108029091090286D5C8
:101470009B01AC01C501B401CFD39B01AC01C701F5
:10148000B60178D518160CF0E7CE82E090E0909384
:101490009602809395028091A5029091A602A09158
:1014A000A702B091A80280930A0290930B02A09326
:1014B0000C02B0930D02D0CE80900A0290900B02E5
:1014C000A0900C02B0900D024090020250900302D6
:1014D0006090040270900502A3019201C501B4015D
:1014E0009BD39B01AC01C701B60144D561E018163E
:1014F0000CF4B3CEA3019201C501B4018CD39B01BE
:10150000AC01C701B601ECD360E087FFA6CE8FE245
:1015100007D861E081E304D88091AD029091AE02DA
:101520009093110280931002009709F45FC061E06C
:10153000019709F475C00E944601803591050CF0B1
:1015400077C08091A1029091A2029C012F5F3F4F32
:101550003093A2022093A102209100023091010257
:10156000821793070CF461C01092A2021092A1029C
:1015700081E090E01092A00210929F0210929E02D1
:1015800010929D0210929C0210929B0210929A025D
:10159000109299022091A9023091AA0240910E0264
:1015A00050910F028330910509F442C20CF0A4C19E
:1015B0008130910509F4A6C1029709F007C12230D4
:1015C000310509F4CDC12330310509F40FC22130B2
:1015D000310509F0FBC081E090E0452B11F090E06F
:1015E00080E090930F0280930E02F0C080919702EA
:1015F00090919802009729F43092980220929702D5
:101600009ACF60E0069764F089E20E94900261E060
:1016100087E20E94900260E085E20E9490028BCFF8
:1016200089E20E94900260E0F3CF90E080E0A2CFD8
:101630000E944601883C910564F520919F023091FB
:10164000A002C90101969093A00280939F0280910D
:1016500000029091010228173907C4F01092A002ED
:1016600010929F021816190664F4019790930102D4
:101670008093000282E090E01092A2021092A102F8
:101680007DCF1092010210920002F4CF90E080E032
:10169000F3CF0E9446018039914084F520919D024C
:1016A00030919E02C901019690939E0280939D0203
:1016B000809100029091010228173907E4F01092FE
:1016C0009E0210929D021816190684F401979093B9
:1016D00001028093000283E090E01092A202109237
:1016E000A1021092A00210929F024CCF1092010210
:1016F00010920002F0CF90E080E0EFCF0E94460110
:101700008835924044F580919B0290919C029C0107
:101710002F5F3F4F30939C0220939B022091000249
:1017200030910102821793079CF010929C02109254
:101730009B0284E090E01092A2021092A10210920B
:10174000A00210929F0210929E0210929D021ECF44
:1017500090E080E0F0CF0E9446018032934064F533
:101760008091990290919A029C012F5F3F4F309394
:101770009A0220939902209100023091010282176F
:101780009307BCF010929A021092990285E090E0C3
:101790001092A2021092A1021092A00210929F0237
:1017A00010929E0210929D0210929C0210929B0237
:1017B000F1CE90E080E0ECCF1093AC020093AB024E
:1017C0008FE090E090930102809300028091A30249
:1017D0009091A402AC014F5F5F4F883291050CF0ED
:1017E0007EC15093A4024093A302F12C60E080E0FC
:1017F0008DD98091A9029091AA0220910E02309178
:101800000F02232B09F096C1019721F469E572E0DC
:10181000F11002C063E472E089EE93E00E947A0363
:1018200067E472E089EE93E00E947A034091A5029A
:101830005091A6026091A7027091A80221E089EE62
:1018400093E00E947B036FE472E089EE93E00E94D4
:101850007A0361E080E05AD962E572E089EE93E0B4
:101860000E947A038091A9029091AA02029709F03E
:1018700051C1FF2009F44EC167E572E089EE93E0A3
:101880000E947A0320E030E040E251E460910A02D5
:1018900070910B0280910C0290910D026BD361E06C
:1018A00087FD46C188E032D96DE572E089EE93E0AC
:1018B0000E947A0361E08AE029D96DE672E089EE40
:1018C00093E00E947A038091A9029091AA02039763
:1018D00009F093C1FF2009F490C169E572E089EE37
:1018E00093E00E947A0360E572E089EE93E00E9443
:1018F0007A030E94650204CC84309105E9F00597D3
:1019000009F064CF8091AB029091AC02019709F08D
:101910005DCF233031053CF42F5F3F4F3093AA0257
:101920002093A90204C01092AA021092A902109258
:10193000AC021092AB024ACF8091AB029091AC0204
:10194000019709F043CF121613061CF421503109F8
:10195000E5CFA3E0B0E0B093AA02A093A902E7CF3D
:10196000452B11F5C0900A02D0900B02E0900C02BA
:10197000F0900D022DEC3CEC47EC52E4C701B601AF
:10198000AFD118160CF422CF2DEC3CEC4CEC5DE3FF
:10199000C701B60141D160930A0270930B02809394
:1019A0000C0290930D0212CFC0900602D090070255
:1019B000E0900802F09009022DEC3CEC47EC52E478
:1019C000C701B6018DD118160CF400CF2DEC3CECFC
:1019D0004CEC5DE3C701B6011FD160930602709322
:1019E00007028093080290930902F0CEC090020291
:1019F000D0900302E0900402F090050226E636E65D
:101A00004EE151E4C701B6016BD118160CF4DECEDD
:101A10002DEC3CEC4CEC5DE3C701B601FDD06093CE
:101A20000202709303028093040290930502CECECB
:101A300022303105F1F02330310509F0C8CDC090D6
:101A40000202D0900302E0900402F09005022DEC17
:101A50003CEC4CEC5DE3C701B6018CD218160CF0DF
:101A6000B5CE2DEC3CEC4CEC5DE3C701B601D3D018
:101A7000D6CF452BD1F4C0900A02D0900B02E09053
:101A80000C02F0900D022DEC3CEC4CEC5DE3C70138
:101A9000B60170D218160CF099CE2DEC3CEC4CEC43
:101AA0005DE3C701B601B7D076CFC0900602D090F3
:101AB0000702E0900802F09009022DEC3CEC4CEC9F
:101AC0005DE3C701B60156D218160CF07FCE2DEC9F
:101AD0003CEC4CEC5DE3C701B6019DD07ECF9C0190
:101AE0002E5F3F4F403551053CF43093A4022093C4
:101AF000A302FF24F3947ACE2235310534F4039601
:101B00009093A4028093A302F4CF1092A4021092A7
:101B1000A302EFCF40910A0250910B0260910C0298
:101B200070910D0221E089EE93E00E947B03AACE22
:101B300087E0B9CE019721F469E572E0F11002C0A7
:101B400060E672E089EE93E00E947A0367E472E057
:101B500089EE93E00E947A034091A5025091A6027B
:101B60006091A7027091A80221E089EE93E00E94A3
:101B70007B036FE472E089EE93E00E947A0361E0F8
:101B800080E00E94860564E672E089EE93E00E94A0
:101B90007A038091A9029091AA020297F1F4FF20A2
:101BA000E1F068E572E089EE93E00E947A0320E0BC
:101BB00030E040E251E460910602709107028091AA
:101BC000080290910902D6D161E087FD14C089E036
:101BD0000E9486056AE672E069CE40910602509145
:101BE0000702609108027091090221E089EE93E0FA
:101BF0000E947B03DCCF88E0EBCF40910202509142
:101C00000302609104027091050221E089EE93E0E5
:101C10000E947B0368CE5058BB27AA270ED070C104
:101C200061D130F066D120F031F49F3F11F41EF401
:101C300056C10EF4E095E7FB4CC1E92F72D180F359
:101C4000BA17620773078407950718F071F49EF5B9
:101C50008AC10EF4E0950B2EBA2FA02D0B01B9010D
:101C600090010C01CA01A0011124FF27591B99F012
:101C7000593F50F4503E68F11A16F040A22F232F1E
:101C8000342F4427585FF3CF469537952795A7956E
:101C9000F0405395C9F77EF41F16BA0B620B730B15
:101CA000840BBAF09150A1F0FF0FBB1F661F771F86
:101CB000881FC2F70EC0BA0F621F731F841F48F43B
:101CC000879577956795B795F7959E3F08F0B3CFC1
:101CD0009395880F08F09927EE0F979587950895AB
:101CE000D4D008F481E008950CD00AC102D140F0AC
:101CF000F9D030F021F45F3F19F0EBC0511134C13D
:101D0000EEC00FD198F39923C9F35523B1F3951B76
:101D1000550BBB27AA2762177307840738F09F5F0C
:101D20005F4F220F331F441FAA1FA9F333D00E2E7B
:101D30003AF0E0E830D091505040E695001CCAF7E8
:101D400029D0FE2F27D0660F771F881FBB1F2617AD
:101D500037074807AB07B0E809F0BB0B802DBF0180
:101D6000FF2793585F4F2AF09E3F510568F0B1C09E
:101D7000FBC05F3FECF3983EDCF386957795679563
:101D8000B795F7959F5FC9F7880F911D9695879531
:101D900097F90895E1E0660F771F881FBB1F621750
:101DA00073078407BA0720F0621B730B840BBA0B0E
:101DB000EE1F88F7E0950895BCD088F09F5790F00B
:101DC000B92F9927B751A0F0D1F0660F771F881F60
:101DD000991F1AF0BA95C9F712C0B13081F0C3D07B
:101DE000B1E00895C0C0672F782F8827B85F39F019
:101DF000B93FCCF3869577956795B395D9F73EF4BF
:101E000090958095709561957F4F8F4F9F4F089566
:101E1000E89409C097FB3EF4909580957095619584
:101E20007F4F8F4F9F4F9923A9F0F92F96E9BB273A
:101E30009395F695879577956795B795F111F8CFB6
:101E4000FAF4BB0F11F460FF1BC06F5F7F4F8F4F21
:101E50009F4F16C0882311F096E911C0772321F017
:101E60009EE8872F762F05C0662371F096E8862FAF
:101E700070E060E02AF09A95660F771F881FDAF706
:101E8000880F9695879597F90895990F0008550F33
:101E9000AA0BE0E8FEEF16161706E807F907C0F0F0
:101EA00012161306E407F50798F0621B730B840BF8
:101EB000950B39F40A2661F0232B242B252B21F4D2
:101EC00008950A2609F4A140A6958FEF811D811D72
:101ED000089597F99F6780E870E060E008959FEFAC
:101EE00080EC089500240A941616170618060906B1
:101EF000089500240A941216130614060506089580
:101F0000092E0394000C11F4882352F0BB0F40F407
:101F1000BF2B11F460FF04C06F5F7F4F8F4F9F4F47
:101F2000089557FD9058440F551F59F05F3F71F0C9
:101F30004795880F97FB991F61F09F3F79F0879530
:101F40000895121613061406551FF2CF4695F1DFB9
:101F500008C0161617061806991FF1CF8695710549
:101F6000610508940895E894BB2766277727CB017D
:101F700097F908958ADF08F48FEF08950BD0C0CF4A
:101F8000B1DF28F0B6DF18F0952309F0A2CFA7CF74
:101F90001124EACFC6DFA0F3959FD1F3950F50E04F
:101FA000551F629FF001729FBB27F00DB11D639F0B
:101FB000AA27F00DB11DAA1F649F6627B00DA11DB1
:101FC000661F829F2227B00DA11D621F739FB00D57
:101FD000A11D621F839FA00D611D221F749F3327C7
:101FE000A00D611D231F849F600D211D822F762F60
:101FF0006A2F11249F5750408AF0E1F088234AF05D
:10200000EE0FFF1FBB1F661F771F881F91505040A8
:10201000A9F79E3F510570F05CCFA6CF5F3FECF370
:10202000983EDCF3869577956795B795F795E79594
:102030009F5FC1F7FE2B880F911D9695879597F9A5
:10204000089523DF880B990B0895A1E21A2EAA1B8D
:10205000BB1BFD010DC0AA1FBB1FEE1FFF1FA21758
:10206000B307E407F50720F0A21BB30BE40BF50B55
:10207000661F771F881F991F1A9469F760957095DE
:10208000809590959B01AC01BD01CF010895EE0FA5
:10209000FF1F881F8BBF0790F691E02D1994F894CD
:0220A000FFCF70
:1020A2000F000000003F00006040000040410100BE
:1020B200FFFFFFFFFFFF00000000FA015C01890142
:1020C2004602BA019801AC010000000094055C01CF
:1020D2001D031C036E616E00696E66006F766600FA
:1020E2000D0A0028412900204152434F3A20002086
:1020F20056005265663A002020202020005620001B
:1021020028422900744573743A007320002B2D0075
:020000023000CC
:10E000000D9489F10D94B2F10D94B2F10D94B2F129
:10E010000D94B2F10D94B2F10D94B2F10D94B2F1F0
:10E020000D94B2F10D94B2F10D94B2F10D94B2F1E0
:10E030000D94B2F10D94B2F10D94B2F10D94B2F1D0
:10E040000D94B2F10D94B2F10D94B2F10D94B2F1C0
:10E050000D94B2F10D94B2F10D94B2F10D94B2F1B0
:10E060000D94B2F10D94B2F10D94B2F10D94B2F1A0
:10E070000D94B2F10D94B2F10D94B2F10D94B2F190
:10E080000D94B2F10D94B2F10D94B2F10D94B2F180
:10E090000D94B2F10D94B2F10D94B2F10D94B2F170
:10E0A0000D94B2F10D94B2F10D94B2F10D94B2F160
:10E0B0000D94B2F10D94B2F10D94B2F10D94B2F150
:10E0C0000D94B2F10D94B2F10D94B2F10D94B2F140
:10E0D0000D94B2F10D94B2F10D94B2F10D94B2F130
:10E0E0000D94B2F141546D656761323536300041AF
:10E0F000726475696E6F206578706C6F72657220DE
:10E1000073746B3530305632206279204D4C530099
:10E11000426F6F746C6F616465723E004875683F52
:10E1200000436F6D70696C6564206F6E203D200048
:10E130004350552054797065202020203D20005FF9
:10E140005F4156525F415243485F5F3D2000415658
:10E1500052204C696243205665723D20004743437C
:10E160002056657273696F6E203D20004350552024
:10E1700049442020202020203D20004C6F7720663D
:10E18000757365202020203D20004869676820665F
:10E190007573652020203D200045787420667573D6
:10E1A00065202020203D20004C6F636B2066757336
:10E1B000652020203D20004D617220203720323024
:10E1C000313300312E362E3800342E332E350056A2
:10E1D00023202020414444522020206F7020636F70
:10E1E00064652020202020696E73747275637469E1
:10E1F0006F6E2061646472202020496E74657272B3
:10E20000757074006E6F20766563746F7200726A49
:10E210006D702020006A6D70200057686174207056
:10E220006F72743A00506F7274206E6F7420737541
:10E2300070706F72746564004D7573742062652030
:10E2400061206C6574746572002000577269747483
:10E25000696E672045450052656164696E672045B7
:10E26000450045452065727220636E743D00504F35
:10E27000525400303D5A65726F2061646472003FF1
:10E280003D43505520737461747300403D454550C3
:10E29000524F4D207465737400423D426C696E6B41
:10E2A000204C454400453D44756D70204545505215
:10E2B0004F4D00463D44756D7020464C415348001B
:10E2C000483D48656C70004C3D4C69737420492F83
:10E2D0004F20506F72747300513D51756974005234
:10E2E0003D44756D702052414D00563D73686F7707
:10E2F00020696E7465727275707420566563746FF0
:10E30000727300593D506F727420626C696E6B00BD
:10E310002A0011241FBECFEFD1E2DEBFCDBF01E046
:10E320000CBF12E0A0E0B2E0EEE1FDEF03E00BBFB6
:10E3300002C007900D92A030B107D9F712E0A0E01B
:10E34000B2E001C01D92AE30B107E1F70F9460F367
:10E350000D948DFE01E20EBF0FEF0DBF11241FBE05
:10E360000D9460F30D9400F020E030E040ED57E0B4
:10E3700005C0FA013197F1F72F5F3F4F2817390792
:10E38000C0F308959C01260F311DC901A0E0B0E043
:10E390002F5F3F4FABBFFC018791882361F08093D3
:10E3A000C6008091C00086FFFCCF8091C0008064D1
:10E3B0008093C000EACF08958DE08093C6008091DD
:10E3C000C00086FFFCCF8091C00080648093C000B5
:10E3D0008AE08093C6008091C00086FFFCCF8091C8
:10E3E000C00080648093C00008950F94C2F10F9420
:10E3F000DCF10895FC019081992359F09093C600B7
:10E400008091C00086FFFCCF8091C0008064809323
:10E41000C0003196992379F70895282F982F929567
:10E420009F70892F805D8A3308F0895F8093C600D2
:10E430008091C00086FFFCCF8091C00080648093F3
:10E44000C000822F8F70982F905D9A3308F0995FEB
:10E450009093C6008091C00086FFFCCF8091C000E1
:10E4600080648093C00008959C01FB01853691056E
:10E470001CF46330710594F0C90164E670E00F94F8
:10E480002EFE605D7F4F6093C6008091C00086FFC6
:10E49000FCCF8091C00080648093C0002B30310598
:10E4A00014F43297B4F0C90164E670E00F942EFEC4
:10E4B0006AE070E00F942EFE605D7F4F6093C600AF
:10E4C0008091C00086FFFCCF8091C0008064809363
:10E4D000C000C9016AE070E00F942EFEC0968093E0
:10E4E000C6008091C00086FFFCCF8091C000806490
:10E4F0008093C00008951F93182F8EE692EE60E07F
:10E500000F94C2F11093C6008091C00086FFFCCF2B
:10E510008091C00080648093C0000F94DCF11F9153
:10E5200008952F923F924F925F926F927F928F92B7
:10E530009F92AF92BF92CF92DF92EF92FF920F9392
:10E540001F93DF93CF93CDB7DEB762970FB6F894E2
:10E55000DEBF0FBECDBF382E622ECA01DB015C01CB
:10E560006D01772420E2222E2E010894411C511CBB
:10E570008BC081E0A81680E0B80681E0C80680E084
:10E58000D80628F0C601AA27BB270F940DF2BB2797
:10E59000AD2D9C2D8B2D0F940DF28A2D0F940DF225
:10E5A0002092C6008091C00086FFFCCF8091C00001
:10E5B00080648093C0009DE29093C6008091C0006B
:10E5C00086FFFCCF8091C00080648093C0002092C1
:10E5D000C6008091C00086FFFCCF8091C00080649F
:10E5E0008093C00019828601750188249924A1E0D6
:10E5F0003A1651F03A1620F0B2E03B1661F409C029
:10E600000BBFF701779007C0C7010F9477FE782EF4
:10E6100002C0F7017080872D0F940DF22092C60082
:10E620008091C00086FFFCCF8091C0008064809301
:10E63000C000872D8052F401EF70F0708F3520F408
:10E64000E40DF51D708204C0E40DF51D8EE280839B
:10E650000894E11CF11C011D111D0894811C911CE2
:10E6600090E18916910409F0C2CF80E190E0A0E02A
:10E67000B0E0A80EB91ECA1EDB1E198AC2010F9493
:10E68000FAF10F94DCF16A94662009F072CF629679
:10E690000FB6F894DEBF0FBECDBFCF91DF911F91B3
:10E6A0000F91FF90EF90DF90CF90BF90AF909F9031
:10E6B0008F907F906F905F904F903F902F90089534
:10E6C0002F923F924F925F926F927F928F929F9282
:10E6D000AF92BF92CF92DF92EF92FF920F931F9370
:10E6E000DF93CF93CDB7DEB7CD53D1400FB6F894BB
:10E6F000DEBF0FBECDBF01E20EBF0FEF0DBF94B75F
:10E70000F894A89514BE80916000886180936000A1
:10E7100010926000789493FF05C0E0910002F091A0
:10E7200001021995279A2F9A8091C00082608093E8
:10E73000C00080E18093C40088E18093C1000000A4
:10E74000EE24FF24870144E0A42EB12CCC24DD2448
:10E7500024C0C5010197F1F70894E11CF11C011DCB
:10E76000111D21E2E2162EE4F20620E0020720E06D
:10E77000120718F031E0C32ED12CC801B70127ECE5
:10E780003BE140E050E00F9441FE611571058105C9
:10E79000910519F485B1805885B98091C00087FD35
:10E7A00003C0C114D104A9F2A6014F5F5F4FC25E3E
:10E7B000DE4F59834883CE51D140C25EDE4F8881FF
:10E7C0009981CE51D140019711F00D9410FEC05D9A
:10E7D000DE4F19821882C053D14060E0C15DDE4F28
:10E7E0001882CF52D14088249924C35DDE4F19820C
:10E7F0001882CD52D140C05EDE4F188219821A8233
:10E800001B82C052D140CE5CDE4F188219821A8220
:10E810001B82C253D140EE24FF2487010BBFF701B6
:10E8200007911691C45CDE4F19830883CC53D14005
:10E830000D940BFEC25EDE4F28813981CE51D1404E
:10E840002130310509F52091C600C25EDE4F1982E4
:10E850001882CE51D14022C02F5F3F4F4F4F5F4FA4
:10E86000213082E138078AE7480780E0580780F0C6
:10E87000C45CDE4FE881F981CC53D140EF5FFF4F9C
:10E8800019F0EE27FF27099420E030E040E050E047
:10E890008091C00087FFE0CF2091C600C35DDE4FAE
:10E8A00048815981CD52D1404F5F5F4FC35DDE4FEC
:10E8B00059834883CD52D140213209F063C64A3092
:10E8C000510508F05FC60894811C911C53E0851621
:10E8D000910409F059C600E010E018C081E280936D
:10E8E000C6008091C00086FFFCCF8091C00080648C
:10E8F0008093C0002F5F3F4F2931310579F70F9486
:10E90000DCF10F5F1F4F0530110519F020E030E0FA
:10E91000E5CF10920A0210920B0210920C02109294
:10E920000D02109206021092070210920802109235
:10E930000902109202021092030210920402109235
:10E9400005028FEE90EE60E00F94F5F180E191EE1C
:10E9500060E00F94C2F18091C00087FFFCCF9091DE
:10E96000C600903608F09F759032B8F09093C600BC
:10E970008091C00086FFFCCF8091C00080648093AE
:10E98000C000A0E2A093C6008091C00086FFFCCF2B
:10E990008091C00080648093C000983409F4D7C18E
:10E9A0009934B8F4923409F459C1933458F490333B
:10E9B00019F1903308F4E3C59F33A1F1903409F0C5
:10E9C000DEC5BDC0953409F470C1963409F0D7C5D1
:10E9D00098C1923509F42BC2933538F49C3409F46C
:10E9E000F5C1913509F0CBC518C2963509F445C279
:10E9F000993509F0C4C567C483E792EE62E00F94CD
:10EA0000F5F110920602109207021092080210927D
:10EA1000090210920A0210920B0210920C0210923C
:10EA20000D0213C18FE792EE62E00F94F5F18FEEC5
:10EA300090EE60E00F94F5F181E291EE60E00F94CA
:10EA4000C2F187EB91EE60E00F94F5F180E391EE77
:10EA500060E00F94C2F184EE90EE60E00F94F5F167
:10EA60008FE391EE60E00F94C2F186E090E061E008
:10EA700070E00F9434F20F94DCF18DE591EE60E0DC
:10EA80000F94C2F189EC91EE60E00F94F5F18EE401
:10EA900091EE60E00F94C2F183EC91EE60E00F9490
:10EAA000F5F18CE691EE60E00F94C2F18EE10F94E7
:10EAB0000DF288E90F940DF281E00F940DF20F949E
:10EAC000DCF18BE791EE60E00F94C2F119E0E0E039
:10EAD000F0E010935700E4918E2F0F940DF20F94F5
:10EAE000DCF18AE891EE60E00F94C2F1E3E0F0E03F
:10EAF00010935700E4918E2F0F940DF20F94DCF1D8
:10EB000089E991EE60E00F94C2F1E2E0F0E0109349
:10EB10005700E4918E2F0F940DF20F94DCF188EAE8
:10EB200091EE60E00F94C2F1E1E0F0E01093570045
:10EB30001491812F0F940DF20F94DCF107CF8BE825
:10EB400092EE62E00F94F5F18BE492EE60E00F94A8
:10EB5000F5F10F94DCF100E010E019C0C8016F2D51
:10EB60000F947FFEFF2031F489E492EE60E00F9471
:10EB7000C2F10BC0F092C6008091C00086FFFCCFAE
:10EB80008091C00080648093C0000F5F1F4FC80158
:10EB900081519F41A0E0B0E0ABBFFC01F790BAE229
:10EBA000FB1621F0E2E000301E07C1F60F94DCF105
:10EBB0000F94DCF187E592EE60E00F94F5F10F948D
:10EBC000DCF1CC24DD2400E010E01EC0C8010F946D
:10EBD00077FEF82E882331F489E492EE60E00F94FA
:10EBE000C2F10BC08093C6008091C00086FFFCCFAD
:10EBF0008091C00080648093C000FE1419F00894D6
:10EC0000C11CD11C0F5F1F4FC80181519F41A0E063
:10EC1000B0E0ABBFFC01E790FAE2EF1621F022E092
:10EC20000030120799F60F94DCF10F94DCF182E6C4
:10EC300092EE60E00F94C2F1C60161E070E00F94C3
:10EC400034F20F94DCF10F94DCF110920202109276
:10EC50000302109204021092050278CE89E992EE26
:10EC600062E00F94F5F1279A2F9A16C02F9880E052
:10EC700090E0E0EDF7E03197F1F7019684369105E9
:10EC8000C1F72F9A80E090E0E0EDF7E03197F1F7DF
:10EC9000019684369105C1F78091C00087FFE6CFC9
:10ECA0008091C00087FFFCCF64C485EA92EE62E0E9
:10ECB0000F94F5F140910202509103026091040219
:10ECC0007091050281E020E10F9491F2809102029F
:10ECD00090910302A0910402B091050280509F4FD1
:10ECE000AF4FBF4F8093020290930302A0930402A0
:10ECF000B093050280509041A040B04008F426CE69
:10ED0000A4CF83EB92EE62E00F94F5F140910602FE
:10ED100050910702609108027091090280E020E1A1
:10ED20000F9491F28091060290910702A09108023F
:10ED3000B091090280509F4FAF4FBF4F80930602A2
:10ED400090930702A0930802B0930902FFCD80ECD4
:10ED500092EE62E00F94F5F183E792EE60E00F949B
:10ED6000F5F18FE792EE60E00F94F5F18BE892EE0B
:10ED700060E00F94F5F189E992EE60E00F94F5F10F
:10ED800085EA92EE60E00F94F5F183EB92EE60E09D
:10ED90000F94F5F180EC92EE60E00F94F5F187ECC2
:10EDA00092EE60E00F94F5F188ED92EE60E00F9442
:10EDB000F5F18FED92EE60E00F94F5F18AEE92EEB0
:10EDC00060E00F94F5F183E093EEBDCD87EC92EE19
:10EDD00062E00F94F5F181E40F947BF282E40F94EA
:10EDE0007BF283E40F947BF284E40F947BF285E45E
:10EDF0000F947BF286E40F947BF287E40F947BF20E
:10EE000088E40F947BF28AE40F947BF28BE40F94F6
:10EE10007BF28CE40F947BF299CD88ED92EE62E068
:10EE20000F94F5F1772473948824992409C48FED05
:10EE300092EE62E00F94F5F140910A0250910B02BC
:10EE400060910C0270910D0282E020E10F9491F22A
:10EE500080910A0290910B02A0910C02B0910D02D8
:10EE600080509F4FAF4FBF4F80930A0290930B0289
:10EE7000A0930C02B0930D0269CD8AEE92EE62E08F
:10EE80000F94F5F184EE90EE60E00F94F5F18FECC5
:10EE900091EE60E00F94F5F1662477244301CC5D98
:10EEA000DE4F19821882C452D140D401C301B695F5
:10EEB000A79597958795CA5DDE4F88839983AA8326
:10EEC000BB83C652D140CC5DDE4FA881B981C4520C
:10EED000D1401196CC5DDE4FB983A883C452D14096
:10EEE000CD0162E070E00F9434F2B0E2B093C6005E
:10EEF0008091C00086FFFCCF8091C0008064809329
:10EF0000C000EDE2E093C6008091C00086FFFCCF18
:10EF10008091C00080648093C000F0E2F093C6004E
:10EF20008091C00086FFFCCF8091C00080648093F8
:10EF3000C000CA5DDE4FE880F9800A811B81C6529D
:10EF4000D140BB27A12F902F8F2D0F940DF2CA5DBA
:10EF5000DE4F8881C652D1400F940DF2B0E2FB2EF5
:10EF6000F092C6008091C00086FFFCCF8091C00067
:10EF700080648093C0000DE30093C6008091C000C0
:10EF800086FFFCCF8091C00080648093C00010E2B7
:10EF90001093C6008091C00086FFFCCF8091C00016
:10EFA00080648093C0008BBEF3012791C65DDE4F65
:10EFB0002883CA52D140A22EBB24CC24DD2408943D
:10EFC000611C711C811C911C8BBEF3018791282E42
:10EFD0003324442455240894611C711C811C911C09
:10EFE0008BBEF3013791C55DDE4F3883CB52D140E4
:10EFF0000894611C711C811C911C8BBEF30147910C
:10F00000C45DDE4F4883CC52D140ADEFEA2EAFEF66
:10F01000FA2EAFEF0A2FAFEF1A2F6E0C7F1C801E57
:10F02000911E142D032DF22CEE24EA0CFB1C0C1D5A
:10F030001D1D0F940DF220E22093C6008091C000A8
:10F0400086FFFCCF8091C00080648093C000C65DC5
:10F05000DE4F8881CA52D1400F940DF230E23093D6
:10F06000C6008091C00086FFFCCF8091C000806404
:10F070008093C000C45DDE4F8881CC52D1400F9494
:10F080000DF240E24093C6008091C00086FFFCCFA5
:10F090008091C00080648093C000C55DDE4F888190
:10F0A000CB52D1400F940DF250E25093C6008091A4
:10F0B000C00086FFFCCF8091C00080648093C000B8
:10F0C0008FEFE8168FEFF80680E0080780E018075A
:10F0D00031F484E092EE60E00F94C2F1DFC0D80119
:10F0E000C7018070907CA070B0708050904CA040A0
:10F0F000B040D1F52FEF3FE340E050E0E222F322B1
:10F1000004231523CA5DDE4FA880B980CA80DB8046
:10F11000C652D140AE0CBF1CC01ED11EAA0CBB1CD7
:10F12000CC1CDD1C8EE092EE60E00F94C2F1BB2798
:10F13000A12F902F8F2D0F940DF28E2D0F940DF285
:10F1400030E23093C6008091C00086FFFCCF8091F2
:10F15000C00080648093C0004EE34093C60080915D
:10F16000C00086FFFCCF87C08EE09EEFA0E0B0E03D
:10F17000E822F9220A231B239CE0E91694E9F90608
:10F1800090E0090790E0190709F088C0C45DDE4FE0
:10F19000A881CC52D140EA2EFF2400E010E0102FCD
:10F1A0000F2DFE2CEE24C55DDE4FB881CB52D14031
:10F1B000EB0EF11C011D111DD601C501817090706F
:10F1C000A070B070DC0199278827E80EF91E0A1F8D
:10F1D0001B1F20EF30E040E050E0A222B322C42207
:10F1E000D52241E1AA0CBB1CCC1CDD1C4A95D1F7F1
:10F1F000EA0CFB1C0C1D1D1D81E090E0A0E0B0E0BE
:10F20000282239224A225B2235E1220C331C441C7D
:10F21000551C3A95D1F7E20CF31C041D151D57013E
:10F220006801AA0CBB1CCC1CDD1C85E192EE60E0E1
:10F230000F94C2F1C801AA27BB270F940DF2BB2778
:10F24000A12F902F8F2D0F940DF28E2D0F940DF274
:10F2500090E29093C6008091C00086FFFCCF809121
:10F26000C00080648093C000AEE3A093C60080918C
:10F27000C00086FFFCCF8091C00080648093C000F6
:10F28000C601AA27BB270F940DF2BB27AD2D9C2DDD
:10F290008B2D0F940DF28A2D0F940DF20F94DCF14B
:10F2A000CC5DDE4FE881F981C452D140F99709F471
:10F2B0004DCBF4E0EF2EF12C012D112D6E0C7F1CA7
:10F2C000801E911EF2CD83E093EE62E00F94F5F183
:10F2D0008AE192EE60E00F94C2F18091C00087FF56
:10F2E000FCCF1091C6001F751093C6008091C0001E
:10F2F00086FFFCCF8091C00080648093C0000F9493
:10F30000DCF1812F81548A3108F036C1163409F4BA
:10F3100095C0173490F4133409F44EC0143430F40B
:10F320001134F1F0123409F01DC130C0143409F465
:10F3300059C0153409F016C16BC01A3409F4C4C0A1
:10F340001B3438F4173409F48FC0183409F00AC19B
:10F35000A1C01B3409F4D2C01C3409F003C1E8C0B9
:10F360008FEF81B90DC082B1809582B980E090E0C5
:10F37000E0EDF7E03197F1F70196883C9105C1F790
:10F380008091C00087FFEFCF12B8EFC08FEF84B934
:10F390000DC085B1809585B980E090E0E0EDF7E0A3
:10F3A0003197F1F70196883C9105C1F78091C00033
:10F3B00087FFEFCF15B8D9C08FEF87B90DC088B1DF
:10F3C000809588B980E090E0E0EDF7E03197F1F7C3
:10F3D0000196883C9105C1F78091C00087FFEFCF6F
:10F3E00018B8C3C08FEF8AB90DC08BB180958BB9A7
:10F3F00080E090E0E0EDF7E03197F1F70196883C8E
:10F400009105C1F78091C00087FFEFCF1BB8ADC059
:10F410008FEF8DB90DC08EB180958EB980E090E0F0
:10F42000E0EDF7E03197F1F70196883C9105C1F7DF
:10F430008091C00087FFEFCF1EB897C08FEF80BBD1
:10F440000DC081B3809581BB80E090E0E0EDF7E0F6
:10F450003197F1F70196883C9105C1F78091C00082
:10F4600087FFEFCF11BA81C08FEF83BB0DC084B38C
:10F47000809584BB80E090E0E0EDF7E03197F1F714
:10F480000196883C9105C1F78091C00087FFEFCFBE
:10F4900014BA6BC08FEF809301010FC080910201FD
:10F4A00080958093020180E090E0E0EDF7E03197F5
:10F4B000F1F70196883C9105C1F78091C00087FF64
:10F4C000EDCF1092020151C08FEF809304010FC065
:10F4D0008091050180958093050180E090E0E0ED4A
:10F4E000F7E03197F1F70196883C9105C1F78091DB
:10F4F000C00087FFEDCF1092050137C08FEF8093DA
:10F5000007010FC08091080180958093080180E079
:10F5100090E0E0EDF7E03197F1F70196883C910536
:10F52000C1F78091C00087FFEDCF109208011DC088
:10F530008FEF80930A010FC080910B01809580931B
:10F540000B0180E090E0E0EDF7E03197F1F70196F4
:10F55000883C9105C1F78091C00087FFEDCF1092E4
:10F560000B0103C085E292EEEEC98091C00087FFD7
:10F57000FCCF8091C600EAC988E392EEE4C98CE131
:10F5800091EEE1C988249924933011F1943028F444
:10F59000913089F09230B8F408C0953061F195301F
:10F5A000F0F0963009F048C043C02B3109F042C951
:10F5B00091E06BE13FC96227C15DDE4F2883CF52E6
:10F5C000D14092E037C9B22FA0E0622793E032C960
:10F5D000822F90E0A82BB92B622794E02BC92E3004
:10F5E00009F039C3622795E0C05DDE4F19821882A9
:10F5F000C053D1401FC9E1E0F0E0EC0FFD1FC05D3A
:10F60000DE4F08811981C053D140E00FF11F2083E4
:10F610000F5F1F4FC05DDE4F19830883C053D14079
:10F6200062270A171B0709F005C9D80196E002C92D
:10F63000261709F010C303C0973009F0FBC87724E0
:10F640009981933109F412C19431C8F4963009F4C8
:10F65000D8C0973050F4923009F406C1933009F4C1
:10F660006DC0913009F059C253C0913109F477C08F
:10F67000923108F0BBC0903109F04FC2F5C098310B
:10F6800009F487C0993150F4953109F4EFC09531F0
:10F6900008F4C6C1963109F040C2C2C19A3109F4DA
:10F6A0006CC09A3108F491C09B3109F45BC09D3164
:10F6B00009F033C29D81903359F48F81882311F46E
:10F6C0009EE11CC0813011F091E018C098E916C08D
:10F6D000892F807591F0903539F4E0E0F0E089E011
:10F6E0008093570094910AC0983539F4E3E0F0E034
:10F6F00089E080935700949101C090E01A821B82A8
:10F700008D818C831D829E831F8227E030E009C299
:10F710001A8288E08B8381E48C8386E58D8382E581
:10F720008E8389E48F8383E5888780E589878FE5E9
:10F730008A8782E38B872BE030E0F3C18A818139AD
:10F7400041F0823941F0803911F48FE005C080E04A
:10F7500003C082E001C08AE01A828B8344C0772410
:10F76000739482C08D81882311F48EE12CC0813086
:10F7700011F081E028C088E926C01A82E1E0F0E0BB
:10F7800089E08093570084918B831C8224E030E0D1
:10F79000C8C18B81803589F48C81883039F4E2E0EE
:10F7A000F0E089E08093570084910DC0E0E0F0E044
:10F7B00089E080935700849106C0E3E0F0E089E09F
:10F7C0008093570084911A82DFCF8D81836C99E0FA
:10F7D000E1E0F0E0082E90935700E89507B600FCB2
:10F7E000FDCF1A821B8223E030E09BC180EC8A832C
:10F7F000CE5CDE4F188219821A821B82C253D1401E
:10F800008EC18A8190E0A0E0B0E0582F44273327D2
:10F8100022278B8190E0A0E0B0E0DC0199278827C7
:10F82000282B392B4A2B5B2B8D8190E0A0E0B0E098
:10F83000282B392B4A2B5B2B8C8190E0A0E0B0E089
:10F84000BA2FA92F982F8827282B392B4A2B5B2BCF
:10F85000220F331F441F551FC05EDE4F288339839C
:10F860004A835B83C052D1401A8259C13A81C95C34
:10F87000DE4F3883C753D140CA5CDE4F1882C6536F
:10F88000D1408B81C82EDD24CA5CDE4F488159816E
:10F89000C653D140C42AD52A933109F082C0CE5C28
:10F8A000DE4F88819981AA81BB81C253D1408050AB
:10F8B000904CA340B04030F583E0CE5CDE4FE88052
:10F8C000F9800A811B81C253D140F70100935B008C
:10F8D00080935700E89507B600FCFDCFCE5CDE4F65
:10F8E000088119812A813B81C253D14000501F4FAA
:10F8F0002F4F3F4FCE5CDE4F088319832A833B8313
:10F90000C253D140C05EDE4F488159816A817B81FC
:10F91000C052D140DE011B9631E08C9111962C91A2
:10F9200011971296C75CDE4F2883C953D140C85C3B
:10F93000DE4F1882C853D14090E0C85CDE4FE881AA
:10F94000F981C853D1408E2B9F2B0C01FA01609393
:10F950005B0030935700E89511244E5F5F4F6F4F67
:10F960007F4F0EEFE02E0FEFF02ECE0CDF1CC114F8
:10F97000D10499F685E0C05EDE4F088119812A81A5
:10F980003B81C052D140F80120935B008093570027
:10F99000E89507B600FCFDCF81E180935700E8951C
:10F9A00035C0C05EDE4F88819981AA81BB81C0527B
:10F9B000D140B695A795979587957C018601ABE0D8
:10F9C000AA2EB12CAC0EBD1E0BC0D5016D915D01F0
:10F9D000C7010F947FFE0894E11CF11C01501040F8
:10F9E0000115110591F7A60160E070E0440F551F65
:10F9F000661F771FC05EDE4FE880F9800A811B8199
:10FA0000C052D1404E0D5F1D601F711F1A82C05E33
:10FA1000DE4F488359836A837B83C052D1407FC0C5
:10FA2000FA80C55CDE4FF882CB53D140C65CDE4F16
:10FA30001882CA53D1408B81C82EDD24C65CDE4FAC
:10FA400008811981CA53D140C02AD12A1A828981DA
:10FA5000BE016D5F7F4F843121F59601C05EDE4FA0
:10FA6000E880F9800A811B81C052D1400BBFF701A9
:10FA700087919691DB018C9311969C936E5F7F4FDB
:10FA8000D801C7010296A11DB11DC05EDE4F88835B
:10FA90009983AA83BB83C052D14022503040F1F6F3
:10FAA00036C0C05EDE4F288139814A815B81C052F9
:10FAB000D1400894C108D108760100E010E0089414
:10FAC000C11CD11C0894E11CF11C011D111DE20E8A
:10FAD000F31E041F151F21BDBB27A52F942F832FB5
:10FAE00082BD2F5F3F4F4F4F5F4FF89A80B5DB01CC
:10FAF0008D93BD012E153F054007510761F7C05E8C
:10FB0000DE4F288339834A835B83C052D1409601FC
:10FB10002D5F3F4FFB01108204C080EC8A8322E0FE
:10FB200030E08BE18093C6008091C00086FFFCCF5F
:10FB30008091C00080648093C000C15DDE4FF88179
:10FB4000CF52D140F093C6008091C00086FFFCCF19
:10FB50008091C00080648093C000432F3093C60022
:10FB60008091C00086FFFCCF8091C00080648093AC
:10FB7000C000922F2093C6008091C00086FFFCCF6A
:10FB80008091C00080648093C0008EE08093C600A6
:10FB90008091C00086FFFCCF8091C000806480937C
:10FBA000C00065E1C15DDE4FE880CF52D1406E25D7
:10FBB00069276427FE01319610C090819093C6009A
:10FBC0008091C00086FFFCCF31968091C000806498
:10FBD0008093C0006927215030402115310569F715
:10FBE0006093C6008091C00086FFFCCF8091C0006A
:10FBF00080648093C00085B1805885B9772081F4F6
:10FC0000C15DDE4F0881CF52D1400F5FC15DDE4F35
:10FC10000883CF52D14090E0A0E0B0E00D941AF4F8
:10FC200027982F9880E090E020ED37E0F901319798
:10FC3000F1F7019684369105C9F700008091C00064
:10FC40008D7F8093C00081E180935700E895EE2777
:10FC5000FF270994FFCF90E00D941AF497FB092E2B
:10FC600007260AD077FD04D02ED006D000201AF443
:10FC7000709561957F4F0895F6F7909581959F4F08
:10FC80000895A1E21A2EAA1BBB1BFD010DC0AA1FDD
:10FC9000BB1FEE1FFF1FA217B307E407F50720F0F5
:10FCA000A21BB30BE40BF50B661F771F881F991F70
:10FCB0001A9469F760957095809590959B01AC01B9
:10FCC000BD01CF010895AA1BBB1B51E107C0AA1FAC
:10FCD000BB1FA617B70710F0A61BB70B881F991FED
:10FCE0005A95A9F780959095BC01CD010895F99991
:10FCF000FECF92BD81BDF89A992780B50895262F31
:10FD0000F999FECF1FBA92BD81BD20BD0FB6F89400
:0EFD1000FA9AF99A0FBE01960895F894FFCF63
:040000033000E000E9
:00000001FF