:10000000F6C0000025C1000023C1000021C100008E
:100010001FC100001DC100001BC1000019C100006C
:1000200017C1000015C1000013C1000011C100007C
:100030000FC100000C9480080BC1000009C1000032
:1000400007C1000005C1000003C1000001C100009C
:100050000C94E709FDC00000FBC000000C949D0952
:10006000F7C000000C9467090C943E09F1C0000031
:10007000EFC00000EDC00000EBC00000E9C00000D0
:10008000E7C00000E5C00000E3C00000E1C00000E0
:10009000DFC00000DDC00000DBC00000D9C00000F0
:1000A000D7C00000D5C00000D3C00000D1C0000000
:1000B000CFC00000CDC00000CBC00000C9C0000010
:1000C000C7C00000C5C00000C3C000000C940809F0
:1000D0000C94DF08BDC00000BBC00000B9C0000028
:1000E000B7C0000000000A0B02090C0D0E08070340
:1000F00004010000000000000000000000000000FB
:1001000000000000000000000000000000000000EF
:1001100012111000000000000000000000000000AC
:100120000000000000000000000002000022002586
:100130000028002B002E00310034000201000005D1
:100140000108010B0100002100240027002A002DD6
:10015000003000330001010000040107010A01051D
:10016000050505070508080808020202020A0A0830
:100170000804040404010101010101010103030356
:100180000303030303040707070C0C0C0C0C0C0CF3
:100190000C0202020206060606060606060B0B0BFA
:1001A0000B0B0B0B0B010210202008081020401035
:1001B000204080020102010804020101020408102B
:1001C0002040808040201008040201800402018049
:1001D0004020100804020108040201010204081072
:1001E0002040800102040810204080002A0A1124C7
:1001F0001FBECFEFD1E2DEBFCDBF00E00CBF12E0EB
:10020000A0E0B2E0EEE9F7E200E00BBF02C0079029
:100210000D92A637B107D9F724E0A6E7B2E001C0F6
:100220001D92A332B207E1F710E0C7EFD0E000E083
:1002300006C021970109802FFE010E94C513C63F09
:10024000D10780E00807A9F70E94990A0C94CD1302
:10025000D7CE90E0FC01EB55FE4F2491815A9E4F82
:10026000FC018491882399F090E0880F991FFC018C
:10027000EB5BFE4FA591B491FC01E55DFE4F8591CE
:1002800094918FB7F894EC91E22BEC938FBF089583
:1002900080917B00877F80937B0080E480937C004B
:1002A00080917A00806480937A0080917A0086FD44
:1002B000FCCF809178009091790008958F929F9261
:1002C000AF92BF92CF92DF92EF92FF92CF936C01E9
:1002D00080911202833069F08F3F09F4A0C0CF9162
:1002E000FF90EF90DF90CF90BF90AF909F908F9056
:1002F0000895EAE2F1E0C491C7FDF1CF83E0A9DF00
:10030000F12CE12CCC23E1F0B12CA12CC23009F06E
:1003100058C1750160E970ED83E090E0A501960198
:100320000E94A913BA01A90141505109610971093B
:1003300083E04F3F51056105710509F00CF45DC084
:1003400060E072E18AE790E0A70196010E94A9139C
:1003500049015A0168E478EE81E090E0A701960136
:100360000E94A913BA01A9014150510961097109FB
:10037000CC2309F4EAC1C23009F0E5C184E04F3F63
:10038000510561057105C9F1C4F164E274EF80E0C3
:1003900090E0A70196010E94A913BA01A90141505A
:1003A00051096109710985E04F3F510561057105EA
:1003B00021F118F162E17AE780E090E0A70196016F
:1003C0000E94A913BA01A90141505109610971099B
:1003D00086E04F3F51056105710579F074F0B50174
:1003E000A4019AE075956795579547959A95D1F729
:1003F000415051096109710987E09091B100987FDE
:10040000892B8093B100C23009F47BC10CF072C11A
:10041000CC2309F4BAC1C13009F061CFFEC083E03A
:1004200080931202EAE2F1E0C4918C2FCF3F09F4ED
:1004300056CFC23009F466C050F4CC2369F1C13004
:1004400009F442C087FD4BCF83E003DF5DCFC430AA
:1004500009F499C008F478C0C530A1F710922001C2
:100460001092210180912101886080932101809167
:100470002101816080932101E2E6F1E0E491F0E066
:10048000EE0FFF1FE55DFE4F85919491E8EAF1E0E4
:10049000E491E093B10232CF14BC15BC84B5826004
:1004A00084BD85B5816085BDE2E6F1E0E491F0E0D0
:1004B000EE0FFF1FE55DFE4F85919491E8EAF1E0B4
:1004C000E491E093B8021ACF10928000109281005C
:1004D000809181008860809381008091810081609B
:1004E00080938100E2E6F1E0E491F0E0EE0FFF1F7F
:1004F000E55DFE4F85919491E8EAF1E0E491E093A7
:10050000B702FCCE1092B0001092B1008091B00002
:1005100082608093B0008091B10081608093B100CF
:10052000E2E6F1E0E491F0E0EE0FFF1FE55DFE4F43
:10053000859194919093B6028093B502E8EAF1E038
:10054000E491E093B402DACE109290001092910000
:1005500080919100886080939100809191008160EA
:1005600080939100E2E6F1E0E491F0E0EE0FFF1FEE
:10057000E55DFE4F85919491E8EAF1E0E491E09326
:10058000B302C3E0BBCE1092A0001092A1008091F4
:10059000A10088608093A1008091A1008160809378
:1005A000A100E2E6F1E0E491F0E0EE0FFF1FE55D6F
:1005B000FE4F85919491E8EAF1E0E491E093B20274
:1005C0009DCE60E072E18AE790E0A50196010E946D
:1005D000A913BA01A901415051096109710991E0BA
:1005E0004115510581E0680771057CF068E478EEFB
:1005F00081E090E0A50196010E94A913BA01A9012A
:10060000415051096109710993E0C130D9F48091D9
:100610008100887F892B80938100509389004093CB
:1006200088008FEF9FEFDC018093C9029093CA028C
:10063000A093CB02B093CC0280916F008260809334
:100640006F004DCEC330D9F480919100887F892B03
:100650008093910050939900409398008FEF9FEF03
:10066000DC018093C1029093C202A093C302B093B5
:10067000C4028091710082608093710030CEC430DA
:10068000D9F48091A100887F892B8093A100509399
:10069000A9004093A8008FEF9FEFDC018093BD027B
:1006A0009093BE02A093BF02B093C00280917200EB
:1006B00082608093720013CEC53009F0A4CE809181
:1006C0002101887F892B8093210150932901409338
:1006D00028018FEF9FEFDC018093B9029093BA025B
:1006E000A093BB02B093BC028091730082608093A0
:1006F0007300F5CDC43059F20CF4ACCFC53029F3FA
:10070000EECD4093B3008FEF9FEFDC018093C502E5
:100710009093C602A093C702B093C8028091700064
:10072000826080937000DBCDB501A4018AE07595ED
:100730006795579547958A95D1F7415051096109B9
:10074000710995E01EC084E02FCE93E04F3F510524
:1007500061057105B1F0ACF062E17AE780E090E00C
:10076000A70196010E94A913BA01A901415051099C
:10077000610971094F3F51056105710509F0A4F642
:1007800094E085B5887F892B85BD47BD8FEF9FEFAE
:10079000DC018093CD029093CE02A093CF02B09360
:1007A000D00280916E00826080936E0098CDAF92EF
:1007B000BF92CF92DF92EF92FF920F931F93CF934E
:1007C000DF936C017B018B01040F151FEB015E01B0
:1007D000AE18BF08C017D10759F06991D601ED9145
:1007E000FC910190F081E02DC6011995892B79F7D4
:1007F000C501DF91CF911F910F91FF90EF90DF9096
:10080000CF90BF90AF900895FC01538D448D252F5C
:1008100030E0842F90E0821B930B541710F0CF969A
:10082000089501970895FC01918D828D981761F0CC
:10083000A28DAE0FBF2FB11D5D968C91928D9F5FE3
:100840009F73928F90E008958FEF9FEF0895FC01C2
:10085000918D828D981731F0828DE80FF11D858D75
:1008600090E008958FEF9FEF0895FC01918D228D08
:10087000892F90E0805C9F4F821B91098F7399278D
:10088000089581ED92E0F1DF21E0892B09F420E069
:10089000822F08958EE693E0E8DF21E0892B09F4AA
:1008A00020E0822F0895FC01A48DA80FB92FB11D5F
:1008B000A35ABF4F2C91848D90E001968F73992796
:1008C000848FA689B7892C93A089B1898C91837074
:1008D00080648C93938D848D981306C00288F3896D
:1008E000E02D80818F7D80830895EF92FF920F939A
:1008F0001F93CF93DF93EC0181E0888F9B8D8C8DCC
:1009000098131AC0E889F989808185FF15C09FB7BF
:10091000F894EE89FF896083E889F9898081837082
:10092000806480839FBF81E090E0DF91CF911F9131
:100930000F91FF90EF900895F62E0B8D10E00F5F52
:100940001F4F0F731127E02E8C8D8E110BC00FB629
:1009500007FCFACFE889F989808185FFF5CFCE01C0
:10096000A2DFF2CFEB8DEC0FFD2FF11DE35AFF4F0D
:10097000F0829FB7F8940B8FEA89FB8980818062AF
:10098000D0CFCF93DF93EC01888D8823B1F0AA8973
:10099000BB89E889F9898C9185FD03C0808186FD3A
:1009A0000CC00FB607FCF7CF8C9185FFF2CF80818A
:1009B00085FFEDCFCE0177DFEACFDF91CF910895AC
:1009C00080E090E0892B21F065DF81110E9400001A
:1009D00080E090E0892B49F080E090E0892B29F0BD
:1009E0000E94000081110E94000080E090E0892BAD
:1009F00021F047DF81110E94000080E090E0892B08
:100A000049F080E090E0892B29F00E9400008111DC
:100A10000C9400000895282F30E0F901EC51FF4FAD
:100A20009491F901EB55FE4F4491215A3E4FF90143
:100A30002491222309F435C0992311F19150923168
:100A4000F8F4E92FF0E08827E75DFA4F8F4F0C9418
:100A5000C5135A055E053B0552055605400561055F
:100A600067056B057105750579057F0583054005EB
:100A700087058D059105809180008F778093800098
:100A8000E22FF0E0EE0FFF1FE55DFE4FA591B49160
:100A90008FB7F894EC91611148C040954E234C9368
:100AA0008FBF0895809180008F7DE8CF8091800076
:100AB000877FE4CF84B58F7784BDE2CF84B58F7D07
:100AC000FBCF8091B0008F778093B000D9CF809119
:100AD000B0008F7DF9CF809190008F778093900048
:100AE000CFCF809190008F7DF9CF80919000877F4C
:100AF000F5CF8091A0008F778093A000C1CF809127
:100B0000A0008F7DF9CF8091A000877FF5CF8091E5
:100B100020018F7780932001B3CF809120018F7DBA
:100B2000F9CF80912001877FF5CF4E2BB8CF9091E0
:100B3000120289130DC0EAE2F1E0E4919FEF909375
:100B40001202E230D9F030F4EE2379F0E13081F096
:100B500060E061CFE43049F110F1E530C9F79091E0
:100B600073009D7F90937300F3CF10926E00F0CFCF
:100B700090916F009D7F90936F00EACF90917000ED
:100B80009D7F9093700091E09093B0009091B100A0
:100B9000987F94609093B1001092B300D9CF909158
:100BA00071009D7F90937100D3CF909172009D7FD3
:100BB00090937200CDCF3FB7F894809181029091CD
:100BC0008202A0918302B091840226B5A89B05C041
:100BD0002F3F19F00196A11DB11D3FBFBA2FA92FBC
:100BE000982F8827BC01CD01620F711D811D911DB9
:100BF00042E0660F771F881F991F4A95D1F7089525
:100C0000089590E080E00895FB0101900020E9F74D
:100C10003197AF01461B570BDC01ED91FC9102802F
:100C2000F381E02D1994BC018BE094E0EDCF8F921D
:100C30009F92AF92BF92EF92FF920F931F93CF9329
:100C4000DF93CDB7DEB7A1970FB6F894DEBF0FBE26
:100C5000CDBF7C01FA01CB0119A2223008F42AE0B1
:100C60008E010F5D1F4F822E912CB12CA12CBF0144
:100C7000A50194010E948713F901CA016A3004F5A5
:100C8000605DD8016E938D01232B242B252B79F7E2
:100C900090E080E0109719F0BD01C701B5DFA19683
:100CA0000FB6F894DEBF0FBECDBFDF91CF911F917D
:100CB0000F91FF90EF90BF90AF909F908F9008950D
:100CC000695CDFCF2F923F924F925F926F927F923B
:100CD0008F929F92AF92BF92CF92DF92EF92FF924C
:100CE0001F93CF93DF93EC016A017B01722EAB015E
:100CF0009601CB01B6010E94831365E372E0811176
:100D000026C046015701E894B7F82FEF3FEF4FE7B1
:100D10005FE7C501B4010E94831381110CC02FEF5E
:100D20003FEF4FE75FE7C501B4010E94D21169E3CD
:100D300072E0181664F02FEF3FEF4FE75FE4C70152
:100D4000B6010E941C131816ACF46DE372E0CE01DC
:100D5000DF91CF911F91FF90EF90DF90CF90BF90E8
:100D6000AF909F908F907F906F905F904F903F904B
:100D70002F904ACF2FEF3FEF4FE75FECC701B6014F
:100D80000E94D21187FDE1CF20E030E0A901C70128
:100D9000B6010E94D211312C212C87FF0DC0E881B1
:100DA000F9810190F081E02D6DE2CE0119951C01D1
:100DB000F7FAF094F7F8F09410E060E070E080E06B
:100DC0009FE3711641F020E030E040E251E40E94E0
:100DD000D6111F5FF6CFA70196010E946E112B015D
:100DE0003C010E943E124B015C012AE0BC01A401BF
:100DF000CE011DDF7C01E20CF31C1123D9F1C501EA
:100E0000B4010E946A129B01AC01C301B2010E94AD
:100E10006D114B015C01E881F9810190F081E02DB9
:100E20006EE2CE011995E80EF91E115018F120E07E
:100E300030E040E251E4C501B4010E9420132B01CF
:100E40003C010E943E124B01B12CA12C2AE0B501BD
:100E5000A401CE01ECDEE80EF91EC501B4010E942A
:100E60006A129B01AC01C301B2010E946D114B01DA
:100E70005C01DBCFC701DF91CF911F91FF90EF9015
:100E8000DF90CF90BF90AF909F908F907F906F90AA
:100E90005F904F903F902F900895CF93DF93EC0198
:100EA00060E08E81B8DD61E08E81B5DD60E08E812D
:100EB000B2DD8BE891E00197F1F7DF91CF910895D2
:100EC000CF92DF92EF92FF920F931F93CF93DF9316
:100ED0006C017C0187E0E80EF11CD0E0C0E0062F39
:100EE00010E0B8010C2E02C0759567950A94E2F7E0
:100EF0006170F70181917F018EDD2196C430D105AB
:100F000081F7C601DF91CF911F910F91FF90EF9074
:100F1000DF90CF90C2CFCF92DF92EF92FF920F93EC
:100F20001F93CF93DF93EC01F62E642F8C8173DD3A
:100F30008D818F3F11F060E06EDD0F2D10E08F8509
:100F400084FF23C06E0187E0C80ED11CF12CE12C78
:100F5000B8010E2C02C0759567950A94E2F761708E
:100F6000F60181916F0157DDFFEFEF1AFF0A88E06C
:100F7000E816F10469F7CE01DF91CF911F910F912F
:100F8000FF90EF90DF90CF9088CFB80184E0759507
:100F900067958A95E1F7CE0193DF6F2DCE01DF9142
:100FA000CF911F910F91FF90EF90DF90CF9088CF5E
:100FB00040E0682F8BE094E0AECFCF93DF93823098
:100FC00029F490911A04986090931A0480931E0457
:100FD00010921F0480E48093200480E18093210418
:100FE00080E58093220480910F0433D9809110040E
:100FF0008F3F09F02ED9809111042BD9CBE0D4E09A
:101000009E012B50344080911A0484FD09C084E075
:1010100090E021962817390734F48E811AD9F0CF41
:1010200088E090E0F6CF8BE39DE00197F1F760E078
:1010300080910F04F0DC60E080911104ECDC809181
:1010400010048F3F11F060E0E6DC80911A0484FD0B
:1010500031C063E08BE094E033DFCBE4D6E4CE0133
:101060000197F1F763E08BE094E02ADF2197F1F735
:1010700063E08BE094E024DF83E592E00197F1F7F1
:1010800062E08BE094E01CDF80911A04806290DFC4
:1010900084E080931B048CE08BDF81E089DF8BE3AD
:1010A0009FE10197F1F782E080931C0486E0DF91D5
:1010B000CF917ECF80627CDF8BE496E40197F1F7DD
:1010C00080911A04806274DF83E592E00197F1F762
:1010D00080911A0480626CDFD7CF90911E0469174B
:1010E00010F06FEF690FE62FF0E0E55FFB4F94899A
:1010F000890F80685DCF41E00EDF81E090E00895C8
:101100001F920F920FB60F9211240BB60F922F93CE
:101110003F934F935F936F937F938F939F93AF937F
:10112000BF93EF93FF938091C5029091C602A09167
:10113000C702B091C802892B8A2B8B2BE1F19091C9
:10114000B402E091B502F091B602808189278083D4
:101150008091C5029091C602A091C702B091C802C9
:10116000181619061A061B069CF48091C502909168
:10117000C602A091C702B091C8020197A109B109A6
:101180008093C5029093C602A093C702B093C80291
:10119000FF91EF91BF91AF919F918F917F916F914F
:1011A0005F914F913F912F910F900BBE0F900FBE0B
:1011B0000F901F90189580911202B9DCE9CF1F9211
:1011C0000F920FB60F9211240BB60F922F933F93ED
:1011D0004F935F936F937F938F939F93AF93BF933F
:1011E000EF93FF9381ED92E05EDBFF91EF91BF9172
:1011F000AF919F918F917F916F915F914F913F91AF
:101200002F910F900BBE0F900FBE0F901F9018954F
:101210001F920F920FB60F9211240BB60F922F93BD
:101220008F939F93EF93FF93E091E102F091E2029D
:101230008081E091E702F091E80282FD1DC090817B
:101240008091EA028F5F8F732091EB02821741F049
:10125000E091EA02F0E0EF52FD4F958F8093EA02B1
:10126000FF91EF919F918F912F910F900BBE0F9057
:101270000FBE0F901F9018958081F2CF1F920F9292
:101280000FB60F9211240BB60F922F933F934F93EB
:101290005F936F937F938F939F93AF93BF93EF93DE
:1012A000FF938EE693E0FFDAFF91EF91BF91AF914C
:1012B0009F918F917F916F915F914F913F912F916E
:1012C0000F900BBE0F900FBE0F901F9018951F929E
:1012D0000F920FB60F9211240BB60F922F938F938C
:1012E0009F93EF93FF93E0917E03F0917F038081C2
:1012F000E0918403F091850382FD1DC0908180916F
:1013000087038F5F8F7320918803821741F0E091EC
:101310008703F0E0E259FC4F958F80938703FF919C
:10132000EF919F918F912F910F900BBE0F900FBE59
:101330000F901F9018958081F2CF1F920F920FB6D9
:101340000F9211242F933F938F939F93AF93BF934B
:1013500080917D0290917E02A0917F02B0918002E7
:1013600030917C0223E0230F2D3758F50196A11D03
:10137000B11D20937C0280937D0290937E02A09306
:101380007F02B09380028091810290918202A091AD
:101390008302B09184020196A11DB11D8093810248
:1013A00090938202A0938302B0938402BF91AF9185
:1013B0009F918F913F912F910F900FBE0F901F9093
:1013C000189526E8230F0296A11DB11DD2CF1F92BA
:1013D0000F920FB60F9211248F939F9381E0809309
:1013E000940280917A0290917B02009729F00197F4
:1013F00090937B0280937A02809178029091790297
:10140000009729F001979093790280937802809158
:10141000970290919802009729F001979093980273
:10142000809397028091760290917702009729F03D
:101430000197909377028093760286EE99EF9093CE
:101440008500809384009F918F910F900FBE0F9025
:101450001F901895E1EDF2E01382128248EE53E0FE
:1014600060E070E044835583668377838BE192E08C
:101470009183808325ED30E03587248724ED30E0AB
:101480003787268720ED30E0318B208B21ED30E04F
:10149000338B228B22ED30E0358B248B26ED30E030
:1014A000378B268B118E128E138E148EEEE6F3E0A0
:1014B000138212824483558366837783918380836A
:1014C00085EC90E09587848784EC90E09787868709
:1014D00080EC90E0918B808B81EC90E0938B828B01
:1014E00082EC90E0958B848B86EC90E0978B868BDA
:1014F000118E128E138E148EEBE0F4E013821282A2
:101500008DE292E09183808388E084838FEF8583EE
:1015100089E0868384E0878385E0808786E0818711
:1015200087E082871386148615861686178681E0E3
:1015300044CDCF93DF9300D000D000D01F92CDB721
:10154000DEB7789484B5826084BD84B5816084BD43
:1015500085B5826085BD85B5816085BD80916E0051
:10156000816080936E001092810080918100826082
:1015700080938100809181008160809381008091BF
:1015800080008160809380008091B10084608093AE
:10159000B1008091B00081608093B0008091910093
:1015A000826080939100809191008160809391008E
:1015B000809190008160809390008091A100826072
:1015C0008093A1008091A10081608093A10080910F
:1015D000A00081608093A0008091210182608093AF
:1015E000210180912101816080932101809120015E
:1015F00081608093200180917A00846080937A00DA
:1016000080917A00826080937A0080917A00816074
:1016100080937A0080917A00806880937A0010929B
:10162000C10083E00E9429018FE20E94290181E329
:101630000E94290185E20E94290187E20E94290176
:1016400089E20E94290160E083E0E5D960E08FE251
:10165000E2D960E081E3DFD960E085E2DCD960E0D7
:1016600087E2D9D960E089E2D6D9E0917E03F09192
:101670007F0322E02083E0917E03F0917F031082BC
:10168000E0917A03F0917B031082E0917C03F0916A
:101690007D0390E1908310928603E0918203F091A4
:1016A000830386E28083E0918003F091810380814F
:1016B00080618083E0918003F09181038081886064
:1016C0008083E0918003F091810380818068808332
:1016D000E0918003F091810380818F7D8083E09190
:1016E000E102F091E2022083E091DD02F091DE025E
:1016F0001082E091DF02F091E00290831092E90203
:10170000E091E502F091E60286E08083E091E30259
:10171000F091E402808180618083E091E302F091A6
:10172000E402808188608083E091E302F091E4022A
:10173000808180688083E091E302F091E4028081FF
:101740008F7D808382E039DC60E080E0C6DC10922F
:1017500080001092810080918100856080938100DB
:1017600086EE99EF909385008093840080916F00BE
:10177000816080936F0033E0232E312C809113021F
:1017800090911402A0911502B09116028F83988750
:10179000A987BA8780919402882309F409C163E676
:1017A0008EE693E0A2D861E38EE693E09ED8109295
:1017B0009402109293021092920280919002909162
:1017C0009102843191050CF0D0C001969093910262
:1017D000809390020091AF021091B0020130110588
:1017E00009F0ABC180900A0290900B02A0900C020D
:1017F000B0900D02409002025090030260900402EB
:1018000070900502C090A502D090A602E090A702B9
:10181000F090A802A3019201C501B4015FD5A70110
:101820009601C0D561E087FD89C1A3019201C50180
:10183000B40153D59B01AC01C701B601B3D587FFF5
:101840007CC160E08FE2E7D861E081E3E4D8809179
:101850001002909111020817190759F090E080E0EA
:101860000130110511F082E090E09093AE02809378
:10187000AD0210931102009310028091AD0290917D
:10188000AE028330910509F484C108F05CC1009771
:1018900009F477C1029709F4C3C10115110509F4D0
:1018A000F7C161E00130110509F40EC20E94480140
:1018B000803591050CF010C28091A1029091A20296
:1018C0009C012F5F3F4F3093A2022093A1022091F1
:1018D000000230910102821793070CF4FAC11092B2
:1018E000A2021092A10281E090E01092A002109258
:1018F0009F0210929E0210929D0210929C021092E2
:101900009B0210929A02109299022091A9023091A2
:10191000AA0240910E0250910F028330910509F402
:10192000DDC30CF02DC38130910509F42FC302975C
:1019300009F0A2C22230310509F460C32330310519
:1019400009F4A6C32130310509F096C23092AE02E7
:101950002092AD0281E090E0452B11F090E080E014
:1019600090930F0280930E0287C2A4E1B0E0B0937F
:101970009102A09390021092B0021092AF028F8158
:101980009885A985BA8589839A83AB83BC83BE0178
:101990006F5F7F4F8EE693E037D961E472E081EDAF
:1019A00092E032D966E472E081ED92E02DD912CF57
:1019B0008EE693E00E943504181619060CF00ACF43
:1019C0001092910210929002009192021091930253
:1019D0008EE693E00E941304000F111FF801EA57EE
:1019E000FD4F918380836C01990FEE08FF082AE078
:1019F000B701A601F7FE0DC06DE281ED92E00E94F5
:101A0000750444275527BA014C195D096E097F09F1
:101A10002AE081ED92E00BD966E472E081ED92E07C
:101A2000F3D880919202909193028130910509F44C
:101A300069C094F4892B09F0CDCE809186029091F3
:101A400087028336910509F0C5CEA1E0B0E0B093DE
:101A50009302A0939202BECE8230910509F464C035
:101A6000039709F0B7CE90918C029E831D828091DE
:101A700085026D817E81682B072E000C880B990BE7
:101A80002BD520E030E040E251E490D4AB01BC0122
:101A90004093A5025093A6026093A7027093A802F8
:101AA00022E081ED92E00ED966E472E081ED92E0F1
:101AB000ABD8C090A502D090A602E090A702F0900B
:101AC000A8022DEC3CEC4CEC5DE3C701B601B4D5AB
:101AD00000E010E087FD0CC001E010E020E030E005
:101AE00048E453E4C701B6015DD418160CF400E0D5
:101AF0000093AF021093B0028091920290919302F2
:101B000001960DC08091880290918902C19729F0B9
:101B100010929302109292025DCE82E090E0909338
:101B200093028093920256CE80918A02809385021E
:101B300030929302209292024DCE60E08FE20E949A
:101B40000B0560E082CE8530910509F44CC0D8F1D8
:101B5000069709F0A2CE2091950230919602C90114
:101B60000196909396028093950221303105F1F011
:101B70008A30910509F44AC08F30910509F04DC0B3
:101B80003FC083E00E949705109296021092950242
:101B900084CE2091950230919602C90101969093CE
:101BA0009602809395022130310529F48BE694E06A
:101BB0000E945E0172CE03970CF46FCE1092AE02BB
:101BC0001092AD026ACE2091950230919602C90121
:101BD000019690939602809395022130310559F732
:101BE0008EE190E0E5CF2091950230919602C901F7
:101BF000019690939602809395022130310519F455
:101C000080EA91E0D5CF8530910521F483E00E94F0
:101C1000970543CE8A30910549F245977CF63DCE33
:101C20002091950230919602C901019690939602F7
:101C3000809395022130310529F48EE190E00E94D5
:101C40005E0106C089309105A1F483E00E949705EA
:101C50000E94DB056B017C010E94DB056C197D098C
:101C60008E099F09683E73408105910508F015CEE5
:101C7000F3CF8F30910519F48BE694E0E0CF8D32ED
:101C8000910519F32CF31092AE021092AD02E0CF41
:101C90008091970290919802009739F48AE090E041
:101CA000909398028093970201CE60E0069764F0CB
:101CB00089E20E940B0561E087E20E940B0560E06B
:101CC00085E20E940B05F2CD89E20E940B0560E0DF
:101CD000F3CF90E080E009CE0E944801883C910556
:101CE00064F520919F023091A002C9010196909362
:101CF000A00280939F028091000290910102281718
:101D00003907C4F01092A00210929F02181619060B
:101D100064F40197909301028093000282E090E0C6
:101D20001092A2021092A102E4CD10920102109230
:101D30000002F4CF90E080E0F3CF0E9448018039A8
:101D4000914084F520919D0230919E02C901019637
:101D500090939E0280939D028091000290910102D7
:101D600028173907E4F010929E0210929D0218166F
:101D7000190684F40197909301028093000283E096
:101D800090E01092A2021092A1021092A002109272
:101D90009F02B3CD1092010210920002F0CF90E0AA
:101DA00080E0EFCF0E9448018835924044F5809151
:101DB0009B0290919C029C012F5F3F4F30939C02AD
:101DC00020939B0220910002309101028217930719
:101DD0009CF010929C0210929B0284E090E0109282
:101DE000A2021092A1021092A00210929F021092E1
:101DF0009E0210929D0285CD90E080E0F0CF0E947F
:101E000048018032934064F58091990290919A0242
:101E10009C012F5F3F4F30939A02209399022091AB
:101E200000023091010282179307BCF010929A02CF
:101E30001092990285E090E01092A2021092A10205
:101E40001092A00210929F0210929E0210929D0288
:101E500010929C0210929B0258CD90E080E0ECCF53
:101E600081E090E09093AC028093AB02AFE0B0E0F1
:101E7000B0930102A09300028091A3029091A4026A
:101E8000AC014F5F5F4F883291050CF095C15093C4
:101E9000A4024093A30210E060E080E01ED980918C
:101EA000A9029091AA0220910E0230910F02232BD9
:101EB00009F0ACC1019721F48FE592E0111102C045
:101EC00089E492E00E9413068DE492E00E941306DA
:101ED0004091A5025091A6026091A7027091A802BC
:101EE00021E08BE094E00E94620685E592E00E948A
:101EF000130661E080E0F1D888E592E00E941306C5
:101F00008091A9029091AA02029709F06FC1112352
:101F100009F46CC18DE592E00E94130620E030E0E8
:101F200040E251E460910A0270910B0280910C0230
:101F300090910D0281D361E087FD66C188E0CDD824
:101F400083E692E00E94130661E08AE0C6D883E748
:101F500092E00E9413068091A9029091AA02039731
:101F600009F0ADC1112309F4AAC18FE592E00E94E6
:101F7000130686E592E00E9413060E94E0040ACC54
:101F80008430910519F1059709F076CF85E090E04E
:101F90009093AE028093AD028091AB029091AC021F
:101FA000019709F069CF233031053CF42F5F3F4F93
:101FB0003093AA022093A90204C01092AA021092A0
:101FC000A9021092AC021092AB0256CFA6E0B0E08C
:101FD000B093AE02A093AD028091AB029091AC029F
:101FE000019709F049CF121613061CF4215031094C
:101FF000DFCF3092AA022092A902E3CF3092AE0244
:102000002092AD02452B11F5C0900A02D0900B0230
:10201000E0900C02F0900D022DEC3CEC47EC52E409
:10202000C701B601BFD118160CF426CF2DEC3CEC3D
:102030004CEC5DE3C701B60151D160930A02709385
:102040000B0280930C0290930D0216CFC0900602F3
:10205000D0900702E0900802F09009022DEC3CECD1
:1020600047EC52E4C701B6019DD118160CF404CF19
:102070002DEC3CEC4CEC5DE3C701B6012FD1609335
:102080000602709307028093080290930902F4CE2F
:102090003093AE022093AD02C0900202D0900302B2
:1020A000E0900402F090050226E636E64EE151E4A7
:1020B000C701B60177D118160CF4DECE2DEC3CEC3E
:1020C0004CEC5DE3C701B60109D160930202709345
:1020D00003028093040290930502CECE2230310594
:1020E00079F02330310509F447C02130310509F07A
:1020F000C3CE84E090E09093AE028093AD022ACCF0
:10210000A4E0B0E0B093AE02A093AD02452BD1F4B1
:10211000C0900A02D0900B02E0900C02F0900D02E9
:102120002DEC3CEC4CEC5DE3C701B60185D21816F2
:102130000CF0A2CE2DEC3CEC4CEC5DE3C701B601FB
:10214000CCD07BCFC0900602D0900702E09008026E
:10215000F09009022DEC3CEC4CEC5DE3C701B601BC
:102160006BD218160CF088CE2DEC3CEC4CEC5DE3F9
:10217000C701B601B2D083CF84E090E09093AE0265
:102180008093AD02C0900202D0900302E09004025E
:10219000F09005022DEC3CEC4CEC5DE3C701B60180
:1021A0004BD218160CF068CE2DEC3CEC4CEC5DE3F9
:1021B000C701B60192D089CF9C012E5F3F4F4035B9
:1021C000510534F43093A4022093A30211E064CEAD
:1021D0002235310534F403969093A4028093A30230
:1021E000F5CF1092A4021092A302F0CF40910A0200
:1021F00050910B0260910C0270910D0221E08BE076
:1022000094E00E9462068ACE87E099CE019721F47D
:102210008FE592E0111102C086E692E00E9413065B
:102220008DE492E00E9413064091A5025091A6020F
:102230006091A7027091A80221E08BE094E00E94D7
:10224000620685E592E00E94130661E080E00E944C
:102250006D088AE692E00E9413068091A90290918F
:10226000AA020297E1F41123D1F08EE592E00E94D8
:10227000130620E030E040E251E4609106027091E4
:1022800007028091080290910902D6D161E087FD92
:1022900014C089E00E946D0880E792E053CE40911F
:1022A000060250910702609108027091090221E034
:1022B0008BE094E00E946206DCCF88E0EBCF409197
:1022C000020250910302609104027091050221E024
:1022D0008BE094E00E9462064CCE5058BB27AA27A0
:1022E0000ED070C161D130F066D120F031F49F3F43
:1022F00011F41EF456C10EF4E095E7FB4CC1E92F32
:1023000072D180F3BA17620773078407950718F034
:1023100071F49EF58AC10EF4E0950B2EBA2FA02D14
:102320000B01B90190010C01CA01A0011124FF2782
:10233000591B99F0593F50F4503E68F11A16F0407D
:10234000A22F232F342F4427585FF3CF469537957C
:102350002795A795F0405395C9F77EF41F16BA0B41
:10236000620B730B840BBAF09150A1F0FF0FBB1FEF
:10237000661F771F881FC2F70EC0BA0F621F731F38
:10238000841F48F4879577956795B795F7959E3F95
:1023900008F0B3CF9395880F08F09927EE0F979523
:1023A00087950895D4D008F481E008950CD00AC12F
:1023B00002D140F0F9D030F021F45F3F19F0EBC0CA
:1023C000511134C1EEC00FD198F39923C9F35523AD
:1023D000B1F3951B550BBB27AA2762177307840718
:1023E00038F09F5F5F4F220F331F441FAA1FA9F3CE
:1023F00033D00E2E3AF0E0E830D091505040E695C0
:10240000001CCAF729D0FE2F27D0660F771F881F20
:10241000BB1F261737074807AB07B0E809F0BB0B0F
:10242000802DBF01FF2793585F4F2AF09E3F510533
:1024300068F0B1C0FBC05F3FECF3983EDCF38695DB
:1024400077956795B795F7959F5FC9F7880F911DA9
:102450009695879597F90895E1E0660F771F881F95
:10246000BB1F621773078407BA0720F0621B730B48
:10247000840BBA0BEE1F88F7E0950895BCD088F066
:102480009F5790F0B92F9927B751A0F0D1F0660F60
:10249000771F881F991F1AF0BA95C9F712C0B1307B
:1024A00081F0C3D0B1E00895C0C0672F782F88278E
:1024B000B85F39F0B93FCCF3869577956795B395BA
:1024C000D9F73EF490958095709561957F4F8F4F29
:1024D0009F4F0895E89409C097FB3EF4909580952E
:1024E000709561957F4F8F4F9F4F9923A9F0F92FDA
:1024F00096E9BB279395F695879577956795B79558
:10250000F111F8CFFAF4BB0F11F460FF1BC06F5F3D
:102510007F4F8F4F9F4F16C0882311F096E911C04F
:10252000772321F09EE8872F762F05C0662371F070
:1025300096E8862F70E060E02AF09A95660F771F84
:10254000881FDAF7880F9695879597F90895990F60
:102550000008550FAA0BE0E8FEEF16161706E8076D
:10256000F907C0F012161306E407F50798F0621B8E
:10257000730B840B950B39F40A2661F0232B242B63
:10258000252B21F408950A2609F4A140A6958FEF82
:10259000811D811D089597F99F6780E870E060E0D4
:1025A00008959FEF80EC089500240A9416161706EC
:1025B00018060906089500240A9412161306140634
:1025C00005060895092E0394000C11F4882352F097
:1025D000BB0F40F4BF2B11F460FF04C06F5F7F4F4F
:1025E0008F4F9F4F089557FD9058440F551F59F036
:1025F0005F3F71F04795880F97FB991F61F09F3FF0
:1026000079F087950895121613061406551FF2CF18
:102610004695F1DF08C0161617061806991FF1CF68
:1026200086957105610508940895E894BB2766278F
:102630007727CB0197F908958ADF08F48FEF089583
:102640000BD0C0CFB1DF28F0B6DF18F0952309F02A
:10265000A2CFA7CF1124EACFC6DFA0F3959FD1F375
:10266000950F50E0551F629FF001729FBB27F00D40
:10267000B11D639FAA27F00DB11DAA1F649F662795
:10268000B00DA11D661F829F2227B00DA11D621FE4
:10269000739FB00DA11D621F839FA00D611D221F9E
:1026A000749F3327A00D611D231F849F600D211D82
:1026B000822F762F6A2F11249F5750408AF0E1F025
:1026C00088234AF0EE0FFF1FBB1F661F771F881F6E
:1026D00091505040A9F79E3F510570F05CCFA6CFB6
:1026E0005F3FECF3983EDCF3869577956795B79559
:1026F000F795E7959F5FC1F7FE2B880F911D969583
:10270000879597F9089523DF880B990B0895A1E227
:102710001A2EAA1BBB1BFD010DC0AA1FBB1FEE1F5B
:10272000FF1FA217B307E407F50720F0A21BB30BA6
:10273000E40BF50B661F771F881F991F1A9469F722
:1027400060957095809590959B01AC01BD01CF017E
:102750000895052E97FB16F400940FD057FD05D071
:10276000D6DF07FC02D046F408C05095409530955E
:1027700021953F4F4F4F5F4F0895909580957095ED
:1027800061957F4F8F4F9F4F0895EE0FFF1F881F5A
:0E2790008BBF0790F691E02D1994F894FFCFBF
:10279E000F000000003F00006040000040410100BB
:1027AE00FFFFFFFFFFFFFF000000007504D70304CB
:1027BE0004C104350413042704000000007B08D76D
:1027CE0003010600066E616E00696E66006F766626
:1027DE00006572726F000D0A0028412900204152D7
:1027EE00434F3A20002056005265663A00202020C2
:1027FE0020200056200028422900744573743A00A8
:06280E007320002B2D00D9
:00000001FF
