:1000000003C1000032C1000030C100002EC1000059
:100010002CC100002AC1000028C1000026C1000038
:1000200024C1000022C1000020C100001EC1000048
:100030001CC100000C94470A18C1000016C1000042
:1000400014C1000012C1000010C100000EC1000068
:100050000C94B00B0AC1000008C100000C94660BA0
:1000600004C100000C94300B0C94060BFEC0000081
:10007000FCC00000FAC00000F8C00000F6C000009C
:10008000F4C00000F2C00000F0C00000EEC00000AC
:10009000ECC00000EAC00000E8C00000E6C00000BC
:1000A000E4C00000E2C00000E0C00000DEC00000CC
:1000B000DCC00000DAC00000D8C00000D6C00000DC
:1000C000D4C00000D2C00000D0C000000C94D00A00
:1000D0000C94A60ACAC00000C8C00000C6C0000038
:1000E000C4C0000000002100240027002A002D00C9
:1000F0003000330001010000040107010A01000083
:1001000020002300260029002C002F0032000001CF
:10011000000003010601090100000A0B02090C0D91
:100120000E080703040100000000000000000000AA
:1001300000000000000000000000000000000000BF
:10014000000000001211100000000000000000007C
:10015000000000000000000000000000000001029C
:1001600010202008081020401020408002010201C9
:100170000804020101020408102040808040201081
:1001800008040201800402018040201008040201DA
:100190000804020101020408102040800102040842
:1001A0001020408000002200250028002B002E0097
:1001B0003100340002010000050108010B010505B2
:1001C0000505070508080808020202020A0A0808CD
:1001D00004040404010101010101010103030303FB
:1001E00003030303040707070C0C0C0C0C0C0C0C8A
:1001F0000202020206060606060606060B0B0B0B9B
:100200000B0B0B0B0200F30B11241FBECFEFD1E23F
:10021000DEBFCDBF00E00CBF24E0AEEBB2E001C01A
:100220001D92AA3CB207E1F712E0A0E0B2E0ECEDCB
:10023000FFE200E00BBF02C007900D92AE3BB1079A
:10024000D9F711E0C4E0D1E000E006C02197010930
:10025000802FFE010E94D717C330D10780E0080726
:10026000A9F70E94740C0C94EC17CACE80917B0005
:10027000877F80937B0080E480937C0080917A006C
:10028000806480937A0080917A0086FDFCCF809113
:100290007800909179000895AF92BF92CF92DF924B
:1002A000EF92FF920F931F93CF93DF936C017B012B
:1002B0008B01040F151FEB015E01AE18BF08C017BC
:1002C000D10759F06991D601ED91FC910190F0812F
:1002D000E02DC6011995892B79F7C501DF91CF91E2
:1002E0001F910F91FF90EF90DF90CF90BF90AF9054
:1002F0000895FC01538D448D252F30E0842F90E02C
:10030000821B930B541710F0CF9608950197089510
:10031000FC01918D828D981761F0A28DAE0FBF2FD9
:10032000B11D5D968C91928D9F5F9F73928F90E02F
:1003300008958FEF9FEF0895FC01918D828D98179E
:1003400031F0828DE80FF11D858D90E008958FEFDB
:100350009FEF0895FC01918D228D892F90E0805CA4
:100360009F4F821B91098F739927089582E393E031
:10037000F1DF21E0892B09F420E0822F08958FEC32
:1003800093E0E8DF21E0892B09F420E0822F089533
:10039000CF92DF92EF92FF921F93CF93DF93EC0106
:1003A0006A017B01122FE889F98982E08083C114F8
:1003B00081EED806E104F104B1F160E079E08DE36B
:1003C00090E0A70196010E94981621503109410939
:1003D00051095695479537952795EC85FD851082EF
:1003E000EE85FF852083188EEC89FD891083EA89CC
:1003F000FB89808180618083EA89FB8980818860B4
:100400008083EA89FB89808180688083EA89FB890F
:1004100080818F7D8083DF91CF911F91FF90EF903E
:10042000DF90CF900895E889F989108220E1D5CF37
:10043000FC01A48DA80FB92FB11DA35ABF4F2C9159
:10044000848D90E001968F739927848FA689B78950
:100450002C93A089B1898C91837080648C93938D47
:10046000848D981306C00288F389E02D80818F7DEA
:1004700080830895EF92FF920F931F93CF93DF93A2
:10048000EC0181E0888F9B8D8C8D98131AC0E889D0
:10049000F989808185FF15C09FB7F894EE89FF899F
:1004A0006083E889F98980818370806480839FBF3D
:1004B00081E090E0DF91CF911F910F91FF90EF903D
:1004C0000895F62E0B8D10E00F5F1F4F0F7311274D
:1004D000E02E8C8D8E110BC00FB607FCFACFE88989
:1004E000F989808185FFF5CFCE01A2DFF2CFEB8DB8
:1004F000EC0FFD2FF11DE35AFF4FF0829FB7F894E8
:100500000B8FEA89FB8980818062D0CFCF93DF9304
:10051000EC01888D8823B1F0AA89BB89E889F98923
:100520008C9185FD03C0808186FD0CC00FB607FC51
:10053000F7CF8C9185FFF2CF808185FFEDCFCE0183
:1005400077DFEACFDF91CF91089580E090E0892BAB
:1005500021F015DF81110E94000080E090E0892BDE
:1005600049F080E090E0892B29F00E940000811181
:100570000E94000080E090E0892B21F0F7DE8111DD
:100580000E94000080E090E0892B49F080E090E03C
:10059000892B29F00E94000081110C94000008951D
:1005A0008150823108F05AC0E82FF0E08827E452E9
:1005B000FD4F8F4F0C94D717FC020003EE02F4029C
:1005C000F8022E03030309030D03130317031B0390
:1005D000210325032E0329032F0333038091800079
:1005E0008F77809380000895809180008F7DF9CF70
:1005F00080918000877FF5CF84B58F7784BD089583
:1006000084B58F7DFBCF8091B0008F778093B00051
:1006100008958091B0008F7DF9CF809190008F7701
:10062000809390000895809190008F7DF9CF809104
:100630009000877FF5CF8091A0008F778093A000F6
:1006400008958091A0008F7DF9CF8091A000877FD1
:10065000F5CF809120018F778093200108958091BC
:1006600020018F7DF9CF80912001877FF5CF1F93E7
:10067000CF93DF93282F30E0F901E85EFE4F84919D
:10068000F901E25AFE4FD491F901E254FE4FC491B0
:10069000CC23A1F0162F811183DFEC2FF0E0EE0FB9
:1006A000FF1FEC55FE4FA591B4918FB7F894EC91D4
:1006B000111108C0D095DE23DC938FBFDF91CF915D
:1006C0001F910895DE2BF8CF9091200289130DC061
:1006D000E4E0F2E0E4919FEF90932002E230D9F061
:1006E00030F4EE2379F0E13081F060E0C0CFE43007
:1006F00049F110F1E530C9F7909173009D7F909317
:100700007300F3CF10926E00F0CF90916F009D7F39
:1007100090936F00EACF909170009D7F909370004E
:1007200091E09093B0009091B100987F9460909385
:10073000B1001092B300D9CF909171009D7F90933A
:100740007100D3CF909172009D7F90937200CDCFB6
:10075000CF93DF9390E0FC01E25AFE4F2491825444
:100760009E4FFC0184918823D1F090E0880F991F5F
:10077000FC01EC51FF4FA591B491FC01EC55FE4FEB
:10078000C591D491623071F49FB7F8943C91822F57
:10079000809583238C93E8812E2B28839FBFDF9144
:1007A000CF9108958FB7F894EC912E2B2C938FBF97
:1007B000F6CF8F929F92AF92BF92CF92DF92EF923D
:1007C000FF92CF936C0180912002833069F08F3FBC
:1007D00009F4A1C0CF91FF90EF90DF90CF90BF9030
:1007E000AF909F908F900895E4E0F2E0C491C7FD30
:1007F000F1CF61E083E0ACDFF12CE12CCC23E1F020
:10080000B12CA12CC23009F059C1750160E970ED1D
:1008100083E090E0A50196010E94BB17BA01A901EF
:10082000415051096109710983E04F3F510561054C
:10083000710509F00CF45DC060E072E18AE790E0B8
:10084000A70196010E94BB1749015A0168E478EE9E
:1008500081E090E0A70196010E94BB17BA01A901AF
:100860004150510961097109CC2309F4EBC1C2302F
:1008700009F0E6C184E04F3F510561057105C9F1FA
:10088000C4F164E274EF80E090E0A70196010E9459
:10089000BB17BA01A901415051096109710985E0ED
:1008A0004F3F51056105710521F118F162E17AE7C9
:1008B00080E090E0A70196010E94BB17BA01A90150
:1008C000415051096109710986E04F3F51056105A9
:1008D000710579F074F0B501A4019AE075956795FA
:1008E000579547959A95D1F741505109610971097A
:1008F00087E09091B100987F892B8093B100C2303E
:1009000009F47CC10CF073C1CC2309F4BBC1C13024
:1009100009F060CFFFC083E080932002E4E0F2E0C2
:10092000C4918C2FCF3F09F455CFC23009F467C072
:1009300058F4CC2371F1C13009F443C087FD4ACF8C
:1009400061E083E005DF5CCFC43009F499C008F4AE
:1009500078C0C53099F71092200110922101809142
:100960002101886080932101809121018160809321
:100970002101E1ECF1E0E491F0E0EE0FFF1FEC5516
:10098000FE4F85919491E1E6F1E0E491E09312034A
:1009900030CF14BC15BC84B5826084BD85B5816040
:1009A00085BDE1ECF1E0E491F0E0EE0FFF1FEC55C6
:1009B000FE4F85919491E1E6F1E0E491E093190313
:1009C00018CF109280001092810080918100886081
:1009D0008093810080918100816080938100E1ECAF
:1009E000F1E0E491F0E0EE0FFF1FEC55FE4F859132
:1009F0009491E1E6F1E0E491E0931803FACE1092CD
:100A0000B0001092B1008091B00082608093B0007D
:100A10008091B10081608093B100E1ECF1E0E4915C
:100A2000F0E0EE0FFF1FEC55FE4F859194919093EF
:100A3000170380931603E1E6F1E0E491E0931503D8
:100A4000D8CE109290001092910080919100886011
:100A50008093910080919100816080939100E1ECFE
:100A6000F1E0E491F0E0EE0FFF1FEC55FE4F8591B1
:100A70009491E1E6F1E0E491E0931403C3E0B9CE90
:100A80001092A0001092A1008091A1008860809334
:100A9000A1008091A10081608093A100E1ECF1E0D0
:100AA000E491F0E0EE0FFF1FEC55FE4F859194911D
:100AB000E1E6F1E0E491E09313039BCE60E072E1A4
:100AC0008AE790E0A50196010E94BB17BA01A9012F
:100AD000415051096109710991E04115510581E0C9
:100AE000680771057CF068E478EE81E090E0A5018C
:100AF00096010E94BB17BA01A90141505109610931
:100B0000710993E0C130D9F480918100887F892BED
:100B10008093810050938900409388008FEF9FEF6E
:100B2000DC0180932A0390932B03A0932C03B093B2
:100B30002D0380916F00826080936F004BCEC33095
:100B4000D9F480919100887F892B809391005093F4
:100B50009900409398008FEF9FEFDC018093220370
:100B600090932303A0932403B093250380917100F5
:100B70008260809371002ECEC430D9F48091A100A0
:100B8000887F892B8093A1005093A9004093A800EF
:100B90008FEF9FEFDC0180931E0390931F03A093C0
:100BA0002003B093210380917200826080937200D1
:100BB00011CEC53009F0A3CE80912101887F892B09
:100BC0008093210150932901409328018FEF9FEFDB
:100BD000DC0180931A0390931B03A0931C03B09332
:100BE0001D0380917300826080937300F3CDC43045
:100BF00059F20CF4ACCFC53029F3ECCD4093B300DF
:100C00008FEF9FEFDC018093260390932703A0933F
:100C10002803B09329038091700082608093700054
:100C2000D9CDB501A4018AE075956795579547958B
:100C30008A95D1F7415051096109710995E01EC0AB
:100C400084E02ECE93E04F3F510561057105B1F070
:100C5000ACF062E17AE780E090E0A70196010E94A3
:100C6000BB17BA01A90141505109610971094F3FF0
:100C700051056105710509F0A4F694E085B5887FFA
:100C8000892B85BD47BD8FEF9FEFDC0180932E033D
:100C900090932F03A0933003B093310380916E00A3
:100CA000826080936E0096CD3FB7F8948091D30216
:100CB0009091D402A091D502B091D60226B5A89BFE
:100CC00005C02F3F19F00196A11DB11D3FBFBA2FDE
:100CD000A92F982F8827BC01CD01620F711D811D9E
:100CE000911D42E0660F771F881F991F4A95D1F723
:100CF00008958F929F92AF92BF92CF92DF92EF9220
:100D0000FF924B015C01D0DF6B017C01CDDF6C19E0
:100D10007D098E099F09683E734081059105B0F3F6
:100D200021E0821A9108A108B10888EEC80E83E07C
:100D3000D81EE11CF11C81149104A104B10431F707
:100D4000FF90EF90DF90CF90BF90AF909F908F90EB
:100D500008952FB7F8946091CF027091D0028091DE
:100D6000D1029091D2022FBF0895089590E080E0C3
:100D700008957CDA8035910564F58091C6029091E2
:100D8000C7029C012F5F3F4F3093C7022093C602DA
:100D9000209100023091010282179307BCF010925B
:100DA000C7021092C60281E090E01092C502109234
:100DB000C4021092C3021092C2021092C102109299
:100DC000C0021092BF021092BE02089590E080E02F
:100DD000ECCF4CDA883C910564F52091C402309147
:100DE000C502C90101969093C5028093C402809107
:100DF00000029091010228173907C4F01092C50231
:100E00001092C4021816190664F401979093010217
:100E10008093000282E090E01092C7021092C60216
:100E2000C8CF1092010210920002F4CF90E080E04F
:100E3000F3CF1CDA8039914084F52091C2023091C1
:100E4000C302C90101969093C3028093C2028091AC
:100E500000029091010228173907E4F01092C302B2
:100E60001092C2021816190684F401979093010299
:100E70008093000283E090E01092C7021092C602B5
:100E80001092C5021092C40298CF109201021092E3
:100E90000002F0CF90E080E0EFCFE8D988359240B3
:100EA00044F58091C0029091C1029C012F5F3F4F99
:100EB0003093C1022093C0022091000230910102C0
:100EC000821793079CF01092C1021092C00284E036
:100ED00090E01092C7021092C6021092C5021092C2
:100EE000C4021092C3021092C2026BCF90E080E065
:100EF000F0CFBCD98032934064F58091BE029091CE
:100F0000BF029C012F5F3F4F3093BF022093BE0270
:100F1000209100023091010282179307BCF01092D9
:100F2000BF021092BE0285E090E01092C7021092BC
:100F3000C6021092C5021092C4021092C30210920F
:100F4000C2021092C1021092C002089590E080E0A7
:100F5000ECCF81E090E090930803809307038FE04B
:100F600090E0909301028093000286E090E0089563
:100F700060E08FE27CDB61E081E379CB61E08FE2CE
:100F800076DB60E081E373CB60E08FE270DB60E0F2
:100F900081E36DCBFB0101900020E9F73197AF01B0
:100FA000461B570BDC01ED91FC910280F381E02D93
:100FB00019948F929F92AF92BF92EF92FF920F93EC
:100FC0001F93CF93DF93CDB7DEB7A1970FB6F894F9
:100FD000DEBF0FBECDBF7C01FA01CB0119A22230CA
:100FE00008F42AE08E010F5D1F4F822E912CB12C48
:100FF000A12CBF01A50194010E949816F901CA0114
:101000006A3004F5605DD8016E938D01232B242B8B
:10101000252B79F790E080E0109719F0BD01C7010A
:10102000B9DFA1960FB6F894DEBF0FBECDBFDF913A
:10103000CF911F910F91FF90EF90BF90AF909F9035
:101040008F900895695CDFCFA5CF2F923F924F928A
:101050005F926F927F928F929F92AF92BF92CF9248
:10106000DF92EF92FF921F93CF93DF93EC016A011F
:101070007B01722EAB019601CB01B6010E94B7171E
:1010800064E472E0811126C046015701E894B7F884
:101090002FEF3FEF4FE75FE7C501B4010E94B7179D
:1010A00081110CC02FEF3FEF4FE75FE7C501B4019F
:1010B0000E94691568E472E0181664F02FEF3FEFA4
:1010C0004FE75FE4C701B6010E94B3171816ACF4EE
:1010D0006CE472E0CE01DF91CF911F91FF90EF9011
:1010E000DF90CF90BF90AF909F908F907F906F9048
:1010F0005F904F903F902F904DCF2FEF3FEF4FE7F6
:101100005FECC701B6010E94691587FDE1CF20E0C1
:1011100030E0A901C701B6010E946915312C212CCC
:1011200087FF0DC0E881F9810190F081E02D6DE22B
:10113000CE0119951C01F7FAF094F7F8F09410E03D
:1011400060E070E080E09FE3711641F020E030E065
:1011500040E251E40E941F171F5FF6CFA7019601DE
:101160000E94BB162B013C010E9487174B015C01BA
:101170002AE0BC01A401CE011CDF7C01E20CF31CBF
:101180001123D9F1C501B4010E946D159B01AC0179
:10119000C301B2010E94BA164B015C01E881F981DA
:1011A0000190F081E02D6EE2CE011995E80EF91E56
:1011B000115018F120E030E040E251E4C501B401E3
:1011C0000E94CE152B013C010E9487174B01B12CC8
:1011D000A12C2AE0B501A401CE01EBDEE80EF91E38
:1011E000C501B4010E946D159B01AC01C301B201A0
:1011F0000E94BA164B015C01DBCFC701DF91CF9192
:101200001F91FF90EF90DF90CF90BF90AF909F9095
:101210008F907F906F905F904F903F902F900895A8
:10122000CF93DF93EC0160E08E8121DA61E08E8163
:101230001EDA60E08E811BDA8BE891E00197F1F70E
:10124000DF91CF910895CF92DF92EF92FF920F93AB
:101250001F93CF93DF936C017C0187E0E80EF11CB4
:10126000D0E0C0E0062F10E0B8010C2E02C075954A
:1012700067950A94E2F76170F70181917F01F7D9D0
:101280002196C430D10581F7C601DF91CF911F911E
:101290000F91FF90EF90DF90CF90C2CFCF92DF926F
:1012A000EF92FF920F931F93CF93DF93EC01F62EF3
:1012B000642F8C81DCD98D818F3F11F060E0D7D90C
:1012C0000F2D10E08F8584FF23C06E0187E0C80ECC
:1012D000D11CF12CE12CB8010E2C02C0759567953C
:1012E0000A94E2F76170F60181916F01C0D9FFEFB6
:1012F000EF1AFF0A88E0E816F10469F7CE01DF91E2
:10130000CF911F910F91FF90EF90DF90CF9088CFFA
:10131000B80184E0759567958A95E1F7CE0193DF72
:101320006F2DCE01DF91CF911F910F91FF90EF9024
:10133000DF90CF9088CF40E0682F82EB94E0AECF73
:10134000CF93DF93823029F49091C10498609093F9
:10135000C1048093C5041092C60480E48093C7043E
:1013600080E18093C80480E58093C90461E08091A6
:10137000B604EED98091B7048F3F11F061E0E8D94F
:1013800061E08091B804E4D9C2EBD4E09E01225B15
:1013900034408091C10484FD0AC084E090E021962D
:1013A000281739073CF461E08E81D2D9EFCF88E06D
:1013B00090E0F5CF8BE39DE00197F1F760E080913D
:1013C000B60455D960E08091B80451D98091B70432
:1013D0008F3F11F060E04BD98091C10484FD31C092
:1013E00063E082EB94E02FDFCBE4D6E4CE010197FB
:1013F000F1F763E082EB94E026DF2197F1F763E0F9
:1014000082EB94E020DF83E592E00197F1F762E060
:1014100082EB94E018DF8091C10480628CDF84E06D
:101420008093C2048CE087DF81E085DF8BE39FE15E
:101430000197F1F782E08093C30486E0DF91CF91BA
:101440007ACF806278DF8BE496E40197F1F78091A0
:10145000C104806270DF83E592E00197F1F780912B
:10146000C104806268DFD7CF9091C504691710F07E
:101470006FEF690FE62FF0E0EE54FB4F9489890F70
:10148000806859CF41E00ADF81E090E008951F9223
:101490000F920FB60F9211240BB60F922F933F931A
:1014A0004F935F936F937F938F939F93AF93BF936C
:1014B000EF93FF938091260390912703A091280337
:1014C000B0912903892B8A2B8B2BE1F19091150385
:1014D000E0911603F0911703808189278083809122
:1014E000260390912703A0912803B0912903181691
:1014F00019061A061B069CF4809126039091270377
:10150000A0912803B09129030197A109B109809303
:10151000260390932703A0932803B0932903FF91F8
:10152000EF91BF91AF919F918F917F916F915F915B
:101530004F913F912F910F900BBE0F900FBE0F90C8
:101540001F90189580912002BFD8E9CF1F920F926B
:101550000FB60F9211240BB60F922F933F934F9318
:101560005F936F937F938F939F93AF93BF93EF930B
:10157000FF9382E393E00E941802FF91EF91BF91E5
:10158000AF919F918F917F916F915F914F913F911B
:101590002F910F900BBE0F900FBE0F901F901895BC
:1015A0001F920F920FB60F9211240BB60F922F932A
:1015B0008F939F93EF93FF93E0914203F091430346
:1015C0008081E0914803F091490382FD1DC0908124
:1015D00080914B038F5F8F7320914C03821741F0F2
:1015E000E0914B03F0E0EE5CFC4F958F80934B0352
:1015F000FF91EF919F918F912F910F900BBE0F90C4
:101600000FBE0F901F9018958081F2CF1F920F92FE
:101610000FB60F9211240BB60F922F933F934F9357
:101620005F936F937F938F939F93AF93BF93EF934A
:10163000FF938FEC93E00E941802FF91EF91BF910E
:10164000AF919F918F917F916F915F914F913F915A
:101650002F910F900BBE0F900FBE0F901F901895FB
:101660001F920F920FB60F9211240BB60F922F9369
:101670008F939F93EF93FF93E091DF03F091E0034B
:101680008081E091E503F091E60382FD1DC0908129
:101690008091E8038F5F8F732091E903821741F0F7
:1016A000E091E803F0E0E153FC4F958F8093E8036D
:1016B000FF91EF919F918F912F910F900BBE0F9003
:1016C0000FBE0F901F9018958081F2CF1F920F923E
:1016D0000FB60F9211242F933F938F939F93AF9345
:1016E000BF938091CF029091D002A091D102B0918E
:1016F000D2023091CE0223E0230F2D3758F5019608
:10170000A11DB11D2093CE028093CF029093D002F1
:10171000A093D102B093D2028091D3029091D402CF
:10172000A091D502B091D6020196A11DB11D809362
:10173000D3029093D402A093D502B093D602BF9166
:10174000AF919F918F913F912F910F900FBE0F906E
:101750001F90189526E8230F0296A11DB11DD2CF28
:101760001F920F920FB60F9211248F939F9381E0D7
:101770008093E8028091CC029091CD02009729F0ED
:1017800001979093CD028093CC028091CA029091F0
:10179000CB02009729F001979093CB028093CA0265
:1017A0008091FD029091FE02009729F0019790939D
:1017B000FE028093FD028091C8029091C9020097B9
:1017C00029F001979093C9028093C80286EE99EFA1
:1017D00090938500809384009F918F910F900FBE0E
:1017E0000F901F901895E2E3F3E01382128248EE07
:1017F00053E060E070E044835583668377838AE238
:1018000092E09183808325ED30E03587248724EDB5
:1018100030E03787268720ED30E0318B208B21EDBB
:1018200030E0338B228B22ED30E0358B248B26ED9C
:1018300030E0378B268B118E128E138E148EEFECC8
:10184000F3E0138212824483558366837783918306
:10185000808385EC90E09587848784EC90E097877F
:10186000868780EC90E0918B808B81EC90E0938B6D
:10187000828B82EC90E0958B848B86EC90E0978B4A
:10188000868B118E128E138E148EECE6F4E0168287
:101890001782108611861286138614861586168680
:1018A0001786108A118A128A138A148A158AE2EB23
:1018B000F4E0138212828CE392E09183808388E0CB
:1018C00084838FEF858389E0868384E0878385E046
:1018D000808786E0818787E0828713861486158655
:1018E0001686178681E02CCDCF93DF9300D000D0F1
:1018F00000D0CDB7DEB7789484B5826084BD84B55E
:10190000816084BD85B5826085BD85B5816085BDFA
:1019100080916E00816080936E00109281008091B2
:10192000810082608093810080918100816080933A
:101930008100809180008160809380008091B1005F
:1019400084608093B1008091B00081608093B0008A
:1019500080919100826080939100809191008160DC
:10196000809391008091900081608093900080919D
:10197000A10082608093A1008091A100816080938A
:10198000A1008091A00081608093A000809121013E
:1019900082608093210180912101816080932101E7
:1019A0008091200181608093200180917A00846081
:1019B00080937A0080917A00826080937A0080918F
:1019C0007A00816080937A0080917A0080688093A9
:1019D0007A001092C1001092AE041092AF041092DF
:1019E000B0041092B10410926E0410926F04109221
:1019F000700410927104ADD96B017C014B015C0144
:101A000028EB820E2BE0921EA11CB11CA2D96C15F2
:101A10007D058E059F0528F086169706A806B9064F
:101A2000A8F768EE73E080E090E063D926E040E03C
:101A300052EC61E070E08FEC93E00E94C80189D91C
:101A400060936E0470936F0480937004909371049C
:101A500060E572E08FEC93E0F7DA7BD96B017C01F3
:101A60004B015C013AE0830E911CA11CB11C71D9A1
:101A70006C157D058E059F0528F086169706A8062D
:101A8000B906A8F781E08093820462E082E00E94B8
:101A9000A80361E083E00E94A80361E08FE20E9456
:101AA000A80361E081E30E94A80361E085E20E944F
:101AB000A80361E087E20E94A80361E089E20E9436
:101AC000A80360E083E00E94370360E08FE20E9499
:101AD000370360E081E30E94370360E085E20E9403
:101AE000370360E087E20E94370360E089E20E94EA
:101AF000370326E240E051EE60E070E082E393E0DD
:101B00000E94C80126E040E052EC61E070E08FECFA
:101B100093E00E94C80182E013DC60E080E0A4DC76
:101B200010928000109281008091810085608093E6
:101B3000810086EE99EF90938500809384008091D8
:101B40006F00816080936F0052E1E52E52E0F52E28
:101B500010E000E0C8010E948216D7018D937D013C
:101B60000F5F1F4F0E301105A9F7C0901202D090E1
:101B70001302E0901402F09015022DEC3CEC4CECBA
:101B80005DE3C701B601A5D787FD12C026E636E69C
:101B90004EE151E4C701B6010E94B317181644F094
:101BA000A7019601C701B6010E94B717882361F00B
:101BB00080E090E0A0E0BFE38093120290931302D4
:101BC000A0931402B0931502C0901602D090170291
:101BD000E0901802F090190220E030E040E151E47A
:101BE000C701B60176D787FD12C02DEC3CEC47EC5F
:101BF00052E4C701B6010E94B317181644F0A701BA
:101C00009601C701B6010E94B717882361F080E0F2
:101C100090E0A4EBB1E48093160290931702A09396
:101C20001802B0931902C0901A02D0901B02E090E3
:101C30001C02F0901D0220E030E0A901C701B601AE
:101C400048D787FD12C02DEC3CEC47EC52E4C701AD
:101C5000B6010E94B317181644F0A7019601C701F8
:101C6000B6010E94B717882361F080E090E0A0E6FB
:101C7000B0E480931A0290931B02A0931C02B093CD
:101C80001D0260911E0270911F026230710548F4BE
:101C900090E080E022D79B01AC010E94B717882317
:101CA00021F010921F0210921E0243E0242E312CCC
:101CB00004E010E0EAE1F1E08491E0E6F1E0E49094
:101CC000E0ECF1E0F490FF2009F49AC081110E9449
:101CD000D002EF2DF0E0EE0FFF1FE250FF4FA59175
:101CE000B4918C91E82231E020E009F430E0832FB8
:101CF000922FF1E08F278170809309038091E80291
:101D0000882321F11092E8028091E6029091E70287
:101D10008A3091050CF077C001969093E70280938A
:101D2000E6028091E502811111C063E682E393E04F
:101D30000E943A0261E382E393E00E943A0281E06A
:101D40008093E5021092E4021092E30282E393E0B2
:101D50000E94AA011816190634F51092E702109293
:101D6000E602E090E302F090E40225E0E216F104DE
:101D7000D4F482E393E00E948801F701EE0FFF1F85
:101D8000E752FD4F9183808332E0E316F10409F4BA
:101D90000FC10CF056C0E114F10409F4E9C0EA9453
:101DA000EF2809F4F8C080910C0390910D03892B62
:101DB00011F18090F1029090F202A090F302B090A5
:101DC000F40220E030E040E751E4C501B40181D6DF
:101DD00087FF04C01092EA021092E9028091E902A2
:101DE0009091EA028130910509F421C108F404C1FF
:101DF000029709F43EC11092F0021092EF0290C2D5
:101E000090E080E076CF1092E7021092E602109206
:101E10000D0310920C0385E0E1E2F2E0DE01119681
:101E200001900D928A95E1F7BE016F5F7F4F82E3CB
:101E300093E0B0D81092E5021092E4021092E3020F
:101E400070CF83E0E816F10409F4BBC094E0E91612
:101E5000F10409F0A8CF8091E1029091E2028F3461
:101E6000910509F0C2C06091D7028091D802762F07
:101E7000682F072E000C880B990B31D620E030E03C
:101E800040E251E4DCD76B017C012DEC3CEC4CECE6
:101E90005DE30E94B31787FD9DC020E030E048E479
:101EA00053E4C701B60115D618160CF493C021E00F
:101EB00030E030930D0320930C03C092F102D092D6
:101EC000F202E092F302F092F4022DEC3CEC4CE4CE
:101ED0005FE360910103709102038091030390918D
:101EE00004035CD64B015C012DEC3CEC4CE45EE35E
:101EF000C701B60153D69B01AC01C501B4013BD764
:101F0000609301037093020380930303909304038F
:101F100061E672E08FEC93E097D840911602509101
:101F20001702609118027091190222E08FEC93E081
:101F30008CD86BE672E08FEC93E086D84091F1028A
:101F40005091F2026091F3027091F40222E08FEC62
:101F500093E07BD864E772E08FEC93E01BD885E0D8
:101F6000A9EDB2E01D928A95E9F71092E50207C04B
:101F70008091D9029091DA028336910529F010926E
:101F8000E4021092E3020FCFA1E0B0E0B093E402CC
:101F9000A093E30208CF8091DB029091DC02C1970D
:101FA00071F7E2E0F0E0F093E402E093E302FBCEAD
:101FB0008091DD028093D8023092E4022092E30205
:101FC000F2CE8091DF028093D7021093E402009357
:101FD000E302E9CE10920D0310920C034AE050E0A8
:101FE0005093E7024093E60293CF8AE090E090930B
:101FF000E7028093E602B3CF20E030E048E851E406
:10200000C501B401B0D718160CF0F5CEE1E0F0E050
:10201000F093EA02E093E9020E94A9066093EB02C2
:102020007093EC028093ED029093EE02E4CE0E9456
:10203000A90653D56B017C016091EB027091EC0213
:102040008091ED029091EE024AD520E030E04AE71F
:1020500054E491D69B01AC01C701B60184D7181690
:102060000CF0C9CE22E030E03093EA022093E9027E
:10207000C2CEF0900903FF2009F4BDCE80911E026C
:1020800090911F02892B09F033C11092F002109237
:10209000EF020E94A9064B015C018091F50290912C
:1020A000F602A091F702B091F802A5019401281B55
:1020B000390B4A0B5B0BDA01C90184369105A10586
:1020C000B10508F4B1C1FF2009F4AEC18091F90255
:1020D0009091FA02092E000CAA0BBB0BA5019401EA
:1020E000281B390B4A0B5B0BDA01C9018C3291407A
:1020F000A105B105A0F18091160290911702A0915F
:102100001802B09119028E839F83A887B9874090E7
:102110001202509013026090140270901502C09049
:10212000F102D090F202E090F302F090F402A301E9
:102130009201BC01CD011FD6A7019601CAD487FF29
:102140005FC10E94BE078092F5029092F602A092B3
:10215000F702B092F8029092FA028092F902E090AF
:102160000C03F0900D038091020290910302E81697
:10217000F90659F091E0E916F10409F058C190E030
:1021800080E090930B0380930A03F0920302E092A5
:10219000020280910A0390910B038330910509F4A8
:1021A0006FC108F047C1009709F462C1029709F4B2
:1021B000AEC1E114F10409F4D8C161E0EA94EF285A
:1021C00009F4EFC1F0900903FF2009F459C30E94FC
:1021D000B9068330910509F4D9C20CF0E7C181300A
:1021E000910509F4E9C1029709F424C28091FF0224
:1021F00090910003AC014F5F5F4F883291050CF066
:102200004FC3509300034093FF02E12C60E080E055
:102210002BD9F11060C367E772E082EB94E00E9473
:10222000240861E080E020D968E872E082EB94E065
:102230000E9424084091010350910203609103031E
:102240007091040321E082EB94E00E94250861E98B
:1022500072E082EB94E00E9424080E94A906AB0180
:10226000BC0180910E0390910F03A0911003B091D7
:1022700011038854944FAF4FBF4F481759076A074F
:102280007B0798F14EE050E064E072E082E192E07A
:1022900096D6892BB9F082E1C82E82E0D82EF12C97
:1022A000E12CD601BD906D01C7012CD5B81619F0EF
:1022B0006B2DC7012FD5BFEFEB1AFB0AEEE0EE1630
:1022C000F10479F78EE0E2E1F2E0A4E0B2E00190FF
:1022D0000D928A95E1F70E94A90660930E03709310
:1022E0000F0380931003909311030E94A502E2CC88
:1022F00020E030E040EA50E4C501B401EAD387FFB2
:1023000004C01092F0021092EF028091EF029091BF
:10231000F0028130910549F128F0029709F4B9CE15
:10232000F12CB7CE20E030E040EA51E4C501B40121
:102330001AD61816ACF720E030E048E452E4C501A4
:10234000B401C7D387FFECCF41E050E05093F002D7
:102350004093EF020E94A9066093EB027093EC0297
:102360008093ED029093EE02DBCF20E030E048E472
:1023700052E4C501B401F7D518160CF43CCD0E9407
:10238000A906ABD36B017C016091EB027091EC026A
:102390008091ED029091EE02A2D34B015C0120E00E
:1023A00030E04AE754E460911A0270911B02809178
:1023B0001C0290911D02F2D39B01AC01C501B40136
:1023C000DAD49B01AC01C701B601CDD518160CF0CB
:1023D000A7CF82E090E09093F0028093EF0280918B
:1023E000010390910203A0910303B0910403809331
:1023F000160290931702A0931802B093190290CF7F
:10240000A30192016E817F8188859985B3D49B0158
:10241000AC01C701B6015DD387FF03C00E94B807B6
:1024200092CE0E94C40797CE0E94C40798CE82E045
:1024300090E0A7CE8530910509F44CC0D8F10697FD
:1024400009F0B7CE2091FB023091FC02C901019640
:102450009093FC028093FB0221303105F1F08A3029
:10246000910509F44AC08F30910509F04DC03FC075
:1024700083E00E9464031092FC021092FB0299CE4A
:102480002091FB023091FC02C90101969093FC025D
:102490008093FB022130310529F48BE694E00E9401
:1024A000D90387CE03970CF484CE10920B031092BD
:1024B0000A037FCE2091FB023091FC02C9010196F4
:1024C0009093FC028093FB022130310559F78EE195
:1024D00090E0E5CF2091FB023091FC02C90101960A
:1024E0009093FC028093FB022130310519F480EABD
:1024F00091E0D5CF8530910521F483E00E946403FB
:1025000058CE8A30910549F245977CF652CE2091FB
:10251000FB023091FC02C90101969093FC0280936A
:10252000FB022130310529F48EE190E00E94D903AD
:1025300006C08930910551F483E00E94640361E094
:1025400070E080E090E00E94790633CE8F309105F4
:1025500019F48BE694E0EACF8D32910569F37CF3B0
:1025600010920B0310920A03EACF8091FD02909122
:10257000FE02009739F4EAE0F0E0F093FE02E09307
:10258000FD0220CE60E0069764F089E20E943703E6
:1025900061E087E20E94370360E085E20E94370332
:1025A00011CE89E20E94370360E0F3CF84309105B9
:1025B00031F1059709F01ACE25E030E030930B0396
:1025C00020930A038091070390910803019709F073
:1025D0000DCE80910503909106038330910534F46C
:1025E0000196909306038093050304C0109206039E
:1025F000109205031092080310920703F7CD46E0EE
:1026000050E050930B0340930A038091070390918D
:102610000803019709F0EACD809105039091060324
:102620001816190614F40197DCCF30920603209295
:102630000503E0CF80910503909106038230910558
:10264000D1F08330910509F47CC0019709F0CECD1B
:1026500030920B0320920A0381E090E020911E0249
:1026600030911F02232B11F090E080E090931F0225
:1026700080931E02BBCD30920B0320920A038091FF
:102680001E0290911F02892B71F580901602909086
:102690001702A0901802B09019022DEC3CEC47EC08
:1026A00052E4C501B40115D287FF10C02DEC3CECFB
:1026B0004CEC5DE3C501B4015ED3609316027093E8
:1026C0001702809318029093190290CD8DEC9CEC28
:1026D000A7ECB2E48093160290931702A09318021D
:1026E000B093190283CD80901A0290901B02A090A3
:1026F0001C02B0901D022DEC3CEC47EC52E4C501ED
:10270000B401E7D187FF10C02DEC3CEC4CEC5DE34D
:10271000C501B40130D360931A0270931B028093F9
:102720001C0290931D0262CD8DEC9CECA7ECB2E4F0
:1027300080931A0290931B02A0931C02B0931D0277
:1027400055CD90930B0380930A03809012029090D2
:102750001302A0901402B090150226E636E64EE170
:1027600051E4C501B401B5D187FF40CD2DEC3CEC5F
:102770004CEC5DE3C501B401FED26093120270938C
:102780001302809314029093150230CD80910503BB
:10279000909106038230910561F08330910509F430
:1027A00051C0019709F022CD10930B0300930A0347
:1027B00053CF10930B0300930A0380911E02909154
:1027C0001F02892BF1F48090160290901702A090BE
:1027D0001802B090190220E030E040E151E4C50158
:1027E000B401C1D3181644F42DEC3CEC4CEC5DE381
:1027F000C501B401BFD261CF80E090E0A0E1B1E4B7
:1028000069CF80901A0290901B02A0901C02B09099
:102810001D0220E030E0A901C501B401A4D31816BF
:1028200044F42DEC3CEC4CEC5DE3C501B401A2D2C8
:1028300072CF10921A0210921B0210921C02109278
:102840001D02D4CC10930B0300930A038090120254
:1028500090901302A0901402B09015022DEC3CEC65
:102860004CEC5DE3C501B4017ED318160CF0BECC70
:102870002DEC3CEC4CEC5DE3C501B4017BD27DCF8B
:102880000E94B9068230910529F0039731F00E9429
:10289000C407ACCC0E94B807A9CC0E94BE07A6CC46
:1028A0009C012E5F3F4F403551053CF430930003AF
:1028B0002093FF02EE24E394A9CC2235310534F4B1
:1028C0000396909300038093FF02F4CF10920003CD
:1028D0001092FF02EFCF80910503909106032091A3
:1028E0001E0230911F022130310509F48FC001977B
:1028F00021F465EA72E0E11002C067E972E082EB60
:1029000094E00E9424086AE872E082EB94E00E945E
:1029100024084091010350910203609103037091D8
:10292000040321E082EB94E00E9425086CE972E048
:1029300082EB94E00E94240861E080E00E94340A67
:102940006FE972E082EB94E00E9424088091050315
:10295000909106030297E1F5EE20D1F164EA72E06E
:1029600082EB94E00E94240820E030E040E251E451
:1029700060911602709117028091180290911902CD
:10298000F2D261E087FD32C088E00E94340A6AEA30
:1029900072E082EB94E00E94240861E08AE00E94E9
:1029A000340A6DEA72E082EB94E00E942408809180
:1029B0000503909106030397D9F4EE20C9F066EA67
:1029C00072E082EB94E00E9424086DE972E041CC51
:1029D00040911602509117026091180270911902ED
:1029E00021E082EB94E00E942508BECF87E0CDCFA6
:1029F00040911202509113026091140270911502DD
:102A000021E082EB94E00E942508DFCF019721F4BA
:102A100065EA72E0E11002C060EB72E082EB94E0E4
:102A20000E9424086AE872E082EB94E00E94240885
:102A300040910103509102036091030370910403DC
:102A400021E082EB94E00E9425086CE972E082EBC1
:102A500094E00E94240861E080E00E94340A65EB63
:102A600072E082EB94E00E9424088091050390912B
:102A700006030297F1F4EE20E1F065EA72E082EBE2
:102A800094E00E94240820E030E040E251E46091AC
:102A90001A0270911B0280911C0290911D0263D258
:102AA00061E087FD14C089E00E94340A6BEB72E09C
:102AB00070CF40911A0250911B0260911C027091DC
:102AC0001D0221E082EB94E00E942508DCCF88E023
:102AD000EBCF40D008F481E00895E89409C097FB5B
:102AE0003EF490958095709561957F4F8F4F9F4FE5
:102AF0009923A9F0F92F96E9BB279395F695879529
:102B000077956795B795F111F8CFFAF4BB0F11F4EB
:102B100060FF1BC06F5F7F4F8F4F9F4F16C0882392
:102B200011F096E911C0772321F09EE8872F762FC8
:102B300005C0662371F096E8862F70E060E02AF009
:102B40009A95660F771F881FDAF7880F96958795F5
:102B500097F90895990F0008550FAA0BE0E8FEEFCA
:102B600016161706E807F907C0F012161306E40751
:102B7000F50798F0621B730B840B950B39F40A264A
:102B800061F0232B242B252B21F408950A2609F428
:102B9000A140A6958FEF811D811D08950BD078C0AF
:102BA00069D028F06ED018F0952309F05AC05FC0A4
:102BB0001124A2C07ED0A0F3959FD1F3950F50E0D1
:102BC000551F629FF001729FBB27F00DB11D639FDF
:102BD000AA27F00DB11DAA1F649F6627B00DA11D85
:102BE000661F829F2227B00DA11D621F739FB00D2B
:102BF000A11D621F839FA00D611D221F749F33279B
:102C0000A00D611D231F849F600D211D822F762F33
:102C10006A2F11249F5750408AF0E1F088234AF030
:102C2000EE0FFF1FBB1F661F771F881F915050407C
:102C3000A9F79E3F510570F014C05EC05F3FECF3F2
:102C4000983EDCF3869577956795B795F795E79568
:102C50009F5FC1F7FE2B880F911D9695879597F979
:102C6000089597F99F6780E870E060E008959FEF0E
:102C700080EC089500240A94161617061806090613
:102C8000089500240A9412161306140605060895E2
:102C9000092E0394000C11F4882352F0BB0F40F46A
:102CA000BF2B11F460FF04C06F5F7F4F8F4F9F4FAA
:102CB000089557FD9058440F551F59F05F3F71F02C
:102CC0004795880F97FB991F61F09F3F79F0879593
:102CD0000895121613061406551FF2CF4695F1DF1C
:102CE00008C0161617061806991FF1CF86957105AC
:102CF000610508940895E894BB2766277727CB01E0
:102D000097F90895F999FECF92BD81BDF89A992758
:102D100080B50895262FF999FECF1FBA92BD81BDC7
:102D200020BD0FB6F894FA9AF99A0FBE019608954D
:102D3000A1E21A2EAA1BBB1BFD010DC0AA1FBB1FBF
:102D4000EE1FFF1FA217B307E407F50720F0A21B31
:102D5000B30BE40BF50B661F771F881F991F1A949E
:102D600069F760957095809590959B01AC01BD01C8
:102D7000CF0108955058BB27AA270ED089CF7ADFFC
:102D800030F07FDF20F031F49F3F11F41EF46FCF5D
:102D90000EF4E095E7FB65CFE92F8BDF80F3BA17E0
:102DA000620773078407950718F071F49EF5A3CFA7
:102DB0000EF4E0950B2EBA2FA02D0B01B901900156
:102DC0000C01CA01A0011124FF27591B99F0593F9A
:102DD00050F4503E68F11A16F040A22F232F342FE2
:102DE0004427585FF3CF469537952795A795F04030
:102DF0005395C9F77EF41F16BA0B620B730B840B45
:102E0000BAF09150A1F0FF0FBB1F661F771F881FFC
:102E1000C2F70EC0BA0F621F731F841F48F4879554
:102E200077956795B795F7959E3F08F0B3CF939543
:102E3000880F08F09927EE0F9795879508950CD085
:102E400027CF1FDF40F016DF30F021F45F3F19F08D
:102E500008CF511151CF0BCF2CDF98F39923C9F331
:102E60005523B1F3951B550BBB27AA276217730790
:102E7000840738F09F5F5F4F220F331F441FAA1F44
:102E8000A9F333D00E2E3AF0E0E830D09150504004
:102E9000E695001CCAF729D0FE2F27D0660F771FB2
:102EA000881FBB1F261737074807AB07B0E809F094
:102EB000BB0B802DBF01FF2793585F4F2AF09E3F29
:102EC000510568F0CECE18CF5F3FECF3983EDCF3AF
:102ED000869577956795B795F7959F5FC9F7880FA2
:102EE000911D9695879597F90895E1E0660F771FF4
:102EF000881FBB1F621773078407BA0720F0621B85
:102F0000730B840BBA0BEE1F88F7E0950895D9DE9A
:102F100088F09F5790F0B92F9927B751A0F0D1F0C2
:102F2000660F771F881F991F1AF0BA95C9F712C04C
:102F3000B13081F0E0DEB1E00895DDCE672F782F6B
:102F40008827B85F39F0B93FCCF3869577956795B8
:102F5000B395D9F73EF490958095709561957F4F24
:102F60008F4F9F4F0895F6DD08F48FEF0895F2DD3F
:102F7000880B990B0895052E97FB16F400940FD03B
:102F800057FD05D0D5DE07FC02D046F408C05095A9
:102F90004095309521953F4F4F4F5F4F0895909545
:102FA0008095709561957F4F8F4F9F4F0895EE0FDD
:102FB000FF1F881F8BBF0790F691E02D1994FB012E
:102FC000DC0104C08D910190801921F441505040E2
:0C2FD000C8F7881B990B0895F894FFCFF8
:102FDC000F00FFFF0000003F000040410000604078
:102FEC0001000000003F0000404100006040010073
:102FFC00FFFFFFFFFF00000000003A024C017901C7
:10300C008602AA0188019C0100000000420A4C01C2
:10301C00B606B5066E616E00696E66006F76660068
:10302C00564D4450565F317C315F564D4450560AD4
:10303C0000536574506F696E743A002054656E735A
:10304C00616F3A000D0A002020204445534C49473B
:10305C0041444F202020200020204152434F3A2051
:10306C000020562020200028412920002056005204
:10307C0065663A002020202020005620002B2D00D1
:0E308C002842292000744573743A0073200016
:020000023000CC
:10E000000D9489F10D94B2F10D94B2F10D94B2F129
:10E010000D94B2F10D94B2F10D94B2F10D94B2F1F0
:10E020000D94B2F10D94B2F10D94B2F10D94B2F1E0
:10E030000D94B2F10D94B2F10D94B2F10D94B2F1D0
:10E040000D94B2F10D94B2F10D94B2F10D94B2F1C0
:10E050000D94B2F10D94B2F10D94B2F10D94B2F1B0
:10E060000D94B2F10D94B2F10D94B2F10D94B2F1A0
:10E070000D94B2F10D94B2F10D94B2F10D94B2F190
:10E080000D94B2F10D94B2F10D94B2F10D94B2F180
:10E090000D94B2F10D94B2F10D94B2F10D94B2F170
:10E0A0000D94B2F10D94B2F10D94B2F10D94B2F160
:10E0B0000D94B2F10D94B2F10D94B2F10D94B2F150
:10E0C0000D94B2F10D94B2F10D94B2F10D94B2F140
:10E0D0000D94B2F10D94B2F10D94B2F10D94B2F130
:10E0E0000D94B2F141546D656761323536300041AF
:10E0F000726475696E6F206578706C6F72657220DE
:10E1000073746B3530305632206279204D4C530099
:10E11000426F6F746C6F616465723E004875683F52
:10E1200000436F6D70696C6564206F6E203D200048
:10E130004350552054797065202020203D20005FF9
:10E140005F4156525F415243485F5F3D2000415658
:10E1500052204C696243205665723D20004743437C
:10E160002056657273696F6E203D20004350552024
:10E1700049442020202020203D20004C6F7720663D
:10E18000757365202020203D20004869676820665F
:10E190007573652020203D200045787420667573D6
:10E1A00065202020203D20004C6F636B2066757336
:10E1B000652020203D20004D617220203720323024
:10E1C000313300312E362E3800342E332E350056A2
:10E1D00023202020414444522020206F7020636F70
:10E1E00064652020202020696E73747275637469E1
:10E1F0006F6E2061646472202020496E74657272B3
:10E20000757074006E6F20766563746F7200726A49
:10E210006D702020006A6D70200057686174207056
:10E220006F72743A00506F7274206E6F7420737541
:10E2300070706F72746564004D7573742062652030
:10E2400061206C6574746572002000577269747483
:10E25000696E672045450052656164696E672045B7
:10E26000450045452065727220636E743D00504F35
:10E27000525400303D5A65726F2061646472003FF1
:10E280003D43505520737461747300403D454550C3
:10E29000524F4D207465737400423D426C696E6B41
:10E2A000204C454400453D44756D70204545505215
:10E2B0004F4D00463D44756D7020464C415348001B
:10E2C000483D48656C70004C3D4C69737420492F83
:10E2D0004F20506F72747300513D51756974005234
:10E2E0003D44756D702052414D00563D73686F7707
:10E2F00020696E7465727275707420566563746FF0
:10E30000727300593D506F727420626C696E6B00BD
:10E310002A0011241FBECFEFD1E2DEBFCDBF01E046
:10E320000CBF12E0A0E0B2E0EEE1FDEF03E00BBFB6
:10E3300002C007900D92A030B107D9F712E0A0E01B
:10E34000B2E001C01D92AE30B107E1F70F9460F367
:10E350000D948DFE01E20EBF0FEF0DBF11241FBE05
:10E360000D9460F30D9400F020E030E040ED57E0B4
:10E3700005C0FA013197F1F72F5F3F4F2817390792
:10E38000C0F308959C01260F311DC901A0E0B0E043
:10E390002F5F3F4FABBFFC018791882361F08093D3
:10E3A000C6008091C00086FFFCCF8091C0008064D1
:10E3B0008093C000EACF08958DE08093C6008091DD
:10E3C000C00086FFFCCF8091C00080648093C000B5
:10E3D0008AE08093C6008091C00086FFFCCF8091C8
:10E3E000C00080648093C00008950F94C2F10F9420
:10E3F000DCF10895FC019081992359F09093C600B7
:10E400008091C00086FFFCCF8091C0008064809323
:10E41000C0003196992379F70895282F982F929567
:10E420009F70892F805D8A3308F0895F8093C600D2
:10E430008091C00086FFFCCF8091C00080648093F3
:10E44000C000822F8F70982F905D9A3308F0995FEB
:10E450009093C6008091C00086FFFCCF8091C000E1
:10E4600080648093C00008959C01FB01853691056E
:10E470001CF46330710594F0C90164E670E00F94F8
:10E480002EFE605D7F4F6093C6008091C00086FFC6
:10E49000FCCF8091C00080648093C0002B30310598
:10E4A00014F43297B4F0C90164E670E00F942EFEC4
:10E4B0006AE070E00F942EFE605D7F4F6093C600AF
:10E4C0008091C00086FFFCCF8091C0008064809363
:10E4D000C000C9016AE070E00F942EFEC0968093E0
:10E4E000C6008091C00086FFFCCF8091C000806490
:10E4F0008093C00008951F93182F8EE692EE60E07F
:10E500000F94C2F11093C6008091C00086FFFCCF2B
:10E510008091C00080648093C0000F94DCF11F9153
:10E5200008952F923F924F925F926F927F928F92B7
:10E530009F92AF92BF92CF92DF92EF92FF920F9392
:10E540001F93DF93CF93CDB7DEB762970FB6F894E2
:10E55000DEBF0FBECDBF382E622ECA01DB015C01CB
:10E560006D01772420E2222E2E010894411C511CBB
:10E570008BC081E0A81680E0B80681E0C80680E084
:10E58000D80628F0C601AA27BB270F940DF2BB2797
:10E59000AD2D9C2D8B2D0F940DF28A2D0F940DF225
:10E5A0002092C6008091C00086FFFCCF8091C00001
:10E5B00080648093C0009DE29093C6008091C0006B
:10E5C00086FFFCCF8091C00080648093C0002092C1
:10E5D000C6008091C00086FFFCCF8091C00080649F
:10E5E0008093C00019828601750188249924A1E0D6
:10E5F0003A1651F03A1620F0B2E03B1661F409C029
:10E600000BBFF701779007C0C7010F9477FE782EF4
:10E6100002C0F7017080872D0F940DF22092C60082
:10E620008091C00086FFFCCF8091C0008064809301
:10E63000C000872D8052F401EF70F0708F3520F408
:10E64000E40DF51D708204C0E40DF51D8EE280839B
:10E650000894E11CF11C011D111D0894811C911CE2
:10E6600090E18916910409F0C2CF80E190E0A0E02A
:10E67000B0E0A80EB91ECA1EDB1E198AC2010F9493
:10E68000FAF10F94DCF16A94662009F072CF629679
:10E690000FB6F894DEBF0FBECDBFCF91DF911F91B3
:10E6A0000F91FF90EF90DF90CF90BF90AF909F9031
:10E6B0008F907F906F905F904F903F902F90089534
:10E6C0002F923F924F925F926F927F928F929F9282
:10E6D000AF92BF92CF92DF92EF92FF920F931F9370
:10E6E000DF93CF93CDB7DEB7CD53D1400FB6F894BB
:10E6F000DEBF0FBECDBF01E20EBF0FEF0DBF94B75F
:10E70000F894A89514BE80916000886180936000A1
:10E7100010926000789493FF05C0E0910002F091A0
:10E7200001021995279A2F9A8091C00082608093E8
:10E73000C00080E18093C40088E18093C1000000A4
:10E74000EE24FF24870144E0A42EB12CCC24DD2448
:10E7500024C0C5010197F1F70894E11CF11C011DCB
:10E76000111D21E2E2162EE4F20620E0020720E06D
:10E77000120718F031E0C32ED12CC801B70127ECE5
:10E780003BE140E050E00F9441FE611571058105C9
:10E79000910519F485B1805885B98091C00087FD35
:10E7A00003C0C114D104A9F2A6014F5F5F4FC25E3E
:10E7B000DE4F59834883CE51D140C25EDE4F8881FF
:10E7C0009981CE51D140019711F00D9410FEC05D9A
:10E7D000DE4F19821882C053D14060E0C15DDE4F28
:10E7E0001882CF52D14088249924C35DDE4F19820C
:10E7F0001882CD52D140C05EDE4F188219821A8233
:10E800001B82C052D140CE5CDE4F188219821A8220
:10E810001B82C253D140EE24FF2487010BBFF701B6
:10E8200007911691C45CDE4F19830883CC53D14005
:10E830000D940BFEC25EDE4F28813981CE51D1404E
:10E840002130310509F52091C600C25EDE4F1982E4
:10E850001882CE51D14022C02F5F3F4F4F4F5F4FA4
:10E86000213082E138078AE7480780E0580780F0C6
:10E87000C45CDE4FE881F981CC53D140EF5FFF4F9C
:10E8800019F0EE27FF27099420E030E040E050E047
:10E890008091C00087FFE0CF2091C600C35DDE4FAE
:10E8A00048815981CD52D1404F5F5F4FC35DDE4FEC
:10E8B00059834883CD52D140213209F063C64A3092
:10E8C000510508F05FC60894811C911C53E0851621
:10E8D000910409F059C600E010E018C081E280936D
:10E8E000C6008091C00086FFFCCF8091C00080648C
:10E8F0008093C0002F5F3F4F2931310579F70F9486
:10E90000DCF10F5F1F4F0530110519F020E030E0FA
:10E91000E5CF10920A0210920B0210920C02109294
:10E920000D02109206021092070210920802109235
:10E930000902109202021092030210920402109235
:10E9400005028FEE90EE60E00F94F5F180E191EE1C
:10E9500060E00F94C2F18091C00087FFFCCF9091DE
:10E96000C600903608F09F759032B8F09093C600BC
:10E970008091C00086FFFCCF8091C00080648093AE
:10E98000C000A0E2A093C6008091C00086FFFCCF2B
:10E990008091C00080648093C000983409F4D7C18E
:10E9A0009934B8F4923409F459C1933458F490333B
:10E9B00019F1903308F4E3C59F33A1F1903409F0C5
:10E9C000DEC5BDC0953409F470C1963409F0D7C5D1
:10E9D00098C1923509F42BC2933538F49C3409F46C
:10E9E000F5C1913509F0CBC518C2963509F445C279
:10E9F000993509F0C4C567C483E792EE62E00F94CD
:10EA0000F5F110920602109207021092080210927D
:10EA1000090210920A0210920B0210920C0210923C
:10EA20000D0213C18FE792EE62E00F94F5F18FEEC5
:10EA300090EE60E00F94F5F181E291EE60E00F94CA
:10EA4000C2F187EB91EE60E00F94F5F180E391EE77
:10EA500060E00F94C2F184EE90EE60E00F94F5F167
:10EA60008FE391EE60E00F94C2F186E090E061E008
:10EA700070E00F9434F20F94DCF18DE591EE60E0DC
:10EA80000F94C2F189EC91EE60E00F94F5F18EE401
:10EA900091EE60E00F94C2F183EC91EE60E00F9490
:10EAA000F5F18CE691EE60E00F94C2F18EE10F94E7
:10EAB0000DF288E90F940DF281E00F940DF20F949E
:10EAC000DCF18BE791EE60E00F94C2F119E0E0E039
:10EAD000F0E010935700E4918E2F0F940DF20F94F5
:10EAE000DCF18AE891EE60E00F94C2F1E3E0F0E03F
:10EAF00010935700E4918E2F0F940DF20F94DCF1D8
:10EB000089E991EE60E00F94C2F1E2E0F0E0109349
:10EB10005700E4918E2F0F940DF20F94DCF188EAE8
:10EB200091EE60E00F94C2F1E1E0F0E01093570045
:10EB30001491812F0F940DF20F94DCF107CF8BE825
:10EB400092EE62E00F94F5F18BE492EE60E00F94A8
:10EB5000F5F10F94DCF100E010E019C0C8016F2D51
:10EB60000F947FFEFF2031F489E492EE60E00F9471
:10EB7000C2F10BC0F092C6008091C00086FFFCCFAE
:10EB80008091C00080648093C0000F5F1F4FC80158
:10EB900081519F41A0E0B0E0ABBFFC01F790BAE229
:10EBA000FB1621F0E2E000301E07C1F60F94DCF105
:10EBB0000F94DCF187E592EE60E00F94F5F10F948D
:10EBC000DCF1CC24DD2400E010E01EC0C8010F946D
:10EBD00077FEF82E882331F489E492EE60E00F94FA
:10EBE000C2F10BC08093C6008091C00086FFFCCFAD
:10EBF0008091C00080648093C000FE1419F00894D6
:10EC0000C11CD11C0F5F1F4FC80181519F41A0E063
:10EC1000B0E0ABBFFC01E790FAE2EF1621F022E092
:10EC20000030120799F60F94DCF10F94DCF182E6C4
:10EC300092EE60E00F94C2F1C60161E070E00F94C3
:10EC400034F20F94DCF10F94DCF110920202109276
:10EC50000302109204021092050278CE89E992EE26
:10EC600062E00F94F5F1279A2F9A16C02F9880E052
:10EC700090E0E0EDF7E03197F1F7019684369105E9
:10EC8000C1F72F9A80E090E0E0EDF7E03197F1F7DF
:10EC9000019684369105C1F78091C00087FFE6CFC9
:10ECA0008091C00087FFFCCF64C485EA92EE62E0E9
:10ECB0000F94F5F140910202509103026091040219
:10ECC0007091050281E020E10F9491F2809102029F
:10ECD00090910302A0910402B091050280509F4FD1
:10ECE000AF4FBF4F8093020290930302A0930402A0
:10ECF000B093050280509041A040B04008F426CE69
:10ED0000A4CF83EB92EE62E00F94F5F140910602FE
:10ED100050910702609108027091090280E020E1A1
:10ED20000F9491F28091060290910702A09108023F
:10ED3000B091090280509F4FAF4FBF4F80930602A2
:10ED400090930702A0930802B0930902FFCD80ECD4
:10ED500092EE62E00F94F5F183E792EE60E00F949B
:10ED6000F5F18FE792EE60E00F94F5F18BE892EE0B
:10ED700060E00F94F5F189E992EE60E00F94F5F10F
:10ED800085EA92EE60E00F94F5F183EB92EE60E09D
:10ED90000F94F5F180EC92EE60E00F94F5F187ECC2
:10EDA00092EE60E00F94F5F188ED92EE60E00F9442
:10EDB000F5F18FED92EE60E00F94F5F18AEE92EEB0
:10EDC00060E00F94F5F183E093EEBDCD87EC92EE19
:10EDD00062E00F94F5F181E40F947BF282E40F94EA
:10EDE0007BF283E40F947BF284E40F947BF285E45E
:10EDF0000F947BF286E40F947BF287E40F947BF20E
:10EE000088E40F947BF28AE40F947BF28BE40F94F6
:10EE10007BF28CE40F947BF299CD88ED92EE62E068
:10EE20000F94F5F1772473948824992409C48FED05
:10EE300092EE62E00F94F5F140910A0250910B02BC
:10EE400060910C0270910D0282E020E10F9491F22A
:10EE500080910A0290910B02A0910C02B0910D02D8
:10EE600080509F4FAF4FBF4F80930A0290930B0289
:10EE7000A0930C02B0930D0269CD8AEE92EE62E08F
:10EE80000F94F5F184EE90EE60E00F94F5F18FECC5
:10EE900091EE60E00F94F5F1662477244301CC5D98
:10EEA000DE4F19821882C452D140D401C301B695F5
:10EEB000A79597958795CA5DDE4F88839983AA8326
:10EEC000BB83C652D140CC5DDE4FA881B981C4520C
:10EED000D1401196CC5DDE4FB983A883C452D14096
:10EEE000CD0162E070E00F9434F2B0E2B093C6005E
:10EEF0008091C00086FFFCCF8091C0008064809329
:10EF0000C000EDE2E093C6008091C00086FFFCCF18
:10EF10008091C00080648093C000F0E2F093C6004E
:10EF20008091C00086FFFCCF8091C00080648093F8
:10EF3000C000CA5DDE4FE880F9800A811B81C6529D
:10EF4000D140BB27A12F902F8F2D0F940DF2CA5DBA
:10EF5000DE4F8881C652D1400F940DF2B0E2FB2EF5
:10EF6000F092C6008091C00086FFFCCF8091C00067
:10EF700080648093C0000DE30093C6008091C000C0
:10EF800086FFFCCF8091C00080648093C00010E2B7
:10EF90001093C6008091C00086FFFCCF8091C00016
:10EFA00080648093C0008BBEF3012791C65DDE4F65
:10EFB0002883CA52D140A22EBB24CC24DD2408943D
:10EFC000611C711C811C911C8BBEF3018791282E42
:10EFD0003324442455240894611C711C811C911C09
:10EFE0008BBEF3013791C55DDE4F3883CB52D140E4
:10EFF0000894611C711C811C911C8BBEF30147910C
:10F00000C45DDE4F4883CC52D140ADEFEA2EAFEF66
:10F01000FA2EAFEF0A2FAFEF1A2F6E0C7F1C801E57
:10F02000911E142D032DF22CEE24EA0CFB1C0C1D5A
:10F030001D1D0F940DF220E22093C6008091C000A8
:10F0400086FFFCCF8091C00080648093C000C65DC5
:10F05000DE4F8881CA52D1400F940DF230E23093D6
:10F06000C6008091C00086FFFCCF8091C000806404
:10F070008093C000C45DDE4F8881CC52D1400F9494
:10F080000DF240E24093C6008091C00086FFFCCFA5
:10F090008091C00080648093C000C55DDE4F888190
:10F0A000CB52D1400F940DF250E25093C6008091A4
:10F0B000C00086FFFCCF8091C00080648093C000B8
:10F0C0008FEFE8168FEFF80680E0080780E018075A
:10F0D00031F484E092EE60E00F94C2F1DFC0D80119
:10F0E000C7018070907CA070B0708050904CA040A0
:10F0F000B040D1F52FEF3FE340E050E0E222F322B1
:10F1000004231523CA5DDE4FA880B980CA80DB8046
:10F11000C652D140AE0CBF1CC01ED11EAA0CBB1CD7
:10F12000CC1CDD1C8EE092EE60E00F94C2F1BB2798
:10F13000A12F902F8F2D0F940DF28E2D0F940DF285
:10F1400030E23093C6008091C00086FFFCCF8091F2
:10F15000C00080648093C0004EE34093C60080915D
:10F16000C00086FFFCCF87C08EE09EEFA0E0B0E03D
:10F17000E822F9220A231B239CE0E91694E9F90608
:10F1800090E0090790E0190709F088C0C45DDE4FE0
:10F19000A881CC52D140EA2EFF2400E010E0102FCD
:10F1A0000F2DFE2CEE24C55DDE4FB881CB52D14031
:10F1B000EB0EF11C011D111DD601C501817090706F
:10F1C000A070B070DC0199278827E80EF91E0A1F8D
:10F1D0001B1F20EF30E040E050E0A222B322C42207
:10F1E000D52241E1AA0CBB1CCC1CDD1C4A95D1F7F1
:10F1F000EA0CFB1C0C1D1D1D81E090E0A0E0B0E0BE
:10F20000282239224A225B2235E1220C331C441C7D
:10F21000551C3A95D1F7E20CF31C041D151D57013E
:10F220006801AA0CBB1CCC1CDD1C85E192EE60E0E1
:10F230000F94C2F1C801AA27BB270F940DF2BB2778
:10F24000A12F902F8F2D0F940DF28E2D0F940DF274
:10F2500090E29093C6008091C00086FFFCCF809121
:10F26000C00080648093C000AEE3A093C60080918C
:10F27000C00086FFFCCF8091C00080648093C000F6
:10F28000C601AA27BB270F940DF2BB27AD2D9C2DDD
:10F290008B2D0F940DF28A2D0F940DF20F94DCF14B
:10F2A000CC5DDE4FE881F981C452D140F99709F471
:10F2B0004DCBF4E0EF2EF12C012D112D6E0C7F1CA7
:10F2C000801E911EF2CD83E093EE62E00F94F5F183
:10F2D0008AE192EE60E00F94C2F18091C00087FF56
:10F2E000FCCF1091C6001F751093C6008091C0001E
:10F2F00086FFFCCF8091C00080648093C0000F9493
:10F30000DCF1812F81548A3108F036C1163409F4BA
:10F3100095C0173490F4133409F44EC0143430F40B
:10F320001134F1F0123409F01DC130C0143409F465
:10F3300059C0153409F016C16BC01A3409F4C4C0A1
:10F340001B3438F4173409F48FC0183409F00AC19B
:10F35000A1C01B3409F4D2C01C3409F003C1E8C0B9
:10F360008FEF81B90DC082B1809582B980E090E0C5
:10F37000E0EDF7E03197F1F70196883C9105C1F790
:10F380008091C00087FFEFCF12B8EFC08FEF84B934
:10F390000DC085B1809585B980E090E0E0EDF7E0A3
:10F3A0003197F1F70196883C9105C1F78091C00033
:10F3B00087FFEFCF15B8D9C08FEF87B90DC088B1DF
:10F3C000809588B980E090E0E0EDF7E03197F1F7C3
:10F3D0000196883C9105C1F78091C00087FFEFCF6F
:10F3E00018B8C3C08FEF8AB90DC08BB180958BB9A7
:10F3F00080E090E0E0EDF7E03197F1F70196883C8E
:10F400009105C1F78091C00087FFEFCF1BB8ADC059
:10F410008FEF8DB90DC08EB180958EB980E090E0F0
:10F42000E0EDF7E03197F1F70196883C9105C1F7DF
:10F430008091C00087FFEFCF1EB897C08FEF80BBD1
:10F440000DC081B3809581BB80E090E0E0EDF7E0F6
:10F450003197F1F70196883C9105C1F78091C00082
:10F4600087FFEFCF11BA81C08FEF83BB0DC084B38C
:10F47000809584BB80E090E0E0EDF7E03197F1F714
:10F480000196883C9105C1F78091C00087FFEFCFBE
:10F4900014BA6BC08FEF809301010FC080910201FD
:10F4A00080958093020180E090E0E0EDF7E03197F5
:10F4B000F1F70196883C9105C1F78091C00087FF64
:10F4C000EDCF1092020151C08FEF809304010FC065
:10F4D0008091050180958093050180E090E0E0ED4A
:10F4E000F7E03197F1F70196883C9105C1F78091DB
:10F4F000C00087FFEDCF1092050137C08FEF8093DA
:10F5000007010FC08091080180958093080180E079
:10F5100090E0E0EDF7E03197F1F70196883C910536
:10F52000C1F78091C00087FFEDCF109208011DC088
:10F530008FEF80930A010FC080910B01809580931B
:10F540000B0180E090E0E0EDF7E03197F1F70196F4
:10F55000883C9105C1F78091C00087FFEDCF1092E4
:10F560000B0103C085E292EEEEC98091C00087FFD7
:10F57000FCCF8091C600EAC988E392EEE4C98CE131
:10F5800091EEE1C988249924933011F1943028F444
:10F59000913089F09230B8F408C0953061F195301F
:10F5A000F0F0963009F048C043C02B3109F042C951
:10F5B00091E06BE13FC96227C15DDE4F2883CF52E6
:10F5C000D14092E037C9B22FA0E0622793E032C960
:10F5D000822F90E0A82BB92B622794E02BC92E3004
:10F5E00009F039C3622795E0C05DDE4F19821882A9
:10F5F000C053D1401FC9E1E0F0E0EC0FFD1FC05D3A
:10F60000DE4F08811981C053D140E00FF11F2083E4
:10F610000F5F1F4FC05DDE4F19830883C053D14079
:10F6200062270A171B0709F005C9D80196E002C92D
:10F63000261709F010C303C0973009F0FBC87724E0
:10F640009981933109F412C19431C8F4963009F4C8
:10F65000D8C0973050F4923009F406C1933009F4C1
:10F660006DC0913009F059C253C0913109F477C08F
:10F67000923108F0BBC0903109F04FC2F5C098310B
:10F6800009F487C0993150F4953109F4EFC09531F0
:10F6900008F4C6C1963109F040C2C2C19A3109F4DA
:10F6A0006CC09A3108F491C09B3109F45BC09D3164
:10F6B00009F033C29D81903359F48F81882311F46E
:10F6C0009EE11CC0813011F091E018C098E916C08D
:10F6D000892F807591F0903539F4E0E0F0E089E011
:10F6E0008093570094910AC0983539F4E3E0F0E034
:10F6F00089E080935700949101C090E01A821B82A8
:10F700008D818C831D829E831F8227E030E009C299
:10F710001A8288E08B8381E48C8386E58D8382E581
:10F720008E8389E48F8383E5888780E589878FE5E9
:10F730008A8782E38B872BE030E0F3C18A818139AD
:10F7400041F0823941F0803911F48FE005C080E04A
:10F7500003C082E001C08AE01A828B8344C0772410
:10F76000739482C08D81882311F48EE12CC0813086
:10F7700011F081E028C088E926C01A82E1E0F0E0BB
:10F7800089E08093570084918B831C8224E030E0D1
:10F79000C8C18B81803589F48C81883039F4E2E0EE
:10F7A000F0E089E08093570084910DC0E0E0F0E044
:10F7B00089E080935700849106C0E3E0F0E089E09F
:10F7C0008093570084911A82DFCF8D81836C99E0FA
:10F7D000E1E0F0E0082E90935700E89507B600FCB2
:10F7E000FDCF1A821B8223E030E09BC180EC8A832C
:10F7F000CE5CDE4F188219821A821B82C253D1401E
:10F800008EC18A8190E0A0E0B0E0582F44273327D2
:10F8100022278B8190E0A0E0B0E0DC0199278827C7
:10F82000282B392B4A2B5B2B8D8190E0A0E0B0E098
:10F83000282B392B4A2B5B2B8C8190E0A0E0B0E089
:10F84000BA2FA92F982F8827282B392B4A2B5B2BCF
:10F85000220F331F441F551FC05EDE4F288339839C
:10F860004A835B83C052D1401A8259C13A81C95C34
:10F87000DE4F3883C753D140CA5CDE4F1882C6536F
:10F88000D1408B81C82EDD24CA5CDE4F488159816E
:10F89000C653D140C42AD52A933109F082C0CE5C28
:10F8A000DE4F88819981AA81BB81C253D1408050AB
:10F8B000904CA340B04030F583E0CE5CDE4FE88052
:10F8C000F9800A811B81C253D140F70100935B008C
:10F8D00080935700E89507B600FCFDCFCE5CDE4F65
:10F8E000088119812A813B81C253D14000501F4FAA
:10F8F0002F4F3F4FCE5CDE4F088319832A833B8313
:10F90000C253D140C05EDE4F488159816A817B81FC
:10F91000C052D140DE011B9631E08C9111962C91A2
:10F9200011971296C75CDE4F2883C953D140C85C3B
:10F93000DE4F1882C853D14090E0C85CDE4FE881AA
:10F94000F981C853D1408E2B9F2B0C01FA01609393
:10F950005B0030935700E89511244E5F5F4F6F4F67
:10F960007F4F0EEFE02E0FEFF02ECE0CDF1CC114F8
:10F97000D10499F685E0C05EDE4F088119812A81A5
:10F980003B81C052D140F80120935B008093570027
:10F99000E89507B600FCFDCF81E180935700E8951C
:10F9A00035C0C05EDE4F88819981AA81BB81C0527B
:10F9B000D140B695A795979587957C018601ABE0D8
:10F9C000AA2EB12CAC0EBD1E0BC0D5016D915D01F0
:10F9D000C7010F947FFE0894E11CF11C01501040F8
:10F9E0000115110591F7A60160E070E0440F551F65
:10F9F000661F771FC05EDE4FE880F9800A811B8199
:10FA0000C052D1404E0D5F1D601F711F1A82C05E33
:10FA1000DE4F488359836A837B83C052D1407FC0C5
:10FA2000FA80C55CDE4FF882CB53D140C65CDE4F16
:10FA30001882CA53D1408B81C82EDD24C65CDE4FAC
:10FA400008811981CA53D140C02AD12A1A828981DA
:10FA5000BE016D5F7F4F843121F59601C05EDE4FA0
:10FA6000E880F9800A811B81C052D1400BBFF701A9
:10FA700087919691DB018C9311969C936E5F7F4FDB
:10FA8000D801C7010296A11DB11DC05EDE4F88835B
:10FA90009983AA83BB83C052D14022503040F1F6F3
:10FAA00036C0C05EDE4F288139814A815B81C052F9
:10FAB000D1400894C108D108760100E010E0089414
:10FAC000C11CD11C0894E11CF11C011D111DE20E8A
:10FAD000F31E041F151F21BDBB27A52F942F832FB5
:10FAE00082BD2F5F3F4F4F4F5F4FF89A80B5DB01CC
:10FAF0008D93BD012E153F054007510761F7C05E8C
:10FB0000DE4F288339834A835B83C052D1409601FC
:10FB10002D5F3F4FFB01108204C080EC8A8322E0FE
:10FB200030E08BE18093C6008091C00086FFFCCF5F
:10FB30008091C00080648093C000C15DDE4FF88179
:10FB4000CF52D140F093C6008091C00086FFFCCF19
:10FB50008091C00080648093C000432F3093C60022
:10FB60008091C00086FFFCCF8091C00080648093AC
:10FB7000C000922F2093C6008091C00086FFFCCF6A
:10FB80008091C00080648093C0008EE08093C600A6
:10FB90008091C00086FFFCCF8091C000806480937C
:10FBA000C00065E1C15DDE4FE880CF52D1406E25D7
:10FBB00069276427FE01319610C090819093C6009A
:10FBC0008091C00086FFFCCF31968091C000806498
:10FBD0008093C0006927215030402115310569F715
:10FBE0006093C6008091C00086FFFCCF8091C0006A
:10FBF00080648093C00085B1805885B9772081F4F6
:10FC0000C15DDE4F0881CF52D1400F5FC15DDE4F35
:10FC10000883CF52D14090E0A0E0B0E00D941AF4F8
:10FC200027982F9880E090E020ED37E0F901319798
:10FC3000F1F7019684369105C9F700008091C00064
:10FC40008D7F8093C00081E180935700E895EE2777
:10FC5000FF270994FFCF90E00D941AF497FB092E2B
:10FC600007260AD077FD04D02ED006D000201AF443
:10FC7000709561957F4F0895F6F7909581959F4F08
:10FC80000895A1E21A2EAA1BBB1BFD010DC0AA1FDD
:10FC9000BB1FEE1FFF1FA217B307E407F50720F0F5
:10FCA000A21BB30BE40BF50B661F771F881F991F70
:10FCB0001A9469F760957095809590959B01AC01B9
:10FCC000BD01CF010895AA1BBB1B51E107C0AA1FAC
:10FCD000BB1FA617B70710F0A61BB70B881F991FED
:10FCE0005A95A9F780959095BC01CD010895F99991
:10FCF000FECF92BD81BDF89A992780B50895262F31
:10FD0000F999FECF1FBA92BD81BD20BD0FB6F89400
:0EFD1000FA9AF99A0FBE01960895F894FFCF63
:040000033000E000E9
:00000001FF