:10000000F6C0000025C1000023C1000021C100008E
:100010001FC100001DC100001BC1000019C100006C
:1000200017C1000015C1000013C1000011C100007C
:100030000FC100000C94A40B0BC1000009C100000B
:1000400007C1000005C1000003C1000001C100009C
:100050000C940C0DFDC00000FBC000000C94C20C01
:10006000F7C000000C948C0C0C94620CF1C00000E2
:10007000EFC00000EDC00000EBC00000E9C00000D0
:10008000E7C00000E5C00000E3C00000E1C00000E0
:10009000DFC00000DDC00000DBC00000D9C00000F0
:1000A000D7C00000D5C00000D3C00000D1C0000000
:1000B000CFC00000CDC00000CBC00000C9C0000010
:1000C000C7C00000C5C00000C3C000000C942C0CC9
:1000D0000C94030CBDC00000BBC00000B9C0000000
:1000E000B7C0000000000A0B02090C0D0E08070340
:1000F00004010000000000000000000000000000FB
:1001000000000000000000000000000000000000EF
:1001100012111000000000000000000000000000AC
:100120000000000000000000000002000022002586
:100130000028002B002E00310034000201000005D1
:100140000108010B0100002100240027002A002DD6
:10015000003000330001010000040107010A01051D
:10016000050505070508080808020202020A0A0830
:100170000804040404010101010101010103030356
:100180000303030303040707070C0C0C0C0C0C0CF3
:100190000C0202020206060606060606060B0B0BFA
:1001A0000B0B0B0B0B010210202008081020401035
:1001B000204080020102010804020101020408102B
:1001C0002040808040201008040201800402018049
:1001D0004020100804020108040201010204081072
:1001E0002040800102040810204080004F0D11249F
:1001F0001FBECFEFD1E2DEBFCDBF00E00CBF12E0EB
:10020000A0E0B2E0E8E1F6E200E00BBF02C0079038
:100210000D92A437B107D9F724E0A4E7B2E001C0FA
:100220001D92AE31B207E1F710E0C7EFD0E000E079
:1002300006C021970109802FFE010E940213C63FCC
:10024000D10780E00807A9F70E94BE0D0C940A139D
:10025000D7CE90E0FC01EB55FE4F2491815A9E4F82
:10026000FC018491882399F090E0880F991FFC018C
:10027000EB5BFE4FA591B491FC01E55DFE4F8591CE
:1002800094918FB7F894EC91E22BEC938FBF089583
:100290008F929F92AF92BF92CF92DF92EF92FF9296
:1002A000CF936C0180911002833069F08F3F09F485
:1002B000A0C0CF91FF90EF90DF90CF90BF90AF9014
:1002C0009F908F900895EAE2F1E0C491C7FDF1CFCD
:1002D00083E0BFDFF12CE12CCC23E1F0B12CA12C89
:1002E000C23009F058C1750160E970ED83E090E01B
:1002F000A50196010E94E612BA01A90141505109D7
:100300006109710983E04F3F51056105710509F0ED
:100310000CF45DC060E072E18AE790E0A70196010D
:100320000E94E61249015A0168E478EE81E090E00B
:10033000A70196010E94E612BA01A9014150510994
:1003400061097109CC2309F4EAC1C23009F0E5C1A1
:1003500084E04F3F510561057105C9F1C4F164E2C4
:1003600074EF80E090E0A70196010E94E612BA01C6
:10037000A901415051096109710985E04F3F5105BB
:100380006105710521F118F162E17AE780E090E002
:10039000A70196010E94E612BA01A9014150510934
:1003A0006109710986E04F3F51056105710579F0DA
:1003B00074F0B501A4019AE0759567955795479536
:1003C0009A95D1F7415051096109710987E09091DF
:1003D000B100987F892B8093B100C23009F47BC1B2
:1003E0000CF072C1CC2309F4BAC1C13009F061CF5D
:1003F000FEC083E080931002EAE2F1E0C4918C2F0A
:10040000CF3F09F456CFC23009F466C050F4CC2374
:1004100069F1C13009F442C087FD4BCF83E019DF99
:100420005DCFC43009F499C008F478C0C530A1F795
:100430001092200110922101809121018860809307
:10044000210180912101816080932101E2E6F1E0A8
:10045000E491F0E0EE0FFF1FE55DFE4F8591949172
:10046000E8EAF1E0E491E093AC0232CF14BC15BCB1
:1004700084B5826084BD85B5816085BDE2E6F1E02A
:10048000E491F0E0EE0FFF1FE55DFE4F8591949142
:10049000E8EAF1E0E491E093B3021ACF1092800011
:1004A000109281008091810088608093810080910A
:1004B0008100816080938100E2E6F1E0E491F0E068
:1004C000EE0FFF1FE55DFE4F85919491E8EAF1E0A4
:1004D000E491E093B202FCCE1092B0001092B10011
:1004E0008091B00082608093B0008091B100816003
:1004F0008093B100E2E6F1E0E491F0E0EE0FFF1F3F
:10050000E55DFE4F859194919093B1028093B00286
:10051000E8EAF1E0E491E093AF02DACE10929000C5
:100520001092910080919100886080939100809159
:100530009100816080939100E2E6F1E0E491F0E0C7
:10054000EE0FFF1FE55DFE4F85919491E8EAF1E023
:10055000E491E093AE02C3E0BBCE1092A0001092F3
:10056000A1008091A10088608093A1008091A100EA
:1005700081608093A100E2E6F1E0E491F0E0EE0F0B
:10058000FF1FE55DFE4F85919491E8EAF1E0E4916B
:10059000E093AD029DCE60E072E18AE790E0A501B4
:1005A00096010E94E612BA01A90141505109610960
:1005B000710991E04115510581E0680771057CF0F2
:1005C00068E478EE81E090E0A50196010E94E612D1
:1005D000BA01A901415051096109710993E0C13083
:1005E000D9F480918100887F892B8093810050937A
:1005F0008900409388008FEF9FEFDC018093C40255
:100600009093C502A093C602B093C70280916F0079
:10061000826080936F004DCEC330D9F480919100F9
:10062000887F892B80939100509399004093980084
:100630008FEF9FEFDC018093BC029093BD02A093EB
:10064000BE02B093BF0280917100826080937100FE
:1006500030CEC430D9F48091A100887F892B80935B
:10066000A1005093A9004093A8008FEF9FEFDC01F9
:100670008093B8029093B902A093BA02B093BB02E0
:100680008091720082608093720013CEC53009F0B1
:10069000A4CE80912101887F892B809321015093E2
:1006A0002901409328018FEF9FEFDC018093B40272
:1006B0009093B502A093B602B093B70280917300F5
:1006C000826080937300F5CDC43059F20CF4ACCF46
:1006D000C53029F3EECD4093B3008FEF9FEFDC01DF
:1006E0008093C0029093C102A093C202B093C30250
:1006F00080917000826080937000DBCDB501A40111
:100700008AE075956795579547958A95D1F7415039
:1007100051096109710995E01EC084E02FCE93E074
:100720004F3F510561057105B1F0ACF062E17AE728
:1007300080E090E0A70196010E94E612BA01A901AB
:1007400041505109610971094F3F5105610571051A
:1007500009F0A4F694E085B5887F892B85BD47BD57
:100760008FEF9FEFDC018093C8029093C902A093A2
:10077000CA02B093CB0280916E00826080936E00BB
:1007800098CD80917B00877F80937B0080E480936D
:100790007C0080917A00806480937A0080917A0056
:1007A00086FDFCCF80917800909179000895AF92FA
:1007B000BF92CF92DF92EF92FF920F931F93CF934E
:1007C000DF936C017B018B01040F151FEB015E01B0
:1007D000AE18BF08C017D10759F06991D601ED9145
:1007E000FC910190F081E02DC6011995892B79F7D4
:1007F000C501DF91CF911F910F91FF90EF90DF9096
:10080000CF90BF90AF900895FC01538D448D252F5C
:1008100030E0842F90E0821B930B541710F0CF969A
:10082000089501970895FC01918D828D981761F0CC
:10083000A28DAE0FBF2FB11D5D968C91928D9F5FE3
:100840009F73928F90E008958FEF9FEF0895FC01C2
:10085000918D828D981731F0828DE80FF11D858D75
:1008600090E008958FEF9FEF0895FC01918D228D08
:10087000892F90E0805C9F4F821B91098F7399278D
:1008800008958CEC92E0F1DF21E0892B09F420E05F
:10089000822F089589E693E0E8DF21E0892B09F4AF
:1008A00020E0822F0895FC01A48DA80FB92FB11D5F
:1008B000A35ABF4F2C91848D90E001968F73992796
:1008C000848FA689B7892C93A089B1898C91837074
:1008D00080648C93938D848D981306C00288F3896D
:1008E000E02D80818F7D80830895EF92FF920F939A
:1008F0001F93CF93DF93EC0181E0888F9B8D8C8DCC
:1009000098131AC0E889F989808185FF15C09FB7BF
:10091000F894EE89FF896083E889F9898081837082
:10092000806480839FBF81E090E0DF91CF911F9131
:100930000F91FF90EF900895F62E0B8D10E00F5F52
:100940001F4F0F731127E02E8C8D8E110BC00FB629
:1009500007FCFACFE889F989808185FFF5CFCE01C0
:10096000A2DFF2CFEB8DEC0FFD2FF11DE35AFF4F0D
:10097000F0829FB7F8940B8FEA89FB8980818062AF
:10098000D0CFCF93DF93EC01888D8823B1F0AA8973
:10099000BB89E889F9898C9185FD03C0808186FD3A
:1009A0000CC00FB607FCF7CF8C9185FFF2CF80818A
:1009B00085FFEDCFCE0177DFEACFDF91CF910895AC
:1009C00080E090E0892B21F065DF81110E9400001A
:1009D00080E090E0892B49F080E090E0892B29F0BD
:1009E0000E94000081110E94000080E090E0892BAD
:1009F00021F047DF81110E94000080E090E0892B08
:100A000049F080E090E0892B29F00E9400008111DC
:100A10000C9400000895282F30E0F901EC51FF4FAD
:100A20009491F901EB55FE4F4491215A3E4FF90143
:100A30002491222309F435C0992311F19150923168
:100A4000F8F4E92FF0E08827E75DFA4F8F4F0C9418
:100A500002135A055E053B05520556054005610522
:100A600067056B057105750579057F0583054005EB
:100A700087058D059105809180008F778093800098
:100A8000E22FF0E0EE0FFF1FE55DFE4FA591B49160
:100A90008FB7F894EC91611148C040954E234C9368
:100AA0008FBF0895809180008F7DE8CF8091800076
:100AB000877FE4CF84B58F7784BDE2CF84B58F7D07
:100AC000FBCF8091B0008F778093B000D9CF809119
:100AD000B0008F7DF9CF809190008F778093900048
:100AE000CFCF809190008F7DF9CF80919000877F4C
:100AF000F5CF8091A0008F778093A000C1CF809127
:100B0000A0008F7DF9CF8091A000877FF5CF8091E5
:100B100020018F7780932001B3CF809120018F7DBA
:100B2000F9CF80912001877FF5CF4E2BB8CF9091E0
:100B3000100289130DC0EAE2F1E0E4919FEF909377
:100B40001002E230D9F030F4EE2379F0E13081F098
:100B500060E061CFE43049F110F1E530C9F79091E0
:100B600073009D7F90937300F3CF10926E00F0CFCF
:100B700090916F009D7F90936F00EACF90917000ED
:100B80009D7F9093700091E09093B0009091B100A0
:100B9000987F94609093B1001092B300D9CF909158
:100BA00071009D7F90937100D3CF909172009D7FD3
:100BB00090937200CDCF3FB7F89480918F029091BF
:100BC0009002A0919102B091920226B5A89B05C017
:100BD0002F3F19F00196A11DB11D3FBFBA2FA92FBC
:100BE000982F8827BC01CD01620F711D811D911DB9
:100BF00042E0660F771F881F991F4A95D1F7089525
:100C0000089590E080E00895FB0101900020E9F74D
:100C10003197AF01461B570BDC01ED91FC9102802F
:100C2000F381E02D1994BC0186E094E0EDCF8F9222
:100C30009F92AF92BF92EF92FF920F931F93CF9329
:100C4000DF93CDB7DEB7A1970FB6F894DEBF0FBE26
:100C5000CDBF7C01FA01CB0119A2223008F42AE0B1
:100C60008E010F5D1F4F822E912CB12CA12CBF0144
:100C7000A50194010E94C412F901CA016A3004F569
:100C8000605DD8016E938D01232B242B252B79F7E2
:100C900090E080E0109719F0BD01C701B5DFA19683
:100CA0000FB6F894DEBF0FBECDBFDF91CF911F917D
:100CB0000F91FF90EF90BF90AF909F908F9008950D
:100CC000695CDFCF2F923F924F925F926F927F923B
:100CD0008F929F92AF92BF92CF92DF92EF92FF924C
:100CE0001F93CF93DF93EC016A017B01722EAB015E
:100CF0009601CB01B6010E94C01263E372E081113C
:100D000026C046015701E894B7F82FEF3FEF4FE7B1
:100D10005FE7C501B4010E94C01281110CC02FEF22
:100D20003FEF4FE75FE7C501B4010E940F1167E392
:100D300072E0181664F02FEF3FEF4FE75FE4C70152
:100D4000B6010E9459121816ACF46BE372E0CE01A2
:100D5000DF91CF911F91FF90EF90DF90CF90BF90E8
:100D6000AF909F908F907F906F905F904F903F904B
:100D70002F904ACF2FEF3FEF4FE75FECC701B6014F
:100D80000E940F1187FDE1CF20E030E0A901C701EB
:100D9000B6010E940F11312C212C87FF0DC0E88174
:100DA000F9810190F081E02D6DE2CE0119951C01D1
:100DB000F7FAF094F7F8F09410E060E070E080E06B
:100DC0009FE3711641F020E030E040E251E40E94E0
:100DD00013111F5FF6CFA70196010E94AB102B01E4
:100DE0003C010E947B114B015C012AE0BC01A40183
:100DF000CE011DDF7C01E20CF31C1123D9F1C501EA
:100E0000B4010E94A7119B01AC01C301B2010E9471
:100E1000AA104B015C01E881F9810190F081E02D7D
:100E20006EE2CE011995E80EF91E115018F120E07E
:100E300030E040E251E4C501B4010E945D122B0193
:100E40003C010E947B114B01B12CA12C2AE0B50181
:100E5000A401CE01ECDEE80EF91EC501B4010E942A
:100E6000A7119B01AC01C301B2010E94AA104B0162
:100E70005C01DBCFC701DF91CF911F91FF90EF9015
:100E8000DF90CF90BF90AF909F908F907F906F90AA
:100E90005F904F903F902F900895CF93DF93EC0198
:100EA00060E08E81B8DD61E08E81B5DD60E08E812D
:100EB000B2DD8BE891E00197F1F7DF91CF910895D2
:100EC000CF92DF92EF92FF920F931F93CF93DF9316
:100ED0006C017C0187E0E80EF11CD0E0C0E0062F39
:100EE00010E0B8010C2E02C0759567950A94E2F7E0
:100EF0006170F70181917F018EDD2196C430D105AB
:100F000081F7C601DF91CF911F910F91FF90EF9074
:100F1000DF90CF90C2CFCF92DF92EF92FF920F93EC
:100F20001F93CF93DF93EC01F62E642F8C8173DD3A
:100F30008D818F3F11F060E06EDD0F2D10E08F8509
:100F400084FF23C06E0187E0C80ED11CF12CE12C78
:100F5000B8010E2C02C0759567950A94E2F761708E
:100F6000F60181916F0157DDFFEFEF1AFF0A88E06C
:100F7000E816F10469F7CE01DF91CF911F910F912F
:100F8000FF90EF90DF90CF9088CFB80184E0759507
:100F900067958A95E1F7CE0193DF6F2DCE01DF9142
:100FA000CF911F910F91FF90EF90DF90CF9088CF5E
:100FB00040E0682F86E094E0AECFCF93DF9382309D
:100FC00029F4909115049860909315048093190466
:100FD00010921A0480E480931B0480E180931C0427
:100FE00080E580931D0480910A0433D980910B041D
:100FF0008F3F09F02ED980910C042BD9C6E0D4E0A4
:101000009E01265034408091150484FD09C084E07F
:1010100090E021962817390734F48E811AD9F0CF41
:1010200088E090E0F6CF8BE39DE00197F1F760E078
:1010300080910A04F0DC60E080910C04ECDC80918B
:101040000B048F3F11F060E0E6DC8091150484FD15
:1010500031C063E086E094E033DFCBE4D6E4CE0138
:101060000197F1F763E086E094E02ADF2197F1F73A
:1010700063E086E094E024DF83E592E00197F1F7F6
:1010800062E086E094E01CDF80911504806290DFCE
:1010900084E0809316048CE08BDF81E089DF8BE3B2
:1010A0009FE10197F1F782E08093170486E0DF91DA
:1010B000CF917ECF80627CDF8BE496E40197F1F7DD
:1010C00080911504806274DF83E592E00197F1F767
:1010D0008091150480626CDFD7CF90911904691755
:1010E00010F06FEF690FE62FF0E0EA5FFB4F948995
:1010F000890F80685DCFCF92DF92EF92FF92CF93FE
:1011000040DB803591050CF058C080917C029091B5
:101110007D029C012F5F3F4F30937D0220937C0224
:101120002091000230910102821793070CF442C013
:1011300010927D0210927C0281E090E010927B027E
:1011400010927A021092790210927802109277022D
:101150001092760210927502109274022091800211
:10116000309181024091060250910702833091052F
:1011700009F408C20CF06AC18130910509F46CC110
:10118000029709F0E6C02230310509F493C12330FB
:10119000310509F4D5C12130310509F0DAC081E00B
:1011A00090E0452B11F090E080E09093070280934F
:1011B0000602CFC090E080E0C1CFE3DA883C910521
:1011C00064F520917A0230917B02C90101969093D7
:1011D0007B0280937A02809100029091010228178D
:1011E0003907C4F010927B0210927A021816190681
:1011F00064F40197909301028093000282E090E0F2
:1012000010927D0210927C029DCF109201021092EA
:101210000002F4CF90E080E0F3CFB3DA8039914060
:1012200084F52091780230917902C901019690935A
:101230007902809378028091000290910102281730
:101240003907E4F010927902109278021816190604
:1012500084F40197909301028093000283E090E070
:1012600010927D0210927C0210927B0210927A0200
:101270006DCF1092010210920002F0CF90E080E05A
:10128000EFCF7FDA8835924044F5809176029091D5
:1012900077029C012F5F3F4F3093770220937602B5
:1012A0002091000230910102821793079CF0109266
:1012B00077021092760284E090E010927D02109204
:1012C0007C0210927B0210927A02109279021092A4
:1012D000780240CF90E080E0F0CF53DA8032934044
:1012E00064F580917402909175029C012F5F3F4FCD
:1012F0003093750220937402209100023091010214
:1013000082179307BCF0109275021092740285E068
:1013100090E010927D0210927C0210927B0210925B
:101320007A0210927902109278021092770210924B
:10133000760214CF90E080E0ECCF81E090E09093D3
:101340008302809382028FE090E090930102809369
:10135000000280917E0290917F02AC014F5F5F4F4F
:10136000883291050CF065C150937F0240937E0254
:10137000C0E060E080E0B1DE809180029091810267
:101380002091060230910702232B09F07BC10197BF
:1013900021F485E592E0C11102C08FE392E043DCC5
:1013A00083E492E040DC4091A3025091A40260915A
:1013B000A5027091A60221E086E094E083DC8BE434
:1013C00092E031DC61E080E088DE8EE492E02BDCAC
:1013D0008091800290918102029709F044C1CC2350
:1013E00009F441C183E592E01EDC20E030E040E2F8
:1013F00051E460910C0270910D0280910E02909167
:101400000F020E94591261E087FD3AC188E065DE53
:1014100089E592E008DC61E08AE05FDE89E692E03F
:1014200002DC8091800290918102039709F07AC1D9
:10143000CC2309F477C185E592E0F5DB8CE492E0FA
:10144000CF91FF90EF90DF90CF90EDCB843091055E
:10145000E9F0059709F07DCF809182029091830297
:10146000019709F076CF233031053CF42F5F3F4FD1
:10147000309381022093800204C010928102109266
:101480008002109283021092820263CF80918202C6
:1014900090918302019709F05CCF121613061CF499
:1014A00021503109E5CF83E090E090938102809351
:1014B0008002E7CF452B11F5C0900C02D0900D02B1
:1014C000E0900E02F0900F022DEC3CEC47EC52E461
:1014D000C701B601A4D618160CF43BCF2DEC3CEC9A
:1014E0004CEC5DE3C701B60136D660930C027093F5
:1014F0000D0280930E0290930F022BCFC090020238
:10150000D0900302E0900402F09005022DEC3CEC38
:1015100047EC52E4C701B60182D618160CF419CF75
:101520002DEC3CEC4CEC5DE3C701B60114D66093A6
:10153000020270930302809304029093050209CF84
:10154000C0900802D0900902E0900A02F0900B02CD
:1015500026E636E64EE151E4C701B60160D618161C
:101560000CF4F7CE2DEC3CEC4CEC5DE3C701B6017E
:10157000F2D5609308027093090280930A02909357
:101580000B02E7CE22303105F1F02330310509F0AE
:1015900002CEC0900802D0900902E0900A02F090BA
:1015A0000B022DEC3CEC4CEC5DE3C701B60181D79E
:1015B00018160CF0CECE2DEC3CEC4CEC5DE3C701E4
:1015C000B601C8D5D6CF452BD1F4C0900C02D0902F
:1015D0000D02E0900E02F0900F022DEC3CEC4CEC72
:1015E0005DE3C701B60165D718160CF0B2CE2DEC3D
:1015F0003CEC4CEC5DE3C701B601ACD576CFC090B6
:101600000202D0900302E0900402F09005022DEC5B
:101610003CEC4CEC5DE3C701B6014BD718160CF05F
:1016200098CE2DEC3CEC4CEC5DE3C701B60192D5B5
:101630007ECF9C012E5F3F4F4035510534F43093EF
:101640007F0220937E02C1E094CE2235310534F42E
:10165000039690937F0280937E02F5CF10927F02D3
:1016600010927E02F0CF40910C0250910D026091D9
:101670000E0270910F0221E086E094E023DBB5CEEC
:1016800087E0C5CE019721F485E592E0C11102C043
:101690008CE592E0C8DA83E492E0C5DA4091A302D7
:1016A0005091A4026091A5027091A60221E086E00B
:1016B00094E008DB8BE492E0B6DA61E080E00DDDD7
:1016C00080E692E0B0DA80918002909181020297E8
:1016D000D1F4CC23C1F084E592E0A5DA20E030E03B
:1016E00040E251E460910202709103028091040291
:1016F00090910502DED661E087FD12C089E0EDDC45
:1017000086E692E087CE40910202509103026091FA
:1017100004027091050221E086E094E0D3DADECF86
:1017200088E0EDCF409108025091090260910A02D1
:1017300070910B0221E086E094E0C4DA7FCE41E0B4
:10174000EADB81E090E008951F920F920FB60F92AE
:1017500011240BB60F922F933F934F935F936F9388
:101760007F938F939F93AF93BF93EF93FF9380915A
:10177000C0029091C102A091C202B091C302892B14
:101780008A2B8B2BE1F19091AF02E091B002F091A6
:10179000B1028081892780838091C0029091C1022B
:1017A000A091C202B091C302181619061A061B06B0
:1017B0009CF48091C0029091C102A091C202B091AC
:1017C000C3020197A109B1098093C0029093C1029D
:1017D000A093C202B093C302FF91EF91BF91AF916A
:1017E0009F918F917F916F915F914F913F912F9139
:1017F0000F900BBE0F900FBE0F901F901895809109
:10180000100295D9E9CF1F920F920FB60F921124B3
:101810000BB60F922F933F934F935F936F937F93EA
:101820008F939F93AF93BF93EF93FF938CEC92E0D2
:101830003AD8FF91EF91BF91AF919F918F917F9196
:101840006F915F914F913F912F910F900BBE0F9031
:101850000FBE0F901F9018951F920F920FB60F9208
:1018600011240BB60F922F938F939F93EF93FF93B7
:10187000E091DC02F091DD028081E091E202F091E2
:10188000E30282FD1DC090818091E5028F5F8F731E
:101890002091E602821741F0E091E502F0E0E45386
:1018A000FD4F958F8093E502FF91EF919F918F916E
:1018B0002F910F900BBE0F900FBE0F901F90189599
:1018C0008081F2CF1F920F920FB60F9211240BB6A8
:1018D0000F922F933F934F935F936F937F938F93C9
:1018E0009F93AF93BF93EF93FF9389E693E00E949A
:1018F0005304FF91EF91BF91AF919F918F917F9191
:101900006F915F914F913F912F910F900BBE0F9070
:101910000FBE0F901F9018951F920F920FB60F9247
:1019200011240BB60F922F938F939F93EF93FF93F6
:10193000E0917903F0917A038081E0917F03F09147
:10194000800382FD1DC09081809182038F5F8F7321
:1019500020918303821741F0E0918203F0E0E75980
:10196000FC4F958F80938203FF91EF919F918F9110
:101970002F910F900BBE0F900FBE0F901F901895D8
:101980008081F2CF1F920F920FB60F9211242F93E6
:101990003F938F939F93AF93BF9380918B029091CE
:1019A0008C02A0918D02B0918E0230918A0223E0C8
:1019B000230F2D3758F50196A11DB11D20938A02E2
:1019C00080938B0290938C02A0938D02B0938E0231
:1019D00080918F0290919002A0919102B091920219
:1019E0000196A11DB11D80938F0290939002A09348
:1019F0009102B0939202BF91AF919F918F913F91CD
:101A00002F910F900FBE0F901F90189526E8230F6F
:101A10000296A11DB11DD2CF1F920F920FB60F9249
:101A200011248F939F9381E08093A202809188027A
:101A300090918902009729F00197909389028093F1
:101A400088028091860290918702009729F0019781
:101A500090938702809386028091A9029091AA02B6
:101A6000009729F001979093AA028093A902809190
:101A7000840290918502009729F001979093850246
:101A80008093840286EE99EF909385008093840082
:101A90009F918F910F900FBE0F901F901895ECECB7
:101AA000F2E01382128248EE53E060E070E044837B
:101AB00055836683778389E192E09183808325ED66
:101AC00030E03587248724ED30E03787268720ED06
:101AD00030E0318B208B21ED30E0338B228B22EDF7
:101AE00030E0358B248B26ED30E0378B268B118E42
:101AF000128E138E148EE9E6F3E013821282448371
:101B00005583668377839183808385EC90E0958706
:101B1000848784EC90E09787868780EC90E0918BB7
:101B2000808B81EC90E0938B828B82EC90E0958BA4
:101B3000848B86EC90E0978B868B118E128E138EA1
:101B4000148EE6E0F4E0138212828BE292E091833D
:101B5000808388E084838FEF858389E0868384E0B7
:101B6000878385E0808786E0818787E08287138688
:101B7000148615861686178681E01FCACF93DF93D9
:101B800000D000D01F921F92CDB7DEB7789484B5F5
:101B9000826084BD84B5816084BD85B5826085BD69
:101BA00085B5816085BD80916E00816080936E00F7
:101BB00010928100809181008260809381008091E9
:101BC000810081608093810080918000816080939A
:101BD00080008091B10084608093B1008091B0005A
:101BE00081608093B0008091910082608093910029
:101BF000809191008160809391008091900081603C
:101C0000809390008091A10082608093A1008091D8
:101C1000A10081608093A1008091A00081608093E9
:101C2000A000809121018260809321018091210197
:101C30008160809321018091200181608093200147
:101C400080917A00846080937A0080917A0082602B
:101C500080937A0080917A00816080937A008091ED
:101C60007A00806880937A001092C10083E00E941D
:101C700029018FE20E94290181E30E94290185E266
:101C80000E94290187E20E94290189E20E9429011C
:101C900060E083E00E940B0560E08FE20E940B058C
:101CA00060E081E30E940B0560E085E20E940B0585
:101CB00060E087E20E940B0560E089E20E940B056C
:101CC000E0917903F0917A0322E02083E091790397
:101CD000F0917A031082E0917503F09176031082FF
:101CE000E0917703F091780390E190831092810363
:101CF000E0917D03F0917E0386E28083E0917B0397
:101D0000F0917C03808180618083E0917B03F0917E
:101D10007C03808188608083E0917B03F0917C0369
:101D2000808180688083E0917B03F0917C038081D7
:101D30008F7D8083E091DC02F091DD022083E091D1
:101D4000D802F091D9021082E091DA02F091DB0220
:101D500090831092E402E091E002F091E10286E0CB
:101D60008083E091DE02F091DF02808180618083D8
:101D7000E091DE02F091DF02808188608083E09153
:101D8000DE02F091DF02808180688083E091DE02D4
:101D9000F091DF0280818F7D808382E00ED960E048
:101DA00080E09BD910928000109281008091810088
:101DB00085608093810086EE99EF909385008093F3
:101DC000840080916F00816080936F008091110288
:101DD00090911202A0911302B09114028D839E8300
:101DE000AF83B8878091A202882309F47DC063E69F
:101DF00089E693E00E94750461E389E693E00E941E
:101E000075041092A2021092A1021092A002809179
:101E10009E0290919F02843191050CF041C0019681
:101E200090939F0280939E021091AB02113009F0B3
:101E30002DC180900C0290900D02A0900E02B090E7
:101E40000F02409008025090090260900A027090C0
:101E50000B02C090A302D090A402E090A502F090E3
:101E6000A602A3019201C501B40175D1A701960193
:101E7000D6D187FFF9C061E08FE20E940B0560E0D8
:101E800081E30E940B0583E00E9497051092A8024F
:101E90001092A70261E089E20E940B0560E052C146
:101EA000A4E1B0E0B0939F02A0939E021092AB0217
:101EB0008D819E81AF81B88589839A83AB83BC83F2
:101EC000BE016F5F7F4F89E693E00E9404066CE6D7
:101ED00072E08CEC92E00E94040661E772E08CEC08
:101EE00092E00E940406A0CF89E693E00E943504A8
:101EF000181619060CF098CF10929F0210929E02AD
:101F0000E090A002F090A10289E693E00E94130401
:101F1000F701EE0FFF1FEC56FD4F918380836C019C
:101F2000990FEE08FF082AE0B701A601F7FE0DC0E1
:101F30006DE28CEC92E00E94750444275527BA01AB
:101F40004C195D096E097F092AE08CEC92E00E9431
:101F5000170661E772E08CEC92E00E940406809123
:101F6000A0029091A1028130910509F464C094F41B
:101F7000892B09F059CF8091940290919502A1E0AC
:101F8000B0E08336910509F04FCFB093A102A09342
:101F9000A0024ACF8230910509F45FC0039709F08F
:101FA00043CF30909A02212C80919302B101682B8B
:101FB000072E000C880B990BCCD120E030E040E2DA
:101FC00051E431D1AB01BC014093A3025093A40270
:101FD0006093A5027093A60222E08CEC92E00E942E
:101FE000620661E772E08CEC92E00E940406C09009
:101FF000A302D090A402E090A502F090A6022DECDE
:102000003CEC4CEC5DE3C701B60153D287FD0AC03E
:1020100011E020E030E048E453E4C701B601FFD00E
:1020200018160CF410E01093AB028091A00290916E
:10203000A10201960DC08091960290919702C197DE
:1020400029F01092A1021092A002EECE82E090E060
:102050009093A1028093A002E7CE80919802809392
:102060009302A3E0B0E091CFA3019201C501B401B6
:1020700071D09B01AC01C701B601D1D087FF06C06A
:1020800060E08FE20E940B0561E0FACE60E08FE233
:102090000E940B0560E081E30E940B05113009F4FA
:1020A000F2CE2091A7023091A802C9010196909327
:1020B000A8028093A7022130310529F48EE190E037
:1020C0000E94480106C08930910519F583E00E94FD
:1020D00097050E94DB056B017C010E94DB056C19F2
:1020E0007D098E099F09683E734081059105A8F31B
:1020F0008091A9029091AA020097E1F48AE090E011
:102100009093AA028093A9020E947B080E94E00497
:1021100069CE8F30910519F48BE694E0D1CF8D32E2
:102120009105A1F2B4F28EE290E09093A802809320
:10213000A702CFCF60E006970CF4ADCE89E20E94F3
:102140000B0561E087E20E940B0560E085E20E94DA
:102150000B05DACF5058BB27AA270ED070C161D12A
:1021600030F066D120F031F49F3F11F41EF456C1D7
:102170000EF4E095E7FB4CC1E92F72D180F3BA175A
:10218000620773078407950718F071F49EF58AC1FA
:102190000EF4E0950B2EBA2FA02D0B01B901900182
:1021A0000C01CA01A0011124FF27591B99F0593FC6
:1021B00050F4503E68F11A16F040A22F232F342F0E
:1021C0004427585FF3CF469537952795A795F0405C
:1021D0005395C9F77EF41F16BA0B620B730B840B71
:1021E000BAF09150A1F0FF0FBB1F661F771F881F29
:1021F000C2F70EC0BA0F621F731F841F48F4879581
:1022000077956795B795F7959E3F08F0B3CF93956F
:10221000880F08F09927EE0F979587950895D4D0E9
:1022200008F481E008950CD00AC102D140F0F9D041
:1022300030F021F45F3F19F0EBC0511134C1EEC012
:102240000FD198F39923C9F35523B1F3951B550B7F
:10225000BB27AA2762177307840738F09F5F5F4F79
:10226000220F331F441FAA1FA9F333D00E2E3AF0BA
:10227000E0E830D091505040E695001CCAF729D0D4
:10228000FE2F27D0660F771F881FBB1F2617370723
:102290004807AB07B0E809F0BB0B802DBF01FF2753
:1022A00093585F4F2AF09E3F510568F0B1C0FBC0C4
:1022B0005F3FECF3983EDCF3869577956795B7958D
:1022C000F7959F5FC9F7880F911D9695879597F9A8
:1022D0000895E1E0660F771F881FBB1F6217730721
:1022E0008407BA0720F0621B730B840BBA0BEE1F36
:1022F00088F7E0950895BCD088F09F5790F0B92FEB
:102300009927B751A0F0D1F0660F771F881F991F4A
:102310001AF0BA95C9F712C0B13081F0C3D0B1E05C
:102320000895C0C0672F782F8827B85F39F0B93F6C
:10233000CCF3869577956795B395D9F73EF490954C
:102340008095709561957F4F8F4F9F4F0895E894CA
:1023500009C097FB3EF490958095709561957F4FED
:102360008F4F9F4F9923A9F0F92F96E9BB2793959B
:10237000F695879577956795B795F111F8CFFAF4AB
:10238000BB0F11F460FF1BC06F5F7F4F8F4F9F4FDC
:1023900016C0882311F096E911C0772321F09EE83A
:1023A000872F762F05C0662371F096E8862F70E0A0
:1023B00060E02AF09A95660F771F881FDAF7880F7A
:1023C0009695879597F90895990F0008550FAA0BD0
:1023D000E0E8FEEF16161706E807F907C0F0121638
:1023E0001306E407F50798F0621B730B840B950B3B
:1023F00039F40A2661F0232B242B252B21F4089590
:102400000A2609F4A140A6958FEF811D811D08952C
:1024100097F99F6780E870E060E008959FEF80EC97
:10242000089500240A94161617061806090608953A
:1024300000240A9412161306140605060895092EA0
:102440000394000C11F4882352F0BB0F40F4BF2B0F
:1024500011F460FF04C06F5F7F4F8F4F9F4F08954F
:1024600057FD9058440F551F59F05F3F71F0479545
:10247000880F97FB991F61F09F3F79F0879508952A
:10248000121613061406551FF2CF4695F1DF08C049
:10249000161617061806991FF1CF86957105610566
:1024A00008940895E894BB2766277727CB0197F90E
:1024B00008958ADF08F48FEF08950BD0C0CFB1DF05
:1024C00028F0B6DF18F0952309F0A2CFA7CF11248A
:1024D000EACFC6DFA0F3959FD1F3950F50E0551FCB
:1024E000629FF001729FBB27F00DB11D639FAA2769
:1024F000F00DB11DAA1F649F6627B00DA11D661FB8
:10250000829F2227B00DA11D621F739FB00DA11DD8
:10251000621F839FA00D611D221F749F3327A00D92
:10252000611D231F849F600D211D822F762F6A2F2E
:1025300011249F5750408AF0E1F088234AF0EE0FB3
:10254000FF1FBB1F661F771F881F91505040A9F7C0
:102550009E3F510570F05CCFA6CF5F3FECF3983EF5
:10256000DCF3869577956795B795F795E7959F5F27
:10257000C1F7FE2B880F911D9695879597F90895C1
:1025800023DF880B990B0895A1E21A2EAA1BBB1B0F
:10259000FD010DC0AA1FBB1FEE1FFF1FA217B3072F
:1025A000E407F50720F0A21BB30BE40BF50B661F45
:1025B000771F881F991F1A9469F760957095809509
:1025C00090959B01AC01BD01CF010895052E97FBAD
:1025D00016F400940FD057FD05D0D6DF07FC02D0CB
:1025E00046F408C050954095309521953F4F4F4F88
:1025F0005F4F089590958095709561957F4F8F4FAF
:102600009F4F0895EE0FFF1F881F8BBF0790F69115
:08261000E02D1994F894FFCFAE
:102618000F000000604001000000003F0000404142
:10262800FFFFFFFFFF000000007504D7030404C18B
:1026380004350413042704000000009F0BD703018E
:102648000600066E616E00696E66006F7666002889
:10265800412900204152434F3A200020560052653C
:10266800663A002020202020005620002842290019
:10267800744573743A007320002B2D006572726FD5
:04268800000D0A0037
:00000001FF
