:10000000F5C0000023C1000021C100001FC1000095
:100010001DC100001BC1000019C1000017C1000074
:1000200015C1000013C1000011C100000FC1000084
:100030000DC100000BC1000009C1000007C1000094
:1000400005C1000003C1000001C10000FFC00000A5
:1000500078C60000FBC00000F9C0000028C6000000
:10006000F5C00000EEC50000C3C50000EFC00000F1
:10007000EDC00000EBC00000E9C00000E7C00000D8
:10008000E5C00000E3C00000E1C00000DFC00000E8
:10009000DDC00000DBC00000D9C00000D7C00000F8
:1000A000D5C00000D3C00000D1C00000CFC0000008
:1000B000CDC00000CBC00000C9C00000C7C0000018
:1000C000C5C00000C3C00000C1C000005BC5000087
:1000D00030C50000BBC00000B9C00000B7C00000C0
:1000E000B5C0000000000A0B02090C0D0E08070342
:1000F00004010000000000000000000000000000FB
:1001000000000000000000000000000000000000EF
:1001100012111000000000000000000000000000AC
:100120000000000000000000000000002200250088
:1001300028002B002E0031003400020100000501D0
:1001400008010B0100002100240027002A002D00D7
:100150003000330001010000040107010A01050518
:100160000505070508080808020202020A0A08082D
:10017000040404040101010101010101030303035B
:1001800003030303040707070C0C0C0C0C0C0C0CEA
:100190000202020206060606060606060B0B0B0BFB
:1001A0000B0B0B0B01021020200808102040102020
:1001B000408002010201080402010102040810202B
:1001C0004080804020100804020180040201804029
:1001D0002010080402010804020101020408102092
:1001E00040800102040810204080E40611241FBE54
:1001F000CFEFD1E2DEBFCDBF00E00CBF12E0A0E048
:10020000B2E0ECEAF2E200E00BBF02C007900D9210
:10021000A438B107D9F724E0A4E8B2E001C01D92E8
:10022000A732B207E1F710E0C6EFD0E000E006C069
:1002300021970109802FFE010E943F11C53FD10780
:1002400080E00807A9F738D60C945411D9CE90E075
:10025000FC01EC55FE4F2491825A9E4FFC01849183
:10026000882399F090E0880F991FFC01EC5BFE4F0A
:10027000A591B491FC01E65DFE4F859194918FB7F5
:10028000F894EC91E22BEC938FBF089580917B0062
:10029000877F80937B0080E480937C0080917A004C
:1002A000806480937A0080917A0086FDFCCF8091F3
:1002B0007800909179000895AF92BF92CF92DF922B
:1002C000EF92FF920F931F93CF93DF936C017B010B
:1002D0008B01040F151FEB015E01AE18BF08C0179C
:1002E000D10759F06991D601ED91FC910190F0810F
:1002F000E02DC6011995892B79F7C501DF91CF91C2
:100300001F910F91FF90EF90DF90CF90BF90AF9033
:100310000895FC01538D448D252F30E0842F90E00B
:10032000821B930B541710F0CF96089501970895F0
:10033000FC01918D828D981761F0A28DAE0FBF2FB9
:10034000B11D5D968C91928D9F5F9F73928F90E00F
:1003500008958FEF9FEF0895FC01918D828D98177E
:1003600031F0828DE80FF11D858D90E008958FEFBB
:100370009FEF0895FC01918D228D892F90E0805C84
:100380009F4F821B91098F739927089587EC92E004
:10039000F1DF21E0892B09F420E0822F089584E623
:1003A00093E0E8DF21E0892B09F420E0822F089513
:1003B000FC01A48DA80FB92FB11DA35ABF4F2C91DA
:1003C000848D90E001968F739927848FA689B789D1
:1003D0002C93A089B1898C91837080648C93938DC8
:1003E000848D981306C00288F389E02D80818F7D6B
:1003F00080830895EF92FF920F931F93CF93DF9323
:10040000EC0181E0888F9B8D8C8D98131AC0E88950
:10041000F989808185FF15C09FB7F894EE89FF891F
:100420006083E889F98980818370806480839FBFBD
:1004300081E090E0DF91CF911F910F91FF90EF90BD
:100440000895F62E0B8D10E00F5F1F4F0F731127CD
:10045000E02E8C8D8E110BC00FB607FCFACFE88909
:10046000F989808185FFF5CFCE01A2DFF2CFEB8D38
:10047000EC0FFD2FF11DE35AFF4FF0829FB7F89468
:100480000B8FEA89FB8980818062D0CFCF93DF9385
:10049000EC01888D8823B1F0AA89BB89E889F989A4
:1004A0008C9185FD03C0808186FD0CC00FB607FCD2
:1004B000F7CF8C9185FFF2CF808185FFEDCFCE0104
:1004C00077DFEACFDF91CF91089580E090E0892B2C
:1004D00021F065DF81110E94000080E090E0892B0F
:1004E00049F080E090E0892B29F00E940000811102
:1004F0000E94000080E090E0892B21F047DF81110D
:100500000E94000080E090E0892B49F080E090E0BC
:10051000892B29F00E94000081110C94000008959D
:10052000282F30E0F901EC51FF4F9491F901EC557F
:10053000FE4F4491225A3E4FF9012491222309F49F
:1005400035C0992311F191509231F8F4E92FF0E080
:100550008827E255FD4F8F4F0C943F11DF02E302D5
:10056000C002D702DB02C502E602EC02F002F6028C
:10057000FA02FE0204030803C5020C031203160369
:10058000809180008F7780938000E22FF0E0EE0F63
:10059000FF1FE65DFE4FA591B4918FB7F894EC91E3
:1005A000611148C040954E234C938FBF08958091B0
:1005B00080008F7DE8CF80918000877FE4CF84B575
:1005C0008F7784BDE2CF84B58F7DFBCF8091B00063
:1005D0008F778093B000D9CF8091B0008F7DF9CF15
:1005E000809190008F7780939000CFCF8091900082
:1005F0008F7DF9CF80919000877FF5CF8091A0000B
:100600008F778093A000C1CF8091A0008F7DF9CF1C
:100610008091A000877FF5CF809120018F77809314
:100620002001B3CF809120018F7DF9CF80912001EF
:10063000877FF5CF4E2BB8CF089590E080E00895E6
:10064000FB0101900020E9F73197AF01461B570BE2
:10065000DC01ED91FC910280F381E02D19948F92E1
:100660009F92AF92BF92EF92FF920F931F93CF93FF
:10067000DF93CDB7DEB7A1970FB6F894DEBF0FBEFC
:10068000CDBF7C01FA01CB0119A2223008F42AE087
:100690008E010F5D1F4F822E912CB12CA12CBF011A
:1006A000A50194010E941D11F901CA016A3004F5E7
:1006B000605DD8016E938D01232B242B252B79F7B8
:1006C00090E080E0109719F0BD01C701B9DFA19655
:1006D0000FB6F894DEBF0FBECDBFDF91CF911F9153
:1006E0000F91FF90EF90BF90AF909F908F900895E3
:1006F000695CDFCFA5CF2F923F924F925F926F92AE
:100700007F928F929F92AF92BF92CF92DF92EF92A1
:10071000FF921F93CF93DF93EC016A017B01722E4E
:10072000AB019601CB01B6010E94191164E372E09E
:10073000811126C046015701E894B7F82FEF3FEF2B
:100740004FE75FE7C501B4010E94191181110CC088
:100750002FEF3FEF4FE75FE7C501B4010E94680F3D
:1007600068E372E0181664F02FEF3FEF4FE75FE4A5
:10077000C701B6010E94B2101816ACF46CE372E027
:10078000CE01DF91CF911F91FF90EF90DF90CF903E
:10079000BF90AF909F908F907F906F905F904F90A1
:1007A0003F902F904DCF2FEF3FEF4FE75FECC7010A
:1007B000B6010E94680F87FDE1CF20E030E0A9017B
:1007C000C701B6010E94680F312C212C87FF0DC094
:1007D000E881F9810190F081E02D6DE2CE0119955B
:1007E0001C01F7FAF094F7F8F09410E060E070E084
:1007F00080E09FE3711641F020E030E040E251E4F8
:100800000E946C0F1F5FF6CFA70196010E94040F94
:100810002B013C010E94D40F4B015C012AE0BC017A
:10082000A401CE011CDF7C01E20CF31C1123D9F1E1
:10083000C501B4010E9400109B01AC01C301B201CB
:100840000E94030F4B015C01E881F9810190F08166
:10085000E02D6EE2CE011995E80EF91E115018F147
:1008600020E030E040E251E4C501B4010E94B6103E
:100870002B013C010E94D40F4B01B12CA12C2AE08A
:10088000B501A401CE01EBDEE80EF91EC501B401ED
:100890000E9400109B01AC01C301B2010E94030F32
:1008A0004B015C01DBCFC701DF91CF911F91FF901E
:1008B000EF90DF90CF90BF90AF909F908F907F9000
:1008C0006F905F904F903F902F900895CF93DF935C
:1008D000EC0160E08E8124DE61E08E8121DE60E04B
:1008E0008E811EDE8BE891E00197F1F7DF91CF91C9
:1008F0000895CF92DF92EF92FF920F931F93CF93C1
:10090000DF936C017C0187E0E80EF11CD0E0C0E0D1
:10091000062F10E0B8010C2E02C0759567950A9459
:10092000E2F76170F70181917F01FADD2196C43011
:10093000D10581F7C601DF91CF911F910F91FF90F3
:10094000EF90DF90CF90C2CFCF92DF92EF92FF92E5
:100950000F931F93CF93DF93EC01F62E642F8C81BE
:10096000DFDD8D818F3F11F060E0DADD0F2D10E0CB
:100970008F8584FF23C06E0187E0C80ED11CF12C47
:10098000E12CB8010E2C02C0759567950A94E2F728
:100990006170F60181916F01C3DDFFEFEF1AFF0A6D
:1009A00088E0E816F10469F7CE01DF91CF911F913D
:1009B0000F91FF90EF90DF90CF9088CFB80184E047
:1009C000759567958A95E1F7CE0193DF6F2DCE017E
:1009D000DF91CF911F910F91FF90EF90DF90CF901B
:1009E00088CF40E0682F81E094E0AECFCF93DF93D3
:1009F000823029F4909110049860909310048093B1
:100A000014041092150480E48093160480E180930E
:100A1000170480E5809318048091050418DC809108
:100A200006048F3F09F013DC8091070410DCC1E05D
:100A3000D4E09E01215034408091100484FD09C00F
:100A400084E090E021962817390734F48E81FFDB8B
:100A5000F0CF88E090E0F6CF8BE39DE00197F1F7CF
:100A600060E0809105045CDD60E08091070458DD62
:100A7000809106048F3F11F060E052DD80911004F8
:100A800084FD31C063E081E094E033DFCBE4D6E461
:100A9000CE010197F1F763E081E094E02ADF21972E
:100AA000F1F763E081E094E024DF83E592E00197D1
:100AB000F1F762E081E094E01CDF80911004806235
:100AC00090DF84E0809311048CE08BDF81E089DF8C
:100AD0008BE39FE10197F1F782E08093120486E0B7
:100AE000DF91CF917ECF80627CDF8BE496E401972B
:100AF000F1F780911004806274DF83E592E0019742
:100B0000F1F78091100480626CDFD7CF90911404CC
:100B1000691710F06FEF690FE62FF0E0EF5FFB4F02
:100B20009489890F80685DCF41E00EDF81E090E01D
:100B300008951F920F920FB60F9211240BB60F92C9
:100B40002F933F934F935F936F937F938F939F93D5
:100B5000AF93BF93EF93FF9387EC92E029DCFF9173
:100B6000EF91BF91AF919F918F917F916F915F9125
:100B70004F913F912F910F900BBE0F900FBE0F9092
:100B80001F9018951F920F920FB60F9211240BB65B
:100B90000F922F938F939F93EF93FF93E091D70240
:100BA000F091D8028081E091DD02F091DE0282FDB9
:100BB0001DC090818091E0028F5F8F732091E102D0
:100BC000821741F0E091E002F0E0E953FD4F958F8C
:100BD0008093E002FF91EF919F918F912F910F9061
:100BE0000BBE0F900FBE0F901F9018958081F2CF13
:100BF0001F920F920FB60F9211240BB60F922F93E4
:100C00003F934F935F936F937F938F939F93AF9394
:100C1000BF93EF93FF9384E693E0CADBFF91EF91DC
:100C2000BF91AF919F918F917F916F915F914F9104
:100C30003F912F910F900BBE0F900FBE0F901F9002
:100C400018951F920F920FB60F9211240BB60F92A8
:100C50002F938F939F93EF93FF93E0917403F09101
:100C600075038081E0917A03F0917B0382FD1DC0C2
:100C7000908180917D038F5F8F7320917E03821717
:100C800041F0E0917D03F0E0EC59FC4F958F8093AB
:100C90007D03FF91EF919F918F912F910F900BBE4C
:100CA0000F900FBE0F901F9018958081F2CF1F926A
:100CB0000F920FB60F9211242F933F938F939F9310
:100CC000AF93BF938091BF029091C002A091C102E7
:100CD000B091C20230918E0223E0230F2D3758F5D8
:100CE0000196A11DB11D20938E028093BF029093A7
:100CF000C002A093C102B093C20280918A02909177
:100D00008B02A0918C02B0918D020196A11DB11DA4
:100D100080938A0290938B02A0938C02B0938D02F1
:100D2000BF91AF919F918F913F912F910F900FBEE7
:100D30000F901F90189526E8230F0296A11DB11D54
:100D4000D2CF1F920F920FB60F9211248F939F93C1
:100D500081E08093A002809188029091890200979F
:100D600029F00197909389028093880280918602EE
:100D700090918702009729F00197909387028093C2
:100D800086028091A7029091A802009729F001970E
:100D90009093A8028093A70280918402909185028B
:100DA000009729F00197909385028093840286EE44
:100DB00099EF90938500809384009F918F910F907D
:100DC0000FBE0F901F901895E7ECF2E0138212828D
:100DD00048EE53E060E070E0448355836683778398
:100DE0008AE192E09183808325ED30E03587248786
:100DF00024ED30E03787268720ED30E0318B208BE3
:100E000021ED30E0338B228B22ED30E0358B248BCB
:100E100026ED30E0378B268B118E128E138E148EBA
:100E2000E4E6F3E01382128244835583668377837A
:100E30009183808385EC90E09587848784EC90E0B3
:100E40009787868780EC90E0918B808B81EC90E097
:100E5000938B828B82EC90E0958B848B86EC90E078
:100E6000978B868B118E128E138E148E8EE0E4E09B
:100E7000F2E0A9E1B4E001900D928A95E1F7E1E09A
:100E8000F4E0138212828CE292E09183808388E006
:100E900084838FEF858389E0868384E0878385E080
:100EA000808786E0818787E082871386148615868F
:100EB0001686178681E09ACDCF93DF9300D000D0BD
:100EC0001F921F92CDB7DEB7789484B5826084BD3F
:100ED00084B5816084BD85B5826085BD85B581603E
:100EE00085BD80916E00816080936E0010928100BC
:100EF0008091810082608093810080918100816077
:100F00008093810080918000816080938000809137
:100F1000B10084608093B1008091B00081608093C3
:100F2000B000809191008260809391008091910047
:100F30008160809391008091900081608093900007
:100F40008091A10082608093A1008091A1008160C6
:100F50008093A1008091A00081608093A000809187
:100F60002101826080932101809121018160809321
:100F700021018091200181608093200180917A007D
:100F8000846080937A0080917A00826080937A00F6
:100F900080917A00816080937A0080917A008068E5
:100FA00080937A001092C10083E051D98FE24FD92B
:100FB00081E34DD985E24BD987E249D989E247D906
:100FC00060E083E0ADDA60E08FE2AADA60E081E31E
:100FD000A7DA60E085E2A4DA60E087E2A1DA60E007
:100FE00089E29EDAE091D702F091D80222E02083D4
:100FF000E091D702F091D8021082E091D302F091F3
:10100000D4021082E091D502F091D60290E1908353
:101010001092DF02E091DB02F091DC0286E2808335
:10102000E091D902F091DA02808180618083E091C1
:10103000D902F091DA02808188608083E091D90240
:10104000F091DA02808180688083E091D902F0918A
:10105000DA0280818F7D8083E0917403F0917503C3
:101060002083E0917003F09171031082E09172038C
:10107000F0917303908310927C03E0917803F091D8
:10108000790386E08083E0917603F0917703808195
:1010900080618083E0917603F0917703808188609E
:1010A0008083E0917603F09177038081806880836C
:1010B000E0917603F091770380818F7D808382E0D9
:1010C00095DC60E080E022DD1092800010928100CB
:1010D0008091810085608093810086EE99EF9093E6
:1010E00085008093840080916F00816080936F0001
:1010F00044E0E42E42E0F42E10E000E0C8016DD69A
:10110000D7018D937D010F5F1F4F0E301105B1F791
:10111000C0900402D0900502E0900602F090070211
:101120002DEC3CEC4CEC5DE3C701B601D1D687FD5C
:101130000AC026E636E64EE151E4C701B6010E9438
:10114000B210181664F480E090E0A0E0BFE3809352
:10115000040290930502A0930602B0930702C09088
:101160000802D0900902E0900A02F0900B022DECE8
:101170003CEC4CEC5DE3C701B601AAD687FD09C083
:101180002DEC3CEC47EC52E4C701B601EBD7181646
:1011900064F480E090E0A8E4B1E4809308029093C6
:1011A0000902A0930A02B0930B02C0900C02D090E7
:1011B0000D02E0900E02F0900F022DEC3CEC4CEC96
:1011C0005DE3C701B60184D687FD09C02DEC3CEC78
:1011D00047EC52E4C701B601C5D7181664F480E0A5
:1011E00090E0A0E6B0E480930C0290930D02A093EF
:1011F0000E02B0930F028091120290911302A091FF
:101200001402B09115028D839E83AF83B8873AE0B4
:10121000232E312C01E010E08091A002882311F1EF
:101220001092A00280919E0290919F028A309105B7
:101230000CF080C0019690939F0280939E02809153
:101240009D0281110FC063E687EC92E0D3D861E381
:1012500087EC92E0CFD891E090939D0210929C028F
:1012600010929B0287EC92E085D8181619062CF58F
:1012700010929F0210929E02E0909B02F0909C02BE
:10128000A5E0EA16F104CCF487EC92E051D8F7011E
:10129000EE0FFF1FEF56FD4F91838083B2E0EB16F8
:1012A000F10409F4F3C00CF062C0E114F10409F494
:1012B000CFC0EA94EF2809F4DCC08091BD02909180
:1012C000BE02892B91F1C090B502D090B602E09099
:1012D000B702F090B8028091100290911102892B10
:1012E00009F46DC120E030E040EA50E4C701B601E6
:1012F000EFD587FD09C020E030E048E452E4C701A3
:10130000B60130D7181624F41092A6021092A50246
:101310008091A5029091A6028130910509F405C142
:1013200008F4D8C0029709F44AC160E08FE2F8D807
:1013300060E070C110929F0210929E021092BE0255
:101340001092BD028D819E81AF81B88589839A8379
:10135000AB83BC83BE016F5F7F4F87EC92E070D997
:1013600010929D0210929C0210929B0268CF23E083
:10137000E216F10409F495C084E0E816F10409F0DE
:101380009CCF8091990290919A028F34910509F037
:101390009CC060918F0280919002762F682F072E5B
:1013A000000C880B990B2ED620E030E040E251E48F
:1013B00093D56B017C012DEC3CEC4CEC5DE3D2D67B
:1013C00087FD7AC020E030E048E453E4C701B6016D
:1013D0007FD518160CF470C01093BE020093BD02A6
:1013E000C092B502D092B602E092B702F092B80273
:1013F00060E472E084E693E07DD940910802509168
:10140000090260910A0270910B0222E084E693E0E7
:1014100072D96AE472E084E693E06CD94091B50237
:101420005091B6026091B7027091B80222E084E652
:1014300093E061D963E572E084E693E001D9A1E924
:10144000B2E0E5E01D92EA95E9F710929D0207C02F
:1014500080919102909192028336910529F0109229
:101460009C0210929B0229CF10939C0200939B0236
:1014700024CF8091930290919402C19781F7A2E0CA
:10148000B0E0B0939C02A0939B0217CF809195028D
:1014900080939002E3E0F0E0F0939C02E0939B02E3
:1014A0000CCF8091970280938F0284E090E090931C
:1014B0009C0280939B0201CF1092BE021092BD024B
:1014C00030929F0220929E0293CF30929F022092F0
:1014D0009E02B5CF20E030E040EE50E4C701B601F7
:1014E00041D618160CF021CF20E030E048E452E459
:1014F000C701B601EDD487FF18CF1093A602009361
:10150000A5022FB7F8948091BF029091C002A091DC
:10151000C102B091C2022FBF8093A1029093A20298
:10152000A093A302B093A40200CF2FB7F8946091C8
:10153000BF027091C0028091C1029091C2022FBF80
:101540005FD56B017C016091A1027091A202809134
:10155000A3029091A40256D54B015C0120E030E03B
:101560004AE754E460910C0270910D0280910E02E2
:1015700090910F02FBD59B01AC01C501B40144D48D
:101580009B01AC01C701B601EDD518160CF0CDCE0C
:1015900082E090E09093A6028093A5028091B5022C
:1015A0009091B602A091B702B091B8028093080260
:1015B00090930902A0930A02B0930B02B6CE8090DA
:1015C000080290900902A0900A02B0900B0240908D
:1015D0000402509005026090060270900702A30179
:1015E0009201C501B40110D4A701960171D461E044
:1015F00087FD9CCEA3019201C501B40104D4A701CB
:101600009601B0D560E018160CF090CE8FE20E94E3
:10161000900261E081E30E9490028091BD0290916E
:10162000BE029093030280930202009709F45FC008
:1016300061E0019709F475C00E944601803591056B
:101640000CF077C08091B1029091B2029C012F5FA3
:101650003F4F3093B2022093B102209100023091AB
:101660000102821793070CF461C01092B20210922B
:10167000B10281E090E01092B0021092AF0210929D
:10168000AE021092AD021092AC021092AB02109218
:10169000AA021092A9022091B9023091BA028330B5
:1016A000910509F4A3C20CF001C28130910509F43F
:1016B00003C2029709F00BC12230310509F42AC296
:1016C0002330310509F470C22130310509F0FFC023
:1016D00081E090E02091100230911102232B11F053
:1016E00090E080E09093110280931002F0C080910E
:1016F000A7029091A802009729F43092A8022092A4
:10170000A7029ACF60E0069764F089E20E949002F7
:1017100061E087E20E94900260E085E20E94900210
:101720008BCF89E20E94900260E0F3CF90E080E0EE
:10173000A2CF0E944601883C910564F52091AF023A
:101740003091B002C90101969093B0028093AF022C
:10175000809100029091010228173907C4F010927D
:10176000B0021092AF021816190664F40197909314
:1017700001028093000282E090E01092B202109287
:10178000B1027DCF1092010210920002F4CF90E0DE
:1017900080E0F3CF0E9446018039914084F520918A
:1017A000AD023091AE02C90101969093AE028093D2
:1017B000AD02809100029091010228173907E4F0F0
:1017C0001092AE021092AD021816190684F4019719
:1017D000909301028093000283E090E01092B202A5
:1017E0001092B1021092B0021092AF024CCF109240
:1017F000010210920002F0CF90E080E0EFCF0E9453
:1018000046018835924044F58091AB029091AC023C
:101810009C012F5F3F4F3093AC022093AB0220918D
:10182000000230910102821793079CF01092AC02E3
:101830001092AB0284E090E01092B2021092B102DA
:101840001092B0021092AF021092AE021092AD024E
:101850001ECF90E080E0F0CF0E944601803293409E
:1018600064F58091A9029091AA029C012F5F3F4FDD
:101870003093AA022093A902209100023091010224
:1018800082179307BCF01092AA021092A90285E079
:1018900090E01092B2021092B1021092B002109237
:1018A000AF021092AE021092AD021092AC021092F2
:1018B000AB02F1CE90E080E0ECCF1093BC0200933D
:1018C000BB028FE090E09093010280930002809130
:1018D000B3029091B402AC014F5F5F4F8832910523
:1018E0000CF0DFC15093B4024093B302F12C60E0DE
:1018F00080E00CD98091B9029091BA022091100237
:1019000030911102232B09F0F7C1019721F46CE605
:1019100072E0F11002C066E572E081E094E00E949E
:101920007A036AE572E081E094E00E947A034091D4
:10193000B5025091B6026091B7027091B80221E0F1
:1019400081E094E00E947B0362E672E081E094E033
:101950000E947A0361E080E0D9D865E672E081E018
:1019600094E00E947A038091B9029091BA020297A2
:1019700009F0B2C1FF2009F4AFC16AE672E081E06C
:1019800094E00E947A0320E030E040E251E460916C
:1019900008027091090280910A0290910B02E2D331
:1019A00061E087FDA7C188E0B1D860E772E081E01F
:1019B00094E00E947A0361E08AE0A8D860E872E0CF
:1019C00081E094E00E947A038091B9029091BA027A
:1019D000039709F0F4C1FF2009F4F1C16CE672E04D
:1019E00081E094E00E947A0363E672E081E094E093
:1019F0000E947A038FB7F8944091BF025091C002C1
:101A00006091C1027091C2028FBF8091C302909118
:101A1000C402A091C502B091C6028854944FAF4F42
:101A2000BF4F481759076A077B0708F43CC04EE0D0
:101A300050E069E174E084E092E029D4892BB9F0A8
:101A400084E0C82E82E0D82EF12CE12CF601B19072
:101A50006F01C701C2D1B81619F06B2DC701C5D1EE
:101A6000FFEFEF1AFF0A2EE0E216F10479F78EE09D
:101A7000E4E0F2E0A9E1B4E001900D928A95E1F78B
:101A80002FB7F8948091BF029091C002A091C1023B
:101A9000B091C2022FBF8093C3029093C402A0935F
:101AA000C502B093C6020E946502B6CB8430910590
:101AB000E9F0059709F00BCF8091BB029091BC0231
:101AC000019709F004CF233031053CF42F5F3F4FDD
:101AD0003093BA022093B90204C01092BA02109255
:101AE000B9021092BC021092BB02F1CE8091BB02EF
:101AF0009091BC02019709F0EACE121613061CF46D
:101B000021503109E5CFA3E0B0E0B093BA02A09331
:101B1000B902E7CF8091100290911102892B11F543
:101B2000C0900802D0900902E0900A02F0900B02E7
:101B30002DEC3CEC47EC52E4C701B601C9D11816B4
:101B40000CF4C5CE2DEC3CEC4CEC5DE3C701B601CA
:101B50005BD1609308027093090280930A0290930C
:101B60000B02B5CEC0900C02D0900D02E0900E0298
:101B7000F0900F022DEC3CEC47EC52E4C701B601AB
:101B8000A7D118160CF4A3CE2DEC3CEC4CEC5DE385
:101B9000C701B60139D160930C0270930D02809396
:101BA0000E0290930F0293CEC0900402D0900502D3
:101BB000E0900602F090070226E636E64EE151E498
:101BC000C701B60185D118160CF481CE2DEC3CEC82
:101BD0004CEC5DE3C701B60117D16093040270932A
:101BE0000502809306029093070271CE22303105E0
:101BF000F1F02330310509F067CDC0900402D09098
:101C00000502E0900602F09007022DEC3CEC4CEC53
:101C10005DE3C701B601A6D218160CF058CE2DEC24
:101C20003CEC4CEC5DE3C701B601EDD0D6CF809122
:101C3000100290911102892BD1F4C0900802D0902B
:101C40000902E0900A02F0900B022DEC3CEC4CEC07
:101C50005DE3C701B60186D218160CF038CE2DEC24
:101C60003CEC4CEC5DE3C701B601CDD072CFC09027
:101C70000C02D0900D02E0900E02F0900F022DECBD
:101C80003CEC4CEC5DE3C701B6016CD218160CF0CD
:101C90001ECE2DEC3CEC4CEC5DE3C701B601B3D09D
:101CA0007ACF9C012E5F3F4F403551053CF4309375
:101CB000B4022093B302FF24F39419CE22353105E8
:101CC00034F403969093B4028093B302F4CF10924D
:101CD000B4021092B302EFCF409108025091090272
:101CE00060910A0270910B0221E081E094E00E9471
:101CF0007B0349CE87E058CE019721F46CE672E071
:101D0000F11002C063E772E081E094E00E947A0380
:101D10006AE572E081E094E00E947A034091B502A6
:101D20005091B6026091B7027091B80221E081E053
:101D300094E00E947B0362E672E081E094E00E94FE
:101D40007A0361E080E00E94860567E772E081E047
:101D500094E00E947A038091B9029091BA020297AE
:101D6000F1F4FF20E1F06BE672E081E094E00E9484
:101D70007A0320E030E040E251E460910C0270917F
:101D80000D0280910E0290910F02ECD161E087FD6F
:101D900014C089E00E9486056DE772E008CE40918C
:101DA0000C0250910D0260910E0270910F0221E021
:101DB00081E094E00E947B03DCCF88E0EBCF409190
:101DC000040250910502609106027091070221E021
:101DD00081E094E00E947B0307CEF999FECF92BD8B
:101DE00081BDF89A992780B50895262FF999FECFDD
:101DF0001FBA92BD81BD20BD0FB6F894FA9AF99A28
:101E00000FBE019608955058BB27AA270ED070C167
:101E100061D130F066D120F031F49F3F11F41EF40F
:101E200056C10EF4E095E7FB4CC1E92F72D180F367
:101E3000BA17620773078407950718F071F49EF5C7
:101E40008AC10EF4E0950B2EBA2FA02D0B01B9011B
:101E500090010C01CA01A0011124FF27591B99F020
:101E6000593F50F4503E68F11A16F040A22F232F2C
:101E7000342F4427585FF3CF469537952795A7957C
:101E8000F0405395C9F77EF41F16BA0B620B730B23
:101E9000840BBAF09150A1F0FF0FBB1F661F771F94
:101EA000881FC2F70EC0BA0F621F731F841F48F449
:101EB000879577956795B795F7959E3F08F0B3CFCF
:101EC0009395880F08F09927EE0F979587950895B9
:101ED000D4D008F481E008950CD00AC102D140F0BA
:101EE000F9D030F021F45F3F19F0EBC0511134C14B
:101EF000EEC00FD198F39923C9F35523B1F3951B85
:101F0000550BBB27AA2762177307840738F09F5F1A
:101F10005F4F220F331F441FAA1FA9F333D00E2E89
:101F20003AF0E0E830D091505040E695001CCAF7F6
:101F300029D0FE2F27D0660F771F881FBB1F2617BB
:101F400037074807AB07B0E809F0BB0B802DBF018E
:101F5000FF2793585F4F2AF09E3F510568F0B1C0AC
:101F6000FBC05F3FECF3983EDCF386957795679571
:101F7000B795F7959F5FC9F7880F911D969587953F
:101F800097F90895E1E0660F771F881FBB1F62175E
:101F900073078407BA0720F0621B730B840BBA0B1C
:101FA000EE1F88F7E0950895BCD088F09F5790F019
:101FB000B92F9927B751A0F0D1F0660F771F881F6E
:101FC000991F1AF0BA95C9F712C0B13081F0C3D089
:101FD000B1E00895C0C0672F782F8827B85F39F027
:101FE000B93FCCF3869577956795B395D9F73EF4CD
:101FF00090958095709561957F4F8F4F9F4F089575
:10200000E89409C097FB3EF4909580957095619592
:102010007F4F8F4F9F4F9923A9F0F92F96E9BB2748
:102020009395F695879577956795B795F111F8CFC4
:10203000FAF4BB0F11F460FF1BC06F5F7F4F8F4F2F
:102040009F4F16C0882311F096E911C0772321F025
:102050009EE8872F762F05C0662371F096E8862FBD
:1020600070E060E02AF09A95660F771F881FDAF714
:10207000880F9695879597F90895990F0008550F41
:10208000AA0BE0E8FEEF16161706E807F907C0F0FE
:1020900012161306E407F50798F0621B730B840B06
:1020A000950B39F40A2661F0232B242B252B21F4E0
:1020B00008950A2609F4A140A6958FEF811D811D80
:1020C000089597F99F6780E870E060E008959FEFBA
:1020D00080EC089500240A941616170618060906BF
:1020E000089500240A94121613061406050608958E
:1020F000092E0394000C11F4882352F0BB0F40F416
:10210000BF2B11F460FF04C06F5F7F4F8F4F9F4F55
:10211000089557FD9058440F551F59F05F3F71F0D7
:102120004795880F97FB991F61F09F3F79F087953E
:102130000895121613061406551FF2CF4695F1DFC7
:1021400008C0161617061806991FF1CF8695710557
:10215000610508940895E894BB2766277727CB018B
:1021600097F908958ADF08F48FEF08950BD0C0CF58
:10217000B1DF28F0B6DF18F0952309F0A2CFA7CF82
:102180001124EACFC6DFA0F3959FD1F3950F50E05D
:10219000551F629FF001729FBB27F00DB11D639F19
:1021A000AA27F00DB11DAA1F649F6627B00DA11DBF
:1021B000661F829F2227B00DA11D621F739FB00D65
:1021C000A11D621F839FA00D611D221F749F3327D5
:1021D000A00D611D231F849F600D211D822F762F6E
:1021E0006A2F11249F5750408AF0E1F088234AF06B
:1021F000EE0FFF1FBB1F661F771F881F91505040B7
:10220000A9F79E3F510570F05CCFA6CF5F3FECF37E
:10221000983EDCF3869577956795B795F795E795A2
:102220009F5FC1F7FE2B880F911D9695879597F9B3
:10223000089523DF880B990B0895A1E21A2EAA1B9B
:10224000BB1BFD010DC0AA1FBB1FEE1FFF1FA21766
:10225000B307E407F50720F0A21BB30BE40BF50B63
:10226000661F771F881F991F1A9469F760957095EC
:10227000809590959B01AC01BD01CF010895EE0FB3
:10228000FF1F881F8BBF0790F691E02D1994FB016B
:10229000DC0104C08D910190801921F4415050401F
:0C22A000C8F7881B990B0895F894FFCF35
:1022AC000F00FFFF0000003F0000404100006040B5
:1022BC000100FFFFFFFF00000000FA015C01890133
:1022CC004602BA019801AC010000000094055C01C3
:1022DC001D031C036E616E00696E66006F766600EE
:1022EC00536574506F696E743A002054656E736157
:1022FC006F3A000D0A0028412900204152434F3A01
:10230C0020002056005265663A0020202020200034
:10231C0056200028422900744573743A007320003B
:04232C002B2D000055
:00000001FF
