:1000000003C1000032C1000030C100002EC1000059
:100010002CC100002AC1000028C1000026C1000038
:1000200024C1000022C1000020C100001EC1000048
:100030001CC100000C94470A18C1000016C1000042
:1000400014C1000012C1000010C100000EC1000068
:100050000C94B00B0AC1000008C100000C94660BA0
:1000600004C100000C94300B0C94060BFEC0000081
:10007000FCC00000FAC00000F8C00000F6C000009C
:10008000F4C00000F2C00000F0C00000EEC00000AC
:10009000ECC00000EAC00000E8C00000E6C00000BC
:1000A000E4C00000E2C00000E0C00000DEC00000CC
:1000B000DCC00000DAC00000D8C00000D6C00000DC
:1000C000D4C00000D2C00000D0C000000C94D00A00
:1000D0000C94A60ACAC00000C8C00000C6C0000038
:1000E000C4C0000000002100240027002A002D00C9
:1000F0003000330001010000040107010A01000083
:1001000020002300260029002C002F0032000001CF
:10011000000003010601090100000A0B02090C0D91
:100120000E080703040100000000000000000000AA
:1001300000000000000000000000000000000000BF
:10014000000000001211100000000000000000007C
:10015000000000000000000000000000000001029C
:1001600010202008081020401020408002010201C9
:100170000804020101020408102040808040201081
:1001800008040201800402018040201008040201DA
:100190000804020101020408102040800102040842
:1001A0001020408000002200250028002B002E0097
:1001B0003100340002010000050108010B010505B2
:1001C0000505070508080808020202020A0A0808CD
:1001D00004040404010101010101010103030303FB
:1001E00003030303040707070C0C0C0C0C0C0C0C8A
:1001F0000202020206060606060606060B0B0B0B9B
:100200000B0B0B0B0200F30B11241FBECFEFD1E23F
:10021000DEBFCDBF00E00CBF24E0AEEBB2E001C01A
:100220001D92A43CB207E1F712E0A0E0B2E0E2E2E6
:10023000FFE200E00BBF02C007900D92AE3BB1079A
:10024000D9F711E0C4E0D1E000E006C02197010930
:10025000802FFE010E947A17C330D10780E0080783
:10026000A9F70E94740C0C948F17CACE80917B0062
:10027000877F80937B0080E480937C0080917A006C
:10028000806480937A0080917A0086FDFCCF809113
:100290007800909179000895AF92BF92CF92DF924B
:1002A000EF92FF920F931F93CF93DF936C017B012B
:1002B0008B01040F151FEB015E01AE18BF08C017BC
:1002C000D10759F06991D601ED91FC910190F0812F
:1002D000E02DC6011995892B79F7C501DF91CF91E2
:1002E0001F910F91FF90EF90DF90CF90BF90AF9054
:1002F0000895FC01538D448D252F30E0842F90E02C
:10030000821B930B541710F0CF9608950197089510
:10031000FC01918D828D981761F0A28DAE0FBF2FD9
:10032000B11D5D968C91928D9F5F9F73928F90E02F
:1003300008958FEF9FEF0895FC01918D828D98179E
:1003400031F0828DE80FF11D858D90E008958FEFDB
:100350009FEF0895FC01918D228D892F90E0805CA4
:100360009F4F821B91098F73992708958CE293E028
:10037000F1DF21E0892B09F420E0822F089589EC38
:1003800093E0E8DF21E0892B09F420E0822F089533
:10039000CF92DF92EF92FF921F93CF93DF93EC0106
:1003A0006A017B01122FE889F98982E08083C114F8
:1003B00081EED806E104F104B1F160E079E08DE36B
:1003C00090E0A70196010E943B1621503109410996
:1003D00051095695479537952795EC85FD851082EF
:1003E000EE85FF852083188EEC89FD891083EA89CC
:1003F000FB89808180618083EA89FB8980818860B4
:100400008083EA89FB89808180688083EA89FB890F
:1004100080818F7D8083DF91CF911F91FF90EF903E
:10042000DF90CF900895E889F989108220E1D5CF37
:10043000FC01A48DA80FB92FB11DA35ABF4F2C9159
:10044000848D90E001968F739927848FA689B78950
:100450002C93A089B1898C91837080648C93938D47
:10046000848D981306C00288F389E02D80818F7DEA
:1004700080830895EF92FF920F931F93CF93DF93A2
:10048000EC0181E0888F9B8D8C8D98131AC0E889D0
:10049000F989808185FF15C09FB7F894EE89FF899F
:1004A0006083E889F98980818370806480839FBF3D
:1004B00081E090E0DF91CF911F910F91FF90EF903D
:1004C0000895F62E0B8D10E00F5F1F4F0F7311274D
:1004D000E02E8C8D8E110BC00FB607FCFACFE88989
:1004E000F989808185FFF5CFCE01A2DFF2CFEB8DB8
:1004F000EC0FFD2FF11DE35AFF4FF0829FB7F894E8
:100500000B8FEA89FB8980818062D0CFCF93DF9304
:10051000EC01888D8823B1F0AA89BB89E889F98923
:100520008C9185FD03C0808186FD0CC00FB607FC51
:10053000F7CF8C9185FFF2CF808185FFEDCFCE0183
:1005400077DFEACFDF91CF91089580E090E0892BAB
:1005500021F015DF81110E94000080E090E0892BDE
:1005600049F080E090E0892B29F00E940000811181
:100570000E94000080E090E0892B21F0F7DE8111DD
:100580000E94000080E090E0892B49F080E090E03C
:10059000892B29F00E94000081110C94000008951D
:1005A0008150823108F05AC0E82FF0E08827E452E9
:1005B000FD4F8F4F0C947A17FC020003EE02F402F9
:1005C000F8022E03030309030D03130317031B0390
:1005D000210325032E0329032F0333038091800079
:1005E0008F77809380000895809180008F7DF9CF70
:1005F00080918000877FF5CF84B58F7784BD089583
:1006000084B58F7DFBCF8091B0008F778093B00051
:1006100008958091B0008F7DF9CF809190008F7701
:10062000809390000895809190008F7DF9CF809104
:100630009000877FF5CF8091A0008F778093A000F6
:1006400008958091A0008F7DF9CF8091A000877FD1
:10065000F5CF809120018F778093200108958091BC
:1006600020018F7DF9CF80912001877FF5CF1F93E7
:10067000CF93DF93282F30E0F901E85EFE4F84919D
:10068000F901E25AFE4FD491F901E254FE4FC491B0
:10069000CC23A1F0162F811183DFEC2FF0E0EE0FB9
:1006A000FF1FEC55FE4FA591B4918FB7F894EC91D4
:1006B000111108C0D095DE23DC938FBFDF91CF915D
:1006C0001F910895DE2BF8CF9091200289130DC061
:1006D000E4E0F2E0E4919FEF90932002E230D9F061
:1006E00030F4EE2379F0E13081F060E0C0CFE43007
:1006F00049F110F1E530C9F7909173009D7F909317
:100700007300F3CF10926E00F0CF90916F009D7F39
:1007100090936F00EACF909170009D7F909370004E
:1007200091E09093B0009091B100987F9460909385
:10073000B1001092B300D9CF909171009D7F90933A
:100740007100D3CF909172009D7F90937200CDCFB6
:10075000CF93DF9390E0FC01E25AFE4F2491825444
:100760009E4FFC0184918823D1F090E0880F991F5F
:10077000FC01EC51FF4FA591B491FC01EC55FE4FEB
:10078000C591D491623071F49FB7F8943C91822F57
:10079000809583238C93E8812E2B28839FBFDF9144
:1007A000CF9108958FB7F894EC912E2B2C938FBF97
:1007B000F6CF8F929F92AF92BF92CF92DF92EF923D
:1007C000FF92CF936C0180912002833069F08F3FBC
:1007D00009F4A1C0CF91FF90EF90DF90CF90BF9030
:1007E000AF909F908F900895E4E0F2E0C491C7FD30
:1007F000F1CF61E083E0ACDFF12CE12CCC23E1F020
:10080000B12CA12CC23009F059C1750160E970ED1D
:1008100083E090E0A50196010E945E17BA01A9014C
:10082000415051096109710983E04F3F510561054C
:10083000710509F00CF45DC060E072E18AE790E0B8
:10084000A70196010E945E1749015A0168E478EEFB
:1008500081E090E0A70196010E945E17BA01A9010C
:100860004150510961097109CC2309F4EBC1C2302F
:1008700009F0E6C184E04F3F510561057105C9F1FA
:10088000C4F164E274EF80E090E0A70196010E9459
:100890005E17BA01A901415051096109710985E04A
:1008A0004F3F51056105710521F118F162E17AE7C9
:1008B00080E090E0A70196010E945E17BA01A901AD
:1008C000415051096109710986E04F3F51056105A9
:1008D000710579F074F0B501A4019AE075956795FA
:1008E000579547959A95D1F741505109610971097A
:1008F00087E09091B100987F892B8093B100C2303E
:1009000009F47CC10CF073C1CC2309F4BBC1C13024
:1009100009F060CFFFC083E080932002E4E0F2E0C2
:10092000C4918C2FCF3F09F455CFC23009F467C072
:1009300058F4CC2371F1C13009F443C087FD4ACF8C
:1009400061E083E005DF5CCFC43009F499C008F4AE
:1009500078C0C53099F71092200110922101809142
:100960002101886080932101809121018160809321
:100970002101E1ECF1E0E491F0E0EE0FFF1FEC5516
:10098000FE4F85919491E1E6F1E0E491E0930C0350
:1009900030CF14BC15BC84B5826084BD85B5816040
:1009A00085BDE1ECF1E0E491F0E0EE0FFF1FEC55C6
:1009B000FE4F85919491E1E6F1E0E491E093130319
:1009C00018CF109280001092810080918100886081
:1009D0008093810080918100816080938100E1ECAF
:1009E000F1E0E491F0E0EE0FFF1FEC55FE4F859132
:1009F0009491E1E6F1E0E491E0931203FACE1092D3
:100A0000B0001092B1008091B00082608093B0007D
:100A10008091B10081608093B100E1ECF1E0E4915C
:100A2000F0E0EE0FFF1FEC55FE4F859194919093EF
:100A3000110380931003E1E6F1E0E491E0930F03EA
:100A4000D8CE109290001092910080919100886011
:100A50008093910080919100816080939100E1ECFE
:100A6000F1E0E491F0E0EE0FFF1FEC55FE4F8591B1
:100A70009491E1E6F1E0E491E0930E03C3E0B9CE96
:100A80001092A0001092A1008091A1008860809334
:100A9000A1008091A10081608093A100E1ECF1E0D0
:100AA000E491F0E0EE0FFF1FEC55FE4F859194911D
:100AB000E1E6F1E0E491E0930D039BCE60E072E1AA
:100AC0008AE790E0A50196010E945E17BA01A9018C
:100AD000415051096109710991E04115510581E0C9
:100AE000680771057CF068E478EE81E090E0A5018C
:100AF00096010E945E17BA01A9014150510961098E
:100B0000710993E0C130D9F480918100887F892BED
:100B10008093810050938900409388008FEF9FEF6E
:100B2000DC018093240390932503A0932603B093C4
:100B3000270380916F00826080936F004BCEC3309B
:100B4000D9F480919100887F892B809391005093F4
:100B50009900409398008FEF9FEFDC0180931C0376
:100B600090931D03A0931E03B0931F038091710007
:100B70008260809371002ECEC430D9F48091A100A0
:100B8000887F892B8093A1005093A9004093A800EF
:100B90008FEF9FEFDC018093180390931903A093CC
:100BA0001A03B0931B0380917200826080937200DD
:100BB00011CEC53009F0A3CE80912101887F892B09
:100BC0008093210150932901409328018FEF9FEFDB
:100BD000DC018093140390931503A0931603B09344
:100BE000170380917300826080937300F3CDC4304B
:100BF00059F20CF4ACCFC53029F3ECCD4093B300DF
:100C00008FEF9FEFDC018093200390932103A0934B
:100C10002203B09323038091700082608093700060
:100C2000D9CDB501A4018AE075956795579547958B
:100C30008A95D1F7415051096109710995E01EC0AB
:100C400084E02ECE93E04F3F510561057105B1F070
:100C5000ACF062E17AE780E090E0A70196010E94A3
:100C60005E17BA01A90141505109610971094F3F4D
:100C700051056105710509F0A4F694E085B5887FFA
:100C8000892B85BD47BD8FEF9FEFDC018093280343
:100C900090932903A0932A03B0932B0380916E00B5
:100CA000826080936E0096CD3FB7F8948091D30216
:100CB0009091D402A091D502B091D60226B5A89BFE
:100CC00005C02F3F19F00196A11DB11D3FBFBA2FDE
:100CD000A92F982F8827BC01CD01620F711D811D9E
:100CE000911D42E0660F771F881F991F4A95D1F723
:100CF00008958F929F92AF92BF92CF92DF92EF9220
:100D0000FF924B015C01D0DF6B017C01CDDF6C19E0
:100D10007D098E099F09683E734081059105B0F3F6
:100D200021E0821A9108A108B10888EEC80E83E07C
:100D3000D81EE11CF11C81149104A104B10431F707
:100D4000FF90EF90DF90CF90BF90AF909F908F90EB
:100D500008952FB7F8946091CF027091D0028091DE
:100D6000D1029091D2022FBF0895089590E080E0C3
:100D700008957CDA8035910564F58091C6029091E2
:100D8000C7029C012F5F3F4F3093C7022093C602DA
:100D9000209100023091010282179307BCF010925B
:100DA000C7021092C60281E090E01092C502109234
:100DB000C4021092C3021092C2021092C102109299
:100DC000C0021092BF021092BE02089590E080E02F
:100DD000ECCF4CDA883C910564F52091C402309147
:100DE000C502C90101969093C5028093C402809107
:100DF00000029091010228173907C4F01092C50231
:100E00001092C4021816190664F401979093010217
:100E10008093000282E090E01092C7021092C60216
:100E2000C8CF1092010210920002F4CF90E080E04F
:100E3000F3CF1CDA8039914084F52091C2023091C1
:100E4000C302C90101969093C3028093C2028091AC
:100E500000029091010228173907E4F01092C302B2
:100E60001092C2021816190684F401979093010299
:100E70008093000283E090E01092C7021092C602B5
:100E80001092C5021092C40298CF109201021092E3
:100E90000002F0CF90E080E0EFCFE8D988359240B3
:100EA00044F58091C0029091C1029C012F5F3F4F99
:100EB0003093C1022093C0022091000230910102C0
:100EC000821793079CF01092C1021092C00284E036
:100ED00090E01092C7021092C6021092C5021092C2
:100EE000C4021092C3021092C2026BCF90E080E065
:100EF000F0CFBCD98032934064F58091BE029091CE
:100F0000BF029C012F5F3F4F3093BF022093BE0270
:100F1000209100023091010282179307BCF01092D9
:100F2000BF021092BE0285E090E01092C7021092BC
:100F3000C6021092C5021092C4021092C30210920F
:100F4000C2021092C1021092C002089590E080E0A7
:100F5000ECCF81E090E090930203809301038FE057
:100F600090E0909301028093000286E090E0089563
:100F700060E08FE27CDB61E081E379CB61E08FE2CE
:100F800076DB60E081E373CB60E08FE270DB60E0F2
:100F900081E36DCBFB0101900020E9F73197AF01B0
:100FA000461B570BDC01ED91FC910280F381E02D93
:100FB00019948F929F92AF92BF92EF92FF920F93EC
:100FC0001F93CF93DF93CDB7DEB7A1970FB6F894F9
:100FD000DEBF0FBECDBF7C01FA01CB0119A22230CA
:100FE00008F42AE08E010F5D1F4F822E912CB12C48
:100FF000A12CBF01A50194010E943B16F901CA0171
:101000006A3004F5605DD8016E938D01232B242B8B
:10101000252B79F790E080E0109719F0BD01C7010A
:10102000B9DFA1960FB6F894DEBF0FBECDBFDF913A
:10103000CF911F910F91FF90EF90BF90AF909F9035
:101040008F900895695CDFCFA5CF2F923F924F928A
:101050005F926F927F928F929F92AF92BF92CF9248
:10106000DF92EF92FF921F93CF93DF93EC016A011F
:101070007B01722EAB019601CB01B6010E945A177B
:1010800064E472E0811126C046015701E894B7F884
:101090002FEF3FEF4FE75FE7C501B4010E945A17FA
:1010A00081110CC02FEF3FEF4FE75FE7C501B4019F
:1010B0000E940C1568E472E0181664F02FEF3FEF01
:1010C0004FE75FE4C701B6010E9456171816ACF44B
:1010D0006CE472E0CE01DF91CF911F91FF90EF9011
:1010E000DF90CF90BF90AF909F908F907F906F9048
:1010F0005F904F903F902F904DCF2FEF3FEF4FE7F6
:101100005FECC701B6010E940C1587FDE1CF20E01E
:1011100030E0A901C701B6010E940C15312C212C29
:1011200087FF0DC0E881F9810190F081E02D6DE22B
:10113000CE0119951C01F7FAF094F7F8F09410E03D
:1011400060E070E080E09FE3711641F020E030E065
:1011500040E251E40E94C2161F5FF6CFA70196013C
:101160000E945E162B013C010E942A174B015C0174
:101170002AE0BC01A401CE011CDF7C01E20CF31CBF
:101180001123D9F1C501B4010E9410159B01AC01D6
:10119000C301B2010E945D164B015C01E881F98137
:1011A0000190F081E02D6EE2CE011995E80EF91E56
:1011B000115018F120E030E040E251E4C501B401E3
:1011C0000E9471152B013C010E942A174B01B12C82
:1011D000A12C2AE0B501A401CE01EBDEE80EF91E38
:1011E000C501B4010E9410159B01AC01C301B201FD
:1011F0000E945D164B015C01DBCFC701DF91CF91EF
:101200001F91FF90EF90DF90CF90BF90AF909F9095
:101210008F907F906F905F904F903F902F900895A8
:10122000CF93DF93EC0160E08E8121DA61E08E8163
:101230001EDA60E08E811BDA8BE891E00197F1F70E
:10124000DF91CF910895CF92DF92EF92FF920F93AB
:101250001F93CF93DF936C017C0187E0E80EF11CB4
:10126000D0E0C0E0062F10E0B8010C2E02C075954A
:1012700067950A94E2F76170F70181917F01F7D9D0
:101280002196C430D10581F7C601DF91CF911F911E
:101290000F91FF90EF90DF90CF90C2CFCF92DF926F
:1012A000EF92FF920F931F93CF93DF93EC01F62EF3
:1012B000642F8C81DCD98D818F3F11F060E0D7D90C
:1012C0000F2D10E08F8584FF23C06E0187E0C80ECC
:1012D000D11CF12CE12CB8010E2C02C0759567953C
:1012E0000A94E2F76170F60181916F01C0D9FFEFB6
:1012F000EF1AFF0A88E0E816F10469F7CE01DF91E2
:10130000CF911F910F91FF90EF90DF90CF9088CFFA
:10131000B80184E0759567958A95E1F7CE0193DF72
:101320006F2DCE01DF91CF911F910F91FF90EF9024
:10133000DF90CF9088CF40E0682F8CEA94E0AECF6A
:10134000CF93DF93823029F49091BB0498609093FF
:10135000BB048093BF041092C00480E48093C10456
:1013600080E18093C20480E58093C30461E08091B2
:10137000B004EED98091B1048F3F11F061E0E8D95B
:1013800061E08091B204E4D9CCEAD4E09E012C5A09
:1013900034408091BB0484FD0AC084E090E0219633
:1013A000281739073CF461E08E81D2D9EFCF88E06D
:1013B00090E0F5CF8BE39DE00197F1F760E080913D
:1013C000B00455D960E08091B20451D98091B10444
:1013D0008F3F11F060E04BD98091BB0484FD31C098
:1013E00063E08CEA94E02FDFCBE4D6E4CE010197F2
:1013F000F1F763E08CEA94E026DF2197F1F763E0F0
:101400008CEA94E020DF83E592E00197F1F762E057
:101410008CEA94E018DF8091BB0480628CDF84E06A
:101420008093BC048CE087DF81E085DF8BE39FE164
:101430000197F1F782E08093BD0486E0DF91CF91C0
:101440007ACF806278DF8BE496E40197F1F78091A0
:10145000BB04806270DF83E592E00197F1F7809131
:10146000BB04806268DFD7CF9091BF04691710F08A
:101470006FEF690FE62FF0E0E455FB4F9489890F79
:10148000806859CF41E00ADF81E090E008951F9223
:101490000F920FB60F9211240BB60F922F933F931A
:1014A0004F935F936F937F938F939F93AF93BF936C
:1014B000EF93FF938091200390912103A091220349
:1014C000B0912303892B8A2B8B2BE1F190910F0391
:1014D000E0911003F091110380818927808380912E
:1014E000200390912103A0912203B09123031816A9
:1014F00019061A061B069CF4809120039091210383
:10150000A0912203B09123030197A109B10980930F
:10151000200390932103A0932203B0932303FF9110
:10152000EF91BF91AF919F918F917F916F915F915B
:101530004F913F912F910F900BBE0F900FBE0F90C8
:101540001F90189580912002BFD8E9CF1F920F926B
:101550000FB60F9211240BB60F922F933F934F9318
:101560005F936F937F938F939F93AF93BF93EF930B
:10157000FF938CE293E00E941802FF91EF91BF91DC
:10158000AF919F918F917F916F915F914F913F911B
:101590002F910F900BBE0F900FBE0F901F901895BC
:1015A0001F920F920FB60F9211240BB60F922F932A
:1015B0008F939F93EF93FF93E0913C03F0913D0352
:1015C0008081E0914203F091430382FD1DC0908130
:1015D000809145038F5F8F7320914603821741F0FE
:1015E000E0914503F0E0E45DFC4F958F8093450367
:1015F000FF91EF919F918F912F910F900BBE0F90C4
:101600000FBE0F901F9018958081F2CF1F920F92FE
:101610000FB60F9211240BB60F922F933F934F9357
:101620005F936F937F938F939F93AF93BF93EF934A
:10163000FF9389EC93E00E941802FF91EF91BF9114
:10164000AF919F918F917F916F915F914F913F915A
:101650002F910F900BBE0F900FBE0F901F901895FB
:101660001F920F920FB60F9211240BB60F922F9369
:101670008F939F93EF93FF93E091D903F091DA0357
:101680008081E091DF03F091E00382FD1DC0908135
:101690008091E2038F5F8F732091E303821741F003
:1016A000E091E203F0E0E753FC4F958F8093E20373
:1016B000FF91EF919F918F912F910F900BBE0F9003
:1016C0000FBE0F901F9018958081F2CF1F920F923E
:1016D0000FB60F9211242F933F938F939F93AF9345
:1016E000BF938091CF029091D002A091D102B0918E
:1016F000D2023091CE0223E0230F2D3758F5019608
:10170000A11DB11D2093CE028093CF029093D002F1
:10171000A093D102B093D2028091D3029091D402CF
:10172000A091D502B091D6020196A11DB11D809362
:10173000D3029093D402A093D502B093D602BF9166
:10174000AF919F918F913F912F910F900FBE0F906E
:101750001F90189526E8230F0296A11DB11DD2CF28
:101760001F920F920FB60F9211248F939F9381E0D7
:101770008093E8028091CC029091CD02009729F0ED
:1017800001979093CD028093CC028091CA029091F0
:10179000CB02009729F001979093CB028093CA0265
:1017A0008091F7029091F802009729F001979093A9
:1017B000F8028093F7028091C8029091C9020097C5
:1017C00029F001979093C9028093C80286EE99EFA1
:1017D00090938500809384009F918F910F900FBE0E
:1017E0000F901F901895ECE2F3E01382128248EEFE
:1017F00053E060E070E044835583668377838AE238
:1018000092E09183808325ED30E03587248724EDB5
:1018100030E03787268720ED30E0318B208B21EDBB
:1018200030E0338B228B22ED30E0358B248B26ED9C
:1018300030E0378B268B118E128E138E148EE9ECCE
:10184000F3E0138212824483558366837783918306
:10185000808385EC90E09587848784EC90E097877F
:10186000868780EC90E0918B808B81EC90E0938B6D
:10187000828B82EC90E0958B848B86EC90E0978B4A
:10188000868B118E128E138E148EE6E6F4E016828D
:101890001782108611861286138614861586168680
:1018A0001786108A118A128A138A148A158AECEA1A
:1018B000F4E0138212828CE392E09183808388E0CB
:1018C00084838FEF858389E0868384E0878385E046
:1018D000808786E0818787E0828713861486158655
:1018E0001686178681E02CCDCF93DF93CDB7DEB778
:1018F0002D970FB6F894DEBF0FBECDBF789484B598
:10190000826084BD84B5816084BD85B5826085BDFB
:1019100085B5816085BD80916E00816080936E0089
:10192000109281008091810082608093810080917B
:10193000810081608093810080918000816080932C
:1019400080008091B10084608093B1008091B000EC
:1019500081608093B00080919100826080939100BB
:1019600080919100816080939100809190008160CE
:10197000809390008091A10082608093A10080916B
:10198000A10081608093A1008091A000816080937C
:10199000A00080912101826080932101809121012A
:1019A00081608093210180912001816080932001DA
:1019B00080917A00846080937A0080917A008260BE
:1019C00080937A0080917A00816080937A00809180
:1019D0007A00806880937A001092C1001092A80467
:1019E0001092A9041092AA041092AB0410926804F9
:1019F0001092690410926A0410926B04AAD96B01C8
:101A00007C014B015C0128EB820E2BE0921EA11C95
:101A1000B11C9FD96C157D058E059F0528F0861693
:101A20009706A806B906A8F768EE73E080E090E094
:101A300060D926E040E052EC61E070E089EC93E090
:101A40000E94C80186D960936804709369048093EA
:101A50006A0490936B0460E572E089EC93E0F4DA39
:101A600078D96B017C014B015C013AE0830E911C3B
:101A7000A11CB11C6ED96C157D058E059F0528F043
:101A800086169706A806B906A8F781E080937C041D
:101A900062E082E00E94A80361E083E00E94A80364
:101AA00061E08FE20E94A80361E081E30E94A80345
:101AB00061E085E20E94A80361E087E20E94A8033A
:101AC00061E089E20E94A80360E083E00E9437039E
:101AD00060E08FE20E94370360E081E30E943703F9
:101AE00060E085E20E94370360E087E20E943703EE
:101AF00060E089E20E94370326E240E051EE60E0B8
:101B000070E08CE293E00E94C80126E040E052ECD5
:101B100061E070E089EC93E00E94C80182E010DC93
:101B200060E080E0A1DC1092800010928100809142
:101B3000810085608093810086EE99EF9093850007
:101B40008093840080916F00816080936F0052E1E8
:101B5000E52E52E0F52E10E000E0C8010E942516A7
:101B6000D7018D937D010F5F1F4F0E301105A9F72F
:101B7000C0901202D0901302E0901402F09015026F
:101B80002DEC3CEC4CEC5DE3C701B60145D787FD7D
:101B900012C026E636E64EE151E4C701B6010E94C6
:101BA0005617181644F0A7019601C701B6010E9406
:101BB0005A17882361F080E090E0A0E0BFE38093B3
:101BC000120290931302A0931402B0931502C090D6
:101BD0001602D0901702E0901802F090190220E04F
:101BE00030E040E151E4C701B60116D787FD12C0CD
:101BF0002DEC3CEC47EC52E4C701B6010E945617AD
:101C0000181644F0A7019601C701B6010E945A17A1
:101C1000882361F080E090E0A4EBB1E480931602A9
:101C200090931702A0931802B0931902C0901A0261
:101C3000D0901B02E0901C02F0901D0220E030E0EA
:101C4000A901C701B601E8D687FD12C02DEC3CEC16
:101C500047EC52E4C701B6010E945617181644F02B
:101C6000A7019601C701B6010E945A17882361F0A7
:101C700080E090E0A0E6B0E480931A0290931B020B
:101C8000A0931C02B0931D0260911E0270911F026E
:101C90006230710548F490E080E0C2D69B01AC014F
:101CA0000E945A17882321F010921F0210921E02E0
:101CB00044E0242E312CEAE1F1E08491E0E6F1E009
:101CC0000491E0ECF1E01491112309F474C0811146
:101CD0000E94D002E12FF0E0EE0FFF1FE250FF4F15
:101CE000A591B4918C91082331E020E009F430E013
:101CF000832F922FF1E08F278170809303038091CF
:101D0000E802882321F11092E8028091E602909186
:101D1000E7028A3091050CF051C001969093E702DA
:101D20008093E6028091E502811111C063E68CE2A6
:101D300093E00E943A0261E38CE293E00E943A024F
:101D400081E08093E5021092E4021092E3028CE2BB
:101D500093E00E94AA01181619061CF51092E702DA
:101D60001092E6020091E3021091E40205301105A1
:101D7000C4F48CE293E00E948801F801EE0FFF1F8B
:101D8000E752FD4F918380830230110509F4E0C0D2
:101D90009CF50115110509F4BBC00130110509F4CA
:101DA000CAC000910603109107030115110509F03F
:101DB000F5C0B12C3AC190E080E09CCF1092E702D0
:101DC0001092E602109207031092060385E0E1E20A
:101DD000F2E0DE01119601900D928A95E1F7BE01C5
:101DE0006F5F7F4F8CE293E0D5D81092E50210929E
:101DF000E4021092E30296CF0330110509F4B3C058
:101E00000430110571F68091E1029091E2028F3465
:101E1000910509F0BCC06091D7028091D802762F5D
:101E2000682F072E000C880B990BFCD520E030E0C2
:101E300040E251E4A7D76B017C012DEC3CEC4CEC6B
:101E40005DE30E94561787FD97C020E030E048E42C
:101E500053E4C701B601E0D518160CF48DC0A1E01B
:101E6000B0E0B0930703A093060320E030E040E029
:101E70005FE36091FB027091FC028091FD02909102
:101E8000FE022FD64B015C0120E030E040E05FE332
:101E9000C701B60126D69B01AC01C501B4010ED71E
:101EA0006093FB027093FC028093FD029093FE020C
:101EB00061E672E089EC93E0C7D840911602509138
:101EC0001702609118027091190222E089EC93E0E8
:101ED000BCD86BE672E089EC93E0B6D84091FB0287
:101EE0005091FC026091FD027091FE0222E089ECAB
:101EF00093E0ABD864E772E089EC93E04BD885E0DF
:101F0000A9EDB2E01D928A95E9F71092E50207C0AB
:101F10008091D9029091DA028336910529F01092CE
:101F2000E4021092E3023DCF21E030E03093E4027E
:101F30002093E30236CF8091DB029091DC02C197BF
:101F400071F742E050E05093E4024093E30229CF5E
:101F50008091DD028093D80283E090E09093E402C8
:101F60008093E3021ECF8091DF028093D7023092EC
:101F7000E4022092E30215CF1092070310920603A9
:101F8000EAE0F0E0F093E702E093E60291CF2AE086
:101F900030E03093E7022093E602B1CFC090FB021D
:101FA000D090FC02E090FD02F090FE0220E030E0D4
:101FB00040E751E4C701B6012FD587FF04C0109256
:101FC000EA021092E902B09003038091E902909135
:101FD000EA028130910509F468C108F44BC1029707
:101FE00009F0E7CEBB2009F4E4CE80911E02909167
:101FF0001F02892BD1F020E030E040EA50E4C70115
:10200000B6010AD587FF04C01092F0021092EF02C9
:102010008091EF029091F0028130910509F478C12E
:1020200008F465C1029709F0C4CE0E94A9066B01AD
:102030007C018091F1029091F202A091F302B091A3
:10204000F402A7019601281B390B4A0B5B0BDA013E
:10205000C90184369105A105B10508F4ACC1BB20C6
:1020600009F4A9C1C701B6012CE231E040E050E01B
:1020700002D66A877B878C879D8780901602909016
:102080001702A0901802B0901902409012025090CE
:10209000130260901402709015028091FB029091DF
:1020A000FC02A091FD02B091FE028E839F83A8875F
:1020B000B987A3019201C501B40100D62E813F81E9
:1020C00048855985A9D487FF5CC12A853B854C8505
:1020D0005D85232B242B252B51F40E94BE07C09233
:1020E000F102D092F202E092F302F092F4028091B7
:1020F0000202909103020817190759F090E080E05E
:102100000130110511F082E090E090930503809377
:102110000403109303020093020280910403909140
:1021200005038330910509F46FC108F047C100979A
:1021300009F462C1029709F4AEC10115110509F451
:10214000D8C161E00130110509F4EFC1109103031A
:10215000112309F439C30E94B9068330910509F4AB
:10216000C5C20CF0E7C18130910509F4E9C10297BD
:1021700009F426C28091F9029091FA02AC014F5FF6
:102180005F4F883291050CF02FC35093FA024093B1
:10219000F90200E060E080E067D911113FC367E712
:1021A00072E08CEA94E00E94240861E080E05CD94F
:1021B00068E872E08CEA94E00E9424084091FB02F7
:1021C0005091FC026091FD027091FE0221E08CEAC8
:1021D00094E00E94250861E972E08CEA94E00E9494
:1021E00024080E94A906AB01BC01809108039091CC
:1021F0000903A0910A03B0910B038854944FAF4F89
:10220000BF4F481759076A077B0788F14EE050E037
:1022100064E072E082E192E075D6892BA9F082E158
:10222000E82E82E0F82E10E000E0D701DD907D017D
:10223000C8010BD5D81619F06D2DC8010ED50F5F4A
:102240001F4F0E30110589F78EE0E2E1F2E0A4E0C5
:10225000B2E001900D928A95E1F70E94A906609381
:1022600008037093090380930A0390930B030E9461
:10227000A50221CD20E030E048E851E4C701B601D5
:1022800015D618160CF095CDE1E0F0E0F093EA02D7
:10229000E093E9020E94A9066093EB027093EC02BE
:1022A0008093ED029093EE0284CD0E94A906B8D3EC
:1022B0006B017C016091EB027091EC028091ED0268
:1022C0009091EE02AFD320E030E04AE754E4F6D438
:1022D0009B01AC01C701B601E9D518160CF069CD18
:1022E00022E030E03093EA022093E90262CD20E060
:1022F00030E040EA51E4C701B601D8D518160CF019
:1023000058CD41E050E05093F0024093EF02C2CF2D
:102310000E94A90685D34B015C016091EB0270918C
:10232000EC028091ED029091EE027CD32B013C01F6
:1023300020E030E04AE754E460911A0270911B02F9
:1023400080911C0290911D02CCD39B01AC01C30172
:10235000B201B4D49B01AC01C501B401A7D51816D4
:102360000CF027CD82E090E09093F0028093EF0292
:10237000C0921602D0921702E0921802F09219024F
:1023800018CDA3019201C501B40197D49B01AC0102
:102390006E817F81888599853FD387FF0CC08A85B0
:1023A0009B85AC85BD85892B8A2B8B2B09F09FCE15
:1023B0000E94B80794CE0E94C40799CE853091053B
:1023C00009F44CC0D8F1069709F0B7CE2091F50278
:1023D0003091F602C90101969093F6028093F502BE
:1023E00021303105F1F08A30910509F44AC08F306F
:1023F000910509F04DC03FC083E00E946403109234
:10240000F6021092F50299CE2091F5023091F60273
:10241000C90101969093F6028093F50221303105AF
:1024200029F48BE694E00E94D90387CE03970CF43D
:1024300084CE10920503109204037FCE2091F50202
:102440003091F602C90101969093F6028093F5024D
:102450002130310559F78EE190E0E5CF2091F5026A
:102460003091F602C90101969093F6028093F5022D
:102470002130310519F480EA91E0D5CF85309105FE
:1024800021F483E00E94640358CE8A30910549F21A
:1024900045977CF652CE2091F5023091F602C901A3
:1024A00001969093F6028093F5022130310529F4CC
:1024B0008EE190E00E94D90306C08930910551F465
:1024C00083E00E94640361E070E080E090E00E949D
:1024D000790633CE8F30910519F48BE694E0EACF7C
:1024E0008D32910569F37CF3109205031092040379
:1024F000EACF8091F7029091F802009739F4AAE0B0
:10250000B0E0B093F802A093F70220CE60E0069707
:1025100064F089E20E94370361E087E20E9437039A
:1025200060E085E20E94370311CE89E20E94370302
:1025300060E0F3CF8430910531F1059709F01ACEB0
:10254000E5E0F0E0F0930503E093040380910103DC
:1025500090910203019709F00DCE8091FF029091B6
:1025600000038330910534F4019690930003809327
:10257000FF0204C0109200031092FF0210920203A7
:1025800010920103F7CD86E090E0909305038093CD
:1025900004038091010390910203019709F0EACDB1
:1025A0008091FF02909100031816190614F4019708
:1025B000DCCF23E030E0309300032093FF02DECF36
:1025C0008091FF029091000382309105E1F0833009
:1025D000910509F466C0019709F0CCCD43E050E0C5
:1025E000509305034093040381E090E020911E0284
:1025F00030911F02232B11F090E080E090931F0296
:1026000080931E02B7CD83E090E090930503809302
:10261000040380911E0290911F02892B09F5C0903E
:102620001602D0901702E0901802F09019022DECDB
:102630003CEC47EC52E4C701B601EED187FF9ACDDE
:102640002DEC3CEC4CEC5DE3C701B60137D3609355
:1026500016027093170280931802909319028ACD84
:10266000C0901A02D0901B02E0901C02F0901D0254
:102670002DEC3CEC47EC52E4C701B601CDD187FF0D
:1026800079CD2DEC3CEC4CEC5DE3C701B60116D3E3
:1026900060931A0270931B0280931C0290931D0298
:1026A00069CD9093050380930403C0901202D090EB
:1026B0001302E0901402F090150226E636E64EE191
:1026C00051E4C701B601A8D187FF54CD2DEC3CECF5
:1026D0004CEC5DE3C701B601F1D260931202709336
:1026E0001302809314029093150244CD8091FF024F
:1026F000909100038230910561F08330910509F4D7
:1027000045C0019709F036CD3092050320920403AD
:102710006BCF309205032092040380911E029091AA
:102720001F02892BD1F4C0901602D0901702E090BE
:102730001802F090190220E030E040E151E4C701B6
:10274000B601B4D318160CF015CD2DEC3CEC4CECC6
:102750005DE3C701B601B1D27ACFC0901A02D09022
:102760001B02E0901C02F0901D0220E030E0A90165
:10277000C701B6019BD318160CF0FCCC2DEC3CEC39
:102780004CEC5DE3C701B60198D282CF30920503CD
:1027900020920403C0901202D0901302E090140221
:1027A000F09015022DEC3CEC4CEC5DE3C701B6015A
:1027B0007DD318160CF0DECC2DEC3CEC4CEC5DE33C
:1027C000C701B6017AD289CF0E94B906823091053D
:1027D00029F0039731F00E94C407CCCC0E94B807BF
:1027E000C9CC0E94BE07C6CC9C012E5F3F4F40352E
:1027F000510534F43093FA022093F90201E0CACC77
:102800002235310534F403969093FA028093F9024D
:10281000F5CF1092FA021092F902F0CF8091FF02E8
:102820009091000320911E0230911F02213031054A
:1028300009F48FC0019721F465EA72E0011102C02A
:1028400067E972E08CEA94E00E9424086AE872E08A
:102850008CEA94E00E9424084091FB025091FC0213
:102860006091FD027091FE0221E08CEA94E00E94EA
:1028700025086CE972E08CEA94E00E94240861E08B
:1028800080E00E94340A6FE972E08CEA94E00E94D2
:1028900024088091FF02909100030297E1F5002344
:1028A000D1F164EA72E08CEA94E00E94240820E00E
:1028B00030E040E251E4609116027091170280917D
:1028C000180290911902F2D261E087FD32C088E0CF
:1028D0000E94340A6AEA72E08CEA94E00E942408BA
:1028E00061E08AE00E94340A6DEA72E08CEA94E0CA
:1028F0000E9424088091FF02909100030397D9F46D
:102900000023C9F066EA72E08CEA94E00E94240891
:102910006DE972E062CC409116025091170260910D
:1029200018027091190221E08CEA94E00E942508B7
:10293000BECF87E0CDCF409112025091130260913B
:1029400014027091150221E08CEA94E00E9425089F
:10295000DFCF019721F465EA72E0011102C060EB5C
:1029600072E08CEA94E00E9424086AE872E08CEA43
:1029700094E00E9424084091FB025091FC02609177
:10298000FD027091FE0221E08CEA94E00E9425088D
:102990006CE972E08CEA94E00E94240861E080E037
:1029A0000E94340A65EB72E08CEA94E00E942408ED
:1029B0008091FF02909100030297F1F40023E1F06F
:1029C00065EA72E08CEA94E00E94240820E030E09E
:1029D00040E251E460911A0270911B0280911C0246
:1029E00090911D0263D261E087FD14C089E00E94CE
:1029F000340A6BEB72E070CF40911A0250911B02C7
:102A000060911C0270911D0221E08CEA94E00E940A
:102A10002508DCCF88E0EBCF40D008F481E00895B2
:102A2000E89409C097FB3EF4909580957095619568
:102A30007F4F8F4F9F4F9923A9F0F92F96E9BB271E
:102A40009395F695879577956795B795F111F8CF9A
:102A5000FAF4BB0F11F460FF1BC06F5F7F4F8F4F05
:102A60009F4F16C0882311F096E911C0772321F0FB
:102A70009EE8872F762F05C0662371F096E8862F93
:102A800070E060E02AF09A95660F771F881FDAF7EA
:102A9000880F9695879597F90895990F0008550F17
:102AA000AA0BE0E8FEEF16161706E807F907C0F0D4
:102AB00012161306E407F50798F0621B730B840BDC
:102AC000950B39F40A2661F0232B242B252B21F4B6
:102AD00008950A2609F4A140A6958FEF811D811D56
:102AE00008950BD078C069D028F06ED018F09523E7
:102AF00009F05AC05FC01124A2C07ED0A0F3959FF8
:102B0000D1F3950F50E0551F629FF001729FBB27D4
:102B1000F00DB11D639FAA27F00DB11DAA1F649F80
:102B20006627B00DA11D661F829F2227B00DA11D33
:102B3000621F739FB00DA11D621F839FA00D611DB9
:102B4000221F749F3327A00D611D231F849F600DDA
:102B5000211D822F762F6A2F11249F5750408AF013
:102B6000E1F088234AF0EE0FFF1FBB1F661F771F9F
:102B7000881F91505040A9F79E3F510570F014C036
:102B80005EC05F3FECF3983EDCF3869577956795E2
:102B9000B795F795E7959F5FC1F7FE2B880F911DBD
:102BA0009695879597F9089597F99F6780E870E063
:102BB00060E008959FEF80EC089500240A941616B3
:102BC000170618060906089500240A94121613061B
:102BD000140605060895092E0394000C11F48823A9
:102BE00052F0BB0F40F4BF2B11F460FF04C06F5FC5
:102BF0007F4F8F4F9F4F089557FD9058440F551F9B
:102C000059F05F3F71F04795880F97FB991F61F06E
:102C10009F3F79F087950895121613061406551FE5
:102C2000F2CF4695F1DF08C0161617061806991F51
:102C3000F1CF86957105610508940895E894BB2746
:102C400066277727CB0197F90895F999FECF92BDB2
:102C500081BDF89A992780B50895262FF999FECF5E
:102C60001FBA92BD81BD20BD0FB6F894FA9AF99AA9
:102C70000FBE01960895A1E21A2EAA1BBB1BFD01EF
:102C80000DC0AA1FBB1FEE1FFF1FA217B307E4074B
:102C9000F50720F0A21BB30BE40BF50B661F771FA3
:102CA000881F991F1A9469F7609570958095909583
:102CB0009B01AC01BD01CF0108955058BB27AA2745
:102CC0000ED089CF7ADF30F07FDF20F031F49F3FE4
:102CD00011F41EF46FCF0EF4E095E7FB65CFE92FFA
:102CE0008BDF80F3BA17620773078407950718F024
:102CF00071F49EF5A3CF0EF4E0950B2EBA2FA02D04
:102D00000B01B90190010C01CA01A0011124FF2798
:102D1000591B99F0593F50F4503E68F11A16F04093
:102D2000A22F232F342F4427585FF3CF4695379592
:102D30002795A795F0405395C9F77EF41F16BA0B57
:102D4000620B730B840BBAF09150A1F0FF0FBB1F05
:102D5000661F771F881FC2F70EC0BA0F621F731F4E
:102D6000841F48F4879577956795B795F7959E3FAB
:102D700008F0B3CF9395880F08F09927EE0F979539
:102D8000879508950CD027CF1FDF40F016DF30F075
:102D900021F45F3F19F008CF511151CF0BCF2CDF39
:102DA00098F39923C9F35523B1F3951B550BBB2712
:102DB000AA2762177307840738F09F5F5F4F220FBF
:102DC000331F441FAA1FA9F333D00E2E3AF0E0E8B8
:102DD00030D091505040E695001CCAF729D0FE2F04
:102DE00027D0660F771F881FBB1F26173707480796
:102DF000AB07B0E809F0BB0B802DBF01FF2793584C
:102E00005F4F2AF09E3F510568F0CECE18CF5F3F4E
:102E1000ECF3983EDCF3869577956795B795F79533
:102E20009F5FC9F7880F911D9695879597F908952B
:102E3000E1E0660F771F881FBB1F621773078407C7
:102E4000BA0720F0621B730B840BBA0BEE1F88F7D6
:102E5000E0950895D9DE88F09F5790F0B92F992713
:102E6000B751A0F0D1F0660F771F881F991F1AF095
:102E7000BA95C9F712C0B13081F0E0DEB1E0089533
:102E8000DDCE672F782F8827B85F39F0B93FCCF3B4
:102E9000869577956795B395D9F73EF4909580958B
:102EA000709561957F4F8F4F9F4F0895F6DD08F421
:102EB0008FEF0895F2DD880B990B0895052E97FB8F
:102EC00016F400940FD057FD05D0D5DE07FC02D0D4
:102ED00046F408C050954095309521953F4F4F4F8F
:102EE0005F4F089590958095709561957F4F8F4FB6
:102EF0009F4F0895EE0FFF1F881F8BBF0790F6911D
:102F0000E02D1994FB01DC0104C08D910190801922
:102F100021F441505040C8F7881B990B0895F8944C
:022F2000FFCFE1
:102F22000F00FFFF0000003F000040410000604032
:102F320001000000003F000040410000604001002D
:102F4200FFFFFFFFFF00000000003A024C01790181
:102F52008602AA0188019C0100000000420A4C017D
:102F6200B606B5066E616E00696E66006F76660023
:102F7200564D4450565F317C315F564D4450560A8F
:102F820000536574506F696E743A002054656E7315
:102F9200616F3A000D0A002020204445534C4947F6
:102FA20041444F202020200020204152434F3A200C
:102FB20000205620202000284129200020560052BF
:102FC20065663A002020202020005620002B2D008C
:0E2FD2002842292000744573743A00732000D1
:00000001FF
