:10000000F6C0000025C1000023C1000021C100008E
:100010001FC100001DC100001BC1000019C100006C
:1000200017C1000015C1000013C1000011C100007C
:100030000FC100000C9409090BC1000009C10000A8
:1000400007C1000005C1000003C1000001C100009C
:100050000C94700AFDC00000FBC000000C94260A3E
:10006000F7C000000C94F0090C94C709F1C000001F
:10007000EFC00000EDC00000EBC00000E9C00000D0
:10008000E7C00000E5C00000E3C00000E1C00000E0
:10009000DFC00000DDC00000DBC00000D9C00000F0
:1000A000D7C00000D5C00000D3C00000D1C0000000
:1000B000CFC00000CDC00000CBC00000C9C0000010
:1000C000C7C00000C5C00000C3C000000C94910967
:1000D0000C946809BDC00000BBC00000B9C000009E
:1000E000B7C0000000000A0B02090C0D0E08070340
:1000F00004010000000000000000000000000000FB
:1001000000000000000000000000000000000000EF
:1001100012111000000000000000000000000000AC
:100120000000000000000000000002000022002586
:100130000028002B002E00310034000201000005D1
:100140000108010B0100002100240027002A002DD6
:10015000003000330001010000040107010A01051D
:10016000050505070508080808020202020A0A0830
:100170000804040404010101010101010103030356
:100180000303030303040707070C0C0C0C0C0C0CF3
:100190000C0202020206060606060606060B0B0BFA
:1001A0000B0B0B0B0B010210202008081020401035
:1001B000204080020102010804020101020408102B
:1001C0002040808040201008040201800402018049
:1001D0004020100804020108040201010204081072
:1001E000204080010204081020408000B30A11243E
:1001F0001FBECFEFD1E2DEBFCDBF00E00CBF24E0D9
:10020000A4EAB2E001C01D92AD39B207E1F712E0F5
:10021000A0E0B2E0E8ECFAE200E00BBF02C0079019
:100220000D92A43AB107D9F710E0C7EFD0E000E093
:1002300006C021970109802FFE010E944D15C63F7F
:10024000D10780E00807A9F70E94340B0C946215CF
:10025000D7CE90E0FC01EB55FE4F2491815A9E4F82
:10026000FC018491882399F090E0880F991FFC018C
:10027000EB5BFE4FA591B491FC01E55DFE4F8591CE
:1002800094918FB7F894EC91E22BEC938FBF089583
:1002900080917B00877F80937B0080E480937C004B
:1002A00080917A00806480937A0080917A0086FD44
:1002B000FCCF809178009091790008958F929F9261
:1002C000AF92BF92CF92DF92EF92FF92CF936C01E9
:1002D00080912002833069F08F3F09F4A0C0CF9154
:1002E000FF90EF90DF90CF90BF90AF909F908F9056
:1002F0000895EAE2F1E0C491C7FDF1CF83E0A9DF00
:10030000F12CE12CCC23E1F0B12CA12CC23009F06E
:1003100058C1750160E970ED83E090E0A501960198
:100320000E943115BA01A9014150510961097109B1
:1003300083E04F3F51056105710509F00CF45DC084
:1003400060E072E18AE790E0A70196010E94311512
:1003500049015A0168E478EE81E090E0A701960136
:100360000E943115BA01A901415051096109710971
:10037000CC2309F4EAC1C23009F0E5C184E04F3F63
:10038000510561057105C9F1C4F164E274EF80E0C3
:1003900090E0A70196010E943115BA01A9014150D0
:1003A00051096109710985E04F3F510561057105EA
:1003B00021F118F162E17AE780E090E0A70196016F
:1003C0000E943115BA01A901415051096109710911
:1003D00086E04F3F51056105710579F074F0B50174
:1003E000A4019AE075956795579547959A95D1F729
:1003F000415051096109710987E09091B100987FDE
:10040000892B8093B100C23009F47BC10CF072C11A
:10041000CC2309F4BAC1C13009F061CFFEC083E03A
:1004200080932002EAE2F1E0C4918C2FCF3F09F4DF
:1004300056CFC23009F466C050F4CC2369F1C13004
:1004400009F442C087FD4BCF83E003DF5DCFC430AA
:1004500009F499C008F478C0C530A1F710922001C2
:100460001092210180912101886080932101809167
:100470002101816080932101E2E6F1E0E491F0E066
:10048000EE0FFF1FE55DFE4F85919491E8EAF1E0E4
:10049000E491E093E50232CF14BC15BC84B58260D0
:1004A00084BD85B5816085BDE2E6F1E0E491F0E0D0
:1004B000EE0FFF1FE55DFE4F85919491E8EAF1E0B4
:1004C000E491E093EC021ACF109280001092810028
:1004D000809181008860809381008091810081609B
:1004E00080938100E2E6F1E0E491F0E0EE0FFF1F7F
:1004F000E55DFE4F85919491E8EAF1E0E491E093A7
:10050000EB02FCCE1092B0001092B1008091B000CE
:1005100082608093B0008091B10081608093B100CF
:10052000E2E6F1E0E491F0E0EE0FFF1FE55DFE4F43
:10053000859194919093EA028093E902E8EAF1E0D0
:10054000E491E093E802DACE1092900010929100CC
:1005500080919100886080939100809191008160EA
:1005600080939100E2E6F1E0E491F0E0EE0FFF1FEE
:10057000E55DFE4F85919491E8EAF1E0E491E09326
:10058000E702C3E0BBCE1092A0001092A1008091C0
:10059000A10088608093A1008091A1008160809378
:1005A000A100E2E6F1E0E491F0E0EE0FFF1FE55D6F
:1005B000FE4F85919491E8EAF1E0E491E093E60240
:1005C0009DCE60E072E18AE790E0A50196010E946D
:1005D0003115BA01A901415051096109710991E030
:1005E0004115510581E0680771057CF068E478EEFB
:1005F00081E090E0A50196010E943115BA01A901A0
:10060000415051096109710993E0C130D9F48091D9
:100610008100887F892B80938100509389004093CB
:1006200088008FEF9FEFDC018093FD029093FE0224
:10063000A093FF02B093000380916F0082608093CB
:100640006F004DCEC330D9F480919100887F892B03
:100650008093910050939900409398008FEF9FEF03
:10066000DC018093F5029093F602A093F702B09319
:10067000F8028091710082608093710030CEC430A6
:10068000D9F48091A100887F892B8093A100509399
:10069000A9004093A8008FEF9FEFDC018093F10247
:1006A0009093F202A093F302B093F402809172004F
:1006B00082608093720013CEC53009F0A4CE809181
:1006C0002101887F892B8093210150932901409338
:1006D00028018FEF9FEFDC018093ED029093EE02F3
:1006E000A093EF02B093F002809173008260809338
:1006F0007300F5CDC43059F20CF4ACCFC53029F3FA
:10070000EECD4093B3008FEF9FEFDC018093F902B1
:100710009093FA02A093FB02B093FC0280917000C8
:10072000826080937000DBCDB501A4018AE07595ED
:100730006795579547958A95D1F7415051096109B9
:10074000710995E01EC084E02FCE93E04F3F510524
:1007500061057105B1F0ACF062E17AE780E090E00C
:10076000A70196010E943115BA01A9014150510912
:10077000610971094F3F51056105710509F0A4F642
:1007800094E085B5887F892B85BD47BD8FEF9FEFAE
:10079000DC018093010390930203A0930303B093C1
:1007A000040380916E00826080936E0098CDAF92BA
:1007B000BF92CF92DF92EF92FF920F931F93CF934E
:1007C000DF936C017B018B01040F151FEB015E01B0
:1007D000AE18BF08C017D10759F06991D601ED9145
:1007E000FC910190F081E02DC6011995892B79F7D4
:1007F000C501DF91CF911F910F91FF90EF90DF9096
:10080000CF90BF90AF900895FC01538D448D252F5C
:1008100030E0842F90E0821B930B541710F0CF969A
:10082000089501970895FC01918D828D981761F0CC
:10083000A28DAE0FBF2FB11D5D968C91928D9F5FE3
:100840009F73928F90E008958FEF9FEF0895FC01C2
:10085000918D828D981731F0828DE80FF11D858D75
:1008600090E008958FEF9FEF0895FC01918D228D08
:10087000892F90E0805C9F4F821B91098F7399278D
:10088000089585E093E0F1DF21E0892B09F420E071
:10089000822F089582EA93E0E8DF21E0892B09F4B2
:1008A00020E0822F0895CF92DF92EF92FF921F9364
:1008B000CF93DF93EC016A017B01122FE889F9895C
:1008C00082E08083C11481EED806E104F104B1F125
:1008D00060E079E08DE390E0A70196010E940E149C
:1008E000215031094109510956954795379527956A
:1008F000EC85FD851082EE85FF852083188EEC89BE
:10090000FD891083EA89FB89808180618083EA897F
:10091000FB89808188608083EA89FB898081806887
:100920008083EA89FB8980818F7D8083DF91CF91ED
:100930001F91FF90EF90DF90CF900895E889F9899B
:10094000108220E1D5CFFC01A48DA80FB92FB11DD5
:10095000A35ABF4F2C91848D90E001968F739927F5
:10096000848FA689B7892C93A089B1898C918370D3
:1009700080648C93938D848D981306C00288F389CC
:10098000E02D80818F7D80830895EF92FF920F93F9
:100990001F93CF93DF93EC0181E0888F9B8D8C8D2B
:1009A00098131AC0E889F989808185FF15C09FB71F
:1009B000F894EE89FF896083E889F98980818370E2
:1009C000806480839FBF81E090E0DF91CF911F9191
:1009D0000F91FF90EF900895F62E0B8D10E00F5FB2
:1009E0001F4F0F731127E02E8C8D8E110BC00FB689
:1009F00007FCFACFE889F989808185FFF5CFCE0120
:100A0000A2DFF2CFEB8DEC0FFD2FF11DE35AFF4F6C
:100A1000F0829FB7F8940B8FEA89FB89808180620E
:100A2000D0CFCF93DF93EC01888D8823B1F0AA89D2
:100A3000BB89E889F9898C9185FD03C0808186FD99
:100A40000CC00FB607FCF7CF8C9185FFF2CF8081E9
:100A500085FFEDCFCE0177DFEACFDF91CF9108950B
:100A600080E090E0892B21F015DF81110E940000C9
:100A700080E090E0892B49F080E090E0892B29F01C
:100A80000E94000081110E94000080E090E0892B0C
:100A900021F0F7DE81110E94000080E090E0892BB8
:100AA00049F080E090E0892B29F00E94000081113C
:100AB0000C9400000895282F30E0F901EC51FF4F0D
:100AC0009491F901EB55FE4F4491215A3E4FF901A3
:100AD0002491222309F435C0992311F191509231C8
:100AE000F8F4E92FF0E08827E758FA4F8F4F0C947D
:100AF0004D15AA05AE058B05A205A6059005B10505
:100B0000B705BB05C105C505C905CF05D3059005CA
:100B1000D705DD05E105809180008F778093800007
:100B2000E22FF0E0EE0FFF1FE55DFE4FA591B491BF
:100B30008FB7F894EC91611148C040954E234C93C7
:100B40008FBF0895809180008F7DE8CF80918000D5
:100B5000877FE4CF84B58F7784BDE2CF84B58F7D66
:100B6000FBCF8091B0008F778093B000D9CF809178
:100B7000B0008F7DF9CF809190008F7780939000A7
:100B8000CFCF809190008F7DF9CF80919000877FAB
:100B9000F5CF8091A0008F778093A000C1CF809186
:100BA000A0008F7DF9CF8091A000877FF5CF809145
:100BB00020018F7780932001B3CF809120018F7D1A
:100BC000F9CF80912001877FF5CF4E2BB8CF909140
:100BD000200289130DC0EAE2F1E0E4919FEF9093C7
:100BE0002002E230D9F030F4EE2379F0E13081F0E8
:100BF00060E061CFE43049F110F1E530C9F7909140
:100C000073009D7F90937300F3CF10926E00F0CF2E
:100C100090916F009D7F90936F00EACF909170004C
:100C20009D7F9093700091E09093B0009091B100FF
:100C3000987F94609093B1001092B300D9CF9091B7
:100C400071009D7F90937100D3CF909172009D7F32
:100C500090937200CDCF3FB7F8948091AF029091FE
:100C6000B002A091B102B091B20226B5A89B05C016
:100C70002F3F19F00196A11DB11D3FBFBA2FA92F1B
:100C8000982F8827BC01CD01620F711D811D911D18
:100C900042E0660F771F881F991F4A95D1F7089584
:100CA0008F929F92AF92BF92CF92DF92EF92FF927C
:100CB0004B015C01D0DF6B017C01CDDF6C197D093C
:100CC0008E099F09683E734081059105B0F321E0CC
:100CD000821A9108A108B10888EEC80E83E0D81ED8
:100CE000E11CF11C81149104A104B10431F7FF90BF
:100CF000EF90DF90CF90BF90AF909F908F9008952E
:100D00002FB7F8946091AB027091AC028091AD0264
:100D10009091AE022FBF0895089590E080E008956D
:100D2000FB0101900020E9F73197AF01461B570BFB
:100D3000DC01ED91FC910280F381E02D19948F92FA
:100D40009F92AF92BF92EF92FF920F931F93CF9318
:100D5000DF93CDB7DEB7A1970FB6F894DEBF0FBE15
:100D6000CDBF7C01FA01CB0119A2223008F42AE0A0
:100D70008E010F5D1F4F822E912CB12CA12CBF0133
:100D8000A50194010E940E14F901CA016A3004F50C
:100D9000605DD8016E938D01232B242B252B79F7D1
:100DA00090E080E0109719F0BD01C701B9DFA1966E
:100DB0000FB6F894DEBF0FBECDBFDF91CF911F916C
:100DC0000F91FF90EF90BF90AF909F908F900895FC
:100DD000695CDFCFA5CF2F923F924F925F926F92C7
:100DE0007F928F929F92AF92BF92CF92DF92EF92BB
:100DF000FF921F93CF93DF93EC016A017B01722E68
:100E0000AB019601CB01B6010E942D1563E472E09F
:100E1000811126C046015701E894B7F82FEF3FEF44
:100E20004FE75FE7C501B4010E942D1581110CC089
:100E30002FEF3FEF4FE75FE7C501B4010E94DF12DC
:100E400067E472E0181664F02FEF3FEF4FE75FE4BE
:100E5000C701B6010E9429151816ACF46BE472E0C4
:100E6000CE01DF91CF911F91FF90EF90DF90CF9057
:100E7000BF90AF909F908F907F906F905F904F90BA
:100E80003F902F904DCF2FEF3FEF4FE75FECC70123
:100E9000B6010E94DF1287FDE1CF20E030E0A9011A
:100EA000C701B6010E94DF12312C212C87FF0DC033
:100EB000E881F9810190F081E02D6DE2CE01199574
:100EC0001C01F7FAF094F7F8F09410E060E070E09D
:100ED00080E09FE3711641F020E030E040E251E411
:100EE0000E9495141F5FF6CFA70196010E9431144E
:100EF0002B013C010E94FD144B015C012AE0BC0166
:100F0000A401CE011CDF7C01E20CF31C1123D9F1FA
:100F1000C501B4010E94E3129B01AC01C301B201FF
:100F20000E9430144B015C01E881F9810190F0814D
:100F3000E02D6EE2CE011995E80EF91E115018F160
:100F400020E030E040E251E4C501B4010E944413C6
:100F50002B013C010E94FD144B01B12CA12C2AE075
:100F6000B501A401CE01EBDEE80EF91EC501B40106
:100F70000E94E3129B01AC01C301B2010E94301434
:100F80004B015C01DBCFC701DF91CF911F91FF9037
:100F9000EF90DF90CF90BF90AF909F908F907F9019
:100FA0006F905F904F903F902F900895CF93DF9375
:100FB000EC0160E08E817FDD61E08E817CDD60E0B0
:100FC0008E8179DD8BE891E00197F1F7DF91CF9188
:100FD0000895CF92DF92EF92FF920F931F93CF93DA
:100FE000DF936C017C0187E0E80EF11CD0E0C0E0EB
:100FF000062F10E0B8010C2E02C0759567950A9473
:10100000E2F76170F70181917F0155DD2196C430CF
:10101000D10581F7C601DF91CF911F910F91FF900C
:10102000EF90DF90CF90C2CFCF92DF92EF92FF92FE
:101030000F931F93CF93DF93EC01F62E642F8C81D7
:101040003ADD8D818F3F11F060E035DD0F2D10E02E
:101050008F8584FF23C06E0187E0C80ED11CF12C60
:10106000E12CB8010E2C02C0759567950A94E2F741
:101070006170F60181916F011EDDFFEFEF1AFF0A2B
:1010800088E0E816F10469F7CE01DF91CF911F9156
:101090000F91FF90EF90DF90CF9088CFB80184E060
:1010A000759567958A95E1F7CE0193DF6F2DCE0197
:1010B000DF91CF911F910F91FF90EF90DF90CF9034
:1010C00088CF40E0682F85E894E0AECFCF93DF93E0
:1010D000823029F4909194049860909394048093C2
:1010E00098041092990480E480939A0480E180939C
:1010F0009B0480E580939C0480918904AAD8809108
:101100008A048F3F09F0A5D880918B04A2D8C5E846
:10111000D4E09E01255834408091940484FD09C098
:1011200084E090E021962817390734F48E8191D815
:10113000F0CF88E090E0F6CF8BE39DE00197F1F7E8
:1011400060E080918904B7DC60E080918B04B3DCBF
:1011500080918A048F3F11F060E0ADDC80919404AF
:1011600084FD31C063E085E894E033DFCBE4D6E46E
:10117000CE010197F1F763E085E894E02ADF21973B
:10118000F1F763E085E894E024DF83E592E00197DE
:10119000F1F762E085E894E01CDF809194048062BE
:1011A00090DF84E0809395048CE08BDF81E089DF21
:1011B0008BE39FE10197F1F782E08093960486E04C
:1011C000DF91CF917ECF80627CDF8BE496E4019744
:1011D000F1F780919404806274DF83E592E00197D7
:1011E000F1F78091940480626CDFD7CF90919804DE
:1011F000691710F06FEF690FE62FF0E0EB57FB4F28
:101200009489890F80685DCF41E00EDF81E090E036
:1012100008951F920F920FB60F9211240BB60F92E2
:101220002F933F934F935F936F937F938F939F93EE
:10123000AF93BF93EF93FF938091F9029091FA02DD
:10124000A091FB02B091FC02892B8A2B8B2BE1F140
:101250009091E802E091E902F091EA028081892709
:1012600080838091F9029091FA02A091FB02B091E3
:10127000FC02181619061A061B069CF48091F90246
:101280009091FA02A091FB02B091FC020197A10992
:10129000B1098093F9029093FA02A093FB02B093F4
:1012A000FC02FF91EF91BF91AF919F918F917F9140
:1012B0006F915F914F913F912F910F900BBE0F90C7
:1012C0000FBE0F901F9018958091200280DCE9CF0F
:1012D0001F920F920FB60F9211240BB60F922F93FD
:1012E0003F934F935F936F937F938F939F93AF93AE
:1012F000BF93EF93FF9385E093E025DBFF91EF91A0
:10130000BF91AF919F918F917F916F915F914F911D
:101310003F912F910F900BBE0F900FBE0F901F901B
:1013200018951F920F920FB60F9211240BB60F92C1
:101330002F938F939F93EF93FF93E0911503F09179
:1013400016038081E0911B03F0911C0382FD1DC0F8
:10135000908180911E038F5F8F7320911F038217EE
:1013600041F0E0911E03F0E0EB5FFC4F958F80931E
:101370001E03FF91EF919F918F912F910F900BBEC4
:101380000F900FBE0F901F9018958081F2CF1F9283
:101390000F920FB60F9211240BB60F922F933F931B
:1013A0004F935F936F937F938F939F93AF93BF936D
:1013B000EF93FF9382EA93E0C6DAFF91EF91BF913A
:1013C000AF919F918F917F916F915F914F913F91DD
:1013D0002F910F900BBE0F900FBE0F901F9018957E
:1013E0001F920F920FB60F9211240BB60F922F93EC
:1013F0008F939F93EF93FF93E091B203F091B30328
:101400008081E091B803F091B90382FD1DC0908105
:101410008091BB038F5F8F732091BC03821741F0D3
:10142000E091BB03F0E0EE55FC4F958F8093BB033A
:10143000FF91EF919F918F912F910F900BBE0F9085
:101440000FBE0F901F9018958081F2CF1F920F92C0
:101450000FB60F9211242F933F938F939F93AF93C7
:10146000BF938091AB029091AC02A091AD02B0917C
:10147000AE023091AA0223E0230F2D3758F50196D2
:10148000A11DB11D2093AA028093AB029093AC02E0
:10149000A093AD02B093AE028091AF029091B002E2
:1014A000A091B102B091B2020196A11DB11D80932D
:1014B000AF029093B002A093B102B093B202BF9179
:1014C000AF919F918F913F912F910F900FBE0F90F1
:1014D0001F90189526E8230F0296A11DB11DD2CFAB
:1014E0001F920F920FB60F9211248F939F9381E05A
:1014F0008093C4028091A8029091A902009729F0DC
:1015000001979093A9028093A8028091A6029091DE
:10151000A702009729F001979093A7028093A60253
:101520008091C7029091C802009729F0019790938B
:10153000C8028093C7028091A4029091A5020097EF
:1015400029F001979093A5028093A40286EE99EF6B
:1015500090938500809384009F918F910F900FBE90
:101560000F901F901895E5E0F3E01382128248EE89
:1015700053E060E070E0448355836683778389E2BB
:1015800092E09183808325ED30E03587248724ED38
:1015900030E03787268720ED30E0318B208B21ED3E
:1015A00030E0338B228B22ED30E0358B248B26ED1F
:1015B00030E0378B268B118E128E138E148EE2EA5A
:1015C000F3E0138212824483558366837783918389
:1015D000808385EC90E09587848784EC90E0978702
:1015E000868780EC90E0918B808B81EC90E0938BF0
:1015F000828B82EC90E0958B848B86EC90E0978BCD
:10160000868B118E128E138E148EEFE3F4E0168209
:101610001782108611861286138614861586168602
:101620001786108A118A128A138A148A158AE5E8A5
:10163000F4E0138212828BE392E09183808388E04E
:1016400084838FEF858389E0868384E0878385E0C8
:10165000808786E0818787E08287138614861586D7
:101660001686178681E032CDCF93DF9300D000D06D
:101670001F921F92CDB7DEB7789484B5826084BD87
:1016800084B5816084BD85B5826085BD85B5816086
:1016900085BD80916E00816080936E001092810004
:1016A00080918100826080938100809181008160BF
:1016B0008093810080918000816080938000809180
:1016C000B10084608093B1008091B000816080930C
:1016D000B000809191008260809391008091910090
:1016E0008160809391008091900081608093900050
:1016F0008091A10082608093A1008091A10081600F
:101700008093A1008091A00081608093A0008091CF
:101710002101826080932101809121018160809369
:1017200021018091200181608093200180917A00C5
:10173000846080937A0080917A00826080937A003E
:1017400080917A00816080937A0080917A0080682D
:1017500080937A001092C10010928104109282044A
:101760001092830410928404109241041092420457
:101770001092430410924404C3DA6B017C014B01C4
:101780005C0128EB820E2BE0921EA11CB11CB8DA82
:101790006C157D058E059F0528F086169706A80610
:1017A000B906A8F768EE73E080E090E079DA26E009
:1017B00040E052EC61E070E082EA93E074D8A0DA95
:1017C00060934104709342048093430490934404D3
:1017D0006FE472E082EA93E0FDDA92DA6B017C0159
:1017E0004B015C018AE0880E911CA11CB11C88DAB7
:1017F0006C157D058E059F0528F086169706A806B0
:10180000B906A8F781E08093550483E00E9429017E
:101810008FE20E94290181E30E94290185E20E9452
:10182000290187E20E94290189E20E94290160E0E2
:1018300083E041D960E08FE23ED960E081E33BD9AB
:1018400060E085E238D960E087E235D960E089E27E
:1018500032D926E240E051EE60E070E085E093E0AE
:1018600022D826E040E052EC61E070E082EA93E0AA
:101870001AD882E02BDC60E080E0B8DC10928000B7
:10188000109281008091810085608093810086EEB6
:1018900099EF909385008093840080916F00816020
:1018A00080936F0072E1E72E72E0F72E10E000E007
:1018B000C8019ED7D7018D937D010F5F1F4F0E305A
:1018C0001105B1F7C0901202D0901302E0901402FB
:1018D000F09015022DEC3CEC4CEC5DE3C701B60139
:1018E0006ED687FD12C026E636E64EE151E4C7010A
:1018F000B6010E942915181644F0A7019601C701E8
:10190000B6010E942D15882361F080E090E0A0E0F0
:10191000BFE38093120290931302A0931402B0933A
:101920001502C0901602D0901702E0901802F090B5
:10193000190220E030E040E151E4C701B6013FD692
:1019400087FD12C02DEC3CEC47EC52E4C701B60118
:101950000E942915181644F0A7019601C701B60187
:101960000E942D15882361F080E090E0A4EBB1E4A3
:101970008093160290931702A0931802B093190255
:10198000C0901A02D0901B02E0901C02F0901D0241
:1019900020E030E0A901C701B60111D687FD12C0D1
:1019A0002DEC3CEC47EC52E4C701B6010E9429152E
:1019B000181644F0A7019601C701B6010E942D1523
:1019C000882361F080E090E0A0E6B0E480931A0202
:1019D00090931B02A0931C02B0931D0280912102E0
:1019E00090912202A0912302B09124028D839E83C4
:1019F000AF83B88733E0E32EF12C44E0C42ED12C22
:101A00005AE0652E712CAA24A394B12C8091C402B3
:101A1000882321F11092C4028091C2029091C302E6
:101A20008A3091050CF0DFC001969093C302809339
:101A3000C2028091C102811111C063E685E093E08A
:101A40000E94C50461E385E093E00E94C50491E033
:101A50009093C1021092C0021092BF0285E093E001
:101A60000E9435041816190624F51092C30210922C
:101A7000C2020091BF021091C00205301105CCF4E2
:101A800085E093E00E941304F801EE0FFF1FEB5472
:101A9000FD4F918380830230110509F44EC10CF093
:101AA000BFC00115110509F42AC10130110509F45F
:101AB00037C10091DF021091E00260E08FE20E94E6
:101AC0005B0560E081E30E945B05809102029091DA
:101AD00003020817190759F090E080E00130110562
:101AE00011F082E090E09093DE028093DD0210938B
:101AF0000302009302028091DD029091DE028330A6
:101B0000910509F460C108F038C1009709F453C188
:101B1000029709F49FC10115110509F4C9C161E0DB
:101B20000130110509F4DEC10E944801803591059C
:101B30000CF0E0C18091D1029091D2029C012F5F04
:101B40003F4F3093D2022093D10220910002309176
:101B50000102821793070CF4CAC11092D2021092AC
:101B6000D10281E090E01092D0021092CF02109248
:101B7000CE021092CD021092CC021092CB021092A3
:101B8000CA021092C9022091D9023091DA02833040
:101B9000910509F4DBC30CF027C38130910509F4EA
:101BA00029C3029709F074C22230310509F45AC3DF
:101BB0002330310509F4A4C32130310509F068C28E
:101BC000F092DE02E092DD0281E090E020911E02C0
:101BD00030911F02232B11F090E080E090931F02C0
:101BE00080931E0255C21092C3021092C20210923C
:101BF000E0021092DF028D819E81AF81B8858983DA
:101C00009A83AB83BC83BE016F5F7F4F85E093E017
:101C100087D81092C1021092C0021092BF0209CF61
:101C20000330110509F492C00430110509F041CFC9
:101C30008091BD029091BE028F34910509F098C049
:101C40006091B3028091B402762F682F072E000CAA
:101C5000880B990BBAD420E030E040E251E465D61D
:101C60001B012C012DEC3CEC4CEC5DE3F2D687FD26
:101C700076C020E030E048E453E4C201B1019FD4D3
:101C800018160CF46CC0B092E002A092DF02209211
:101C9000D5023092D6024092D7025092D80260E626
:101CA00072E082EA93E096D84091160250911702B2
:101CB000609118027091190222E082EA93E08BD8B9
:101CC0006AE672E082EA93E085D84091D5025091AD
:101CD000D6026091D7027091D80222E082EA93E0A6
:101CE0007AD863E772E082EA93E01AD8E5EBF2E093
:101CF00025E011922A95E9F71092C10207C0809160
:101D0000B5029091B6028336910529F01092C00277
:101D10001092BF02CECEB092C002A092BF02C9CE36
:101D20008091B7029091B802C19781F7A2E0B0E02C
:101D3000B093C002A093BF02BCCE8091B902809341
:101D4000B402F092C002E092BF02B3CE8091BB0217
:101D50008093B302D092C002C092BF02AACE10926A
:101D6000E0021092DF027092C3026092C20297CF2B
:101D70007092C3026092C202B9CF8530910509F416
:101D80004CC0D8F1069709F0C6CE2091C50230911B
:101D9000C602C90101969093C6028093C502213004
:101DA0003105F1F08A30910509F44AC08F30910570
:101DB00009F04DC03FC083E00E94E7051092C602C3
:101DC0001092C502A8CE2091C5023091C602C90169
:101DD00001969093C6028093C5022130310529F403
:101DE0008BE694E00E945E0196CE03970CF493CEAE
:101DF0001092DE021092DD028ECE2091C50230914B
:101E0000C602C90101969093C6028093C502213093
:101E1000310559F78EE190E0E5CF2091C502309170
:101E2000C602C90101969093C6028093C502213073
:101E3000310519F480EA91E0D5CF8530910521F480
:101E400083E00E94E70567CE8A30910549F2459705
:101E50007CF661CE2091C5023091C602C90101967F
:101E60009093C6028093C5022130310529F48EE19A
:101E700090E00E945E0106C08930910551F483E034
:101E80000E94E70561E070E080E090E00E9450066B
:101E900042CE8F30910519F48BE694E0EACF8D3273
:101EA000910569F37CF31092DE021092DD02EACF15
:101EB0008091C7029091C802009729F47092C802DD
:101EC0006092C70231CE60E0069764F089E20E941A
:101ED0005B0561E087E20E945B0560E085E20E94AD
:101EE0005B0522CE89E20E945B0560E0F3CF90E0C3
:101EF00080E039CE0E944801883C910564F520912C
:101F0000CF023091D002C90101969093D002809304
:101F1000CF02809100029091010228173907C4F086
:101F20001092D0021092CF021816190664F401978D
:101F3000909301028093000282E090E01092D2021E
:101F40001092D10214CE1092010210920002F4CF2E
:101F500090E080E0F3CF0E9448018039914084F501
:101F60002091CD023091CE02C90101969093CE020C
:101F70008093CD02809100029091010228173907C9
:101F8000E4F01092CE021092CD021816190684F4D5
:101F90000197909301028093000283E090E01092F9
:101FA000D2021092D1021092D0021092CF02E3CD51
:101FB0001092010210920002F0CF90E080E0EFCF8B
:101FC0000E9448018835924044F58091CB0290915F
:101FD000CC029C012F5F3F4F3093CC022093CB0269
:101FE0002091000230910102821793079CF0109219
:101FF000CC021092CB0284E090E01092D2021092B8
:10200000D1021092D0021092CF021092CE02109202
:10201000CD02B5CD90E080E0F0CF0E944801803243
:10202000934064F58091C9029091CA029C012F5F90
:102030003F4F3093CA022093C90220910002309191
:10204000010282179307BCF01092CA021092C902D3
:1020500085E090E01092D2021092D1021092D0024C
:102060001092CF021092CE021092CD021092CC02AA
:102070001092CB0288CD90E080E0ECCFB092DC02F1
:10208000A092DB028FE090E0909301028093000227
:102090008091D3029091D402AC014F5F5F4F8832A0
:1020A00091050CF0BFC15093D4024093D30210E0CD
:1020B00060E080E09BD88091D9029091DA02209173
:1020C0001E0230911F02232B09F0E4C1019721F475
:1020D0006BE872E0111102C066E772E085E894E0F7
:1020E0000E94EA066BE772E085E894E00E94EA0647
:1020F0004091D5025091D6026091D7027091D802DA
:1021000021E085E894E00E94EB0662E872E085E851
:1021100094E00E94EA0661E080E068D865E872E039
:1021200085E894E00E94EA068091D9029091DA0253
:10213000029709F091C1112309F48EC16AE872E097
:1021400085E894E00E94EA0620E030E040E251E4B5
:1021500060911602709117028091180290911902F5
:1021600078D461E087FD86C188E040D860E972E0FC
:1021700085E894E00E94EA0661E08AE037D863E9E6
:1021800072E085E894E00E94EA068091D90290917D
:10219000DA02039709F070C1112309F46DC16CE8EC
:1021A00072E085E894E00E94EA0663E872E085E860
:1021B00094E00E94EA060E948006AB01BC01809177
:1021C000E1029091E202A091E302B091E40288540E
:1021D000944FAF4FBF4F481759076A077B0708F066
:1021E000BCC10E94300512CC8430910519F10597CD
:1021F00009F04ECFA5E0B0E0B093DE02A093DD027F
:102200008091DB029091DC02019709F041CF2330ED
:1022100031053CF42F5F3F4F3093DA022093D9020F
:1022200004C01092DA021092D9021092DC021092CD
:10223000DB022ECFE6E0F0E0F093DE02E093DD0279
:102240008091DB029091DC02019709F021CF1216F8
:1022500013061CF421503109DFCFF092DA02E0922C
:10226000D902E3CFF092DE02E092DD0280911E02FD
:1022700090911F02892B11F52090160230901702C1
:1022800040901802509019022DEC3CEC47EC52E4BF
:10229000C201B10194D118160CF4FACE2DEC3CEC2D
:1022A0004CEC5DE3C201B101DCD260931602709385
:1022B00017028093180290931902EACE20901A0216
:1022C00030901B0240901C0250901D022DEC3CEC03
:1022D00047EC52E4C201B10172D118160CF4D8CE09
:1022E0002DEC3CEC4CEC5DE3C201B101BAD2609341
:1022F0001A0270931B0280931C0290931D02C8CE99
:102300003093DE022093DD022090120230901302FF
:10231000409014025090150226E636E64EE151E454
:10232000C201B1014CD118160CF4B2CE2DEC3CEC2C
:102330004CEC5DE3C201B10194D260931202709340
:1023400013028093140290931502A2CE223031051D
:1023500069F02330310509F447C02130310509F017
:1023600097CED092DE02C092DD022ECCD092DE0259
:10237000C092DD0280911E0290911F02892BD1F440
:1023800020901602309017024090180250901902C7
:1023900020E030E040E151E4C201B1015AD3181607
:1023A0000CF076CE2DEC3CEC4CEC5DE3C201B101BF
:1023B00057D27BCF20901A0230901B0240901C0213
:1023C00050901D0220E030E040E151E4C201B10133
:1023D00040D318160CF05CCE2DEC3CEC4CEC5DE3DD
:1023E000C201B1013DD283CFD092DE02C092DD02A4
:1023F0002090120230901302409014025090150267
:102400002DEC3CEC4CEC5DE3C201B10122D318167B
:102410000CF03ECE2DEC3CEC4CEC5DE3C201B10186
:102420001FD28BCF9C012E5F3F4F4035510534F4B6
:102430003093D4022093D30211E03ACE22353105F5
:1024400034F403969093D4028093D302F5CF109284
:10245000D4021092D302F0CF40911602509117028D
:10246000609118027091190221E085E894E00E94C1
:10247000EB066ACE87E079CE4091120250911302AA
:10248000609114027091150221E085E894E00E94A9
:10249000EB068BCE019721F46BE872E0111102C0BC
:1024A00066E972E085E894E00E94EA066BE772E074
:1024B00085E894E00E94EA064091D5025091D60248
:1024C0006091D7027091D80221E085E894E00E94E3
:1024D000EB0662E872E085E894E00E94EA0661E0BB
:1024E00080E00E94F6086BE972E085E894E00E94C3
:1024F000EA068091D9029091DA020297F1F4112351
:10250000E1F06BE872E085E894E00E94EA0620E0E2
:1025100030E040E251E460911A0270911B02809118
:102520001C0290911D0295D261E087FD14C089E0E4
:102530000E94F60861EA72E01BCE40911A025091A7
:102540001B0260911C0270911D0221E085E894E05D
:102550000E94EB06DCCF88E0EBCF4EE050E064E079
:1025600072E082E192E0A1D2892BA9F082E1882E6B
:1025700082E0982E10E000E0D4015D904D01C8018A
:1025800037D1581619F0652DC8013AD10F5F1F4F8A
:102590000E30110589F78EE0E2E1F2E0A4E0B2E04E
:1025A00001900D928A95E1F70E9480066093E10206
:1025B0007093E2028093E3029093E40212CE40D043
:1025C00008F481E00895E89409C097FB3EF49095E3
:1025D0008095709561957F4F8F4F9F4F9923A9F0FC
:1025E000F92F96E9BB279395F6958795779567958B
:1025F000B795F111F8CFFAF4BB0F11F460FF1BC0CF
:102600006F5F7F4F8F4F9F4F16C0882311F096E961
:1026100011C0772321F09EE8872F762F05C066230F
:1026200071F096E8862F70E060E02AF09A95660FC8
:10263000771F881FDAF7880F9695879597F9089581
:10264000990F0008550FAA0BE0E8FEEF16161706C3
:10265000E807F907C0F012161306E407F50798F02B
:10266000621B730B840B950B39F40A2661F0232B44
:10267000242B252B21F408950A2609F4A140A695C0
:102680008FEF811D811D08950BD078C069D028F08F
:102690006ED018F0952309F05AC05FC01124A2C073
:1026A0007ED0A0F3959FD1F3950F50E0551F629F08
:1026B000F001729FBB27F00DB11D639FAA27F00D9B
:1026C000B11DAA1F649F6627B00DA11D661F829FC2
:1026D0002227B00DA11D621F739FB00DA11D621FA7
:1026E000839FA00D611D221F749F3327A00D611DC4
:1026F000231F849F600D211D822F762F6A2F1124A6
:102700009F5750408AF0E1F088234AF0EE0FFF1FF8
:10271000BB1F661F771F881F91505040A9F79E3F2F
:10272000510570F014C05EC05F3FECF3983EDCF3DF
:10273000869577956795B795F795E7959F5FC1F76C
:10274000FE2B880F911D9695879597F9089597F917
:102750009F6780E870E060E008959FEF80EC089547
:1027600000240A9416161706180609060895002470
:102770000A9412161306140605060895092E0394EA
:10278000000C11F4882352F0BB0F40F4BF2B11F45E
:1027900060FF04C06F5F7F4F8F4F9F4F089557FDBD
:1027A0009058440F551F59F05F3F71F04795880FBF
:1027B00097FB991F61F09F3F79F087950895121656
:1027C00013061406551FF2CF4695F1DF08C0161602
:1027D00017061806991FF1CF8695710561050894B3
:1027E0000895E894BB2766277727CB0197F90895CA
:1027F000F999FECF92BD81BDF89A992780B50895C9
:10280000262FF999FECF1FBA92BD81BD20BD0FB60C
:10281000F894FA9AF99A0FBE01960895A1E21A2E39
:10282000AA1BBB1BFD010DC0AA1FBB1FEE1FFF1F74
:10283000A217B307E407F50720F0A21BB30BE40BC4
:10284000F50B661F771F881F991F1A9469F760950B
:102850007095809590959B01AC01BD01CF010895C5
:102860005058BB27AA270ED089CF7ADF30F07FDF00
:1028700020F031F49F3F11F41EF46FCF0EF4E09579
:10288000E7FB65CFE92F8BDF80F3BA176207730789
:102890008407950718F071F49EF5A3CF0EF4E09528
:1028A0000B2EBA2FA02D0B01B90190010C01CA010A
:1028B000A0011124FF27591B99F0593F50F4503EB5
:1028C00068F11A16F040A22F232F342F4427585FA7
:1028D000F3CF469537952795A795F0405395C9F7BF
:1028E0007EF41F16BA0B620B730B840BBAF0915077
:1028F000A1F0FF0FBB1F661F771F881FC2F70EC016
:10290000BA0F621F731F841F48F4879577956795E8
:10291000B795F7959E3F08F0B3CF9395880F08F0D1
:102920009927EE0F9795879508950CD027CF1FDF35
:1029300040F016DF30F021F45F3F19F008CF51115D
:1029400051CF0BCF2CDF98F39923C9F35523B1F363
:10295000951B550BBB27AA2762177307840738F00E
:102960009F5F5F4F220F331F441FAA1FA9F333D06D
:102970000E2E3AF0E0E830D091505040E695001C21
:10298000CAF729D0FE2F27D0660F771F881FBB1FDD
:10299000261737074807AB07B0E809F0BB0B802DB7
:1029A000BF01FF2793585F4F2AF09E3F510568F003
:1029B000CECE18CF5F3FECF3983EDCF3869577954B
:1029C0006795B795F7959F5FC9F7880F911D969505
:1029D000879597F90895E1E0660F771F881FBB1F61
:1029E000621773078407BA0720F0621B730B840B0E
:1029F000BA0BEE1F88F7E0950895D9DE88F09F574F
:102A000090F0B92F9927B751A0F0D1F0660F771F3A
:102A1000881F991F1AF0BA95C9F712C0B13081F01A
:102A2000E0DEB1E00895DDCE672F782F8827B85F0C
:102A300039F0B93FCCF3869577956795B395D9F77B
:102A40003EF490958095709561957F4F8F4F9F4F85
:102A50000895F6DD08F48FEF0895F2DD880B990BE9
:102A60000895052E97FB16F400940FD057FD05D05E
:102A7000D5DE07FC02D046F408C05095409530954D
:102A800021953F4F4F4F5F4F0895909580957095DA
:102A900061957F4F8F4F9F4F0895EE0FFF1F881F47
:102AA0008BBF0790F691E02D1994FB01DC0104C067
:102AB0008D910190801921F441505040C8F7881B36
:082AC000990B0895F894FFCF73
:102AC8000F00FFFF0000003F000040410000604091
:102AD80001000000003F000040410000604001008C
:102AE800FFFFFFFFFF00000000C504D70304041127
:102AF80005350413042704000000000409D7038DDA
:102B0800068C066E616E00696E66006F766600560A
:102B18004D4450565F317C315F564D4450560A0043
:102B2800536574506F696E743A002054656E736112
:102B38006F3A000D0A0028412920004152434F3ABC
:102B480020002056005265663A00202020202000F0
:102B58005620002B2D002842292000744573743A12
:042B680000732000D6
:00000001FF
