:10000000F6C0000025C1000023C1000021C100008E
:100010001FC100001DC100001BC1000019C100006C
:1000200017C1000015C1000013C1000011C100007C
:100030000FC100000C947D080BC1000009C1000035
:1000400007C1000005C1000003C1000001C100009C
:100050000C94E409FDC00000FBC000000C949A0958
:10006000F7C000000C9464090C943B09F1C0000037
:10007000EFC00000EDC00000EBC00000E9C00000D0
:10008000E7C00000E5C00000E3C00000E1C00000E0
:10009000DFC00000DDC00000DBC00000D9C00000F0
:1000A000D7C00000D5C00000D3C00000D1C0000000
:1000B000CFC00000CDC00000CBC00000C9C0000010
:1000C000C7C00000C5C00000C3C000000C940509F3
:1000D0000C94DC08BDC00000BBC00000B9C000002B
:1000E000B7C0000000000A0B02090C0D0E08070340
:1000F00004010000000000000000000000000000FB
:1001000000000000000000000000000000000000EF
:1001100012111000000000000000000000000000AC
:100120000000000000000000000002000022002586
:100130000028002B002E00310034000201000005D1
:100140000108010B0100002100240027002A002DD6
:10015000003000330001010000040107010A01051D
:10016000050505070508080808020202020A0A0830
:100170000804040404010101010101010103030356
:100180000303030303040707070C0C0C0C0C0C0CF3
:100190000C0202020206060606060606060B0B0BFA
:1001A0000B0B0B0B0B010210202008081020401035
:1001B000204080020102010804020101020408102B
:1001C0002040808040201008040201800402018049
:1001D0004020100804020108040201010204081072
:1001E000204080010204081020408000270A1124CA
:1001F0001FBECFEFD1E2DEBFCDBF00E00CBF12E0EB
:10020000A0E0B2E0E4E8FBE200E00BBF02C0079030
:100210000D92A438B107D9F724E0A4E8B2E001C0F8
:100220001D92AB34B207E1F710E0C7EFD0E000E079
:1002300006C021970109802FFE010E94AB15C63F21
:10024000D10780E00807A9F70E949F0A0C94C01507
:10025000D7CE90E0FC01EB55FE4F2491815A9E4F82
:10026000FC018491882399F090E0880F991FFC018C
:10027000EB5BFE4FA591B491FC01E55DFE4F8591CE
:1002800094918FB7F894EC91E22BEC938FBF089583
:1002900080917B00877F80937B0080E480937C004B
:1002A00080917A00806480937A0080917A0086FD44
:1002B000FCCF809178009091790008958F929F9261
:1002C000AF92BF92CF92DF92EF92FF92CF936C01E9
:1002D00080910402833069F08F3F09F4A0C0CF9170
:1002E000FF90EF90DF90CF90BF90AF909F908F9056
:1002F0000895EAE2F1E0C491C7FDF1CF83E0A9DF00
:10030000F12CE12CCC23E1F0B12CA12CC23009F06E
:1003100058C1750160E970ED83E090E0A501960198
:100320000E948F15BA01A901415051096109710953
:1003300083E04F3F51056105710509F00CF45DC084
:1003400060E072E18AE790E0A70196010E948F15B4
:1003500049015A0168E478EE81E090E0A701960136
:100360000E948F15BA01A901415051096109710913
:10037000CC2309F4EAC1C23009F0E5C184E04F3F63
:10038000510561057105C9F1C4F164E274EF80E0C3
:1003900090E0A70196010E948F15BA01A901415072
:1003A00051096109710985E04F3F510561057105EA
:1003B00021F118F162E17AE780E090E0A70196016F
:1003C0000E948F15BA01A9014150510961097109B3
:1003D00086E04F3F51056105710579F074F0B50174
:1003E000A4019AE075956795579547959A95D1F729
:1003F000415051096109710987E09091B100987FDE
:10040000892B8093B100C23009F47BC10CF072C11A
:10041000CC2309F4BAC1C13009F061CFFEC083E03A
:1004200080930402EAE2F1E0C4918C2FCF3F09F4FB
:1004300056CFC23009F466C050F4CC2369F1C13004
:1004400009F442C087FD4BCF83E003DF5DCFC430AA
:1004500009F499C008F478C0C530A1F710922001C2
:100460001092210180912101886080932101809167
:100470002101816080932101E2E6F1E0E491F0E066
:10048000EE0FFF1FE55DFE4F85919491E8EAF1E0E4
:10049000E491E093CB0232CF14BC15BC84B58260EA
:1004A00084BD85B5816085BDE2E6F1E0E491F0E0D0
:1004B000EE0FFF1FE55DFE4F85919491E8EAF1E0B4
:1004C000E491E093D2021ACF109280001092810042
:1004D000809181008860809381008091810081609B
:1004E00080938100E2E6F1E0E491F0E0EE0FFF1F7F
:1004F000E55DFE4F85919491E8EAF1E0E491E093A7
:10050000D102FCCE1092B0001092B1008091B000E8
:1005100082608093B0008091B10081608093B100CF
:10052000E2E6F1E0E491F0E0EE0FFF1FE55DFE4F43
:10053000859194919093D0028093CF02E8EAF1E004
:10054000E491E093CE02DACE1092900010929100E6
:1005500080919100886080939100809191008160EA
:1005600080939100E2E6F1E0E491F0E0EE0FFF1FEE
:10057000E55DFE4F85919491E8EAF1E0E491E09326
:10058000CD02C3E0BBCE1092A0001092A1008091DA
:10059000A10088608093A1008091A1008160809378
:1005A000A100E2E6F1E0E491F0E0EE0FFF1FE55D6F
:1005B000FE4F85919491E8EAF1E0E491E093CC025A
:1005C0009DCE60E072E18AE790E0A50196010E946D
:1005D0008F15BA01A901415051096109710991E0D2
:1005E0004115510581E0680771057CF068E478EEFB
:1005F00081E090E0A50196010E948F15BA01A90142
:10060000415051096109710993E0C130D9F48091D9
:100610008100887F892B80938100509389004093CB
:1006200088008FEF9FEFDC018093E3029093E40258
:10063000A093E502B093E60280916F008260809300
:100640006F004DCEC330D9F480919100887F892B03
:100650008093910050939900409398008FEF9FEF03
:10066000DC018093DB029093DC02A093DD02B09367
:10067000DE028091710082608093710030CEC430C0
:10068000D9F48091A100887F892B8093A100509399
:10069000A9004093A8008FEF9FEFDC018093D70261
:1006A0009093D802A093D902B093DA02809172009D
:1006B00082608093720013CEC53009F0A4CE809181
:1006C0002101887F892B8093210150932901409338
:1006D00028018FEF9FEFDC018093D3029093D40227
:1006E000A093D502B093D60280917300826080936C
:1006F0007300F5CDC43059F20CF4ACCFC53029F3FA
:10070000EECD4093B3008FEF9FEFDC018093DF02CB
:100710009093E002A093E102B093E2028091700016
:10072000826080937000DBCDB501A4018AE07595ED
:100730006795579547958A95D1F7415051096109B9
:10074000710995E01EC084E02FCE93E04F3F510524
:1007500061057105B1F0ACF062E17AE780E090E00C
:10076000A70196010E948F15BA01A90141505109B4
:10077000610971094F3F51056105710509F0A4F642
:1007800094E085B5887F892B85BD47BD8FEF9FEFAE
:10079000DC018093E7029093E802A093E902B09312
:1007A000EA0280916E00826080936E0098CDAF92D5
:1007B000BF92CF92DF92EF92FF920F931F93CF934E
:1007C000DF936C017B018B01040F151FEB015E01B0
:1007D000AE18BF08C017D10759F06991D601ED9145
:1007E000FC910190F081E02DC6011995892B79F7D4
:1007F000C501DF91CF911F910F91FF90EF90DF9096
:10080000CF90BF90AF900895FC01538D448D252F5C
:1008100030E0842F90E0821B930B541710F0CF969A
:10082000089501970895FC01918D828D981761F0CC
:10083000A28DAE0FBF2FB11D5D968C91928D9F5FE3
:100840009F73928F90E008958FEF9FEF0895FC01C2
:10085000918D828D981731F0828DE80FF11D858D75
:1008600090E008958FEF9FEF0895FC01918D228D08
:10087000892F90E0805C9F4F821B91098F7399278D
:1008800008958BEE92E0F1DF21E0892B09F420E05E
:10089000822F089588E893E0E8DF21E0892B09F4AE
:1008A00020E0822F0895FC01A48DA80FB92FB11D5F
:1008B000A35ABF4F2C91848D90E001968F73992796
:1008C000848FA689B7892C93A089B1898C91837074
:1008D00080648C93938D848D981306C00288F3896D
:1008E000E02D80818F7D80830895EF92FF920F939A
:1008F0001F93CF93DF93EC0181E0888F9B8D8C8DCC
:1009000098131AC0E889F989808185FF15C09FB7BF
:10091000F894EE89FF896083E889F9898081837082
:10092000806480839FBF81E090E0DF91CF911F9131
:100930000F91FF90EF900895F62E0B8D10E00F5F52
:100940001F4F0F731127E02E8C8D8E110BC00FB629
:1009500007FCFACFE889F989808185FFF5CFCE01C0
:10096000A2DFF2CFEB8DEC0FFD2FF11DE35AFF4F0D
:10097000F0829FB7F8940B8FEA89FB8980818062AF
:10098000D0CFCF93DF93EC01888D8823B1F0AA8973
:10099000BB89E889F9898C9185FD03C0808186FD3A
:1009A0000CC00FB607FCF7CF8C9185FFF2CF80818A
:1009B00085FFEDCFCE0177DFEACFDF91CF910895AC
:1009C00080E090E0892B21F065DF81110E9400001A
:1009D00080E090E0892B49F080E090E0892B29F0BD
:1009E0000E94000081110E94000080E090E0892BAD
:1009F00021F047DF81110E94000080E090E0892B08
:100A000049F080E090E0892B29F00E9400008111DC
:100A10000C9400000895282F30E0F901EC51FF4FAD
:100A20009491F901EB55FE4F4491215A3E4FF90143
:100A30002491222309F435C0992311F19150923168
:100A4000F8F4E92FF0E08827E75DFA4F8F4F0C9418
:100A5000AB155A055E053B05520556054005610577
:100A600067056B057105750579057F0583054005EB
:100A700087058D059105809180008F778093800098
:100A8000E22FF0E0EE0FFF1FE55DFE4FA591B49160
:100A90008FB7F894EC91611148C040954E234C9368
:100AA0008FBF0895809180008F7DE8CF8091800076
:100AB000877FE4CF84B58F7784BDE2CF84B58F7D07
:100AC000FBCF8091B0008F778093B000D9CF809119
:100AD000B0008F7DF9CF809190008F778093900048
:100AE000CFCF809190008F7DF9CF80919000877F4C
:100AF000F5CF8091A0008F778093A000C1CF809127
:100B0000A0008F7DF9CF8091A000877FF5CF8091E5
:100B100020018F7780932001B3CF809120018F7DBA
:100B2000F9CF80912001877FF5CF4E2BB8CF9091E0
:100B3000040289130DC0EAE2F1E0E4919FEF909383
:100B40000402E230D9F030F4EE2379F0E13081F0A4
:100B500060E061CFE43049F110F1E530C9F79091E0
:100B600073009D7F90937300F3CF10926E00F0CFCF
:100B700090916F009D7F90936F00EACF90917000ED
:100B80009D7F9093700091E09093B0009091B100A0
:100B9000987F94609093B1001092B300D9CF909158
:100BA00071009D7F90937100D3CF909172009D7FD3
:100BB00090937200CDCF3FB7F89480918B029091C3
:100BC0008C02A0918D02B0918E0226B5A89B05C023
:100BD0002F3F19F00196A11DB11D3FBFBA2FA92FBC
:100BE000982F8827BC01CD01620F711D811D911DB9
:100BF00042E0660F771F881F991F4A95D1F7089525
:100C0000089590E080E00895FB0101900020E9F74D
:100C10003197AF01461B570BDC01ED91FC9102802F
:100C2000F381E02D19948F929F92AF92BF92EF9231
:100C3000FF920F931F93CF93DF93CDB7DEB7A197AA
:100C40000FB6F894DEBF0FBECDBF7C01FA01CB0119
:100C500019A2223008F42AE08E010F5D1F4F822E68
:100C6000912CB12CA12CBF01A50194010E946D15FE
:100C7000F901CA016A3004F5605DD8016E938D01F7
:100C8000232B242B252B79F790E080E0109719F087
:100C9000BD01C701B9DFA1960FB6F894DEBF0FBE44
:100CA000CDBFDF91CF911F910F91FF90EF90BF903B
:100CB000AF909F908F900895695CDFCFA5CF2F9262
:100CC0003F924F925F926F927F928F929F92AF92DC
:100CD000BF92CF92DF92EF92FF921F93CF93DF9359
:100CE000EC016A017B01722EAB019601CB01B601CA
:100CF0000E94691565E372E0811126C04601570123
:100D0000E894B7F82FEF3FEF4FE75FE7C501B40175
:100D10000E94691581110CC02FEF3FEF4FE75FE78D
:100D2000C501B4010E94B81369E372E0181664F0BB
:100D30002FEF3FEF4FE75FE4C701B6010E940215B6
:100D40001816ACF46DE372E0CE01DF91CF911F91E4
:100D5000FF90EF90DF90CF90BF90AF909F908F90DB
:100D60007F906F905F904F903F902F904DCF2FEFDF
:100D70003FEF4FE75FECC701B6010E94B81387FD54
:100D8000E1CF20E030E0A901C701B6010E94B8130D
:100D9000312C212C87FF0DC0E881F9810190F08171
:100DA000E02D6DE2CE0119951C01F7FAF094F7F8E9
:100DB000F09410E060E070E080E09FE3711641F095
:100DC00020E030E040E251E40E94BC131F5FF6CF08
:100DD000A70196010E9454132B013C010E94241488
:100DE0004B015C012AE0BC01A401CE011CDF7C01A7
:100DF000E20CF31C1123D9F1C501B4010E94501477
:100E00009B01AC01C301B2010E9453134B015C0171
:100E1000E881F9810190F081E02D6EE2CE01199513
:100E2000E80EF91E115018F120E030E040E251E4E4
:100E3000C501B4010E9406152B013C010E94241437
:100E40004B01B12CA12C2AE0B501A401CE01EBDEAF
:100E5000E80EF91EC501B4010E9450149B01AC01BB
:100E6000C301B2010E9453134B015C01DBCFC701E8
:100E7000DF91CF911F91FF90EF90DF90CF90BF90C7
:100E8000AF909F908F907F906F905F904F903F902A
:100E90002F900895CF93DF93EC0160E08E81BBDD4E
:100EA00061E08E81B8DD60E08E81B5DD8BE891E098
:100EB0000197F1F7DF91CF910895CF92DF92EF92F2
:100EC000FF920F931F93CF93DF936C017C0187E018
:100ED000E80EF11CD0E0C0E0062F10E0B8010C2EA7
:100EE00002C0759567950A94E2F76170F7018191E8
:100EF0007F0191DD2196C430D10581F7C601DF91D4
:100F0000CF911F910F91FF90EF90DF90CF90C2CFC4
:100F1000CF92DF92EF92FF920F931F93CF93DF93C5
:100F2000EC01F62E642F8C8176DD8D818F3F11F0E0
:100F300060E071DD0F2D10E08F8584FF23C06E010E
:100F400087E0C80ED11CF12CE12CB8010E2C02C098
:100F5000759567950A94E2F76170F60181916F01CA
:100F60005ADDFFEFEF1AFF0A88E0E816F10469F78F
:100F7000CE01DF91CF911F910F91FF90EF90DF9005
:100F8000CF9088CFB80184E0759567958A95E1F791
:100F9000CE0193DF6F2DCE01DF91CF911F910F9185
:100FA000FF90EF90DF90CF9088CF40E0682F85E2F0
:100FB00094E0AECFCF93DF93823029F49091340444
:100FC000986090933404809338041092390480E43C
:100FD00080933A0480E180933B0480E580933C0455
:100FE0008091290436D980912A048F3F09F031D9A4
:100FF00080912B042ED9C5E2D4E09E0125523440C5
:101000008091340484FD09C084E090E02196281783
:10101000390734F48E811DD9F0CF88E090E0F6CF07
:101020008BE39DE00197F1F760E080912904F3DC08
:1010300060E080912B04EFDC80912A048F3F11F057
:1010400060E0E9DC8091340484FD31C063E085E236
:1010500094E033DFCBE4D6E4CE010197F1F763E00F
:1010600085E294E02ADF2197F1F763E085E294E0DE
:1010700024DF83E592E00197F1F762E085E294E0F6
:101080001CDF80913404806290DF84E0809335041B
:101090008CE08BDF81E089DF8BE39FE10197F1F743
:1010A00082E08093360486E0DF91CF917ECF80622C
:1010B0007CDF8BE496E40197F1F780913404806241
:1010C00074DF83E592E00197F1F780913404806248
:1010D0006CDFD7CF90913804691710F06FEF690F6C
:1010E000E62FF0E0EB5DFB4F9489890F80685DCFC0
:1010F00041E00EDF81E090E008951F920F920FB65D
:101100000F9211240BB60F922F933F934F935F933F
:101110006F937F938F939F93AF93BF93EF93FF93BF
:101120008091DF029091E002A091E102B091E20291
:10113000892B8A2B8B2BE1F19091CE02E091CF028B
:10114000F091D0028081892780838091DF02909185
:10115000E002A091E102B091E202181619061A0607
:101160001B069CF48091DF029091E002A091E102C5
:10117000B091E2020197A109B1098093DF02909337
:10118000E002A093E102B093E202FF91EF91BF91E0
:10119000AF919F918F917F916F915F914F913F910F
:1011A0002F910F900BBE0F900FBE0F901F901895B0
:1011B00080910402BCDCE9CF1F920F920FB60F9210
:1011C00011240BB60F922F933F934F935F936F931E
:1011D0007F938F939F93AF93BF93EF93FF938BEE88
:1011E00092E061DBFF91EF91BF91AF919F918F9161
:1011F0007F916F915F914F913F912F910F900BBE17
:101200000F900FBE0F901F9018951F920F920FB660
:101210000F9211240BB60F922F938F939F93EF93FE
:10122000FF93E091FB02F091FC028081E0910103C9
:10123000F091020382FD1DC09081809104038F5FB5
:101240008F7320910503821741F0E0910403F0E0D1
:10125000E551FD4F958F80930403FF91EF919F918E
:101260008F912F910F900BBE0F900FBE0F901F907C
:1012700018958081F2CF1F920F920FB60F92112412
:101280000BB60F922F933F934F935F936F937F9380
:101290008F939F93AF93BF93EF93FF9388E893E06F
:1012A00002DBFF91EF91BF91AF919F918F917F9161
:1012B0006F915F914F913F912F910F900BBE0F90C7
:1012C0000FBE0F901F9018951F920F920FB60F929E
:1012D00011240BB60F922F938F939F93EF93FF934D
:1012E000E0919803F09199038081E0919E03F09141
:1012F0009F0382FD1DC090818091A1038F5F8F733A
:101300002091A203821741F0E091A103F0E0E85799
:10131000FC4F958F8093A103FF91EF919F918F9147
:101320002F910F900BBE0F900FBE0F901F9018952E
:101330008081F2CF1F920F920FB60F9211242F933C
:101340003F938F939F93AF93BF938091C3029091EC
:10135000C402A091C502B091C60230918A0223E076
:10136000230F2D3758F50196A11DB11D20938A0238
:101370008093C3029093C402A093C502B093C602A7
:1013800080918B0290918C02A0918D02B0918E027F
:101390000196A11DB11D80938B0290938C02A093A6
:1013A0008D02B0938E02BF91AF919F918F913F912B
:1013B0002F910F900FBE0F901F90189526E8230FC6
:1013C0000296A11DB11DD2CF1F920F920FB60F92A0
:1013D00011248F939F9381E08093A00280918802D3
:1013E00090918902009729F0019790938902809348
:1013F00088028091860290918702009729F00197D8
:1014000090938702809386028091A9029091AA020C
:10141000009729F001979093AA028093A9028091E6
:10142000840290918502009729F00197909385029C
:101430008093840286EE99EF9093850080938400D8
:101440009F918F910F900FBE0F901F901895EBEE0C
:10145000F2E01382128248EE53E060E070E04483D1
:101460005583668377838BE192E09183808325EDBA
:1014700030E03587248724ED30E03787268720ED5C
:1014800030E0318B208B21ED30E0338B228B22ED4D
:1014900030E0358B248B26ED30E0378B268B118E98
:1014A000128E138E148EE8E8F3E0138212824483C6
:1014B0005583668377839183808385EC90E095875D
:1014C000848784EC90E09787868780EC90E0918B0E
:1014D000808B81EC90E0938B828B82EC90E0958BFB
:1014E000848B86EC90E0978B868B118E128E138EF8
:1014F000148E8EE0E5E0F2E0ADE3B4E001900D92F1
:101500008A95E1F7E5E2F4E0138212828DE292E03F
:101510009183808388E084838FEF858389E086834D
:1015200084E0878385E0808786E0818787E0828703
:101530001386148615861686178681E03BCDCF93D9
:10154000DF9300D000D01F921F92CDB7DEB7789402
:1015500084B5826084BD84B5816084BD85B58260B8
:1015600085BD85B5816085BD80916E008160809369
:101570006E001092810080918100826080938100D2
:1015800080918100816080938100809180008160E2
:10159000809380008091B10084608093B10080913D
:1015A000B00081608093B000809191008260809350
:1015B00091008091910081608093910080919000D2
:1015C0008160809390008091A10082608093A1004F
:1015D0008091A10081608093A1008091A000816032
:1015E0008093A000809121018260809321018091ED
:1015F000210181608093210180912001816080938D
:10160000200180917A00846080937A0080917A0032
:10161000826080937A0080917A00816080937A0062
:1016200080917A00806880937A001092C10083E0F4
:101630000E9429018FE20E94290181E30E94290171
:1016400085E20E94290187E20E94290189E20E9425
:10165000290160E083E0DFD960E08FE2DCD960E05F
:1016600081E3D9D960E085E2D6D960E087E2D3D9B9
:1016700060E089E2D0D9E091FB02F091FC0222E027
:101680002083E091FB02F091FC021082E091F702CE
:10169000F091F8021082E091F902F091FA0290E1E3
:1016A000908310920303E091FF02F091000386E221
:1016B0008083E091FD02F091FE0280818061808351
:1016C000E091FD02F091FE02808188608083E091CC
:1016D000FD02F091FE02808180688083E091FD022E
:1016E000F091FE0280818F7D8083E0919803F091DC
:1016F00099032083E0919403F09195031082E09187
:101700009603F091970390831092A003E0919C03BD
:10171000F0919D0386E08083E0919A03F0919B0312
:10172000808180618083E0919A03F0919B038081A6
:1017300088608083E0919A03F0919B0380818068A8
:101740008083E0919A03F0919B0380818F7D808359
:1017500082E030DC60E080E0BDDC1092800010921E
:1017600081008091810085608093810086EE99EFF1
:10177000909385008093840080916F0081608093B6
:101780006F0045E0E42E42E0F42E10E000E0C801D6
:1017900074D7D7018D937D010F5F1F4F0E30110558
:1017A000B1F7C0900502D0900602E0900702F090D9
:1017B00008022DEC3CEC4CEC5DE3C701B601D8D738
:1017C00087FD0AC026E636E64EE151E4C701B601C0
:1017D0000E940215181664F480E090E0A0E0BFE3D8
:1017E0008093050290930602A0930702B09308022B
:1017F000C0900902D0900A02E0900B02F0900C0217
:101800002DEC3CEC4CEC5DE3C701B601B1D787FD94
:101810000AC02DEC3CEC47EC52E4C701B6010E9433
:101820000215181664F480E090E0A8E4B1E4809317
:10183000090290930A02A0930B02B0930C02C0908D
:101840000D02D0900E02E0900F02F09010022DECED
:101850003CEC4CEC5DE3C701B6018AD787FD0AC0BA
:101860002DEC3CEC47EC52E4C701B6010E94021596
:10187000181664F480E090E0A0E6B0E480930D02D6
:1018800090930E02A0930F02B09310028091130266
:1018900090911402A0911502B09116028D839E833F
:1018A000AF83B88734E0232E312C01E010E0809123
:1018B000A002882319F11092A00280919E029091BB
:1018C0009F028A3091050CF084C0019690939F028C
:1018D00080939E0280919D02811110C063E68BEE81
:1018E00092E003D861E38BEE92E00E94750491E0F0
:1018F00090939D0210929C0210929B028BEE92E0BC
:101900000E9435041816190634F510929F021092A1
:101910009E02E0909B02F0909C02A5E0EA16F10482
:10192000D4F48BEE92E00E941304F701EE0FFF1F38
:10193000EF56FD4F91838083B2E0EB16F10409F47A
:10194000F4C00CF063C0E114F10409F4D0C0EA94CF
:10195000EF2809F4DDC08091C1029091C202892B69
:1019600099F1C090B702D090B802E090B902F0901F
:10197000BA028091110290911202892B09F470C170
:1019800020E030E040EA50E4C701B601F1D687FD1F
:101990000AC020E030E048E452E4C701B6010E94EA
:1019A0000215181624F41092A6021092A502809136
:1019B000A5029091A6028130910509F407C108F4AF
:1019C000DAC0029709F44CC160E08FE224D860E0ED
:1019D00072C110929F0210929E021092C202109247
:1019E000C1028D819E81AF81B88589839A83AB8343
:1019F000BC83BE016F5F7F4F8BEE92E005D91092E2
:101A00009D0210929C0210929B0264CF23E0E2168A
:101A1000F10409F495C084E0E816F10409F09BCFC5
:101A20008091990290919A028F34910509F09CC09F
:101A300060918F0280919002762F682F072E000C04
:101A4000880B990B2FD720E030E040E251E494D688
:101A50006B017C012DEC3CEC4CEC5DE3D3D787FDB6
:101A600078C020E030E048E453E4C701B60180D6F6
:101A700018160CF46EC01093C2020093C102C092FB
:101A8000B702D092B802E092B902F092BA0261E4D1
:101A900072E088E893E012D94091090250910A025D
:101AA00060910B0270910C0222E088E893E007D964
:101AB0006BE472E088E893E001D94091B70250915D
:101AC000B8026091B9027091BA0222E088E893E00E
:101AD000F6D864E572E088E893E096D8E1E9F2E0B0
:101AE00025E011922A95E9F710929D0207C0809196
:101AF0009102909192028336910529F010929C02F6
:101B000010929B0228CF10939C0200939B0223CF3C
:101B10008091930290919402C19781F7A2E0B0E086
:101B2000B0939C02A0939B0216CF80919502809364
:101B30009002E3E0F0E0F0939C02E0939B020BCF75
:101B40008091970280938F0230929C0220929B0298
:101B500002CF1092C2021092C1028AE090E09093EC
:101B60009F0280939E0293CFAAE0B0E0B0939F02C1
:101B7000A0939E02B3CF20E030E040EE50E4C701D6
:101B8000B60140D718160CF01FCF20E030E048E433
:101B900052E4C701B601ECD587FF16CF1093A60219
:101BA0000093A5022FB7F8948091C3029091C402CC
:101BB000A091C502B091C6022FBF8093A10290935D
:101BC000A202A093A302B093A402FECE2FB7F89472
:101BD0006091C3027091C4028091C5029091C602C7
:101BE0002FBF5ED66B017C016091A1027091A202B1
:101BF0008091A3029091A40255D64B015C0120E094
:101C000030E04AE754E460910D0270910E02809139
:101C10000F0290911002FAD69B01AC01C501B401EC
:101C200043D59B01AC01C701B601ECD618160CF0E8
:101C3000CBCE82E090E09093A6028093A5028091A3
:101C4000B7029091B802A091B902B091BA02809304
:101C5000090290930A02A0930B02B0930C02B4CE37
:101C60008090090290900A02A0900B02B0900C02A2
:101C700040900502509006026090070270900802A2
:101C8000A3019201C501B4010FD5A701960170D53A
:101C900061E087FD9ACEA3019201C501B40103D58D
:101CA000A7019601AFD660E018160CF08ECE8FE239
:101CB0000E940B0561E081E30E940B05E090C102E8
:101CC000F090C2028091020290910302E816F90698
:101CD00059F091E0E916F10409F084C090E080E049
:101CE0009093C0028093BF02F0920302E09202023E
:101CF0008091BF029091C0028330910509F49BC08E
:101D000008F073C0009709F48EC0029709F4DAC096
:101D1000E114F10409F40EC161E0EA94EF2809F43A
:101D200025C10E944801803591050CF027C18091A2
:101D3000B3029091B4029C012F5F3F4F3093B402E5
:101D40002093B30220910002309101028217930781
:101D50000CF411C11092B4021092B30281E090E031
:101D60001092B2021092B1021092B0021092AF0221
:101D70001092AE021092AD021092AC021092AB0221
:101D80002091BB023091BC028330910509F46DC3F0
:101D90000CF0B5C28130910509F4B7C2029709F081
:101DA000BBC12230310509F4EAC22330310509F400
:101DB00036C32130310509F0AFC183E090E0909344
:101DC000C0028093BF0281E090E020911102309127
:101DD0001202232B11F090E080E090931202809386
:101DE00011029AC182E090E07BCF8530910509F421
:101DF0004CC0D8F1069709F08BCF2091A702309103
:101E0000A802C90101969093A8028093A7022130ED
:101E10003105F1F08A30910509F44AC08F309105FF
:101E200009F04DC03FC083E00E9497051092A802C0
:101E30001092A7026DCF2091A7023091A802C9018C
:101E400001969093A8028093A7022130310529F4CE
:101E50008BE694E00E945E015BCF03970CF458CFB1
:101E60001092C0021092BF0253CF2091A70230916E
:101E7000A802C90101969093A8028093A70221307D
:101E8000310559F78EE190E0E5CF2091A70230911E
:101E9000A802C90101969093A8028093A70221305D
:101EA000310519F480EA91E0D5CF8530910521F410
:101EB00083E00E9497052CCF8A30910549F245971F
:101EC0007CF626CF2091A7023091A802C901019685
:101ED0009093A8028093A7022130310529F48EE166
:101EE00090E00E945E0106C089309105A1F483E074
:101EF0000E9497050E94DB054B015C010E94DB05F7
:101F0000681979098A099B09683E73408105910522
:101F100008F0FECEF3CF8F30910519F48BE694E0F4
:101F2000E0CF8D32910519F32CF31092C00210927C
:101F3000BF02E0CF8091A9029091AA02009739F4E4
:101F4000EAE0F0E0F093AA02E093A902EACE60E0B2
:101F5000069764F089E20E940B0561E087E20E9427
:101F60000B0560E085E20E940B05DBCE89E20E9452
:101F70000B0560E0F3CF90E080E0F2CE0E944801D4
:101F8000883C910564F52091B1023091B202C901FB
:101F900001969093B2028093B102809100029091D9
:101FA000010228173907C4F01092B2021092B10250
:101FB0001816190664F401979093010280930002A9
:101FC00082E090E01092B4021092B302CDCE109253
:101FD000010210920002F4CF90E080E0F3CF0E9463
:101FE00048018039914084F52091AF023091B002D0
:101FF000C90101969093B0028093AF0280910002D4
:102000009091010228173907E4F01092B002109263
:10201000AF021816190684F4019790930102809379
:10202000000283E090E01092B4021092B30210928A
:10203000B2021092B1029CCE1092010210920002E4
:10204000F0CF90E080E0EFCF0E94480188359240C9
:1020500044F58091AD029091AE029C012F5F3F4FFD
:102060003093AE022093AD02209100023091010224
:10207000821793079CF01092AE021092AD0284E09A
:1020800090E01092B4021092B3021092B202109239
:10209000B1021092B0021092AF026ECE90E080E0DA
:1020A000F0CF0E9448018032934064F58091AB02EA
:1020B0009091AC029C012F5F3F4F3093AC02209374
:1020C000AB02209100023091010282179307BCF00D
:1020D0001092AC021092AB0285E090E01092B40234
:1020E0001092B3021092B2021092B1021092B0029A
:1020F0001092AF021092AE021092AD0241CE90E06B
:1021000080E0ECCF1093BE020093BD02EFE0F0E060
:10211000F0930102E09300028091B5029091B60223
:10212000AC014F5F5F4F883291050CF00AC25093AB
:10213000B6024093B502F12C60E080E00E946A088C
:102140008091BB029091BC02209111023091120249
:10215000232B09F021C2019721F46DE672E0F11002
:1021600002C067E572E085E294E00E945E066BE5DE
:1021700072E085E294E00E945E064091B7025091C1
:10218000B8026091B9027091BA0221E085E294E050
:102190000E945F0663E672E085E294E00E945E06BC
:1021A00061E080E00E946A0866E672E085E294E001
:1021B0000E945E068091BB029091BC02029709F0DA
:1021C000DBC1FF2009F4D8C16BE672E085E294E040
:1021D0000E945E0620E030E040E251E46091090296
:1021E00070910A0280910B0290910C020BD461E075
:1021F00087FDD0C188E00E946A0861E772E085E24D
:1022000094E00E945E0661E08AE00E946A0861E84C
:1022100072E085E294E00E945E068091BB0290919C
:10222000BC02039709F01BC2FF2009F418C26DE637
:1022300072E085E294E00E945E0664E672E085E268
:1022400094E00E945E068FB7F8944091C3025091CB
:10225000C4026091C5027091C6028FBF8091C7020F
:102260009091C802A091C902B091CA028854944FBB
:10227000AF4FBF4F481759076A077B0708F43CC0A8
:102280004EE050E06DE374E085E092E06CD4892B81
:10229000B9F085E0C82E82E0D82EF12CE12CF601B1
:1022A000B1906F01C701E9D1B81619F06B2DC701C4
:1022B000ECD1FFEFEF1AFF0A2EE0E216F10479F7F6
:1022C0008EE0E5E0F2E0ADE3B4E001900D928A9596
:1022D000E1F72FB7F8948091C3029091C402A091C6
:1022E000C502B091C6022FBF8093C7029093C80267
:1022F000A093C902B093CA020E94E004D8CA8430F5
:10230000910519F1059709F007CF85E090E09093CA
:10231000C0028093BF028091BD029091BE020197DE
:1023200009F0FACE233031053CF42F5F3F4F309354
:10233000BC022093BB0204C01092BC021092BB02EC
:102340001092BE021092BD02E7CEA6E0B0E0B093BC
:10235000C002A093BF028091BD029091BE0201977E
:1023600009F0DACE121613061CF421503109DFCF22
:10237000E3E0F0E0F093BC02E093BB02E1CFA3E026
:10238000B0E0B093C002A093BF028091110290917F
:102390001202892B11F5C0900902D0900A02E09038
:1023A0000B02F0900C022DEC3CEC47EC52E4C70120
:1023B000B601DED118160CF4AFCE2DEC3CEC4CEC93
:1023C0005DE3C701B60170D16093090270930A0200
:1023D00080930B0290930C029FCEC0900D02D09080
:1023E0000E02E0900F02F09010022DEC3CEC47EC56
:1023F00052E4C701B601BCD118160CF48DCE2DECF9
:102400003CEC4CEC5DE3C701B6014ED160930D028C
:1024100070930E0280930F02909310027DCE309342
:10242000C0022093BF02C0900502D0900602E09047
:102430000702F090080226E636E64EE151E4C701B5
:10244000B60196D118160CF467CE2DEC3CEC4CEC92
:102450005DE3C701B60128D16093050270930602BF
:10246000809307029093080257CE2230310569F01D
:102470002330310509F447C02130310509F04CCE35
:102480003092C0022092BF029ECC3092C0022092B5
:10249000BF028091110290911202892BD1F4C09059
:1024A0000902D0900A02E0900B02F0900C022DEC91
:1024B0003CEC4CEC5DE3C701B601A4D218160CF05D
:1024C0002BCE2DEC3CEC4CEC5DE3C701B601EBD020
:1024D0007BCFC0900D02D0900E02E0900F02F090E2
:1024E00010022DEC3CEC4CEC5DE3C701B6018AD246
:1024F00018160CF011CE2DEC3CEC4CEC5DE3C70152
:10250000B601D1D083CF3092C0022092BF02C090DA
:102510000502D0900602E0900702F09008022DEC30
:102520003CEC4CEC5DE3C701B6016CD218160CF024
:10253000F3CD2DEC3CEC4CEC5DE3C701B601B3D020
:102540008BCF9C012E5F3F4F403551053CF43093BB
:10255000B6022093B502FF24F394EECD2235310567
:1025600034F403969093B6028093B502F4CF1092A0
:10257000B6021092B502EFCF4091090250910A02C3
:1025800060910B0270910C0221E085E294E00E94C0
:102590005F0620CE87E02FCE019721F46DE672E032
:1025A000F11002C064E772E085E294E00E945E06EA
:1025B0006BE572E085E294E00E945E064091B7020E
:1025C0005091B8026091B9027091BA0221E085E29F
:1025D00094E00E945F0663E672E085E294E00E9468
:1025E0005E0661E080E00E946A0868E772E085E2CA
:1025F00094E00E945E068091BB029091BC0202971B
:10260000F1F4FF20E1F06CE672E085E294E00E94D4
:102610005E0620E030E040E251E460910D027091EE
:102620000E0280910F0290911002ECD161E087FDC3
:1026300014C089E00E946A086EE772E0E0CD409124
:102640000D0250910E0260910F027091100221E074
:1026500085E294E00E945F06DCCF88E0EBCF4091FA
:10266000050250910602609107027091080221E074
:1026700085E294E00E945F06E0CDF999FECF92BD1D
:1026800081BDF89A992780B50895262FF999FECF34
:102690001FBA92BD81BD20BD0FB6F894FA9AF99A7F
:1026A0000FBE019608955058BB27AA270ED070C1BF
:1026B00061D130F066D120F031F49F3F11F41EF467
:1026C00056C10EF4E095E7FB4CC1E92F72D180F3BF
:1026D000BA17620773078407950718F071F49EF51F
:1026E0008AC10EF4E0950B2EBA2FA02D0B01B90173
:1026F00090010C01CA01A0011124FF27591B99F078
:10270000593F50F4503E68F11A16F040A22F232F83
:10271000342F4427585FF3CF469537952795A795D3
:10272000F0405395C9F77EF41F16BA0B620B730B7A
:10273000840BBAF09150A1F0FF0FBB1F661F771FEB
:10274000881FC2F70EC0BA0F621F731F841F48F4A0
:10275000879577956795B795F7959E3F08F0B3CF26
:102760009395880F08F09927EE0F97958795089510
:10277000D4D008F481E008950CD00AC102D140F011
:10278000F9D030F021F45F3F19F0EBC0511134C1A2
:10279000EEC00FD198F39923C9F35523B1F3951BDC
:1027A000550BBB27AA2762177307840738F09F5F72
:1027B0005F4F220F331F441FAA1FA9F333D00E2EE1
:1027C0003AF0E0E830D091505040E695001CCAF74E
:1027D00029D0FE2F27D0660F771F881FBB1F261713
:1027E00037074807AB07B0E809F0BB0B802DBF01E6
:1027F000FF2793585F4F2AF09E3F510568F0B1C004
:10280000FBC05F3FECF3983EDCF3869577956795C8
:10281000B795F7959F5FC9F7880F911D9695879596
:1028200097F90895E1E0660F771F881FBB1F6217B5
:1028300073078407BA0720F0621B730B840BBA0B73
:10284000EE1F88F7E0950895BCD088F09F5790F070
:10285000B92F9927B751A0F0D1F0660F771F881FC5
:10286000991F1AF0BA95C9F712C0B13081F0C3D0E0
:10287000B1E00895C0C0672F782F8827B85F39F07E
:10288000B93FCCF3869577956795B395D9F73EF424
:1028900090958095709561957F4F8F4F9F4F0895CC
:1028A000E89409C097FB3EF49095809570956195EA
:1028B0007F4F8F4F9F4F9923A9F0F92F96E9BB27A0
:1028C0009395F695879577956795B795F111F8CF1C
:1028D000FAF4BB0F11F460FF1BC06F5F7F4F8F4F87
:1028E0009F4F16C0882311F096E911C0772321F07D
:1028F0009EE8872F762F05C0662371F096E8862F15
:1029000070E060E02AF09A95660F771F881FDAF76B
:10291000880F9695879597F90895990F0008550F98
:10292000AA0BE0E8FEEF16161706E807F907C0F055
:1029300012161306E407F50798F0621B730B840B5D
:10294000950B39F40A2661F0232B242B252B21F437
:1029500008950A2609F4A140A6958FEF811D811DD7
:10296000089597F99F6780E870E060E008959FEF11
:1029700080EC089500240A94161617061806090616
:10298000089500240A9412161306140605060895E5
:10299000092E0394000C11F4882352F0BB0F40F46D
:1029A000BF2B11F460FF04C06F5F7F4F8F4F9F4FAD
:1029B000089557FD9058440F551F59F05F3F71F02F
:1029C0004795880F97FB991F61F09F3F79F0879596
:1029D0000895121613061406551FF2CF4695F1DF1F
:1029E00008C0161617061806991FF1CF86957105AF
:1029F000610508940895E894BB2766277727CB01E3
:102A000097F908958ADF08F48FEF08950BD0C0CFAF
:102A1000B1DF28F0B6DF18F0952309F0A2CFA7CFD9
:102A20001124EACFC6DFA0F3959FD1F3950F50E0B4
:102A3000551F629FF001729FBB27F00DB11D639F70
:102A4000AA27F00DB11DAA1F649F6627B00DA11D16
:102A5000661F829F2227B00DA11D621F739FB00DBC
:102A6000A11D621F839FA00D611D221F749F33272C
:102A7000A00D611D231F849F600D211D822F762FC5
:102A80006A2F11249F5750408AF0E1F088234AF0C2
:102A9000EE0FFF1FBB1F661F771F881F915050400E
:102AA000A9F79E3F510570F05CCFA6CF5F3FECF3D6
:102AB000983EDCF3869577956795B795F795E795FA
:102AC0009F5FC1F7FE2B880F911D9695879597F90B
:102AD000089523DF880B990B0895A1E21A2EAA1BF3
:102AE000BB1BFD010DC0AA1FBB1FEE1FFF1FA217BE
:102AF000B307E407F50720F0A21BB30BE40BF50BBB
:102B0000661F771F881F991F1A9469F76095709543
:102B1000809590959B01AC01BD01CF010895052ED4
:102B200097FB16F400940FD057FD05D0D6DF07FCB5
:102B300002D046F408C050954095309521953F4FFE
:102B40004F4F5F4F089590958095709561957F4F99
:102B50008F4F9F4F0895EE0FFF1F881F8BBF079069
:102B6000F691E02D1994FB01DC0104C08D910190D8
:102B7000801921F441505040C8F7881B990B0895E3
:042B8000F894FFCFF7
:102B84000F00FFFFFF0000003F0000404100006015
:102B9400400100FFFFFFFF000000007504D703049D
:102BA40004C104350413042704000000007808D786
:102BB40003010600066E616E00696E66006F76663C
:102BC40000536574506F696E743A002054656E73D7
:102BD400616F3A000D0A0028412900204152434FF9
:102BE4003A20002056005265663A0020202020201A
:102BF4000056200028422900744573743A0073205B
:042C0400002B2D0074
:020000023000CC
:10E000000D9489F10D94B2F10D94B2F10D94B2F129
:10E010000D94B2F10D94B2F10D94B2F10D94B2F1F0
:10E020000D94B2F10D94B2F10D94B2F10D94B2F1E0
:10E030000D94B2F10D94B2F10D94B2F10D94B2F1D0
:10E040000D94B2F10D94B2F10D94B2F10D94B2F1C0
:10E050000D94B2F10D94B2F10D94B2F10D94B2F1B0
:10E060000D94B2F10D94B2F10D94B2F10D94B2F1A0
:10E070000D94B2F10D94B2F10D94B2F10D94B2F190
:10E080000D94B2F10D94B2F10D94B2F10D94B2F180
:10E090000D94B2F10D94B2F10D94B2F10D94B2F170
:10E0A0000D94B2F10D94B2F10D94B2F10D94B2F160
:10E0B0000D94B2F10D94B2F10D94B2F10D94B2F150
:10E0C0000D94B2F10D94B2F10D94B2F10D94B2F140
:10E0D0000D94B2F10D94B2F10D94B2F10D94B2F130
:10E0E0000D94B2F141546D656761323536300041AF
:10E0F000726475696E6F206578706C6F72657220DE
:10E1000073746B3530305632206279204D4C530099
:10E11000426F6F746C6F616465723E004875683F52
:10E1200000436F6D70696C6564206F6E203D200048
:10E130004350552054797065202020203D20005FF9
:10E140005F4156525F415243485F5F3D2000415658
:10E1500052204C696243205665723D20004743437C
:10E160002056657273696F6E203D20004350552024
:10E1700049442020202020203D20004C6F7720663D
:10E18000757365202020203D20004869676820665F
:10E190007573652020203D200045787420667573D6
:10E1A00065202020203D20004C6F636B2066757336
:10E1B000652020203D20004D617220203720323024
:10E1C000313300312E362E3800342E332E350056A2
:10E1D00023202020414444522020206F7020636F70
:10E1E00064652020202020696E73747275637469E1
:10E1F0006F6E2061646472202020496E74657272B3
:10E20000757074006E6F20766563746F7200726A49
:10E210006D702020006A6D70200057686174207056
:10E220006F72743A00506F7274206E6F7420737541
:10E2300070706F72746564004D7573742062652030
:10E2400061206C6574746572002000577269747483
:10E25000696E672045450052656164696E672045B7
:10E26000450045452065727220636E743D00504F35
:10E27000525400303D5A65726F2061646472003FF1
:10E280003D43505520737461747300403D454550C3
:10E29000524F4D207465737400423D426C696E6B41
:10E2A000204C454400453D44756D70204545505215
:10E2B0004F4D00463D44756D7020464C415348001B
:10E2C000483D48656C70004C3D4C69737420492F83
:10E2D0004F20506F72747300513D51756974005234
:10E2E0003D44756D702052414D00563D73686F7707
:10E2F00020696E7465727275707420566563746FF0
:10E30000727300593D506F727420626C696E6B00BD
:10E310002A0011241FBECFEFD1E2DEBFCDBF01E046
:10E320000CBF12E0A0E0B2E0EEE1FDEF03E00BBFB6
:10E3300002C007900D92A030B107D9F712E0A0E01B
:10E34000B2E001C01D92AE30B107E1F70F9460F367
:10E350000D948DFE01E20EBF0FEF0DBF11241FBE05
:10E360000D9460F30D9400F020E030E040ED57E0B4
:10E3700005C0FA013197F1F72F5F3F4F2817390792
:10E38000C0F308959C01260F311DC901A0E0B0E043
:10E390002F5F3F4FABBFFC018791882361F08093D3
:10E3A000C6008091C00086FFFCCF8091C0008064D1
:10E3B0008093C000EACF08958DE08093C6008091DD
:10E3C000C00086FFFCCF8091C00080648093C000B5
:10E3D0008AE08093C6008091C00086FFFCCF8091C8
:10E3E000C00080648093C00008950F94C2F10F9420
:10E3F000DCF10895FC019081992359F09093C600B7
:10E400008091C00086FFFCCF8091C0008064809323
:10E41000C0003196992379F70895282F982F929567
:10E420009F70892F805D8A3308F0895F8093C600D2
:10E430008091C00086FFFCCF8091C00080648093F3
:10E44000C000822F8F70982F905D9A3308F0995FEB
:10E450009093C6008091C00086FFFCCF8091C000E1
:10E4600080648093C00008959C01FB01853691056E
:10E470001CF46330710594F0C90164E670E00F94F8
:10E480002EFE605D7F4F6093C6008091C00086FFC6
:10E49000FCCF8091C00080648093C0002B30310598
:10E4A00014F43297B4F0C90164E670E00F942EFEC4
:10E4B0006AE070E00F942EFE605D7F4F6093C600AF
:10E4C0008091C00086FFFCCF8091C0008064809363
:10E4D000C000C9016AE070E00F942EFEC0968093E0
:10E4E000C6008091C00086FFFCCF8091C000806490
:10E4F0008093C00008951F93182F8EE692EE60E07F
:10E500000F94C2F11093C6008091C00086FFFCCF2B
:10E510008091C00080648093C0000F94DCF11F9153
:10E5200008952F923F924F925F926F927F928F92B7
:10E530009F92AF92BF92CF92DF92EF92FF920F9392
:10E540001F93DF93CF93CDB7DEB762970FB6F894E2
:10E55000DEBF0FBECDBF382E622ECA01DB015C01CB
:10E560006D01772420E2222E2E010894411C511CBB
:10E570008BC081E0A81680E0B80681E0C80680E084
:10E58000D80628F0C601AA27BB270F940DF2BB2797
:10E59000AD2D9C2D8B2D0F940DF28A2D0F940DF225
:10E5A0002092C6008091C00086FFFCCF8091C00001
:10E5B00080648093C0009DE29093C6008091C0006B
:10E5C00086FFFCCF8091C00080648093C0002092C1
:10E5D000C6008091C00086FFFCCF8091C00080649F
:10E5E0008093C00019828601750188249924A1E0D6
:10E5F0003A1651F03A1620F0B2E03B1661F409C029
:10E600000BBFF701779007C0C7010F9477FE782EF4
:10E6100002C0F7017080872D0F940DF22092C60082
:10E620008091C00086FFFCCF8091C0008064809301
:10E63000C000872D8052F401EF70F0708F3520F408
:10E64000E40DF51D708204C0E40DF51D8EE280839B
:10E650000894E11CF11C011D111D0894811C911CE2
:10E6600090E18916910409F0C2CF80E190E0A0E02A
:10E67000B0E0A80EB91ECA1EDB1E198AC2010F9493
:10E68000FAF10F94DCF16A94662009F072CF629679
:10E690000FB6F894DEBF0FBECDBFCF91DF911F91B3
:10E6A0000F91FF90EF90DF90CF90BF90AF909F9031
:10E6B0008F907F906F905F904F903F902F90089534
:10E6C0002F923F924F925F926F927F928F929F9282
:10E6D000AF92BF92CF92DF92EF92FF920F931F9370
:10E6E000DF93CF93CDB7DEB7CD53D1400FB6F894BB
:10E6F000DEBF0FBECDBF01E20EBF0FEF0DBF94B75F
:10E70000F894A89514BE80916000886180936000A1
:10E7100010926000789493FF05C0E0910002F091A0
:10E7200001021995279A2F9A8091C00082608093E8
:10E73000C00080E18093C40088E18093C1000000A4
:10E74000EE24FF24870144E0A42EB12CCC24DD2448
:10E7500024C0C5010197F1F70894E11CF11C011DCB
:10E76000111D21E2E2162EE4F20620E0020720E06D
:10E77000120718F031E0C32ED12CC801B70127ECE5
:10E780003BE140E050E00F9441FE611571058105C9
:10E79000910519F485B1805885B98091C00087FD35
:10E7A00003C0C114D104A9F2A6014F5F5F4FC25E3E
:10E7B000DE4F59834883CE51D140C25EDE4F8881FF
:10E7C0009981CE51D140019711F00D9410FEC05D9A
:10E7D000DE4F19821882C053D14060E0C15DDE4F28
:10E7E0001882CF52D14088249924C35DDE4F19820C
:10E7F0001882CD52D140C05EDE4F188219821A8233
:10E800001B82C052D140CE5CDE4F188219821A8220
:10E810001B82C253D140EE24FF2487010BBFF701B6
:10E8200007911691C45CDE4F19830883CC53D14005
:10E830000D940BFEC25EDE4F28813981CE51D1404E
:10E840002130310509F52091C600C25EDE4F1982E4
:10E850001882CE51D14022C02F5F3F4F4F4F5F4FA4
:10E86000213082E138078AE7480780E0580780F0C6
:10E87000C45CDE4FE881F981CC53D140EF5FFF4F9C
:10E8800019F0EE27FF27099420E030E040E050E047
:10E890008091C00087FFE0CF2091C600C35DDE4FAE
:10E8A00048815981CD52D1404F5F5F4FC35DDE4FEC
:10E8B00059834883CD52D140213209F063C64A3092
:10E8C000510508F05FC60894811C911C53E0851621
:10E8D000910409F059C600E010E018C081E280936D
:10E8E000C6008091C00086FFFCCF8091C00080648C
:10E8F0008093C0002F5F3F4F2931310579F70F9486
:10E90000DCF10F5F1F4F0530110519F020E030E0FA
:10E91000E5CF10920A0210920B0210920C02109294
:10E920000D02109206021092070210920802109235
:10E930000902109202021092030210920402109235
:10E9400005028FEE90EE60E00F94F5F180E191EE1C
:10E9500060E00F94C2F18091C00087FFFCCF9091DE
:10E96000C600903608F09F759032B8F09093C600BC
:10E970008091C00086FFFCCF8091C00080648093AE
:10E98000C000A0E2A093C6008091C00086FFFCCF2B
:10E990008091C00080648093C000983409F4D7C18E
:10E9A0009934B8F4923409F459C1933458F490333B
:10E9B00019F1903308F4E3C59F33A1F1903409F0C5
:10E9C000DEC5BDC0953409F470C1963409F0D7C5D1
:10E9D00098C1923509F42BC2933538F49C3409F46C
:10E9E000F5C1913509F0CBC518C2963509F445C279
:10E9F000993509F0C4C567C483E792EE62E00F94CD
:10EA0000F5F110920602109207021092080210927D
:10EA1000090210920A0210920B0210920C0210923C
:10EA20000D0213C18FE792EE62E00F94F5F18FEEC5
:10EA300090EE60E00F94F5F181E291EE60E00F94CA
:10EA4000C2F187EB91EE60E00F94F5F180E391EE77
:10EA500060E00F94C2F184EE90EE60E00F94F5F167
:10EA60008FE391EE60E00F94C2F186E090E061E008
:10EA700070E00F9434F20F94DCF18DE591EE60E0DC
:10EA80000F94C2F189EC91EE60E00F94F5F18EE401
:10EA900091EE60E00F94C2F183EC91EE60E00F9490
:10EAA000F5F18CE691EE60E00F94C2F18EE10F94E7
:10EAB0000DF288E90F940DF281E00F940DF20F949E
:10EAC000DCF18BE791EE60E00F94C2F119E0E0E039
:10EAD000F0E010935700E4918E2F0F940DF20F94F5
:10EAE000DCF18AE891EE60E00F94C2F1E3E0F0E03F
:10EAF00010935700E4918E2F0F940DF20F94DCF1D8
:10EB000089E991EE60E00F94C2F1E2E0F0E0109349
:10EB10005700E4918E2F0F940DF20F94DCF188EAE8
:10EB200091EE60E00F94C2F1E1E0F0E01093570045
:10EB30001491812F0F940DF20F94DCF107CF8BE825
:10EB400092EE62E00F94F5F18BE492EE60E00F94A8
:10EB5000F5F10F94DCF100E010E019C0C8016F2D51
:10EB60000F947FFEFF2031F489E492EE60E00F9471
:10EB7000C2F10BC0F092C6008091C00086FFFCCFAE
:10EB80008091C00080648093C0000F5F1F4FC80158
:10EB900081519F41A0E0B0E0ABBFFC01F790BAE229
:10EBA000FB1621F0E2E000301E07C1F60F94DCF105
:10EBB0000F94DCF187E592EE60E00F94F5F10F948D
:10EBC000DCF1CC24DD2400E010E01EC0C8010F946D
:10EBD00077FEF82E882331F489E492EE60E00F94FA
:10EBE000C2F10BC08093C6008091C00086FFFCCFAD
:10EBF0008091C00080648093C000FE1419F00894D6
:10EC0000C11CD11C0F5F1F4FC80181519F41A0E063
:10EC1000B0E0ABBFFC01E790FAE2EF1621F022E092
:10EC20000030120799F60F94DCF10F94DCF182E6C4
:10EC300092EE60E00F94C2F1C60161E070E00F94C3
:10EC400034F20F94DCF10F94DCF110920202109276
:10EC50000302109204021092050278CE89E992EE26
:10EC600062E00F94F5F1279A2F9A16C02F9880E052
:10EC700090E0E0EDF7E03197F1F7019684369105E9
:10EC8000C1F72F9A80E090E0E0EDF7E03197F1F7DF
:10EC9000019684369105C1F78091C00087FFE6CFC9
:10ECA0008091C00087FFFCCF64C485EA92EE62E0E9
:10ECB0000F94F5F140910202509103026091040219
:10ECC0007091050281E020E10F9491F2809102029F
:10ECD00090910302A0910402B091050280509F4FD1
:10ECE000AF4FBF4F8093020290930302A0930402A0
:10ECF000B093050280509041A040B04008F426CE69
:10ED0000A4CF83EB92EE62E00F94F5F140910602FE
:10ED100050910702609108027091090280E020E1A1
:10ED20000F9491F28091060290910702A09108023F
:10ED3000B091090280509F4FAF4FBF4F80930602A2
:10ED400090930702A0930802B0930902FFCD80ECD4
:10ED500092EE62E00F94F5F183E792EE60E00F949B
:10ED6000F5F18FE792EE60E00F94F5F18BE892EE0B
:10ED700060E00F94F5F189E992EE60E00F94F5F10F
:10ED800085EA92EE60E00F94F5F183EB92EE60E09D
:10ED90000F94F5F180EC92EE60E00F94F5F187ECC2
:10EDA00092EE60E00F94F5F188ED92EE60E00F9442
:10EDB000F5F18FED92EE60E00F94F5F18AEE92EEB0
:10EDC00060E00F94F5F183E093EEBDCD87EC92EE19
:10EDD00062E00F94F5F181E40F947BF282E40F94EA
:10EDE0007BF283E40F947BF284E40F947BF285E45E
:10EDF0000F947BF286E40F947BF287E40F947BF20E
:10EE000088E40F947BF28AE40F947BF28BE40F94F6
:10EE10007BF28CE40F947BF299CD88ED92EE62E068
:10EE20000F94F5F1772473948824992409C48FED05
:10EE300092EE62E00F94F5F140910A0250910B02BC
:10EE400060910C0270910D0282E020E10F9491F22A
:10EE500080910A0290910B02A0910C02B0910D02D8
:10EE600080509F4FAF4FBF4F80930A0290930B0289
:10EE7000A0930C02B0930D0269CD8AEE92EE62E08F
:10EE80000F94F5F184EE90EE60E00F94F5F18FECC5
:10EE900091EE60E00F94F5F1662477244301CC5D98
:10EEA000DE4F19821882C452D140D401C301B695F5
:10EEB000A79597958795CA5DDE4F88839983AA8326
:10EEC000BB83C652D140CC5DDE4FA881B981C4520C
:10EED000D1401196CC5DDE4FB983A883C452D14096
:10EEE000CD0162E070E00F9434F2B0E2B093C6005E
:10EEF0008091C00086FFFCCF8091C0008064809329
:10EF0000C000EDE2E093C6008091C00086FFFCCF18
:10EF10008091C00080648093C000F0E2F093C6004E
:10EF20008091C00086FFFCCF8091C00080648093F8
:10EF3000C000CA5DDE4FE880F9800A811B81C6529D
:10EF4000D140BB27A12F902F8F2D0F940DF2CA5DBA
:10EF5000DE4F8881C652D1400F940DF2B0E2FB2EF5
:10EF6000F092C6008091C00086FFFCCF8091C00067
:10EF700080648093C0000DE30093C6008091C000C0
:10EF800086FFFCCF8091C00080648093C00010E2B7
:10EF90001093C6008091C00086FFFCCF8091C00016
:10EFA00080648093C0008BBEF3012791C65DDE4F65
:10EFB0002883CA52D140A22EBB24CC24DD2408943D
:10EFC000611C711C811C911C8BBEF3018791282E42
:10EFD0003324442455240894611C711C811C911C09
:10EFE0008BBEF3013791C55DDE4F3883CB52D140E4
:10EFF0000894611C711C811C911C8BBEF30147910C
:10F00000C45DDE4F4883CC52D140ADEFEA2EAFEF66
:10F01000FA2EAFEF0A2FAFEF1A2F6E0C7F1C801E57
:10F02000911E142D032DF22CEE24EA0CFB1C0C1D5A
:10F030001D1D0F940DF220E22093C6008091C000A8
:10F0400086FFFCCF8091C00080648093C000C65DC5
:10F05000DE4F8881CA52D1400F940DF230E23093D6
:10F06000C6008091C00086FFFCCF8091C000806404
:10F070008093C000C45DDE4F8881CC52D1400F9494
:10F080000DF240E24093C6008091C00086FFFCCFA5
:10F090008091C00080648093C000C55DDE4F888190
:10F0A000CB52D1400F940DF250E25093C6008091A4
:10F0B000C00086FFFCCF8091C00080648093C000B8
:10F0C0008FEFE8168FEFF80680E0080780E018075A
:10F0D00031F484E092EE60E00F94C2F1DFC0D80119
:10F0E000C7018070907CA070B0708050904CA040A0
:10F0F000B040D1F52FEF3FE340E050E0E222F322B1
:10F1000004231523CA5DDE4FA880B980CA80DB8046
:10F11000C652D140AE0CBF1CC01ED11EAA0CBB1CD7
:10F12000CC1CDD1C8EE092EE60E00F94C2F1BB2798
:10F13000A12F902F8F2D0F940DF28E2D0F940DF285
:10F1400030E23093C6008091C00086FFFCCF8091F2
:10F15000C00080648093C0004EE34093C60080915D
:10F16000C00086FFFCCF87C08EE09EEFA0E0B0E03D
:10F17000E822F9220A231B239CE0E91694E9F90608
:10F1800090E0090790E0190709F088C0C45DDE4FE0
:10F19000A881CC52D140EA2EFF2400E010E0102FCD
:10F1A0000F2DFE2CEE24C55DDE4FB881CB52D14031
:10F1B000EB0EF11C011D111DD601C501817090706F
:10F1C000A070B070DC0199278827E80EF91E0A1F8D
:10F1D0001B1F20EF30E040E050E0A222B322C42207
:10F1E000D52241E1AA0CBB1CCC1CDD1C4A95D1F7F1
:10F1F000EA0CFB1C0C1D1D1D81E090E0A0E0B0E0BE
:10F20000282239224A225B2235E1220C331C441C7D
:10F21000551C3A95D1F7E20CF31C041D151D57013E
:10F220006801AA0CBB1CCC1CDD1C85E192EE60E0E1
:10F230000F94C2F1C801AA27BB270F940DF2BB2778
:10F24000A12F902F8F2D0F940DF28E2D0F940DF274
:10F2500090E29093C6008091C00086FFFCCF809121
:10F26000C00080648093C000AEE3A093C60080918C
:10F27000C00086FFFCCF8091C00080648093C000F6
:10F28000C601AA27BB270F940DF2BB27AD2D9C2DDD
:10F290008B2D0F940DF28A2D0F940DF20F94DCF14B
:10F2A000CC5DDE4FE881F981C452D140F99709F471
:10F2B0004DCBF4E0EF2EF12C012D112D6E0C7F1CA7
:10F2C000801E911EF2CD83E093EE62E00F94F5F183
:10F2D0008AE192EE60E00F94C2F18091C00087FF56
:10F2E000FCCF1091C6001F751093C6008091C0001E
:10F2F00086FFFCCF8091C00080648093C0000F9493
:10F30000DCF1812F81548A3108F036C1163409F4BA
:10F3100095C0173490F4133409F44EC0143430F40B
:10F320001134F1F0123409F01DC130C0143409F465
:10F3300059C0153409F016C16BC01A3409F4C4C0A1
:10F340001B3438F4173409F48FC0183409F00AC19B
:10F35000A1C01B3409F4D2C01C3409F003C1E8C0B9
:10F360008FEF81B90DC082B1809582B980E090E0C5
:10F37000E0EDF7E03197F1F70196883C9105C1F790
:10F380008091C00087FFEFCF12B8EFC08FEF84B934
:10F390000DC085B1809585B980E090E0E0EDF7E0A3
:10F3A0003197F1F70196883C9105C1F78091C00033
:10F3B00087FFEFCF15B8D9C08FEF87B90DC088B1DF
:10F3C000809588B980E090E0E0EDF7E03197F1F7C3
:10F3D0000196883C9105C1F78091C00087FFEFCF6F
:10F3E00018B8C3C08FEF8AB90DC08BB180958BB9A7
:10F3F00080E090E0E0EDF7E03197F1F70196883C8E
:10F400009105C1F78091C00087FFEFCF1BB8ADC059
:10F410008FEF8DB90DC08EB180958EB980E090E0F0
:10F42000E0EDF7E03197F1F70196883C9105C1F7DF
:10F430008091C00087FFEFCF1EB897C08FEF80BBD1
:10F440000DC081B3809581BB80E090E0E0EDF7E0F6
:10F450003197F1F70196883C9105C1F78091C00082
:10F4600087FFEFCF11BA81C08FEF83BB0DC084B38C
:10F47000809584BB80E090E0E0EDF7E03197F1F714
:10F480000196883C9105C1F78091C00087FFEFCFBE
:10F4900014BA6BC08FEF809301010FC080910201FD
:10F4A00080958093020180E090E0E0EDF7E03197F5
:10F4B000F1F70196883C9105C1F78091C00087FF64
:10F4C000EDCF1092020151C08FEF809304010FC065
:10F4D0008091050180958093050180E090E0E0ED4A
:10F4E000F7E03197F1F70196883C9105C1F78091DB
:10F4F000C00087FFEDCF1092050137C08FEF8093DA
:10F5000007010FC08091080180958093080180E079
:10F5100090E0E0EDF7E03197F1F70196883C910536
:10F52000C1F78091C00087FFEDCF109208011DC088
:10F530008FEF80930A010FC080910B01809580931B
:10F540000B0180E090E0E0EDF7E03197F1F70196F4
:10F55000883C9105C1F78091C00087FFEDCF1092E4
:10F560000B0103C085E292EEEEC98091C00087FFD7
:10F57000FCCF8091C600EAC988E392EEE4C98CE131
:10F5800091EEE1C988249924933011F1943028F444
:10F59000913089F09230B8F408C0953061F195301F
:10F5A000F0F0963009F048C043C02B3109F042C951
:10F5B00091E06BE13FC96227C15DDE4F2883CF52E6
:10F5C000D14092E037C9B22FA0E0622793E032C960
:10F5D000822F90E0A82BB92B622794E02BC92E3004
:10F5E00009F039C3622795E0C05DDE4F19821882A9
:10F5F000C053D1401FC9E1E0F0E0EC0FFD1FC05D3A
:10F60000DE4F08811981C053D140E00FF11F2083E4
:10F610000F5F1F4FC05DDE4F19830883C053D14079
:10F6200062270A171B0709F005C9D80196E002C92D
:10F63000261709F010C303C0973009F0FBC87724E0
:10F640009981933109F412C19431C8F4963009F4C8
:10F65000D8C0973050F4923009F406C1933009F4C1
:10F660006DC0913009F059C253C0913109F477C08F
:10F67000923108F0BBC0903109F04FC2F5C098310B
:10F6800009F487C0993150F4953109F4EFC09531F0
:10F6900008F4C6C1963109F040C2C2C19A3109F4DA
:10F6A0006CC09A3108F491C09B3109F45BC09D3164
:10F6B00009F033C29D81903359F48F81882311F46E
:10F6C0009EE11CC0813011F091E018C098E916C08D
:10F6D000892F807591F0903539F4E0E0F0E089E011
:10F6E0008093570094910AC0983539F4E3E0F0E034
:10F6F00089E080935700949101C090E01A821B82A8
:10F700008D818C831D829E831F8227E030E009C299
:10F710001A8288E08B8381E48C8386E58D8382E581
:10F720008E8389E48F8383E5888780E589878FE5E9
:10F730008A8782E38B872BE030E0F3C18A818139AD
:10F7400041F0823941F0803911F48FE005C080E04A
:10F7500003C082E001C08AE01A828B8344C0772410
:10F76000739482C08D81882311F48EE12CC0813086
:10F7700011F081E028C088E926C01A82E1E0F0E0BB
:10F7800089E08093570084918B831C8224E030E0D1
:10F79000C8C18B81803589F48C81883039F4E2E0EE
:10F7A000F0E089E08093570084910DC0E0E0F0E044
:10F7B00089E080935700849106C0E3E0F0E089E09F
:10F7C0008093570084911A82DFCF8D81836C99E0FA
:10F7D000E1E0F0E0082E90935700E89507B600FCB2
:10F7E000FDCF1A821B8223E030E09BC180EC8A832C
:10F7F000CE5CDE4F188219821A821B82C253D1401E
:10F800008EC18A8190E0A0E0B0E0582F44273327D2
:10F8100022278B8190E0A0E0B0E0DC0199278827C7
:10F82000282B392B4A2B5B2B8D8190E0A0E0B0E098
:10F83000282B392B4A2B5B2B8C8190E0A0E0B0E089
:10F84000BA2FA92F982F8827282B392B4A2B5B2BCF
:10F85000220F331F441F551FC05EDE4F288339839C
:10F860004A835B83C052D1401A8259C13A81C95C34
:10F87000DE4F3883C753D140CA5CDE4F1882C6536F
:10F88000D1408B81C82EDD24CA5CDE4F488159816E
:10F89000C653D140C42AD52A933109F082C0CE5C28
:10F8A000DE4F88819981AA81BB81C253D1408050AB
:10F8B000904CA340B04030F583E0CE5CDE4FE88052
:10F8C000F9800A811B81C253D140F70100935B008C
:10F8D00080935700E89507B600FCFDCFCE5CDE4F65
:10F8E000088119812A813B81C253D14000501F4FAA
:10F8F0002F4F3F4FCE5CDE4F088319832A833B8313
:10F90000C253D140C05EDE4F488159816A817B81FC
:10F91000C052D140DE011B9631E08C9111962C91A2
:10F9200011971296C75CDE4F2883C953D140C85C3B
:10F93000DE4F1882C853D14090E0C85CDE4FE881AA
:10F94000F981C853D1408E2B9F2B0C01FA01609393
:10F950005B0030935700E89511244E5F5F4F6F4F67
:10F960007F4F0EEFE02E0FEFF02ECE0CDF1CC114F8
:10F97000D10499F685E0C05EDE4F088119812A81A5
:10F980003B81C052D140F80120935B008093570027
:10F99000E89507B600FCFDCF81E180935700E8951C
:10F9A00035C0C05EDE4F88819981AA81BB81C0527B
:10F9B000D140B695A795979587957C018601ABE0D8
:10F9C000AA2EB12CAC0EBD1E0BC0D5016D915D01F0
:10F9D000C7010F947FFE0894E11CF11C01501040F8
:10F9E0000115110591F7A60160E070E0440F551F65
:10F9F000661F771FC05EDE4FE880F9800A811B8199
:10FA0000C052D1404E0D5F1D601F711F1A82C05E33
:10FA1000DE4F488359836A837B83C052D1407FC0C5
:10FA2000FA80C55CDE4FF882CB53D140C65CDE4F16
:10FA30001882CA53D1408B81C82EDD24C65CDE4FAC
:10FA400008811981CA53D140C02AD12A1A828981DA
:10FA5000BE016D5F7F4F843121F59601C05EDE4FA0
:10FA6000E880F9800A811B81C052D1400BBFF701A9
:10FA700087919691DB018C9311969C936E5F7F4FDB
:10FA8000D801C7010296A11DB11DC05EDE4F88835B
:10FA90009983AA83BB83C052D14022503040F1F6F3
:10FAA00036C0C05EDE4F288139814A815B81C052F9
:10FAB000D1400894C108D108760100E010E0089414
:10FAC000C11CD11C0894E11CF11C011D111DE20E8A
:10FAD000F31E041F151F21BDBB27A52F942F832FB5
:10FAE00082BD2F5F3F4F4F4F5F4FF89A80B5DB01CC
:10FAF0008D93BD012E153F054007510761F7C05E8C
:10FB0000DE4F288339834A835B83C052D1409601FC
:10FB10002D5F3F4FFB01108204C080EC8A8322E0FE
:10FB200030E08BE18093C6008091C00086FFFCCF5F
:10FB30008091C00080648093C000C15DDE4FF88179
:10FB4000CF52D140F093C6008091C00086FFFCCF19
:10FB50008091C00080648093C000432F3093C60022
:10FB60008091C00086FFFCCF8091C00080648093AC
:10FB7000C000922F2093C6008091C00086FFFCCF6A
:10FB80008091C00080648093C0008EE08093C600A6
:10FB90008091C00086FFFCCF8091C000806480937C
:10FBA000C00065E1C15DDE4FE880CF52D1406E25D7
:10FBB00069276427FE01319610C090819093C6009A
:10FBC0008091C00086FFFCCF31968091C000806498
:10FBD0008093C0006927215030402115310569F715
:10FBE0006093C6008091C00086FFFCCF8091C0006A
:10FBF00080648093C00085B1805885B9772081F4F6
:10FC0000C15DDE4F0881CF52D1400F5FC15DDE4F35
:10FC10000883CF52D14090E0A0E0B0E00D941AF4F8
:10FC200027982F9880E090E020ED37E0F901319798
:10FC3000F1F7019684369105C9F700008091C00064
:10FC40008D7F8093C00081E180935700E895EE2777
:10FC5000FF270994FFCF90E00D941AF497FB092E2B
:10FC600007260AD077FD04D02ED006D000201AF443
:10FC7000709561957F4F0895F6F7909581959F4F08
:10FC80000895A1E21A2EAA1BBB1BFD010DC0AA1FDD
:10FC9000BB1FEE1FFF1FA217B307E407F50720F0F5
:10FCA000A21BB30BE40BF50B661F771F881F991F70
:10FCB0001A9469F760957095809590959B01AC01B9
:10FCC000BD01CF010895AA1BBB1B51E107C0AA1FAC
:10FCD000BB1FA617B70710F0A61BB70B881F991FED
:10FCE0005A95A9F780959095BC01CD010895F99991
:10FCF000FECF92BD81BDF89A992780B50895262F31
:10FD0000F999FECF1FBA92BD81BD20BD0FB6F89400
:0EFD1000FA9AF99A0FBE01960895F894FFCF63
:040000033000E000E9
:00000001FF